:100000000C9442010C94F00B0C94C50B0C949A0BBD
:100010000C946F0B0C94440B0C94190B0C94EE0A7B
:100020000C94C30A0C9473010C9473010C94730127
:100030000C9473010C9473010C9473010C94730170
:100040000C9473010C9473010C9473010C94730160
:100050000C9473010C9473010C9473010C94790A41
:100060000C9473010C94450C0C941B0C0C947301B0
:100070000C9473010C9473010C9473010C94730130
:100080000C9473010C9473010C9473010C94730120
:100090000C9473010C9473010C9473010C94730110
:1000A0000C9473010C9473010C9473010C94730100
:1000B0000C9473010C9473010C9473010C947301F0
:1000C0000C9473010C9473010C9473010C947301E0
:1000D0000C9473010C9473010C9473010C947301D0
:1000E0000C9473010C94C1010C94DC010C94BF04BA
:1000F0000C9406020C94EA010C9402020C946B0618
:100100000C94D3010C94E0010C942D130C94F80181
:100110000C94C7010C94CF010C94FC010C94F904CD
:100120000C94F4010C948C050C94D6010C94CB0126
:100130000C94E6010C94DD050C94D6040C9489040F
:100140000C94DE050C9488040C94EE010C94E504E8
:100150000C943F050C947B0C0C9401020C94070545
:1001600000002100240027002A002D003000330069
:1001700001010000040107010A010000220025001E
:1001800028002B002E003100340002010000050180
:1001900008010B01000020002300260029002C008C
:1001A0002F003200000100000301060109010505CE
:1001B0000505070508080808020202020A0A0808DD
:1001C000040404040101010101010101030303030B
:1001D00003030303040707070C0C0C0C0C0C0C0C9A
:1001E0000202020206060606060606060B0B0B0BAB
:1001F0000B0B0B0B010210202008081020401020D0
:1002000040800201020108040201010204081020DA
:1002100040808040201008040201800402018040D8
:100220002010080402010804020101020408102041
:100230004080010204081020408000000A0B0209DF
:100240000C0D0E0807030401000000000000000070
:10025000000000000000000000000000000000009E
:10026000000000000000121110000000000000005B
:10027000000000000000000000000000000000007E
:100280007B0C2D1311241FBECFEFD1E2DEBFCDBFFB
:1002900000E00CBF25E0A8ECB3E001C01D92A83738
:1002A000B207E1F713E0A0E0B2E0ECE8FBE200E027
:1002B0000BBF02C007900D92A83CB107D9F711E01F
:1002C000C1E4D1E000E006C021970109802FFE01C2
:1002D0000E949613C034D10780E00807A9F70E9456
:1002E000920D0C94B4150C94000080917B00877FD4
:1002F00080937B0087E480937C0080917A00806407
:1003000080937A0080917A0086FDFCCF80917800FE
:100310009091790008958093BB0084E88093BC009D
:100320008091BC0087FFFCCF8091B900887F80322C
:1003300021F481E0809311020895803319F481E063
:100340008093120208958150823108F05AC0E82F3C
:10035000F0E08827E155FE4F8F4F0C949613CF01A4
:10036000D301C101C701CB010102D601DC01E001CB
:10037000E601EA01EE01F401F8010102FC010202CA
:100380000602809180008F7780938000089580918D
:1003900080008F7DF9CF80918000877FF5CF84B575
:1003A0008F7784BD089584B58F7DFBCF8091B00099
:1003B0008F778093B00008958091B0008F7DF9CF42
:1003C000809190008F7780939000089580919000A5
:1003D0008F7DF9CF80919000877FF5CF8091A0002D
:1003E0008F778093A00008958091A0008F7DF9CF32
:1003F0008091A000877FF5CF809120018F77809337
:1004000020010895809120018F7DF9CF80912001F6
:10041000877FF5CFCF93DF93282F30E0F901E65C9B
:10042000FD4F8491F901EC50FE4FD491F901E25552
:10043000FE4FC491CC23A1F081110E94A301EC2FA7
:10044000F0E0EE0FFF1FEC56FE4FA591B491EC913A
:10045000ED2381E090E009F480E0DF91CF910895F1
:1004600080E090E0FACF8F929F92AF92BF92CF92AE
:10047000DF92EF92FF920F931F93CF93DF938FB78B
:10048000F894C090E003D090E103E090E203F09094
:10049000E3038FBF8091550584FF74C080905A0597
:1004A00090905B05A0905C05B0905D05909166050D
:1004B0009111F6C0809164050E940A0220915605B0
:1004C000022F017010E021E00817190709F420E05D
:1004D00020936705B701A601481959096A097B09E4
:1004E000209167059091540591FB882780F922237C
:1004F00009F419C181111AC0413551056105710511
:10050000A8F0C0925A05D0925B05E0925C05F0928B
:100510005D05997E9261906890935405809156058F
:1005200080628093560540E050E0BA018091560504
:100530009091540584FF12C04D3231E0530761059C
:10054000710560F092FD05C083FDB4C082608093A8
:100550005605809156058F7E8093560591FF12C0F7
:100560004D3B52406105710568F092FD0BC022239E
:1005700009F4A2C0916090935405809156058F7D37
:100580008093560580916605882309F4A2C0909156
:10059000550596FB332730F9C32F80E0D82FCC0FB9
:1005A000DD1F95FB882780F98C2B20915805281793
:1005B00009F469C0109259059091560596FFB0C094
:1005C000833009F097C09F7B90935605213009F442
:1005D0008DC091E0223009F48AC09091550593FDB9
:1005E00003C0833009F493C0909159059923E1F138
:1005F0002091540528602093540540915E05509148
:100600005F05609160057091610597018601041B8B
:10061000150B260B370B4091570550E070E060E05A
:10062000041715072607370760F420915505226047
:10063000913029F0923029F42091550521602093C2
:100640005505C0925E05D0925F05E0926005F0927C
:1006500061052091550524FF07C0209167052223DD
:1006600019F09E5F90935905809358058091540529
:10067000846080935405C0925A05D0925B05E09245
:100680005C05F0925D05DF91CF911F910F91FF9076
:10069000EF90DF90CF90BF90AF909F908F90089594
:1006A00087FB882780F98093670514CF80915605D2
:1006B000886037CF84604BCF9D7F9E7F9093540599
:1006C000C0925A05D0925B05E0925C05F0925D0500
:1006D00059CF809162050E940A02C82F809163055C
:1006E0000E940A02880F991F8C2B5FCF92E0909393
:1006F000590573CF3091550533FD46C0811174CF34
:100700009F7B90935605213041F0223031F090913B
:10071000560590649093560567CF20935905F7CFFF
:100720008823A9F35ACF882309F400CF4135510516
:100730006105710508F4FACE92FD05C090FD03C075
:100740009062909354054D3B52406105710528F02D
:100750008091540580648093540580915405C09223
:100760005A05D0925B05E0925C05F0925D058D7FA5
:100770008E7F809354058091560585FF97CF84FD29
:1007800095CF8061877FCDCE882309F26DCF1F93EF
:10079000CF93DF93282F30E0F901E65CFD4F849181
:1007A000F901EC50FE4FD491F901E255FE4FC4918E
:1007B000CC23A9F0162F81110E94A301EC2FF0E0A9
:1007C000EE0FFF1FE658FE4FA591B4918FB7F89436
:1007D000EC91111108C0D095DE23DC938FBFDF911F
:1007E000CF911F910895DE2BF8CFCF93DF9390E048
:1007F000FC01EC50FE4F249182559E4FFC018491E8
:100800008823C9F090E0880F991FFC01E05AFE4F41
:10081000A591B491FC01E658FE4FC591D4916111A8
:100820000DC09FB7F8948C91209582238C9388817A
:10083000282328839FBFDF91CF910895623051F420
:100840009FB7F8943C91822F809583238C93E88105
:100850002E2BEFCF8FB7F894EC912E2B2C938FBFCC
:10086000EACF3FB7F8948091DC039091DD03A0912B
:10087000DE03B091DF0326B5A89B05C02F3F19F01A
:100880000196A11DB11D3FBFBA2FA92F982F882710
:10089000BC01CD01620F711D811D911D42E0660FEB
:1008A000771F881F991F4A95D1F708958F929F92BD
:1008B000AF92BF92CF92DF92EF92FF924B015C0119
:1008C0000E9431046B017C010E9431046C197D0986
:1008D0008E099F09683E734081059105A8F321E0C8
:1008E000821A9108A108B10888EEC80E83E0D81ECC
:1008F000E11CF11C81149104A104B10429F7FF90BB
:10090000EF90DF90CF90BF90AF909F908F90089521
:100910000895AF92BF92CF92DF92EF92FF920F9322
:100920001F93CF93DF936C017B018B01040F151F85
:10093000EB015E01AE18BF08C017D10759F06991ED
:10094000D601ED91FC910190F081E02DC601199541
:10095000892B79F7C501DF91CF911F910F91FF90FE
:10096000EF90DF90CF90BF90AF900895FC0144814D
:1009700055816081718188E695E00C9489048091AD
:10098000D7039091D803A091D903B091DA03809353
:10099000CA039093CB03A093CC03B093CD030E94E2
:1009A00075019093C9038093C8030895FC01538D8A
:1009B000448D252F30E0842F90E0821B930B541739
:1009C00010F0CF96089501970895FC01918D828DC6
:1009D000981761F0A28DAE0FBF2FB11D5D968C915F
:1009E000928D9F5F9F73928F90E008958FEF9FEF9E
:1009F0000895FC01918D828D981731F0828DE80F5A
:100A0000F11D858D90E008958FEF9FEF0895FC0113
:100A1000918D228D892F90E0805C9F4F821B9109E0
:100A20008F739927089584EE93E00E94070521E0D3
:100A3000892B09F420E0822F0895FC01A48DA80FD2
:100A4000B92FB11DA35ABF4F2C91848D90E0019610
:100A50008F739927848FA689B7892C93A089B18930
:100A60008C91837080648C93938D848D981306C0D1
:100A70000288F389E02D80818F7D80830895EF9235
:100A8000FF920F931F93CF93DF93EC0181E0888F48
:100A90009B8D8C8D98131AC0E889F989808185FF18
:100AA00015C09FB7F894EE89FF896083E889F989BA
:100AB00080818370806480839FBF81E090E0DF91BC
:100AC000CF911F910F91FF90EF900895F62E0B8D0F
:100AD00010E00F5F1F4F0F731127E02E8C8D8E11CA
:100AE0000CC00FB607FCFACFE889F989808185FF31
:100AF000F5CFCE010E941D05F1CFEB8DEC0FFD2F40
:100B0000F11DE35AFF4FF0829FB7F8940B8FEA89EB
:100B1000FB8980818062CFCFCF93DF93EC01888DFA
:100B20008823B9F0AA89BB89E889F9898C9185FD68
:100B300003C0808186FD0DC00FB607FCF7CF8C91F6
:100B400085FFF2CF808185FFEDCFCE010E941D058C
:100B5000E9CFDF91CF91089580E090E0892B29F0D3
:100B60000E94130581110E94000080E090E0892B13
:100B700049F080E090E0892B29F00E94000081116B
:100B80000E94000080E090E0892B49F080E090E036
:100B9000892B29F00E94000081110E94000080E052
:100BA00090E0892B49F080E090E0892B29F00E94A9
:100BB000000081110C9400000895089590E080E0F9
:100BC00008951F93CF93DF93EC01162F8C8194EA45
:100BD0009093BC009091BC0097FFFCCF880F0E94BF
:100BE0008B018B85812B0E948B0184E98093BC0053
:100BF00080911102882329F01092110210921202A2
:100C000004C0809112028111F9CFDF91CF911F9121
:100C100008950F931F93CF938C01C62F0E94E10577
:100C20006C2F6460C8010E94E1056C2F6B7FC801C6
:100C30000E94E10583EC90E00197F1F7CF911F91BD
:100C40000F9108950F931F93CF93DF938C01D62FAD
:100C5000C42F607F642B0E94090680E1D89FB001F9
:100C600011246C2BC801DF91CF911F910F910C942F
:100C70000906CF93DF9300D000D01F921F92CDB70B
:100C8000DEB798E0EAE1F2E0DE01119601900D9204
:100C90009A95E1F790917005961710F46FEF690F30
:100CA000262F30E0220F331F41E050E04C0F5D1F34
:100CB000240F351FF9016081680F606840E088E605
:100CC00095E028960FB6F894DEBF0FBECDBFDF913A
:100CD000CF910C94220641E00E94220681E090E030
:100CE0000895FB0101900020E9F73197AF01461B01
:100CF000570BDC01ED91FC910280F381E02D1994FA
:100D00006CE772E084EE93E00C9471068F929F92F0
:100D1000AF92BF92EF92FF920F931F93CF93DF9307
:100D2000CDB7DEB7A1970FB6F894DEBF0FBECDBF2B
:100D30007C01FA01CB0119A2223008F42AE08E01CD
:100D40000F5D1F4F822E912CB12CA12CBF01A5014C
:100D500094010E947413F901CA016A300CF5605DB8
:100D6000D8016E938D01232B242B252B79F790E04E
:100D700080E0109721F0BD01C7010E947106A19685
:100D80000FB6F894DEBF0FBECDBFDF91CF911F919C
:100D90000F91FF90EF90BF90AF909F908F9008952C
:100DA000695CDECFCF92DF92EF92FF920F931F9399
:100DB000CF93DF936B01770FEE08FF08F7FE1FC09C
:100DC000EC01E881F9810190F081E02D6DE2199547
:100DD0008C0144275527BA014C195D096E097F091A
:100DE0002AE0CE010E948606800F911FDF91CF91ED
:100DF0001F910F91FF90EF90DF90CF9008952AE020
:100E0000B701A601DF91CF911F910F91FF90EF9055
:100E1000DF90CF900C948606AB0170E060E02AE092
:100E20000C948606CF93DF93BC0184EE93E00E947E
:100E30000C07EC010E9480068C0F9D1FDF91CF9163
:100E40000895CF93DF93BC0184EE93E00E94710676
:100E5000EC010E9480068C0F9D1FDF91CF910895B9
:100E60006115710511F00C94710690E080E0089511
:100E700061E080E00E94390663ED72E088E695E06B
:100E80000E94300762E080E00E94390663ED72E064
:100E900088E695E00E94300763E080E00E94390612
:100EA00063ED72E088E695E00C943007CF93DF9312
:100EB000EC018FE792E00E94210768E872E084EE7F
:100EC00093E00E943007888199810E94120761E9AE
:100ED00072E084EE93E00E9430074B8150E070E0B6
:100EE00060E02AE084EE93E00E9486060E9480067D
:100EF00068E972E084EE93E00E9430078D819E8164
:100F00000E94120761EA72E084EE93E00E943007CB
:100F1000888599850E94120766EB72E084EE93E063
:100F20000E9430076B8570E084EE93E00E94D20649
:100F30000E9480066DEB72E084EE93E00E94300721
:100F40006D8570E084EE93E00E94D2060E948006D8
:100F5000DF91CF910C948006CF93DF93EC0160E09A
:100F600080E00E9439066CEC72E088E695E00E9411
:100F7000300760E080E00E943906E88124E1E29FCA
:100F8000F0011124EE5DFD4F6081718188E695E0EE
:100F90000E9430078981882341F168EE72E0813038
:100FA00011F06BEE72E088E695E00E9430078881D0
:100FB000E9812AE0829FC0011124E80FF92FF11D79
:100FC000EE0FFF1FEE5DFD4F6081718188E695E0B9
:100FD0000E9430078A81882341F06EEE72E088E635
:100FE00095E0DF91CF910C943007DF91CF91089578
:100FF0000F931F93CF93DF93EC0188819981009722
:1010000059F02A813B812617370730F081E0DF91C4
:10101000CF911F910F9108958B016F5F7F4F0E94B9
:10102000C314009759F0998388831B830A832C810A
:101030003D81232B59F7FC011082E8CF80E0E7CFF8
:10104000CF93DF93EC0188819981009711F00E9482
:101050003A14198218821D821C821B821A82DF9127
:10106000CF910895EF92FF920F931F93CF93DF9349
:101070008C017B01FB0101900020E9F73197E61B11
:10108000F70BD1F0DC011496CD91DC91CE0FDF1F70
:10109000BE010E94F8078823B9F0F8012081318150
:1010A00084819581B701820F931F0E94AD15D801ED
:1010B0001596DC93CE931497C801DF91CF911F91C1
:1010C0000F91FF90EF900895C8010E942008F4CF7F
:1010D000EF92FF920F931F93CF93DF93EC0186174C
:1010E000970781F0FB01008111810115110539F08D
:1010F000E480F580B7010E94F80781110BC0CE0192
:101100000E942008CE01DF91CF911F910F91FF9097
:10111000EF900895FD82EC82B801888199810E9448
:10112000AD15F0CFFC01118210821382128215825C
:1011300014820C946808FB012081DC012C9341810E
:1011400052816381748111964D935D936D937C936D
:1011500014972581368116963C932E931597BF01DF
:10116000695F7F4F07960C949208EF92FF920F935E
:101170001F93CF93DF93EC017B01198218821B82AE
:101180001A821D821C82FB0101900020E9F7319731
:101190008F01061B170BB8010E94F807811109C0C7
:1011A000CE01DF91CF911F910F91FF90EF900C94A2
:1011B00020081D830C83B70188819981DF91CF912D
:1011C0001F910F91FF90EF900C94AD15FC011082D0
:1011D0001182128213821482168215826EE772E0E7
:1011E00007960C94B508FC0180819181009711F05D
:1011F0000C943A140895EF92FF920F931F93CF939C
:10120000DF93CDB7DEB72C970FB6F894DEBF0FBED5
:10121000CDBF7C01E091510586E0E89FF0011124EB
:10122000EF57FB4F848161E08E5F0E9439066EE7C5
:1012300072E0CE0107960E94B50810E000E0BE0102
:10124000695F7F4FCE0101960E94920866EE72E0C0
:10125000CE0101960E943208BC01CE0107960E9481
:101260006808CE0101960E94F3080F5F1F4F0E150C
:101270001F0529F7CE0107960E94B604E09151059B
:1012800086E0E89FF0011124EF57FB4F848161E075
:101290008E5F0E943906CE0107960E94F3082C96B5
:1012A0000FB6F894DEBF0FBECDBFDF91CF911F9177
:1012B0000F91FF90EF900895CF93DF93EB010E9481
:1012C0005E138883CE01DF91CF9108950F931F9312
:1012D000CF93DF938C01EB010E945E138883C801DA
:1012E00001960E945E138983CE01DF91CF911F91F9
:1012F0000F910895CF93DF93EC018A81BE0190E0B6
:101300000E9466098C8190E00E945E138B83BE016F
:101310006B5F7F4F8F8190E00E946609BE01685F1E
:101320007F4F8A8590E00E946609BE01655F7F4F0E
:101330008C8590E00E945C09BE01635F7F4F8E85C3
:1013400090E0DF91CF910C945C09FF920F931F9373
:10135000CF93DF93EC01F62E08811981C8010E941A
:101360005E13F81621F06F2DC8010E946613CE019E
:10137000DF91CF911F910F91FF9008950F931F93CD
:10138000CF93DF931F921F92CDB7DEB78B019A8365
:101390008983FB016081CE0101960E94A509C801E5
:1013A0000F900F90DF91CF911F910F910895EF92C1
:1013B000FF920F931F93CF93DF931F921F92CDB78E
:1013C000DEB78C017B019A838983FB016081CE01AA
:1013D00001960E94A5090F5F1F4F1A830983F70129
:1013E0006181CE0101960E94A509C7010F900F905F
:1013F000DF91CF911F910F91FF90EF9008950F9380
:101400001F93CF93DF931F921F92CDB7DEB78C014E
:10141000FC0111821082128281E0838382E0848346
:1014200083E090E09683858323E0278391878087FC
:1014300085E08287138687E08487158688E0868723
:10144000B80190E080E00E946609F80180819181F6
:101450008933904309F446C00E94800680EF92E0F1
:101460000E94210789E390E39A838983F8018281AE
:10147000BE016F5F7F4F90E00E94D709F801848121
:1014800090E09A8389836381CE0101960E94A50929
:10149000B8016B5F7F4FF801878190E00E94D70908
:1014A000B801685F7F4FF801828590E00E94D709FC
:1014B000B801655F7F4FF801848590E00E94BE0906
:1014C000B801635F7F4FF801868590E00E94BE09F6
:1014D00081E193E00E942107C8010E947A09C801B6
:1014E0000E9456070F900F90DF91CF911F910F919F
:1014F00008951F920F920FB60F9211242F933F93CE
:101500008F939F93AF93BF938091E0039091E103FA
:10151000A091E203B091E3033091DB0323E0230FBA
:101520002D3758F50196A11DB11D2093DB03809343
:10153000E0039093E103A093E203B093E30380916F
:10154000DC039091DD03A091DE03B091DF030196EF
:10155000A11DB11D8093DC039093DD03A093DE03F6
:10156000B093DF03BF91AF919F918F913F912F91E6
:101570000F900FBE0F901F90189526E8230F02962C
:10158000A11DB11DD2CF1F920F920FB60F92112441
:101590000BB60F922F933F934F935F936F937F936D
:1015A0008F939F93AF93BF93EF93FF93E0910E02BE
:1015B000F0910F021995FF91EF91BF91AF919F911B
:1015C0008F917F916F915F914F913F912F910F90EC
:1015D0000BBE0F900FBE0F901F9018951F920F9289
:1015E0000FB60F9211240BB60F922F933F934F9388
:1015F0005F936F937F938F939F93AF93BF93EF937B
:10160000FF93E0910C02F0910D021995FF91EF917B
:10161000BF91AF919F918F917F916F915F914F910A
:101620003F912F910F900BBE0F900FBE0F901F9008
:1016300018951F920F920FB60F9211240BB60F92AE
:101640002F933F934F935F936F937F938F939F93CA
:10165000AF93BF93EF93FF93E0910202F0910302E7
:101660001995FF91EF91BF91AF919F918F917F91CC
:101670006F915F914F913F912F910F900BBE0F9003
:101680000FBE0F901F9018951F920F920FB60F92DA
:1016900011240BB60F922F933F934F935F936F9349
:1016A0007F938F939F93AF93BF93EF93FF93E091BB
:1016B0000002F09101021995FF91EF91BF91AF9156
:1016C0009F918F917F916F915F914F913F912F915A
:1016D0000F900BBE0F900FBE0F901F9018951F928A
:1016E0000F920FB60F9211240BB60F922F933F93C8
:1016F0004F935F936F937F938F939F93AF93BF931A
:10170000EF93FF93E0910A02F0910B021995FF917C
:10171000EF91BF91AF919F918F917F916F915F9169
:101720004F913F912F910F900BBE0F900FBE0F90D6
:101730001F9018951F920F920FB60F9211240BB69F
:101740000F922F933F934F935F936F937F938F935A
:101750009F93AF93BF93EF93FF93E0910802F091B3
:1017600009021995FF91EF91BF91AF919F918F91D0
:101770007F916F915F914F913F912F910F900BBE91
:101780000F900FBE0F901F9018951F920F920FB6DB
:101790000F9211240BB60F922F933F934F935F93A9
:1017A0006F937F938F939F93AF93BF93EF93FF9329
:1017B000E0910602F09107021995FF91EF91BF9118
:1017C000AF919F918F917F916F915F914F913F91D9
:1017D0002F910F900BBE0F900FBE0F901F9018957A
:1017E0001F920F920FB60F9211240BB60F922F93E8
:1017F0003F934F935F936F937F938F939F93AF9399
:10180000BF93EF93FF93E0910402F09105021995C5
:10181000FF91EF91BF91AF919F918F917F916F91C8
:101820005F914F913F912F910F900BBE0F900FBE84
:101830000F901F9018951F920F920FB60F921124C0
:101840000BB60F922F933F934F935F936F937F93BA
:101850008F939F93AF93BF93EF93FF9384EE93E0A7
:101860000E941D05FF91EF91BF91AF919F918F91C4
:101870007F916F915F914F913F912F910F900BBE90
:101880000F900FBE0F901F9018951F920F920FB6DA
:101890000F9211240BB60F922F938F939F93EF9378
:1018A000FF93E091F403F091F5038081E091FA0356
:1018B000F091FB0382FD1DC090818091FD038F5F3D
:1018C0008F732091FE03821741F0E091FD03F0E059
:1018D000EC51FC4F958F8093FD03FF91EF919F9109
:1018E0008F912F910F900BBE0F900FBE0F901F90F6
:1018F00018958081F2CFCF931092E7031092E60300
:1019000088EE93E0A0E0B0E08093E8039093E903D1
:10191000A093EA03B093EB0382E692E09093E50391
:101920008093E40385EC90E09093F1038093F003BF
:1019300084EC90E09093F3038093F20380EC90E0CA
:101940009093F5038093F40381EC90E09093F70378
:101950008093F60382EC90E09093F9038093F80370
:1019600086EC90E09093FB038093FA031092FD03C2
:101970001092FE031092FF031092000410926B0568
:1019800010926A0584E792E0909369058093680558
:1019900087E280936C0584E18093710584E08093F5
:1019A00072051092730592E39093570510925805B3
:1019B0001092590510925A0510925B0510925C0521
:1019C00010925D0510925E0510925F051092600501
:1019D00010926105109265051092660510926705D8
:1019E00092E09093620593E0909363058093640581
:1019F000809155058061877F8093550562E082E084
:101A00000E94F50362E0809163050E94F5038091D6
:101A1000550584FF05C062E0809164050E94F503CE
:101A200080915605816080935605809162050E94E1
:101A30000A02C82F809163050E940A02880F991F2D
:101A40008C2B8093580582E08093500581E0809331
:101A50005105809352058093530583E495E00E94DD
:101A6000E60886E395E00E94E60889E295E00E9498
:101A7000E6088CE195E00E94E6088FE095E00E9480
:101A8000E60882E095E00E94E60863E475E084EBF6
:101A900094E00E949B0866E375E081EC94E00E946C
:101AA0009B0869E275E08EEC94E00E949B086CE173
:101AB00075E08BED94E00E949B086FE075E088EE86
:101AC00094E00E949B0862E075E085EF94E00E943C
:101AD0009B0885EA94E00E94FF096EE772E081E8C6
:101AE00094E00E94B50866E173E087E894E00E9404
:101AF000B50860E273E08DE894E00E94B5086CE2FE
:101B000073E083E994E00E94B5086CE373E089E92F
:101B100094E00E94B5086BE473E08FE994E0CF9104
:101B20000C94B508CF93DF93CDB7DEB763970FB6AC
:101B3000F894DEBF0FBECDBF789484B5826084BDBB
:101B400084B5816084BD85B5826085BD85B58160C1
:101B500085BD80916E00816080936E00109281003F
:101B600080918100826080938100809181008160FA
:101B700080938100809180008160809380008091BB
:101B8000B10084608093B1008091B0008160809347
:101B9000B0008091910082608093910080919100CB
:101BA000816080939100809190008160809390008B
:101BB0008091A10082608093A1008091A10081604A
:101BC0008093A1008091A00081608093A00080910B
:101BD00021018260809321018091210181608093A5
:101BE00021018091200181608093200180917A0001
:101BF000846080937A0080917A00826080937A007A
:101C000080917A00816080937A0080917A00806868
:101C100080937A001092C100E091F403F091F503F3
:101C200082E08083E091F003F091F1031082E09173
:101C3000F203F091F3038FEC80831092FC03E091A8
:101C4000F803F091F90386E08083E091F603F091C8
:101C5000F703808180618083E091F603F091F703C0
:101C6000808188608083E091F603F091F7038081A2
:101C700080688083E091F603F091F70380818F7D87
:101C80008083CE0101960E94FF0962E084E10E94F8
:101C9000F50362E085E10E94F50388E48093B800D3
:101CA0001092B90010926D0580917205823018F083
:101CB00098E090936D058093700562E370E080E09A
:101CC00090E00E9456046091730588E695E00E94BA
:101CD000E10568EE73E080E090E00E94560460E366
:101CE00088E695E00E9409060BE416E4C801019716
:101CF000F1F760E388E695E00E940906C8010197C4
:101D0000F1F760E388E695E00E94090683E592E03A
:101D10000197F1F760E288E695E00E94090660917C
:101D20006D05606240E088E695E00E94220684E04E
:101D300080936E0540E06CE088E695E00E94220604
:101D400040E061E088E695E00E9422060BE31FE197
:101D5000C8010197F1F782E0F82EF0926F0540E09C
:101D600066E088E695E00E94220640E062E088E6B0
:101D700095E00E942206C8010197F1F788E0809360
:101D8000730560E088E695E00E94E105F88A81E04D
:101D9000898B8A8B8B8B80915505877F8093550526
:101DA00061E087E00E94F50361E086E00E94F503B0
:101DB00061E085E00E94F50361E089E00E94F5039F
:101DC00061E088E00E94F50360E08DE30E94F50386
:101DD00060E082E10E94F50361E087E00E94C703B2
:101DE00060E086E00E94C7036091CE0385E00E9418
:101DF000C70361E085E00E94C70360E089E00E94BC
:101E0000C70361E088E00E94C7038FEB94E09093E2
:101E10000B0280930A0280916900806C80936900B4
:101E2000EB9ACE0140960E94AC07CE0101960E942B
:101E30007A09CE0101960E94560711E02FB7F89457
:101E40008091E0039091E103A091E203B091E3035C
:101E50002FBF8093D7039093D803A093D903B09357
:101E6000DA038091CA039091CB03A091CC03B09187
:101E7000CD03892B8A2B8B2B31F18091C803909154
:101E8000C9034091CA035091CB036091CC03709178
:101E9000CD034093C2045093C3046093C404709371
:101EA000C5049093C7048093C6041093C104109294
:101EB000CA031092CB031092CC031092CD03109260
:101EC000C9031092C8038091550582FD0E94330218
:101ED00080915905813081F4109259051092CF04F8
:101EE0001092D0041092D1041092D2041092D40413
:101EF0001092D3048093CE048091550582FD0E94F8
:101F0000330280915905823081F410925905109264
:101F1000DC041092DD041092DE041092DF041092B3
:101F2000E1041092E0041093DB048091550582FDDA
:101F30000E9433028091540585FF11C08F7D8093EC
:101F400054051092E9041092EA041092EB041092E6
:101F5000EC041092EE041092ED041093E8048091CA
:101F60005105811139C08091CE04882359F08091A8
:101F70005005882319F081508093500580E595E045
:101F80000E94AC078091DB04882359F080915005B2
:101F9000823018F48F5F8093500580E595E00E94B1
:101FA000AC078091E804882331F01093510580E557
:101FB00095E00E94AC071092B4041092C1041092F4
:101FC000CE041092DB041092E8041092F5040E94F3
:101FD00033020E94AC0532CF90915205911134C06A
:101FE0009091CE04992339F081508093510580E57A
:101FF00095E00E94AC078091DB048823C9F08091B2
:102000005005811105C080915105833038F00CC016
:10201000813041F480915105853030F48F5F809399
:10202000510502C0823079F380E595E00E94AC074B
:102030008091E804882309F4BECF109352051093D1
:1020400053050E943807B3CF8091E8048823A1F09C
:1020500010925205109253050E94380780E595E0D2
:102060000E94AC071092CE0360E085E00E94C70397
:1020700085EA94E00E94560780915005823009F06D
:10208000DCC000915105013009F0E4C28091530594
:10209000882309F442C061E080E00E94390663EEC3
:1020A00072E088E695E00E94300761E080E00E94DF
:1020B00039066DE573E088E695E00E94300762E03E
:1020C00080E00E9439066EED72E088E695E00E949D
:1020D000300762E080E00E94390667E573E088E639
:1020E00095E00E94300763E080E00E94390663EECD
:1020F00072E088E695E00E94300763E080E00E948D
:1021000039066CE573E088E695E00E94300700939D
:10211000CE0361E085E00E94C7038091D3039091D4
:10212000D403A091D503B091D603845D9E4FAF4FE9
:10213000BF4F4091D7035091D8036091D90370915C
:10214000DA0384179507A607B70728F561E083E04F
:102150000E94390663EE72E088E695E00E9430073F
:1021600061E083E00E9439060E947501BC0188E6A7
:1021700095E00E94D2068091D7039091D803A09158
:10218000D903B091DA038093D3039093D403A0933F
:10219000D503B093D6038091C104882309F44DC0C0
:1021A00062E084E00E9439066EED72E088E695E018
:1021B0000E94300762E084E00E9439064091C20428
:1021C0005091C3046091C4047091C5048091CF0301
:1021D0009091D003A091D103B091D203481B590B29
:1021E0006A0B7B0B2AE088E695E00E94860663E096
:1021F00084E00E94390663EE72E088E695E00E9472
:10220000300763E084E00E9439066091C604709153
:10221000C70488E695E00E940C078091C204909163
:10222000C304A091C404B091C5048093CF039093DC
:10223000D003A093D103B093D20380915005813095
:1022400009F008C280915105882309F403C28091E6
:102250005305882309F4A4C061E080E00E94390698
:1022600063EE72E088E695E00E94300761E080E06E
:102270000E943906809151058130E1F467E874E0ED
:10228000CE0101960E94920865E972E0CE010196A6
:102290000E9432080E94B604CE0101960E94F30803
:1022A0004091A80450E070E060E02AE088E695E004
:1022B0000E948606809151058230D1F46DE874E069
:1022C000CE0101960E94920865E972E0CE01019666
:1022D0000E9432080E94B604CE0101960E94F308C3
:1022E0006091AA047091AB0488E695E00E940C0707
:1022F000809151058330D1F463E974E0CE010196F9
:102300000E94920865E972E0CE0101960E943208AF
:102310000E94B604CE0101960E94F3086091AD04BC
:102320007091AE0488E695E00E940C0780915105FB
:102330008430C9F469E974E0CE0101960E949208E4
:1023400065E972E0CE0101960E9432080E94B6044F
:10235000CE0101960E94F3086091B20470E088E615
:1023600095E00E94D206809151058530C9F46FE94D
:1023700074E0CE0101960E94920865E972E0CE01F8
:1023800001960E9432080E94B604CE0101960E9476
:10239000F3086091B00470E088E695E00E94D206F0
:1023A000809151058130A1F58091CE048823B1F050
:1023B0008091A804823008F44DC181508093A80414
:1023C00085E090E00E94FB084091A80450E070E096
:1023D00060E02AE088E695E00E9486068091DB04B2
:1023E0008823B1F08091A804823008F033C18F5F58
:1023F0008093A80485E090E00E94FB084091A80427
:1024000050E070E060E02AE088E695E00E948606F1
:10241000809151058230D1F58091CE048823C1F09E
:102420008091AA049091AB04009709F413C101971D
:102430009093AB048093AA0485E090E00E94FB088F
:102440006091AA047091AB0488E695E00E940C07A5
:102450008091DB048823D1F08091AA049091AB0491
:10246000883E23E0920708F0F5C001969093AB04F4
:102470008093AA0485E090E00E94FB086091AA0482
:102480007091AB0488E695E00E940C07809151059D
:102490008330D1F58091CE048823C1F08091AD04C2
:1024A0009091AE04009709F4D5C001979093AE04C3
:1024B0008093AD0486E090E00E94FB086091AD043B
:1024C0007091AE0488E695E00E940C078091DB04D1
:1024D0008823D1F08091AD049091AE048D3221E03B
:1024E000920708F0B7C001969093AE048093AD04B4
:1024F00086E090E00E94FB086091AD047091AE040C
:1025000088E695E00E940C0780915105843059F5CA
:102510008091CE04882391F08091B204882309F43D
:1025200099C01092B20483E090E00E94FB08609191
:10253000B20470E088E695E00E94D2068091DB0448
:10254000882389F08091B204811184C01093B20471
:1025500083E090E00E94FB086091B20470E088E69E
:1025600095E00E94D20680915105853059F5809101
:10257000CE04882391F08091B004882309F46AC0C6
:102580001092B00483E090E00E94FB086091B004D8
:1025900070E088E695E00E94D2068091DB048823F3
:1025A00089F08091B004811155C01093B00483E08C
:1025B00090E00E94FB086091B00470E088E695E02E
:1025C0000E94D2068091E804882309F443C08091D8
:1025D0005105813059F48091A90490E09A83898350
:1025E0006091A804CE0101960E94A5098091510531
:1025F000823039F48091AC046AEA74E090E00E9481
:10260000D70980915105833039F48091AF046DEA88
:1026100074E090E00E94D70980915105843039F42C
:102620008091B30462EB74E090E00E94BE09809157
:102630005105853039F48091B10460EB74E090E08D
:102640000E94BE0985EA94E00E947A0985EA94E036
:102650000E94560710925305AECCCF93DF93C5EA84
:10266000D4E02697CE010E94F30884E0C138D80751
:10267000C1F7C2E0D5E02D97CE0107960E94F3087E
:1026800084E0C43BD807B9F789E095E00E94F308DD
:1026900086E195E00E94F30883E295E00E94F3084A
:1026A00080E395E00E94F3088DE395E00E94F30833
:1026B0008AE495E0DF91CF910C94F308F999FECF6D
:1026C00092BD81BDF89A992780B50895262FF99972
:1026D000FECF1FBA92BD81BD20BD0FB6F894FA9A05
:1026E000F99A0FBE01960895A1E21A2EAA1BBB1BF0
:1026F000FD010DC0AA1FBB1FEE1FFF1FA217B307CE
:10270000E407F50720F0A21BB30BE40BF50B661FE3
:10271000771F881F991F1A9469F7609570958095A7
:1027200090959B01AC01BD01CF010895EE0FFF1FF5
:10273000881F8BBF0790F691E02D19940F931F937C
:10274000CF93DF938230910510F482E090E0E09126
:102750007605F091770530E020E0B0E0A0E030971A
:1027600099F42115310509F44AC0281B390B24308E
:102770003105D8F58A819B816115710589F1FB01CD
:1027800093838283FE0111C04081518102811381B4
:1027900048175907E0F04817590799F4109761F066
:1027A00012960C93129713961C933296CF01DF91D9
:1027B000CF911F910F91089500937605109377059F
:1027C000F4CF2115310551F04217530738F0A90114
:1027D000DB019A01BD01DF01F801C1CFEF01F9CFA3
:1027E0009093770580937605CDCFFE01E20FF31F1E
:1027F000819391932250310939832883D7CF209137
:10280000740530917505232B41F420911602309107
:1028100017023093750520937405209114023091AE
:1028200015022115310541F42DB73EB7409118022C
:1028300050911902241B350BE0917405F091750538
:10284000E217F307A0F42E1B3F0B2817390778F087
:10285000AC014E5F5F4F2417350748F04E0F5F1FE6
:102860005093750540937405819391939FCFF0E049
:10287000E0E09CCFCF93DF930097E9F0FC01329723
:1028800013821282A0917605B0917705ED0130E0B8
:1028900020E01097A1F420813181820F931F2091B5
:1028A0007405309175052817390709F061C0F09358
:1028B0007505E0937405DF91CF910895EA01CE1775
:1028C000DF07E8F54A815B819E0141155105B1F7AB
:1028D000E901FB83EA8349915991C40FD51FEC1795
:1028E000FD0761F4808191810296840F951FE901B3
:1028F00099838883828193819B838A83F0E0E0E0DF
:1029000012968D919C9113970097B9F52D913C915A
:102910001197CD010296820F931F2091740530917B
:1029200075052817390739F6309751F51092770554
:1029300010927605B0937505A0937405BCCFD38330
:10294000C28340815181840F951FC817D90761F454
:102950004E5F5F4F88819981480F591F5183408393
:102960008A819B81938382832115310509F0B0CF41
:10297000F0937705E09376059ECFFD01DC01C0CF93
:1029800013821282D7CF4F925F926F927F928F9273
:102990009F92AF92BF92CF92DF92EF92FF920F93EE
:1029A0001F93CF93DF938C01009799F4CB01DF91B4
:1029B000CF911F910F91FF90EF90DF90CF90BF903C
:1029C000AF909F908F907F906F905F904F900C94FE
:1029D0009E13FC01E60FF71F9C0122503109E217FC
:1029E000F30708F4AEC0D901CD91DC911197C61759
:1029F000D70720F1C530D10578F0CE0104978617AE
:102A0000970750F0C61BD70B2297C193D1936D93B4
:102A10007C93CF010E943A14C801DF91CF911F919E
:102A20000F91FF90EF90DF90CF90BF90AF909F906D
:102A30008F907F906F905F904F9008955B01AC1ADC
:102A4000BD0A4C018C0E9D1EA0917605B0917705B4
:102A5000512C412CF12CE12C109731F5809174050B
:102A6000909175058815990509F05CC046165706C2
:102A700008F058C08091140290911502009741F41B
:102A80008DB79EB74091180250911902841B950B87
:102A9000E817F90708F055C0F0937505E093740541
:102AA000F90171836083B8CF8D919C911197129633
:102AB0006C90129713967C901397A815B90559F549
:102AC0006C0142E0C40ED11CCA14DB0420F1AC013D
:102AD0004A195B09DA011296159780F062827382B7
:102AE00051834083D9016D937C93E114F10471F01B
:102AF000D7011396FC93EE9312978ECF22968C0FEC
:102B00009D1FF90191838083F301EFCFF093770547
:102B1000E093760581CF4816590608F42C017D0113
:102B2000D3019ACFCB010E949E137C01009749F0FC
:102B3000AE01B8010E94A415C8010E943A14870191
:102B40006BCF10E000E068CFFB01DC0102C0019018
:102B50000D9241505040D8F70895FB01DC010190DF
:102B60000D920020E1F7089511E0C1E4D1E000E00A
:102B700006C0802FFE010E9496132196011DC234CB
:0C2B8000D10780E00807A9F7F894FFCF08
:102B8C0088048804880488048804880488048804D9
:102B9C0000000001000078058000000040001400D7
:102BAC00540061036603700377030000000000000B
:102BBC000000000000007D03810386038D03990350
:102BCC00A6030000000000000000AD03B203BD032B
:102BDC00C203000000000000000000000000000024
:102BEC0000003F058904D6048C050705E504F904AB
:102BFC00000000006B068904DE05DD050D0A0043AC
:102C0C006F6E6669673A200046535F4B45593A2010
:102C1C00004D4F44453A20004C4150535F4E3A20F2
:102C2C000053454E534F525F49474E4F52455F54E8
:102C3C00494D453A20004D5554453A2000534156D4
:102C4C00455F524553554C54533A200020202020C8
:102C5C002020202020202020202020202020202068
:102C6C0020202020202020003C2D002D3E003A006A
:102C7C0046697273742073746172742C2077726954
:102C8C0074696E672064656661756C74732E2E2E84
:102C9C0000446F6E650052414345204D4F44450042
:102CAC004C415053204E554D4245520053454E53C6
:102CBC002049474E4F524520544D540053415645E0
:102CCC0020544F20454550524F4D004D55544520F2
:102CDC00534F554E44530064743A200069563A20C1
:102CEC0000526163650053656C207261636572000C
:102CFC0043616E63656C0052657472790053657440
:102D0C00004D6F6465004C617073204E0049676E16
:102D1C006F72652074696D6500536176652072650C
:102D2C0073756C747300536F756E647300546573B4
:102D3C007400416C6C2076616C7565730054696D20
:082D4C006500426C696E6B002A
:00000001FF
