:100000000C943E010C946F010C946F010C946F01E1
:100010000C946F010C946F010C946F010C946F01A0
:100020000C946F010C946F010C946F010C946F0190
:100030000C946F010C946F010C946F010C946F0180
:100040000C946F010C946F010C946F010C946F0170
:100050000C946F010C946F010C946F010C94E708E1
:100060000C946F010C945B090C9431090C946F0192
:100070000C946F010C946F010C946F010C946F0140
:100080000C946F010C946F010C946F010C946F0130
:100090000C946F010C946F010C946F010C946F0120
:1000A0000C946F010C946F010C946F010C946F0110
:1000B0000C946F010C946F010C946F010C946F0100
:1000C0000C946F010C946F010C946F010C946F01F0
:1000D0000C946F010C946F010C946F010C946F01E0
:1000E0000C946F010C94A10E0C94FD010C949109D9
:1000F0000C94D2010C94D5040C94C3010C94CB0144
:100100000C94C7010C9446060C94D8010C94CF01B2
:100110000C94E3040C9402020C94FE010C94E6018E
:100120000C94BD010C94E2010C9468050C94F80148
:100130000C94F0010C94EA010C9485040C94F401E5
:100140000C94DC010C941B050C9484040C94B905EC
:100150000C94C1040C94B204000021002400270078
:100160002A002D00300033000101000004010701C6
:100170000A0100002200250028002B002E0031007B
:10018000340002010000050108010B0100002000FD
:100190002300260029002C002F003200000100005F
:1001A00003010601090105050505070508080808FA
:1001B000020202020A0A08080404040401010101FF
:1001C00001010101030303030303030304070707FA
:1001D0000C0C0C0C0C0C0C0C02020202060606069F
:1001E000060606060B0B0B0B0B0B0B0B010210206C
:1001F000200808102040102040800201020108045D
:1002000002010102040810204080804020100804F0
:100210000201800402018040201008040201080449
:10022000020101020408102040800102040810208D
:10023000408000000A0B02090C0D0E0807030401A0
:1002400000000000000000000000000000000000AE
:10025000000000000000000000000000000012117B
:10026000100000000000000000000000000000007E
:1002700000000000000000009109A10E11241FBE23
:10028000CFEFD1E2DEBFCDBF00E00CBF23E0AAEE8E
:10029000B2E001C01D92A93CB207E1F712E0A0E074
:1002A000B2E0EEEEF1E200E00BBF02C007900D926B
:1002B000AA3EB107D9F711E0CDE3D1E000E006C0D6
:1002C00021970109802FFE010E94C70ECC33D10770
:1002D00080E00807A9F70E94700A0C94E5100C94BE
:1002E000000080917B00877F80937B0087E4809370
:1002F0007C0080917A00806480937A0080917A00FB
:1003000086FDFCCF809178009091790008958093CC
:10031000BB0084E88093BC008091BC0087FFFCCFC9
:100320008091B900887F803221F481E080930C02B3
:100330000895803319F481E080930D02089581506F
:10034000823108F05AC0E82FF0E08827E555FE4FCB
:100350008F4F0C94C70ECB01CF01BD01C301C70164
:10036000FD01D201D801DC01E201E601EA01F00160
:10037000F401FD01F801FE010202809180008F77F7
:10038000809380000895809180008F7DF9CF8091C7
:100390008000877FF5CF84B58F7784BD089584B5BD
:1003A0008F7DFBCF8091B0008F778093B000089550
:1003B0008091B0008F7DF9CF809190008F778093EE
:1003C00090000895809190008F7DF9CF80919000EA
:1003D000877FF5CF8091A0008F778093A00008954C
:1003E0008091A0008F7DF9CF8091A000877FF5CF0D
:1003F000809120018F7780932001089580912001C2
:100400008F7DF9CF80912001877FF5CFCF93DF9348
:10041000282F30E0F901EE5CFD4F8491F901E451A1
:10042000FE4FD491F901EA55FE4FC491CC23A1F0BF
:1004300081110E949F01EC2FF0E0EE0FFF1FE457A7
:10044000FE4FA591B491EC91ED2381E090E009F489
:1004500080E0DF91CF91089580E090E0FACF8F9215
:100460009F92AF92BF92CF92DF92EF92FF920F9343
:100470001F93CF93DF938FB7F894C090F302D0907F
:10048000F402E090F502F090F6028FBF8091A6038F
:1004900084FF74C08090AB039090AC03A090AD0338
:1004A000B090AE039091B7039111F6C08091B5035F
:1004B0000E9406022091A703022F017010E021E0A4
:1004C0000817190709F420E02093B803B701A60123
:1004D000481959096A097B092091B8039091A5032D
:1004E00091FB882780F9222309F419C181111AC0D0
:1004F0004135510561057105A8F0C092AB03D0925A
:10050000AC03E092AD03F092AE03997E92619068E5
:100510009093A5038091A70380628093A70340E096
:1005200050E0BA018091A7039091A50384FF12C007
:100530004D3231E053076105710560F092FD05C051
:1005400083FDB4C082608093A7038091A7038F7E50
:100550008093A70391FF12C04D3B52406105710586
:1005600068F092FD0BC0222309F4A2C09160909321
:10057000A5038091A7038F7D8093A7038091B70384
:10058000882309F4A2C09091A60396FB332730F983
:10059000C32F80E0D82FCC0FDD1F95FB882780F973
:1005A0008C2B2091A903281709F469C01092AA0383
:1005B0009091A70396FFB0C0833009F097C09F7B4E
:1005C0009093A703213009F48DC091E0223009F403
:1005D0008AC09091A60393FD03C0833009F493C0B1
:1005E0009091AA039923E1F12091A503286020931B
:1005F000A5034091AF035091B0036091B103709196
:10060000B20397018601041B150B260B370B409193
:10061000A80350E070E060E00417150726073707CD
:1006200060F42091A6032260913029F0923029F4E1
:100630002091A60321602093A603C092AF03D0921D
:10064000B003E092B103F092B2032091A60324FF1D
:1006500007C02091B803222319F09E5F9093AA034C
:100660008093A9038091A50384608093A503C09221
:10067000AB03D092AC03E092AD03F092AE03DF91F6
:10068000CF911F910F91FF90EF90DF90CF90BF908F
:10069000AF909F908F90089587FB882780F9809373
:1006A000B80314CF8091A703886037CF84604BCF05
:1006B0009D7F9E7F9093A503C092AB03D092AC0325
:1006C000E092AD03F092AE0359CF8091B3030E9444
:1006D0000602C82F8091B4030E940602880F991F5A
:1006E0008C2B5FCF92E09093AA0373CF3091A60337
:1006F00033FD46C0811174CF9F7B9093A7032130B7
:1007000041F0223031F09091A70390649093A703B9
:1007100067CF2093AA03F7CF8823A9F35ACF882362
:1007200009F400CF413551056105710508F4FACE91
:1007300092FD05C090FD03C090629093A5034D3BD0
:1007400052406105710528F08091A5038064809373
:10075000A5038091A503C092AB03D092AC03E092B5
:10076000AD03F092AE038D7F8E7F8093A5038091C1
:10077000A70385FF97CF84FD95CF8061877FCDCE7E
:10078000882309F26DCF1F93CF93DF93282F30E09A
:10079000F901EE5CFD4F8491F901E451FE4FD491D3
:1007A000F901EA55FE4FC491CC23A9F0162F81110F
:1007B0000E949F01EC2FF0E0EE0FFF1FEE58FE4F5E
:1007C000A591B4918FB7F894EC91111108C0D09510
:1007D000DE23DC938FBFDF91CF911F910895DE2B35
:1007E000F8CFCF93DF9390E0FC01E451FE4F2491CA
:1007F0008A559E4FFC0184918823C9F090E0880FB0
:10080000991FFC01E85AFE4FA591B491FC01EE58E6
:10081000FE4FC591D49161110DC09FB7F8948C9192
:10082000209582238C938881282328839FBFDF9182
:10083000CF910895623051F49FB7F8943C91822F84
:10084000809583238C93E8812E2BEFCF8FB7F8947C
:10085000EC912E2B2C938FBFEACF3FB7F894809169
:10086000EF029091F002A091F102B091F20226B550
:10087000A89B05C02F3F19F00196A11DB11D3FBFD8
:10088000BA2FA92F982F8827BC01CD01620F711DA7
:10089000811D911D42E0660F771F881F991F4A95A1
:1008A000D1F708958F929F92AF92BF92CF92DF922D
:1008B000EF92FF924B015C010E942D046B017C01C1
:1008C0000E942D046C197D098E099F09683E7340B2
:1008D00081059105A8F321E0821A9108A108B108C9
:1008E00088EEC80E83E0D81EE11CF11C811491042F
:1008F000A104B10429F7FF90EF90DF90CF90BF9053
:10090000AF909F908F9008950895AF92BF92CF922D
:10091000DF92EF92FF920F931F93CF93DF936C01BF
:100920007B018B01040F151FEB015E01AE18BF08A0
:10093000C017D10759F06991D601ED91FC91019052
:10094000F081E02DC6011995892B79F7C501DF915A
:10095000CF911F910F91FF90EF90DF90CF90BF90BC
:10096000AF900895FC01538D448D252F30E0842FE6
:1009700090E0821B930B541710F0CF9608950197C7
:100980000895FC01918D828D981761F0A28DAE0FB4
:10099000BF2FB11D5D968C91928D9F5F9F73928F3B
:1009A00090E008958FEF9FEF0895FC01918D828D67
:1009B000981731F0828DE80FF11D858D90E0089534
:1009C0008FEF9FEF0895FC01918D228D892F90E08C
:1009D000805C9F4F821B91098F739927089587EF41
:1009E00092E00E94E30421E0892B09F420E0822FA9
:1009F0000895FC01A48DA80FB92FB11DA35ABF4FB4
:100A00002C91848D90E001968F739927848FA6890D
:100A1000B7892C93A089B1898C91837080648C9361
:100A2000938D848D981306C00288F389E02D808110
:100A30008F7D80830895EF92FF920F931F93CF9342
:100A4000DF93EC0181E0888F9B8D8C8D98131AC009
:100A5000E889F989808185FF15C09FB7F894EE89F0
:100A6000FF896083E889F98980818370806480834D
:100A70009FBF81E090E0DF91CF911F910F91FF9098
:100A8000EF900895F62E0B8D10E00F5F1F4F0F7340
:100A90001127E02E8C8D8E110CC00FB607FCFACFFB
:100AA000E889F989808185FFF5CFCE010E94F9049C
:100AB000F1CFEB8DEC0FFD2FF11DE35AFF4FF082CC
:100AC0009FB7F8940B8FEA89FB8980818062CFCF32
:100AD000CF93DF93EC01888D8823B9F0AA89BB8975
:100AE000E889F9898C9185FD03C0808186FD0DC060
:100AF0000FB607FCF7CF8C9185FFF2CF808185FF81
:100B0000EDCFCE010E94F904E9CFDF91CF91089596
:100B100080E090E0892B29F00E94EF0481110E946F
:100B2000000080E090E0892B49F080E090E0892B84
:100B300029F00E94000081110E94000080E090E0F6
:100B4000892B49F080E090E0892B29F00E94000079
:100B500081110E94000080E090E0892B49F080E044
:100B600090E0892B29F00E94000081110C94000074
:100B7000089590E080E008951F93CF93DF93EC01F8
:100B8000162F8C8194EA9093BC009091BC0097FF43
:100B9000FCCF880F0E9487018B85812B0E948701E3
:100BA00084E98093BC0080910C02882329F0109284
:100BB0000C0210920D0204C080910D028111F9CF38
:100BC000DF91CF911F9108950F931F93CF938C01C5
:100BD000C62F0E94BC056C2F6460C8010E94BC0532
:100BE0006C2F6B7FC8010E94BC0583EC90E00197DD
:100BF000F1F7CF911F910F9108950F931F93CF930A
:100C0000DF938C01D62FC42F607F642B0E94E405F4
:100C100080E1D89FB00111246C2BC801DF91CF91E6
:100C20001F910F910C94E405CF93DF9300D000D077
:100C30001F921F92CDB7DEB798E0E5E1F2E0DE014A
:100C4000119601900D929A95E1F79091C103961734
:100C500010F46FEF690F262F30E0220F331F41E0B1
:100C600050E04C0F5D1F240F351FF9016081680FA4
:100C7000606840E089EB93E028960FB6F894DEBFF9
:100C80000FBECDBFDF91CF910C94FD0541E00E94D6
:100C9000FD0581E090E00895DC01FB0180819181F8
:100CA00011969C938E938281938113969C938E933D
:100CB0001297848114968C93149716961C921E9208
:100CC000159718961C921E9217971A961C921E92B0
:100CD00019978581968116969C938E931597878197
:100CE000908518969C938E931797818592851A9676
:100CF0009C938E93199716821582108617821286FE
:100D000011861C961C921E921B971E961C921E9278
:100D10001D9750961C921E921F97838594851C9652
:100D20009C938E931B97858596851E969C938E9398
:100D30001D978785908950969C938E931F97148654
:100D4000138616861586108A178608958F929F92AD
:100D5000AF92BF920F931F93CF93DF93CDB7DEB7C0
:100D6000A1970FB6F894DEBF0FBECDBF19A24230D7
:100D700008F44AE08E010F5D1F4F842E912CB12C98
:100D8000A12CA50194010E94A50EE62FB901CA016C
:100D9000EA3044F5E05DD801EE938D01232B242B3E
:100DA000252B79F790E080E0109769F0FD01019024
:100DB0000020E9F73197AF014A1B5B0BBD0189EBBE
:100DC00093E00E948504A1960FB6F894DEBF0FBE93
:100DD000CDBFDF91CF911F910F91BF90AF909F90AA
:100DE0008F900895E95CD7CFBC0190E080E04AE0A5
:100DF0000C94A606FC0101900020E9F73197AF01A1
:100E0000481B590BBC0189EB93E00C94850460E00E
:100E100080E00E9414068AEA92E00E94FA0660E0EE
:100E200080E00E94140680919403909195030E94A3
:100E3000F40640919D0350919E0360919903709137
:100E40009A0389EB93E00E94850480919603909128
:100E500097030097D9F00197B1F48BE392E00E94D9
:100E6000FA0680919603909197030E94F4064091B0
:100E7000A3035091A40360919F037091A00389EB99
:100E800093E00C9485048EE392E0E9CF0895CF932C
:100E9000DF93EC018B859C85009711F00E946B0F0E
:100EA0008D819E81009721F0DF91CF910C946B0F83
:100EB000DF91CF9108950F931F93CF93DF938C0110
:100EC000EB01FC01808191810097E1F068817981DB
:100ED00061157105A9F0428153812C813D81421732
:100EE000530770F00E94DE108C819D81F80195837C
:100EF00084831D821C82DF91CF911F910F910895F1
:100F00000E946B0F88819981F801918380838A8187
:100F10009B81938382838C819D81958384831982B5
:100F200018821B821A82E5CFCF93DF93EC01888170
:100F3000998190939503809394038A819B819093E8
:100F40009703809396038C8180939803BE016B5F17
:100F50007F4F83E06939780721F089E993E00E94A7
:100F60005B07BE01655F7F4F83E06F39780721F033
:100F70008FE993E00E945B0784E993E0DF91CF91D2
:100F80000895EF92FF920F931F93CF93DF93EC019D
:100F90007B018A0188819981009729F02A813B8110
:100FA0002417350788F4B8016F5F7F4F0E94F40F54
:100FB000009791F0998388831B830A832C813D815C
:100FC000232B11F4FC0110821D830C83B70188814F
:100FD00099810E94DE100CC088819981009711F0E0
:100FE0000E946B0F198218821D821C821B821A823A
:100FF000CE01DF91CF911F910F91FF90EF90089557
:10100000FB0101900020E9F73197AF01461B570B18
:101010000C94C107EF92FF920F931F93CF93DF932E
:101020008C01EB017A0188819981892B81F561E43A
:1010300072E0CE0105960E9400088A819B8100978C
:1010400091F465EC72E0CE010B960E940008BE019F
:10105000C8010E944C06C801DF91CF911F910F91EA
:10106000FF90EF9008958130910519F466E472E0E5
:10107000EACF6BE472E08230910529F361E572E01A
:101080008330910501F366E572E00497E1F288810F
:1010900099810197B1F46DE572E0CE0105960E9449
:1010A00000088A819B81009761F281309105F1F2FD
:1010B00061E672E08230910531F26CE672E00397EE
:1010C00011F288819981029799F466E772E0CE0166
:1010D00005960E9400088A819B81009709F4B1CF90
:1010E0008130910519F26BE772E0029709F4ABCFFA
:1010F000888199810397D1F465E872E0CE01059665
:101100000E9400088A819B81009709F49ACF813060
:10111000910509F4ABCF69E872E08230910509F4DA
:1011200092CF039719F461E972E08DCFB70190CFA8
:10113000CF93DF93EC01FB018617970749F060819D
:1011400071816115710541F0448155810E94C1078B
:10115000CE01DF91CF91089588819981009711F098
:101160000E946B0F198218821D821C821B821A82B8
:10117000EFCF0F931F93CF93DF93EC018B01FB0114
:101180008081918199838883828193819B838A83E3
:1011900084818C831E821D8218861F821A8619867E
:1011A0006B5F7F4FCE0105960E9498081C861B86B8
:1011B0001E861D86188A1F86B801655F7F4FCE0187
:1011C0000B96DF91CF911F910F910C9498081F926D
:1011D0000F920FB60F9211242F933F938F939F93EB
:1011E000AF93BF938091F3029091F402A091F50226
:1011F000B091F6023091EE0223E0230F2D3758F51F
:101200000196A11DB11D2093EE028093F3029093ED
:10121000F402A093F502B093F6028091EF02909150
:10122000F002A091F102B091F2020196A11DB11D50
:101230008093EF029093F002A093F102B093F20238
:10124000BF91AF919F918F913F912F910F900FBEC2
:101250000F901F90189526E8230F0296A11DB11D2F
:10126000D2CF1F920F920FB60F9211240BB60F928E
:101270002F933F934F935F936F937F938F939F939E
:10128000AF93BF93EF93FF9387EF92E00E94F9042F
:10129000FF91EF91BF91AF919F918F917F916F914E
:1012A0005F914F913F912F910F900BBE0F900FBE0A
:1012B0000F901F9018951F920F920FB60F92112446
:1012C0000BB60F922F938F939F93EF93FF93E09121
:1012D0000703F09108038081E0910D03F0910E0364
:1012E00082FD1DC09081809110038F5F8F732091CC
:1012F0001103821741F0E0911003F0E0E950FD4F37
:10130000958F80931003FF91EF919F918F912F9173
:101310000F900BBE0F900FBE0F901F9018958081FD
:10132000F2CFCF931092FA021092F90288EE93E076
:10133000A0E0B0E08093FB029093FC02A093FD023A
:10134000B093FE0281E292E09093F8028093F7025C
:1013500085EC90E0909304038093030384EC90E089
:10136000909306038093050380EC90E0909308032C
:101370008093070381EC90E090930A038093090324
:1013800082EC90E090930C0380930B0386EC90E04A
:1013900090930E0380930D0310921003109211038B
:1013A00010921203109213031092BC031092BB030D
:1013B00083E392E09093BA038093B90387E280932A
:1013C000BD0384E18093C20384E08093C303109241
:1013D000C40392E39093A8031092A9031092AA0366
:1013E0001092AB031092AC031092AD031092AE03B7
:1013F0001092AF031092B0031092B1031092B20397
:101400001092B6031092B7031092B80392E0909333
:10141000B30393E09093B4038093B5038091A60344
:101420008061877F8093A60362E082E00E94F103DF
:1014300062E08091B4030E94F1038091A60384FFCF
:1014400005C062E08091B5030E94F1038091A7037B
:1014500081608093A7038091B3030E940602C82F86
:101460008091B4030E940602880F991F8C2B8093F1
:10147000A90381E090E0909395038093940383E027
:1014800090E09093970380939603109298031092A4
:101490009A031092990310929C0310929B0310924E
:1014A0009E0310929D0350E040E065EC72E089E9F4
:1014B00093E00E94C1071092A00310929F03109224
:1014C000A2031092A1031092A4031092A30350E070
:1014D00040E065EC72E08FE993E0CF910C94C10796
:1014E000CF93DF93CDB7DEB7C454D1090FB6F894CC
:1014F000DEBF0FBECDBF789484B5826084BD84B555
:10150000816084BD85B5826085BD85B5816085BDFE
:1015100080916E00816080936E00109281008091B6
:10152000810082608093810080918100816080933E
:101530008100809180008160809380008091B10063
:1015400084608093B1008091B00081608093B0008E
:1015500080919100826080939100809191008160E0
:1015600080939100809190008160809390008091A1
:10157000A10082608093A1008091A100816080938E
:10158000A1008091A00081608093A0008091210142
:1015900082608093210180912101816080932101EB
:1015A0008091200181608093200180917A00846085
:1015B00080937A0080917A00826080937A00809193
:1015C0007A00816080937A0080917A0080688093AD
:1015D0007A001092C100E0910703F091080382E0C5
:1015E0008083E0910303F09104031082E0910503EE
:1015F000F09106038FEC808310920F03E0910B03B0
:10160000F0910C0386E08083E0910903F0910A03D6
:10161000808180618083E0910903F0910A038081D9
:1016200088608083E0910903F0910A0380818068DB
:101630008083E0910903F0910A0380818F7D80838C
:1016400062E084E10E94F10362E085E10E94F1031F
:1016500088E48093B8001092B9001092BE03809184
:10166000C303823018F098E09093BE038093C103C7
:1016700062E370E080E090E00E9452046091C40355
:1016800089EB93E00E94BC0568EE73E080E090E097
:101690000E94520460E389EB93E00E94E4050BE4AE
:1016A00016E4C8010197F1F760E389EB93E00E942B
:1016B000E405C8010197F1F760E389EB93E00E942C
:1016C000E40583E592E00197F1F760E289EB93E0AE
:1016D0000E94E4056091BE03606240E089EB93E004
:1016E0000E94FD0584E08093BF0340E06CE089EB3D
:1016F00093E00E94FD0540E061E089EB93E00E94E9
:10170000FD050BE31FE1C8010197F1F782E080932B
:10171000C00340E066E089EB93E00E94FD0540E0F5
:1017200062E089EB93E00E94FD05C8010197F1F7A3
:1017300088E08093C40360E089EB93E00E94BC05DD
:1017400064E973E0CE0142960E94B90864E973E04F
:10175000CE0183960E94B908AE014E5E5F4FBE0176
:101760006D5D7F4FCE0101960E940A08CE01019661
:101770000E949407CE0101960E944707CE018396EE
:101780000E944707CE0142960E9447070E94070722
:101790008091A603877F8093A60361E087E00E9483
:1017A000F10361E086E00E94F10361E085E00E94C0
:1017B000F10361E089E00E94F10360E08DE30E94A3
:1017C000F10361E087E00E94C30360E086E00E94CD
:1017D000C30360E085E00E94C30360E089E00E94EB
:1017E000C303BB24B39402E010E00E942F02809157
:1017F000A60382FD0E942F028091AA03813069F026
:101800008091A60382FD0E942F028091AA0382305C
:10181000C1F51092AA038BE003C01092AA038AE0DC
:1018200020919403309195032130310509F09CC13A
:1018300020919603309197032330310509F094C12C
:1018400090919803992309F452C18C3051F560E0CE
:1018500085E00E94C30361E080E00E9414068FE9E6
:1018600092E00E94FA0661E080E00E94140686EC95
:1018700092E00E94FA06809198038B25809398034A
:1018800005C18091A60382FD0E942F028091A503CD
:1018900085FF05C08F7D8093A5038CE0C1CF80E0DC
:1018A000BFCF8A3009F0F5C08091070290910802FD
:1018B000A0910902B0910A0283309105A105B105FA
:1018C00038F1B695A79597958795809307029093E1
:1018D0000802A0930902B0930A0261E080E00E942E
:1018E00014068BEB92E00E94FA0661E080E00E9411
:1018F00014068EEC92E00E94FA0660910702709145
:1019000008028091090290910A024AE00E94A6060C
:101910002FB7F8948091F3029091F402A091F50210
:10192000B091F6022FBF4091EA025091EB02609114
:10193000EC027091ED02841B950BA60BB70B409146
:101940000702509108026091090270910A0248173B
:1019500059076A077B0708F099C08091060288231F
:1019600009F4AEC00E9471019093050280930402B5
:1019700062E08EE00E94140680EC92E00E94FA067B
:1019800062E08EE00E9414068091040290910502AC
:101990000E94F406809102029091030220910402B9
:1019A00030910502820F931F9695879590930102BF
:1019B0008093000263E08EE00E94140680EC92E0C7
:1019C0000E94FA0663E08EE00E94140680910002F5
:1019D000909101020E94F40663E084E00E941406E4
:1019E00082EC92E00E94FA0663E084E00E94140612
:1019F000809104029091050220910202309103022D
:101A0000821B930B0E94F40662E084E00E9414069D
:101A100080EC92E00E94FA0662E084E00E941406E4
:101A20000E9471016C01990FEE08FF084AE0C7019E
:101A3000B601F7FE0EC041E06DE289EB93E00E9433
:101A4000FD0566277727CB016C197D098E099F0953
:101A50004AE00E94A606609106026B25609306028A
:101A600085E00E94C3032FB7F8948091F302909110
:101A7000F402A091F502B091F6022FBF8093EA0222
:101A80009093EB02A093EC02B093ED020E948805C4
:101A9000ACCE8B3009F03CCF8091070290910802C8
:101AA000A0910902B0910A02803127E29207A105B4
:101AB000B10508F02DCF880F991FAA1FBB1F05CFB6
:101AC0000E947101909303028093020261E08EE014
:101AD0000E94140680EC92E00E94FA0661E08EE01B
:101AE0000E941406809102029091030251CF8C3023
:101AF000D9F561E085E00E94C30361E080E00E94C7
:101B000014068FE992E00E94FA0661E080E00E94EC
:101B1000140681ED92E00E94FA0661E08AE00E94DC
:101B2000140689ED92E00E94FA0662E08AE00E94C3
:101B300014068DED92E00E94FA0663E08AE00E94AE
:101B4000140681EE92E00E94FA0663E080E00E94B3
:101B5000140685EE92E00E94FA0662E080E00E94A0
:101B6000140686EE92E085CE882309F48FCF8A3062
:101B700009F05EC064E973E0CE01C4960E94B90822
:101B80008EA99FA9009709F44DC08230910520F0DD
:101B900001979FAB8EAB18AE64E973E0CE0142961D
:101BA0000E94B908BE016C5C7F4FCE0183960E94F3
:101BB000B908AE014E5E5F4FBE016D5D7F4FCE0135
:101BC00001960E940A08CE0101960E949407CE0158
:101BD00001960E944707CE0183960E944707CE01D7
:101BE00042960E94470762E080E00E9414068BEA5A
:101BF00092E00E94FA0663E080E00E9414068BEAFD
:101C000092E00E94FA0664E080E00E9414068BEAEB
:101C100092E00E94FA06CE01C4960E9447070E94F5
:101C2000070734CF8CA99DA901979DAB8CABB3CF8F
:101C30008B3009F044C064E973E0CE01C4960E9481
:101C4000B9088EA99FA90097A1F101969FAB8EAB11
:101C500018AE64E973E0CE0142960E94B908BE0155
:101C60006C5C7F4FCE0183960E94B908AE014E5E38
:101C70005F4FBE016D5D7F4FCE0101960E940A0845
:101C8000CE0101960E949407CE0101960E9447075B
:101C9000CE0183960E944707CE0142960E944707D5
:101CA00061E080E00E9414068BEA92E00E94FA064E
:101CB0009ACF8CA99DA901969DAB8CABC9CF8C30D6
:101CC00009F0E4CE64E973E0CE01C4960E94B9083D
:101CD0008EA99FA98130910551F51FAA1EAA64E91A
:101CE00073E0CE0142960E94B908BE016C5C7F4F42
:101CF000CE0183960E94B908AE014E5E5F4FBE01D1
:101D00006D5D7F4FCE0101960E940A08CE010196BB
:101D10000E949407CE0101960E944707CE01839648
:101D20000E944707CE0142960E94470774CF892B35
:101D300019F41FAB0EABD3CF809198038B2588AFDE
:101D4000CECF84E993E00C944707A1E21A2EAA1B98
:101D5000BB1BFD010DC0AA1FBB1FEE1FFF1FA2175B
:101D6000B307E407F50720F0A21BB30BE40BF50B58
:101D7000661F771F881F991F1A9469F760957095E1
:101D8000809590959B01AC01BD01CF010895EE0FA8
:101D9000FF1F881F8BBF0790F691E02D19940F93BA
:101DA0001F93CF93DF938230910510F482E090E08F
:101DB000E091C703F091C80330E020E0B0E0A0E07C
:101DC000309799F42115310509F44AC0281B390BC5
:101DD00024303105D8F58A819B816115710589F11F
:101DE000FB0193838283FE0111C0408151810281F6
:101DF000138148175907E0F04817590799F41097CD
:101E000061F012960C93129713961C933296CF01A1
:101E1000DF91CF911F910F9108950093C703109305
:101E2000C803F4CF2115310551F04217530738F09C
:101E3000A901DB019A01BD01DF01F801C1CFEF016A
:101E4000F9CF9093C8038093C703CDCFFE01E20F73
:101E5000F31F819391932250310939832883D7CF7F
:101E60002091C5033091C603232B41F42091110228
:101E7000309112023093C6032093C50320910F02C4
:101E8000309110022115310541F42DB73EB7409134
:101E9000130250911402241B350BE091C503F091FD
:101EA000C603E217F307A0F42E1B3F0B28173907D0
:101EB00078F0AC014E5F5F4F2417350748F04E0FA6
:101EC0005F1F5093C6034093C503819391939FCFA7
:101ED000F0E0E0E09CCFCF93DF930097E9F0FC01C6
:101EE000329713821282A091C703B091C803ED010B
:101EF00030E020E01097A1F420813181820F931F00
:101F00002091C5033091C6032817390709F061C035
:101F1000F093C603E093C503DF91CF910895EA01E2
:101F2000CE17DF07E8F54A815B819E014115510517
:101F3000B1F7E901FB83EA8349915991C40FD51F99
:101F4000EC17FD0761F4808191810296840F951F43
:101F5000E90199838883828193819B838A83F0E05E
:101F6000E0E012968D919C9113970097B9F52D9111
:101F70003C911197CD010296820F931F2091C503CA
:101F80003091C6032817390739F6309751F510926A
:101F9000C8031092C703B093C603A093C503BCCF78
:101FA000D383C28340815181840F951FC817D907FD
:101FB00061F44E5F5F4F88819981480F591F5183AB
:101FC00040838A819B81938382832115310509F0A7
:101FD000B0CFF093C803E093C7039ECFFD01DC01AF
:101FE000C0CF13821282D7CF4F925F926F927F92AF
:101FF0008F929F92AF92BF92CF92DF92EF92FF9219
:102000000F931F93CF93DF938C01009799F4CB012B
:10201000DF91CF911F910F91FF90EF90DF90CF90C4
:10202000BF90AF909F908F907F906F905F904F90F8
:102030000C94CF0EFC01E60FF71F9C0122503109D2
:10204000E217F30708F4AEC0D901CD91DC911197E6
:10205000C617D70720F1C530D10578F0CE01049717
:102060008617970750F0C61BD70B2297C193D193C1
:102070006D937C93CF010E946B0FC801DF91CF91CC
:102080001F910F91FF90EF90DF90CF90BF90AF9096
:102090009F908F907F906F905F904F9008955B011D
:1020A000AC1ABD0A4C018C0E9D1EA091C703B091C5
:1020B000C803512C412CF12CE12C109731F5809163
:1020C000C5039091C6038815990509F05CC04616B2
:1020D000570608F058C080910F02909110020097A7
:1020E00041F48DB79EB74091130250911402841BA6
:1020F000950BE817F90708F055C0F093C603E09375
:10210000C503F90171836083B8CF8D919C911197BC
:1021100012966C90129713967C901397A815B90598
:1021200059F56C0142E0C40ED11CCA14DB0420F145
:10213000AC014A195B09DA011296159780F06282A8
:10214000738251834083D9016D937C93E114F10430
:1021500071F0D7011396FC93EE9312978ECF2296CF
:102160008C0F9D1FF90191838083F301EFCFF093D2
:10217000C803E093C70381CF4816590608F42C0121
:102180007D01D3019ACFCB010E94CF0E7C01009735
:1021900049F0AE01B8010E94D510C8010E946B0F32
:1021A00087016BCF10E000E068CFFB01DC0102C0CB
:1021B00001900D9241505040D8F70895FB01DC0189
:1021C00001900D920020E1F7089511E0CDE3D1E0F8
:1021D00000E006C0802FFE010E94C70E2196011D5F
:0E21E000CE33D10780E00807A9F7F894FFCFAF
:1021EE0003000100020001F40100000000000100E4
:1021FE0000C90380000000400014005400000000DD
:10220E00001B058504B2046805E304C104D504006F
:10221E0000000046068504B90584043C2D002D3EC1
:10222E0000486F6D65006261636B0041626F75748B
:10223E000048656C70004372656469740053657480
:10224E000053656E73206C6576656C0053656E7316
:10225E002074657374005261636500526163657228
:10226E002073656C0052657300416C6C207265734F
:10227E0000526573657420726573756C74730020FB
:10228E002020202020202020202020202020202040
:10229E002020202020202020202020202020202030
:1022AE0020202020200053746F7070656400543A13
:1022BE0000537461727465640056303A0056313AB8
:0A22CE000056413A0064563A000041
:00000001FF
