:100000000C9442010C9479080C944E080C9423082B
:100010000C94F8070C94CD070C94A2070C94770766
:100020000C944C070C9473010C9473010C947301A1
:100030000C9473010C9473010C9473010C94730170
:100040000C9473010C9473010C9473010C94730160
:100050000C9473010C9473010C9473010C940207BB
:100060000C9473010C94CE080C94A4080C947301A6
:100070000C9473010C9473010C9473010C94730130
:100080000C9473010C9473010C9473010C94730120
:100090000C9473010C9473010C9473010C94730110
:1000A0000C9473010C9473010C9473010C94730100
:1000B0000C9473010C9473010C9473010C947301F0
:1000C0000C9473010C9473010C9473010C947301E0
:1000D0000C9473010C9473010C9473010C947301D0
:1000E0000C9473010C94E6010C94F8010C948904AF
:1000F0000C94CB010C943B050C94DA050C94880409
:100100000C94EA010C94CF010C94D3010C940305D8
:100110000C9401020C94EE010C94E0010C948805FF
:100120000C9406020C94F4010C94C1010C94E104AB
:100130000C94C7010C94FD0C0C94DC010C94FC0194
:100140000C9402020C94D6010C94F5040C946506F0
:100150000C94D9050C94B6040C94D2040C940409A4
:1001600000002100240027002A002D003000330069
:1001700001010000040107010A010000220025001E
:1001800028002B002E003100340002010000050180
:1001900008010B01000020002300260029002C008C
:1001A0002F003200000100000301060109010505CE
:1001B0000505070508080808020202020A0A0808DD
:1001C000040404040101010101010101030303030B
:1001D00003030303040707070C0C0C0C0C0C0C0C9A
:1001E0000202020206060606060606060B0B0B0BAB
:1001F0000B0B0B0B010210202008081020401020D0
:1002000040800201020108040201010204081020DA
:1002100040808040201008040201800402018040D8
:100220002010080402010804020101020408102041
:100230004080010204081020408000000A0B0209DF
:100240000C0D0E0807030401000000000000000070
:10025000000000000000000000000000000000009E
:10026000000000000000121110000000000000005B
:10027000000000000000000000000000000000007E
:100280000409FD0C11241FBECFEFD1E2DEBFCDBFAC
:1002900000E00CBF23E0A0E6B2E001C01D92A7354C
:1002A000B207E1F712E0A0E0B2E0E6EBFEE100E029
:1002B0000BBF02C007900D92A036B107D9F711E02D
:1002C000C1E4D1E000E006C021970109802FFE01C2
:1002D0000E942B0DC034D10780E00807A9F70E94C7
:1002E000FF090C94490F0C94000080917B00877FDC
:1002F00080937B0087E480937C0080917A00806407
:1003000080937A0080917A0086FDFCCF80917800FE
:100310009091790008958093BB0084E88093BC009D
:100320008091BC0087FFFCCF8091B900887F80322C
:1003300021F481E0809311020895803319F481E063
:100340008093120208958150823108F05AC0E82F3C
:10035000F0E08827E155FE4F8F4F0C942B0DCF0115
:10036000D301C101C701CB010102D601DC01E001CB
:10037000E601EA01EE01F401F8010102FC010202CA
:100380000602809180008F7780938000089580918D
:1003900080008F7DF9CF80918000877FF5CF84B575
:1003A0008F7784BD089584B58F7DFBCF8091B00099
:1003B0008F778093B00008958091B0008F7DF9CF42
:1003C000809190008F7780939000089580919000A5
:1003D0008F7DF9CF80919000877FF5CF8091A0002D
:1003E0008F778093A00008958091A0008F7DF9CF32
:1003F0008091A000877FF5CF809120018F77809337
:1004000020010895809120018F7DF9CF80912001F6
:10041000877FF5CFCF93DF93282F30E0F901E65C9B
:10042000FD4F8491F901EC50FE4FD491F901E25552
:10043000FE4FC491CC23A1F081110E94A301EC2FA7
:10044000F0E0EE0FFF1FEC56FE4FA591B491EC913A
:10045000ED2381E090E009F480E0DF91CF910895F1
:1004600080E090E0FACF8F929F92AF92BF92CF92AE
:10047000DF92EF92FF920F931F93CF93DF938FB78B
:10048000F894C0907102D0907202E0907302F090E4
:1004900074028FBF8091340384FF74C0809039034D
:1004A00090903A03A0903B03B0903C039091450399
:1004B0009111F6C0809143030E940A0220913503F6
:1004C000022F017010E021E00817190709F420E05D
:1004D00020934603B701A601481959096A097B0907
:1004E000209146039091330391FB882780F92223C2
:1004F00009F419C181111AC0413551056105710511
:10050000A8F0C0923903D0923A03E0923B03F092F4
:100510003C03997E926190689093330380913503F8
:1005200080628093350340E050E0BA01809135034A
:100530009091330384FF12C04D3231E053076105BF
:10054000710560F092FD05C083FDB4C082608093A8
:100550003503809135038F7E8093350391FF12C060
:100560004D3B52406105710568F092FD0BC022239E
:1005700009F4A2C0916090933303809135038F7D7D
:100580008093350380914503882309F4A2C090919C
:10059000340396FB332730F9C32F80E0D82FCC0FDC
:1005A000DD1F95FB882780F98C2B209137032817B6
:1005B00009F469C0109238039091350396FFB0C0DA
:1005C000833009F097C09F7B90933503213009F465
:1005D0008DC091E0223009F48AC09091340393FDDC
:1005E00003C0833009F493C0909138039923E1F15B
:1005F0002091330328602093330340913D035091B1
:100600003E0360913F037091400397018601041BF4
:10061000150B260B370B4091360350E070E060E07D
:10062000041715072607370760F42091340322606A
:10063000913029F0923029F42091340321602093E5
:100640003403C0923D03D0923E03E0923F03F09208
:1006500040032091340324FF07C020914603222346
:1006600019F09E5F90933803809337038091330392
:10067000846080933303C0923903D0923A03E092AE
:100680003B03F0923C03DF91CF911F910F91FF90BC
:10069000EF90DF90CF90BF90AF909F908F90089594
:1006A00087FB882780F98093460314CF8091350318
:1006B000886037CF84604BCF9D7F9E7F90933303BC
:1006C000C0923903D0923A03E0923B03F0923C038C
:1006D00059CF809141030E940A02C82F80914203A2
:1006E0000E940A02880F991F8C2B5FCF92E0909393
:1006F000380373CF3091340333FD46C0811174CF7A
:100700009F7B90933503213041F0223031F090915E
:10071000350390649093350367CF20933803F7CF68
:100720008823A9F35ACF882309F400CF4135510516
:100730006105710508F4FACE92FD05C090FD03C075
:100740009062909333034D3B52406105710528F050
:100750008091330380648093330380913303C0928C
:100760003903D0923A03E0923B03F0923C038D7F31
:100770008E7F809333038091350385FF97CF84FD6F
:1007800095CF8061877FCDCE882309F26DCF1F93EF
:10079000CF93DF93282F30E0F901E65CFD4F849181
:1007A000F901EC50FE4FD491F901E255FE4FC4918E
:1007B000CC23A9F0162F81110E94A301EC2FF0E0A9
:1007C000EE0FFF1FE658FE4FA591B4918FB7F89436
:1007D000EC91111108C0D095DE23DC938FBFDF911F
:1007E000CF911F910895DE2BF8CFCF93DF9390E048
:1007F000FC01EC50FE4F249182559E4FFC018491E8
:100800008823C9F090E0880F991FFC01E05AFE4F41
:10081000A591B491FC01E658FE4FC591D4916111A8
:100820000DC09FB7F8948C91209582238C9388817A
:10083000282328839FBFDF91CF910895623051F420
:100840009FB7F8943C91822F809583238C93E88105
:100850002E2BEFCF8FB7F894EC912E2B2C938FBFCC
:10086000EACF3FB7F89480916D0290916E02A0910B
:100870006F02B091700226B5A89B05C02F3F19F0FA
:100880000196A11DB11D3FBFBA2FA92F982F882710
:10089000BC01CD01620F711D811D911D42E0660FEB
:1008A000771F881F991F4A95D1F708958F929F92BD
:1008B000AF92BF92CF92DF92EF92FF924B015C0119
:1008C0000E9431046B017C010E9431046C197D0986
:1008D0008E099F09683E734081059105A8F321E0C8
:1008E000821A9108A108B10888EEC80E83E0D81ECC
:1008F000E11CF11C81149104A104B10429F7FF90BB
:10090000EF90DF90CF90BF90AF909F908F90089521
:100910000895AF92BF92CF92DF92EF92FF920F9322
:100920001F93CF93DF936C017B018B01040F151F85
:10093000EB015E01AE18BF08C017D10759F06991ED
:10094000D601ED91FC910190F081E02DC601199541
:10095000892B79F7C501DF91CF911F910F91FF90FE
:10096000EF90DF90CF90BF90AF9008950E947501F7
:10097000409168025091690260916A0270916B0225
:10098000E2E1F3E021E021834283538364837583B2
:10099000092E000CAA0BBB0B86839783A087B18717
:1009A00010820895FC01538D448D252F30E0842F53
:1009B00090E0821B930B541710F0CF960895019787
:1009C0000895FC01918D828D981761F0A28DAE0F74
:1009D000BF2FB11D5D968C91928D9F5F9F73928FFB
:1009E00090E008958FEF9FEF0895FC01918D828D27
:1009F000981731F0828DE80FF11D858D90E00895F4
:100A00008FEF9FEF0895FC01918D228D892F90E04B
:100A1000805C9F4F821B91098F739927089585E70A
:100A200092E00E94030521E0892B09F420E0822F47
:100A30000895FC01A48DA80FB92FB11DA35ABF4F73
:100A40002C91848D90E001968F739927848FA689CD
:100A5000B7892C93A089B1898C91837080648C9321
:100A6000938D848D981306C00288F389E02D8081D0
:100A70008F7D80830895EF92FF920F931F93CF9302
:100A8000DF93EC0181E0888F9B8D8C8D98131AC0C9
:100A9000E889F989808185FF15C09FB7F894EE89B0
:100AA000FF896083E889F98980818370806480830D
:100AB0009FBF81E090E0DF91CF911F910F91FF9058
:100AC000EF900895F62E0B8D10E00F5F1F4F0F7300
:100AD0001127E02E8C8D8E110CC00FB607FCFACFBB
:100AE000E889F989808185FFF5CFCE010E9419053B
:100AF000F1CFEB8DEC0FFD2FF11DE35AFF4FF0828C
:100B00009FB7F8940B8FEA89FB8980818062CFCFF1
:100B1000CF93DF93EC01888D8823B9F0AA89BB8934
:100B2000E889F9898C9185FD03C0808186FD0DC01F
:100B30000FB607FCF7CF8C9185FFF2CF808185FF40
:100B4000EDCFCE010E941905E9CFDF91CF91089535
:100B500080E090E0892B29F00E940F0581110E940E
:100B6000000080E090E0892B49F080E090E0892B44
:100B700029F00E94000081110E94000080E090E0B6
:100B8000892B49F080E090E0892B29F00E94000039
:100B900081110E94000080E090E0892B49F080E004
:100BA00090E0892B29F00E94000081110C94000034
:100BB0000895089590E080E008951F93CF93DF9308
:100BC000EC01162F8C8194EA9093BC009091BC00AC
:100BD00097FFFCCF880F0E948B018B85812B0E9491
:100BE0008B0184E98093BC0080911102882329F055
:100BF000109211021092120204C08091120281110F
:100C0000F9CFDF91CF911F9108950F931F93CF9349
:100C10008C01C62F0E94DD056C2F6460C8010E9404
:100C2000DD056C2F6B7FC8010E94DD0583EC90E031
:100C30000197F1F7CF911F910F9108950F931F9393
:100C4000CF93DF938C01D62FC42F607F642B0E943B
:100C5000050680E1D89FB00111246C2BC801DF91FB
:100C6000CF911F910F910C940506CF93DF9300D085
:100C700000D01F921F92CDB7DEB798E0EAE1F2E014
:100C8000DE01119601900D929A95E1F790914F0334
:100C9000981710F48FEF890F90E0880F991F21E0CB
:100CA00030E02C0F3D1F820F931FFC0160816068B4
:100CB00040E087E493E028960FB6F894DEBF0FBEBD
:100CC000CDBFDF91CF910C941E0641E00E941E061D
:100CD00081E090E00895FB0101900020E9F7319751
:100CE000AF01461B570BDC01ED91FC910280F381B3
:100CF000E02D19948F929F92AF92BF92EF92FF9244
:100D00000F931F93CF93DF93CDB7DEB7A1970FB6A5
:100D1000F894DEBF0FBECDBF7C01FA01CB0119A252
:100D2000223008F42AE08E010F5D1F4F822E912C95
:100D3000B12CA12CBF01A50194010E94090DF9015C
:100D4000CA016A300CF5605DD8016E938D01232BCA
:100D5000242B252B79F790E080E0109721F0BD013E
:100D6000C7010E946B06A1960FB6F894DEBF0FBEB6
:100D7000CDBFDF91CF911F910F91FF90EF90BF906A
:100D8000AF909F908F900895695CDECF0C946B06B6
:100D9000CF93DF93EC0188819981892B91F461E0F5
:100DA00070E090E080E00E94580E0097A1F09983D7
:100DB00088831B821A822C813D81232B11F4FC0134
:100DC00010821D821C8261E472E088819981DF912A
:100DD000CF910C94420F88819981009711F00E9465
:100DE000CF0D198218821D821C821B821A82DF910C
:100DF000CF910895FC0180819181009711F00C94AE
:100E0000CF0D08951F920F920FB60F9211242F93BA
:100E10003F938F939F93AF93BF9380917102909173
:100E20007202A0917302B091740230916C0223E0BF
:100E3000230F2D3758F50196A11DB11D20936C028B
:100E40008093710290937202A0937302B093740224
:100E500080916D0290916E02A0916F02B09170022C
:100E60000196A11DB11D80936D0290936E02A09317
:100E70006F02B0937002BF91AF919F918F913F919C
:100E80002F910F900FBE0F901F90189526E8230FFB
:100E90000296A11DB11DD2CF1F920F920FB60F92D5
:100EA00011240BB60F922F933F934F935F936F9341
:100EB0007F938F939F93AF93BF93EF93FF93E091B3
:100EC0000E02F0910F021995FF91EF91BF91AF9132
:100ED0009F918F917F916F915F914F913F912F9152
:100EE0000F900BBE0F900FBE0F901F9018951F9282
:100EF0000F920FB60F9211240BB60F922F933F93C0
:100F00004F935F936F937F938F939F93AF93BF9311
:100F1000EF93FF93E0910C02F0910D021995FF9170
:100F2000EF91BF91AF919F918F917F916F915F9161
:100F30004F913F912F910F900BBE0F900FBE0F90CE
:100F40001F9018951F920F920FB60F9211240BB697
:100F50000F922F933F934F935F936F937F938F9352
:100F60009F93AF93BF93EF93FF93E0910202F091B1
:100F700003021995FF91EF91BF91AF919F918F91CE
:100F80007F916F915F914F913F912F910F900BBE89
:100F90000F900FBE0F901F9018951F920F920FB6D3
:100FA0000F9211240BB60F922F933F934F935F93A1
:100FB0006F937F938F939F93AF93BF93EF93FF9321
:100FC000E0910002F09101021995FF91EF91BF911C
:100FD000AF919F918F917F916F915F914F913F91D1
:100FE0002F910F900BBE0F900FBE0F901F90189572
:100FF0001F920F920FB60F9211240BB60F922F93E0
:101000003F934F935F936F937F938F939F93AF9390
:10101000BF93EF93FF93E0910A02F0910B021995B1
:10102000FF91EF91BF91AF919F918F917F916F91C0
:101030005F914F913F912F910F900BBE0F900FBE7C
:101040000F901F9018951F920F920FB60F921124B8
:101050000BB60F922F933F934F935F936F937F93B2
:101060008F939F93AF93BF93EF93FF93E091080209
:10107000F09109021995FF91EF91BF91AF919F9166
:101080008F917F916F915F914F913F912F910F9031
:101090000BBE0F900FBE0F901F9018951F920F92CE
:1010A0000FB60F9211240BB60F922F933F934F93CD
:1010B0005F936F937F938F939F93AF93BF93EF93C0
:1010C000FF93E0910602F09107021995FF91EF91CD
:1010D000BF91AF919F918F917F916F915F914F9150
:1010E0003F912F910F900BBE0F900FBE0F901F904E
:1010F00018951F920F920FB60F9211240BB60F92F4
:101100002F933F934F935F936F937F938F939F930F
:10111000AF93BF93EF93FF93E0910402F091050228
:101120001995FF91EF91BF91AF919F918F917F9111
:101130006F915F914F913F912F910F900BBE0F9048
:101140000FBE0F901F9018951F920F920FB60F921F
:1011500011240BB60F922F933F934F935F936F938E
:101160007F938F939F93AF93BF93EF93FF9385E705
:1011700092E00E941905FF91EF91BF91AF919F916D
:101180008F917F916F915F914F913F912F910F9030
:101190000BBE0F900FBE0F901F9018951F920F92CD
:1011A0000FB60F9211240BB60F922F938F939F932C
:1011B000EF93FF93E0918502F09186028081E091A8
:1011C0008B02F0918C0282FD1DC0908180918E0275
:1011D0008F5F8F7320918F02821741F0E0918E0212
:1011E000F0E0EB58FD4F958F80938E02FF91EF91C9
:1011F0009F918F912F910F900BBE0F900FBE0F906C
:101200001F9018958081F2CFCF93109278021092A0
:10121000770288EE93E0A0E0B0E0809379029093AB
:101220007A02A0937B02B0937C0286E292E09093D4
:1012300076028093750285EC90E090938202809311
:10124000810284EC90E0909384028093830280EC8E
:1012500090E0909386028093850281EC90E09093D9
:1012600088028093870282EC90E090938A028093B8
:10127000890286EC90E090938C0280938B0210920E
:101280008E0210928F021092900210929102109290
:101290004A031092490388E392E0909348038093B5
:1012A000470387E280934B0384E18093500384E0FB
:1012B000809351031092520392E39093360310925D
:1012C0003703109238031092390310923A031092A8
:1012D0003B0310923C0310923D0310923E03109288
:1012E0003F03109240031092440310924503109262
:1012F000460392E09093410393E0909342038093DE
:101300004303809134038061877F8093340362E0DC
:1013100082E00E94F50362E0809142030E94F5039F
:101320008091340384FF05C062E0809143030E94F2
:10133000F5038091350381608093350380914103EB
:101340000E940A02C82F809142030E940A02880F5D
:10135000991F8C2B8093370381E090E090932303B7
:101360008093220383E090E09093250380932403ED
:1013700010922603109228031092270310922A033A
:101380001092290310922C0310922B0387E293E012
:101390000E94C80610922E0310922D031092300363
:1013A00010922F0310923203109231038DE293E0DA
:1013B0000E94C80610921203109213031092140395
:1013C000109215031092160310921703109218032F
:1013D0001092190310921A0310921B0310921D030E
:1013E00010921C0310921F0310921E0310922103EF
:1013F000109220038CE193E0CF910C94C80678946E
:1014000084B5826084BD84B5816084BD85B5826009
:1014100085BD85B5816085BD80916E0081608093BA
:101420006E00109281008091810082608093810023
:101430008091810081608093810080918000816033
:10144000809380008091B10084608093B10080918E
:10145000B00081608093B0008091910082608093A1
:101460009100809191008160809391008091900023
:101470008160809390008091A10082608093A100A0
:101480008091A10081608093A1008091A000816083
:101490008093A0008091210182608093210180913E
:1014A00021018160809321018091200181608093DE
:1014B000200180917A00846080937A0080917A0084
:1014C000826080937A0080917A00816080937A00B4
:1014D00080917A00806880937A001092C100E09138
:1014E0008502F091860282E08083E0918102F09192
:1014F00082021082E0918302F09184028FEC80835B
:1015000010928D02E0918902F0918A0286E0808338
:10151000E0918702F0918802808180618083E09170
:101520008702F0918802808188608083E091870241
:10153000F0918802808180688083E0918702F09139
:10154000880280818F7D808362E084E10E94F503C0
:1015500062E085E10E94F50388E48093B800109270
:10156000B90010924C0380915103823018F098E03A
:1015700090934C0380934F0362E370E080E090E02F
:101580000E9456046091520387E493E00E94DD05B7
:1015900068EE73E080E090E00E94560460E387E428
:1015A00093E00E940506CBE4D6E4CE010197F1F763
:1015B00060E387E493E00E9405062197F1F760E37A
:1015C00087E493E00E94050683E592E00197F1F736
:1015D00060E287E493E00E94050660914C0360623C
:1015E00040E087E493E00E941E0684E080934D0370
:1015F00040E06CE087E493E00E941E0640E061E07A
:1016000087E493E00E941E06CBE3DFE1CE01019761
:10161000F1F782E080934E0340E066E087E493E0D8
:101620000E941E0640E062E087E493E00E941E06EE
:101630002197F1F788E08093520360E087E493E01C
:101640000E94DD0580913403877F8093340361E03D
:1016500087E00E94F50361E086E00E94F50361E007
:1016600085E00E94F50361E089E00E94F50361E0F6
:1016700088E00E94F50360E08DE30E94F50360E0DE
:1016800082E10E94F50361E087E00E94C70360E009
:1016900086E00E94C70360E085E00E94C70360E027
:1016A00089E00E94C70361E088E00E94C70361E00F
:1016B00085E00E94C70386EB94E090930B02809331
:1016C0000A0280916900806C80936900EB9ADAE0ED
:1016D0001BE00CE0C1E02FB7F8948091710290916B
:1016E0007202A0917302B09174022FBF80936802BE
:1016F00090936902A0936A02B0936B0280913403C5
:1017000082FD0E943302809138038130B1F410923F
:101710003803D09313031092140310921503109200
:1017200016031092170310921803109219031092C7
:101730001A0310921B03109212038091340382FD4E
:101740000E943302809138038230B1F41092380342
:1017500010931303109214031092150310921603A2
:1017600010921703109218031092190310921A0383
:1017700010921B03109212038091340382FD0E9489
:1017800033028091330385FF17C08F7D809333032D
:101790000093130310921403109215031092160372
:1017A00010921703109218031092190310921A0343
:1017B00010921B0310921203809112038111C6C074
:1017C000F090130381E0F81279C04091130350E0C8
:1017D00070E060E02AE085E792E00E947A0660E42B
:1017E00072E085E792E00E94C60640911403509192
:1017F0001503609116037091170380916002909118
:101800006102A0916202B0916302481B590B6A0BFE
:101810007B0B2AE085E792E00E947A0660E472E0A2
:1018200085E792E00E94C606409118035091190383
:1018300060911A0370911B032AE085E792E00E94F1
:101840007A0662E472E085E792E00E94C60681E0D3
:101850000E94350665E472E087E493E00E94C606C4
:1018600081E00E9435064091140350911503609168
:101870001603709117038091600290916102A0910C
:101880006202B0916302481B590B6A0B7B0B2AE082
:1018900087E493E00E947A068091140390911503E7
:1018A000A0911603B0911703809360029093610298
:1018B000A0936202B0936302F0921203809113032B
:1018C0008A30A1F483E00E94350665E472E087E483
:1018D00093E00E94C60683E00E9435066FE472E042
:1018E00087E493E00E94C606C0931203809113031D
:1018F0008B30A1F483E00E94350665E472E087E452
:1019000093E00E94C60683E00E94350664E572E01B
:1019100087E493E00E94C606C093120380911303EC
:101920008C30A1F483E00E94350665E472E087E420
:1019300093E00E94C60683E00E9435066AE572E0E5
:1019400087E493E00E94C606C0931203809164026C
:1019500090916502A0916602B0916702845D9E4FEE
:10196000AF4FBF4F409168025091690260916A0287
:1019700070916B0284179507A607B707C8F582E038
:101980000E94350665E472E087E493E00E94C60693
:1019900082E00E9435060E9475016C01990FEE08E5
:1019A000FF082AE0B701A601F7FE0EC041E06DE294
:1019B00087E493E00E941E0644275527BA014C197C
:1019C0005D096E097F092AE087E493E00E947A06A8
:1019D0008091680290916902A0916A02B0916B02B5
:1019E0008093640290936502A0936602B0936702AD
:1019F0000E9433020E94A8056ECE8CE193E00E9403
:101A0000FA068DE293E00E94FA0687E293E00C94D6
:101A1000FA06A1E21A2EAA1BBB1BFD010DC0AA1FCC
:101A2000BB1FEE1FFF1FA217B307E407F50720F047
:101A3000A21BB30BE40BF50B661F771F881F991FC2
:101A40001A9469F760957095809590959B01AC010B
:101A5000BD01CF010895EE0FFF1F881F8BBF0790B8
:101A6000F691E02D19940F931F93CF93DF9382305B
:101A7000910510F482E090E0E0915503F091560357
:101A800030E020E0B0E0A0E0309799F42115310576
:101A900009F44AC0281B390B24303105D8F58A8156
:101AA0009B816115710589F1FB0193838283FE019E
:101AB00011C0408151810281138148175907E0F01C
:101AC0004817590799F4109761F012960C931297E2
:101AD00013961C933296CF01DF91CF911F910F91F6
:101AE00008950093550310935603F4CF2115310543
:101AF00051F04217530738F0A901DB019A01BD01EB
:101B0000DF01F801C1CFEF01F9CF90935603809325
:101B10005503CDCFFE01E20FF31F81939193225025
:101B2000310939832883D7CF20915303309154034F
:101B3000232B41F420911602309117023093540365
:101B40002093530320911402309115022115310581
:101B500041F42DB73EB74091180250911902241B51
:101B6000350BE0915303F0915403E217F307A0F40F
:101B70002E1B3F0B2817390778F0AC014E5F5F4FE3
:101B80002417350748F04E0F5F1F509354034093BE
:101B90005303819391939FCFF0E0E0E09CCFCF93EC
:101BA000DF930097E9F0FC01329713821282A09133
:101BB0005503B0915603ED0130E020E01097A1F4F9
:101BC00020813181820F931F209153033091540360
:101BD0002817390709F061C0F0935403E0935303C9
:101BE000DF91CF910895EA01CE17DF07E8F54A812A
:101BF0005B819E0141155105B1F7E901FB83EA8341
:101C000049915991C40FD51FEC17FD0761F48081EC
:101C100091810296840F951FE901998388838281BF
:101C200093819B838A83F0E0E0E012968D919C91F2
:101C300013970097B9F52D913C911197CD0102961C
:101C4000820F931F209153033091540328173907B3
:101C500039F6309751F51092560310925503B09310
:101C60005403A0935303BCCFD383C28340815181DB
:101C7000840F951FC817D90761F44E5F5F4F8881A5
:101C80009981480F591F518340838A819B81938397
:101C900082832115310509F0B0CFF0935603E0930C
:101CA00055039ECFFD01DC01C0CF13821282D7CF36
:101CB0004F925F926F927F928F929F92AF92BF925C
:101CC000CF92DF92EF92FF920F931F93CF93DF9308
:101CD0008C01009799F4CB01DF91CF911F910F9167
:101CE000FF90EF90DF90CF90BF90AF909F908F903C
:101CF0007F906F905F904F900C94330DFC01E60F36
:101D0000F71F9C0122503109E217F30708F4AEC017
:101D1000D901CD91DC911197C617D70720F1C530B5
:101D2000D10578F0CE0104978617970750F0C61BAF
:101D3000D70B2297C193D1936D937C93CF010E94CF
:101D4000CF0DC801DF91CF911F910F91FF90EF90C0
:101D5000DF90CF90BF90AF909F908F907F906F90CB
:101D60005F904F9008955B01AC1ABD0A4C018C0E38
:101D70009D1EA0915503B0915603512C412CF12C7E
:101D8000E12C109731F580915303909154038815FD
:101D9000990509F05CC04616570608F058C08091B6
:101DA000140290911502009741F48DB79EB74091AF
:101DB000180250911902841B950BE817F90708F0D7
:101DC00055C0F0935403E0935303F901718360838A
:101DD000B8CF8D919C91119712966C901297139693
:101DE0007C901397A815B90559F56C0142E0C40E13
:101DF000D11CCA14DB0420F1AC014A195B09DA01D9
:101E00001296159780F06282738251834083D901C4
:101E10006D937C93E114F10471F0D7011396FC9358
:101E2000EE9312978ECF22968C0F9D1FF90191830E
:101E30008083F301EFCFF0935603E093550381CFF6
:101E40004816590608F42C017D01D3019ACFCB0125
:101E50000E94330D7C01009749F0AE01B8010E9449
:101E6000390FC8010E94CF0D87016BCF10E000E051
:101E700068CFFB01DC0102C001900D92415050403F
:101E8000D8F70895FB01DC0101900D920020E1F7E5
:101E9000089511E0C1E4D1E000E006C0802FFE010A
:101EA0000E942B0D2196011DC234D10780E0080746
:061EB000A9F7F894FFCF32
:101EB60088048804880488048804880488048804BC
:101EC60000000001000057038000000040001400DD
:101ED6005400000000003B058904D2048805030570
:101EE600E104F5040000000065068904DA05D90559
:101EF6000900090A00202020202020202020006C34
:101F060065667400726967687400636C69636B0068
:00000001FF
