:100000000C9442010C940F0B0C94E40A0C94B90A62
:100010000C948E0A0C94630A0C94380A0C940D0A02
:100020000C94E2090C9473010C9473010C94730109
:100030000C9473010C9473010C9473010C94730170
:100040000C9473010C9473010C9473010C94730160
:100050000C9473010C9473010C9473010C94980923
:100060000C9473010C94640B0C943A0B0C94730174
:100070000C9473010C9473010C9473010C94730130
:100080000C9473010C9473010C9473010C94730120
:100090000C9473010C9473010C9473010C94730110
:1000A0000C9473010C9473010C9473010C94730100
:1000B0000C9473010C9473010C9473010C947301F0
:1000C0000C9473010C9473010C9473010C947301E0
:1000D0000C9473010C9473010C9473010C947301D0
:1000E0000C9473010C94C7010C94EA010C94D60192
:1000F0000C9401020C9462060C94C1010C94CF0183
:100100000C94EE010C949A0B0C94FC010C94E001FD
:100110000C94D3010C94F0040C94CB010C94DC01EE
:100120000C9402020C94F4010C9488040C9489043D
:100130000C94B6040C94CD040C94F8010C94360580
:100140000C94FE040C9483050C94E6010C94D405E5
:100150000C9406020C9446120C94D5050C94DC0405
:1001600000002100240027002A002D003000330069
:1001700001010000040107010A010000220025001E
:1001800028002B002E003100340002010000050180
:1001900008010B01000020002300260029002C008C
:1001A0002F003200000100000301060109010505CE
:1001B0000505070508080808020202020A0A0808DD
:1001C000040404040101010101010101030303030B
:1001D00003030303040707070C0C0C0C0C0C0C0C9A
:1001E0000202020206060606060606060B0B0B0BAB
:1001F0000B0B0B0B010210202008081020401020D0
:1002000040800201020108040201010204081020DA
:1002100040808040201008040201800402018040D8
:100220002010080402010804020101020408102041
:100230004080010204081020408000000A0B0209DF
:100240000C0D0E0807030401000000000000000070
:10025000000000000000000000000000000000009E
:10026000000000000000121110000000000000005B
:10027000000000000000000000000000000000007E
:100280009A0B461211241FBECFEFD1E2DEBFCDBFC5
:1002900000E00CBF25E0A6EDB3E001C01D92A23640
:1002A000B207E1F713E0A0E0B2E0EAEAF9E200E029
:1002B0000BBF02C007900D92A63DB107D9F711E020
:1002C000C1E4D1E000E006C021970109802FFE01C2
:1002D0000E94A512C034D10780E00807A9F70E9448
:1002E0008D0C0C94C3140C94000080917B00877FCC
:1002F00080937B0087E480937C0080917A00806407
:1003000080937A0080917A0086FDFCCF80917800FE
:100310009091790008958093BB0084E88093BC009D
:100320008091BC0087FFFCCF8091B900887F80322C
:1003300021F481E0809311020895803319F481E063
:100340008093120208958150823108F05AC0E82F3C
:10035000F0E08827E155FE4F8F4F0C94A512CF0196
:10036000D301C101C701CB010102D601DC01E001CB
:10037000E601EA01EE01F401F8010102FC010202CA
:100380000602809180008F7780938000089580918D
:1003900080008F7DF9CF80918000877FF5CF84B575
:1003A0008F7784BD089584B58F7DFBCF8091B00099
:1003B0008F778093B00008958091B0008F7DF9CF42
:1003C000809190008F7780939000089580919000A5
:1003D0008F7DF9CF80919000877FF5CF8091A0002D
:1003E0008F778093A00008958091A0008F7DF9CF32
:1003F0008091A000877FF5CF809120018F77809337
:1004000020010895809120018F7DF9CF80912001F6
:10041000877FF5CFCF93DF93282F30E0F901E65C9B
:10042000FD4F8491F901EC50FE4FD491F901E25552
:10043000FE4FC491CC23A1F081110E94A301EC2FA7
:10044000F0E0EE0FFF1FEC56FE4FA591B491EC913A
:10045000ED2381E090E009F480E0DF91CF910895F1
:1004600080E090E0FACF8F929F92AF92BF92CF92AE
:10047000DF92EF92FF920F931F93CF93DF938FB78B
:10048000F894C090EE03D090EF03E090F003F0906A
:10049000F1038FBF80913F0584FF74C080904405B5
:1004A00090904505A0904605B09047059091500565
:1004B0009111F6C080914E050E940A0220914005DC
:1004C000022F017010E021E00817190709F420E05D
:1004D00020935105B701A601481959096A097B09FA
:1004E0002091510590913E0591FB882780F92223A8
:1004F00009F419C181111AC0413551056105710511
:10050000A8F0C0924405D0924505E0924605F092CD
:100510004705997E9261906890933E0580914005D1
:1005200080628093400540E050E0BA018091400530
:1005300090913E0584FF12C04D3231E053076105B2
:10054000710560F092FD05C083FDB4C082608093A8
:100550004005809140058F7E8093400591FF12C039
:100560004D3B52406105710568F092FD0BC022239E
:1005700009F4A2C0916090933E05809140058F7D63
:100580008093400580915005882309F4A2C0909182
:100590003F0596FB332730F9C32F80E0D82FCC0FCF
:1005A000DD1F95FB882780F98C2B209142052817A9
:1005B00009F469C0109243059091400596FFB0C0C0
:1005C000833009F097C09F7B90934005213009F458
:1005D0008DC091E0223009F48AC090913F0593FDCF
:1005E00003C0833009F493C0909143059923E1F14E
:1005F00020913E05286020933E054091480550918A
:10060000490560914A0570914B0597018601041BCD
:10061000150B260B370B4091410550E070E060E070
:10062000041715072607370760F420913F0522605D
:10063000913029F0923029F420913F0521602093D8
:100640003F05C0924805D0924905E0924A05F092D4
:100650004B0520913F0524FF07C02091510522231F
:1006600019F09E5F909343058093420580913E056B
:10067000846080933E05C0924405D0924505E09287
:100680004605F0924705DF91CF911F910F91FF90A2
:10069000EF90DF90CF90BF90AF909F908F90089594
:1006A00087FB882780F98093510514CF80914005FE
:1006B000886037CF84604BCF9D7F9E7F90933E05AF
:1006C000C0924405D0924505E0924605F092470558
:1006D00059CF80914C050E940A02C82F80914D0588
:1006E0000E940A02880F991F8C2B5FCF92E0909393
:1006F000430573CF30913F0533FD46C0811174CF60
:100700009F7B90934005213041F0223031F0909151
:10071000400590649093400567CF20934305F7CF41
:100720008823A9F35ACF882309F400CF4135510516
:100730006105710508F4FACE92FD05C090FD03C075
:10074000906290933E054D3B52406105710528F043
:1007500080913E05806480933E0580913E05C09265
:100760004405D0924505E0924605F09247058D7FFD
:100770008E7F80933E058091400585FF97CF84FD55
:1007800095CF8061877FCDCE882309F26DCF1F93EF
:10079000CF93DF93282F30E0F901E65CFD4F849181
:1007A000F901EC50FE4FD491F901E255FE4FC4918E
:1007B000CC23A9F0162F81110E94A301EC2FF0E0A9
:1007C000EE0FFF1FE658FE4FA591B4918FB7F89436
:1007D000EC91111108C0D095DE23DC938FBFDF911F
:1007E000CF911F910895DE2BF8CFCF93DF9390E048
:1007F000FC01EC50FE4F249182559E4FFC018491E8
:100800008823C9F090E0880F991FFC01E05AFE4F41
:10081000A591B491FC01E658FE4FC591D4916111A8
:100820000DC09FB7F8948C91209582238C9388817A
:10083000282328839FBFDF91CF910895623051F420
:100840009FB7F8943C91822F809583238C93E88105
:100850002E2BEFCF8FB7F894EC912E2B2C938FBFCC
:10086000EACF3FB7F8948091EA039091EB03A0910F
:10087000EC03B091ED0326B5A89B05C02F3F19F0FE
:100880000196A11DB11D3FBFBA2FA92F982F882710
:10089000BC01CD01620F711D811D911D42E0660FEB
:1008A000771F881F991F4A95D1F708958F929F92BD
:1008B000AF92BF92CF92DF92EF92FF924B015C0119
:1008C0000E9431046B017C010E9431046C197D0986
:1008D0008E099F09683E734081059105A8F321E0C8
:1008E000821A9108A108B10888EEC80E83E0D81ECC
:1008F000E11CF11C81149104A104B10429F7FF90BB
:10090000EF90DF90CF90BF90AF909F908F90089521
:100910000895AF92BF92CF92DF92EF92FF920F9322
:100920001F93CF93DF936C017B018B01040F151F85
:10093000EB015E01AE18BF08C017D10759F06991ED
:10094000D601ED91FC910190F081E02DC601199541
:10095000892B79F7C501DF91CF911F910F91FF90FE
:10096000EF90DF90CF90BF90AF9008958091E50316
:100970009091E603A091E703B091E8038093D80338
:100980009093D903A093DA03B093DB030E9475011F
:100990009093D7038093D6030895FC01538D448D23
:1009A000252F30E0842F90E0821B930B541710F01A
:1009B000CF96089501970895FC01918D828D981727
:1009C00061F0A28DAE0FBF2FB11D5D968C91928DFF
:1009D0009F5F9F73928F90E008958FEF9FEF089530
:1009E000FC01918D828D981731F0828DE80FF11DF9
:1009F000858D90E008958FEF9FEF0895FC01918D14
:100A0000228D892F90E0805C9F4F821B91098F730C
:100A10009927089582EF93E00E94FE0421E0892B3C
:100A200009F420E0822F0895FC01A48DA80FB92FAE
:100A3000B11DA35ABF4F2C91848D90E001968F7306
:100A40009927848FA689B7892C93A089B1898C9125
:100A5000837080648C93938D848D981306C0028874
:100A6000F389E02D80818F7D80830895EF92FF923E
:100A70000F931F93CF93DF93EC0181E0888F9B8DC1
:100A80008C8D98131AC0E889F989808185FF15C07B
:100A90009FB7F894EE89FF896083E889F98980819E
:100AA0008370806480839FBF81E090E0DF91CF916D
:100AB0001F910F91FF90EF900895F62E0B8D10E08F
:100AC0000F5F1F4F0F731127E02E8C8D8E110CC0FE
:100AD0000FB607FCFACFE889F989808185FFF5CF49
:100AE000CE010E941405F1CFEB8DEC0FFD2FF11D0F
:100AF000E35AFF4FF0829FB7F8940B8FEA89FB8986
:100B000080818062CFCFCF93DF93EC01888D8823E3
:100B1000B9F0AA89BB89E889F9898C9185FD03C060
:100B2000808186FD0DC00FB607FCF7CF8C9185FF45
:100B3000F2CF808185FFEDCFCE010E941405E9CF71
:100B4000DF91CF91089580E090E0892B29F00E94F9
:100B50000A0581110E94000080E090E0892B49F095
:100B600080E090E0892B29F00E94000081110E9412
:100B7000000080E090E0892B49F080E090E0892B34
:100B800029F00E94000081110E94000080E090E0A6
:100B9000892B49F080E090E0892B29F00E94000029
:100BA00081110C9400000895089590E080E008956C
:100BB0001F93CF93DF93EC01162F8C8194EA9093CF
:100BC000BC009091BC0097FFFCCF880F0E948B0166
:100BD0008B85812B0E948B0184E98093BC008091DE
:100BE0001102882329F0109211021092120204C0FF
:100BF000809112028111F9CFDF91CF911F91089559
:100C00000F931F93CF938C01C62F0E94D8056C2F92
:100C10006460C8010E94D8056C2F6B7FC8010E94D8
:100C2000D80583EC90E00197F1F7CF911F910F91D8
:100C300008950F931F93CF93DF938C01D62FC42F6A
:100C4000607F642B0E94000680E1D89FB0011124D0
:100C50006C2BC801DF91CF911F910F910C9400066E
:100C6000CF93DF9300D000D01F921F92CDB7DEB795
:100C700098E0EAE1F2E0DE01119601900D929A957A
:100C8000E1F790915A05961710F46FEF690F262F30
:100C900030E0220F331F41E050E04C0F5D1F240F66
:100CA000351FF9016081680F606840E082E595E0DA
:100CB00028960FB6F894DEBF0FBECDBFDF91CF915F
:100CC0000C94190641E00E94190681E090E0089515
:100CD000FC0180819181009711F00C9449130895D3
:100CE000EF92FF920F931F93CF93DF93EC017B0161
:100CF0008A0188819981009729F02A813B812417F4
:100D0000350788F4B8016F5F7F4F0E94D2130097B8
:100D100091F0998388831B830A832C813D81232B47
:100D200011F4FC0110821D830C83B7018881998125
:100D30000E94BC140CC088819981009711F00E9418
:100D40004913198218821D821C821B821A82CE01CD
:100D5000DF91CF911F910F91FF90EF900895FC01CB
:100D6000DB018C91808311964D915D916D917C9109
:100D70001497418352836383748315968D919C915C
:100D8000169796838583CF01079610861782128661
:100D90001186148613869D01295F3F4F82179307A2
:100DA00061F017966D917C9118976115710529F086
:100DB0001B964D915C910C9470060895FC01108275
:100DC0001182128213821482168215821086178273
:100DD000128611861486138650E040E06EE772E0BA
:100DE00007960C947006FB0101900020E9F73197FB
:100DF000AF01461B570BDC01ED91FC910280F381A2
:100E0000E02D19946CE772E082EF93E00C94F30606
:100E10008F929F92AF92BF92EF92FF920F931F9388
:100E2000CF93DF93CDB7DEB7A1970FB6F894DEBFAF
:100E30000FBECDBF7C01FA01CB0119A2223008F40C
:100E40002AE08E010F5D1F4F822E912CB12CA12C18
:100E5000BF01A50194010E948312F901CA016A3001
:100E60000CF5605DD8016E938D01232B242B252B6F
:100E700079F790E080E0109721F0BD01C7010E9452
:100E8000F306A1960FB6F894DEBF0FBECDBFDF917B
:100E9000CF911F910F91FF90EF90BF90AF909F90D7
:100EA0008F900895695CDECFCF92DF92EF92FF9230
:100EB0000F931F93CF93DF936B01770FEE08FF081B
:100EC000F7FE1FC0EC01E881F9810190F081E02D6F
:100ED0006DE219958C0144275527BA014C195D091B
:100EE0006E097F092AE0CE010E940807800F911F3A
:100EF000DF91CF911F910F91FF90EF90DF90CF90F6
:100F000008952AE0B701A601DF91CF911F910F91BB
:100F1000FF90EF90DF90CF900C940807AB0170E04A
:100F200060E02AE00C940807CF93DF93BC0182EFC6
:100F300093E00E948E07EC010E9402078C0F9D1F18
:100F4000DF91CF910895CF93DF93BC0182EF93E0BF
:100F50000E94F306EC010E9402078C0F9D1FDF9197
:100F6000CF9108956115710511F00C94F30690E08E
:100F700080E0089561E080E00E9430066CEC72E051
:100F800082E595E00E94B20762E080E00E943006B0
:100F90006CEC72E082E595E00E94B20763E080E0CD
:100FA0000E9430066CEC72E082E595E00C94B2078A
:100FB000CF93DF93EC018FE792E00E94A30768E8EC
:100FC00072E082EF93E00E94B207888199810E94CB
:100FD00094076EE173E082EF93E00E94B2074B81C9
:100FE00050E070E060E02AE082EF93E00E940807A2
:100FF0000E94020761E972E082EF93E00E94B2076B
:101000008D819E810E9494076AE972E082EF93E0ED
:101010000E94B207888599850E9494076FEA72E062
:1010200082EF93E00E94B2076B8570E082EF93E05D
:101030000E9454070E94020766EB72E082EF93E081
:101040000E94B2076D8570E082EF93E00E94540722
:101050000E940207DF91CF910C940207CF93DF9398
:10106000EC0160E080E00E94300665EC72E082E511
:1010700095E00E94B20760E080E00E943006E881BF
:1010800024E1E29FF0011124EE5DFD4F608171814A
:1010900082E595E00E94B2078981882341F161EEE3
:1010A00072E0813011F064EE72E082E595E00E941A
:1010B000B2078881E9812AE0829FC0011124E80FEC
:1010C000F92FF11DEE0FFF1FEE5DFD4F6081718165
:1010D00082E595E00E94B2078A81882341F067EE9D
:1010E00072E082E595E0DF91CF910C94B207DF9139
:1010F000CF910895CF93DF93EB010E946D12888307
:10110000CE01DF91CF9108950F931F93CF93DF937B
:101110008C01EB010E946D128883C80101960E9428
:101120006D128983CE01DF91CF911F910F910895A8
:10113000CF93DF93EC018A81BE0190E00E94840886
:101140008C8190E00E946D128B83BE016B5F7F4F9C
:101150008F8190E00E948408BE01685F7F4F8A857E
:1011600090E00E948408BE01655F7F4F8C8590E00F
:101170000E947A08BE01635F7F4F8E8590E0DF9109
:10118000CF910C947A08FF920F931F93CF93DF9324
:10119000EC01F62E08811981C8010E946D12F81623
:1011A00021F06F2DC8010E947512CE01DF91CF9101
:1011B0001F910F91FF9008950F931F93CF93DF938B
:1011C0001F921F92CDB7DEB78B019A838983FB01F3
:1011D0006081CE0101960E94C308C8010F900F9054
:1011E000DF91CF911F910F910895EF92FF920F938E
:1011F0001F93CF93DF931F921F92CDB7DEB78C0161
:101200007B019A838983FB016081CE0101960E9454
:10121000C3080F5F1F4F1A830983F7016181CE0155
:1012200001960E94C308C7010F900F90DF91CF91E4
:101230001F910F91FF90EF9008950F931F93CF93FD
:10124000DF931F921F92CDB7DEB78C01FC01118294
:101250001082128281E0838382E0848383E090E0C5
:1012600096838583878388EB9BE09187808785E0E1
:101270008287138687E08487158688E08687B80191
:1012800090E080E00E948408F80180819181893398
:10129000904309F446C00E94020789EE92E00E9442
:1012A000A30789E390E39A838983F8018281BE01D1
:1012B0006F5F7F4F90E00E94F508F801848190E015
:1012C0009A8389836381CE0101960E94C308B80185
:1012D0006B5F7F4FF801878190E00E94F508B801AD
:1012E000685F7F4FF801828590E00E94F508B801A1
:1012F000655F7F4FF801848590E00E94DC08B801AB
:10130000635F7F4FF801868590E00E94DC088AE0E9
:1013100093E00E94A307C8010E949808C8010E9498
:10132000D8070F900F90DF91CF911F910F910895E3
:101330001F920F920FB60F9211242F933F938F930A
:101340009F93AF93BF938091EE039091EF03A09191
:10135000F003B091F1033091E90323E0230F2D371F
:1013600058F50196A11DB11D2093E9038093EE036A
:101370009093EF03A093F003B093F1038091EA03FD
:101380009091EB03A091EC03B091ED030196A11DA8
:10139000B11D8093EA039093EB03A093EC03B09309
:1013A000ED03BF91AF919F918F913F912F910F903E
:1013B0000FBE0F901F90189526E8230F0296A11DCF
:1013C000B11DD2CF1F920F920FB60F9211240BB600
:1013D0000F922F933F934F935F936F937F938F93CE
:1013E0009F93AF93BF93EF93FF93E0910E02F09121
:1013F0000F021995FF91EF91BF91AF919F918F913E
:101400007F916F915F914F913F912F910F900BBE04
:101410000F900FBE0F901F9018951F920F920FB64E
:101420000F9211240BB60F922F933F934F935F931C
:101430006F937F938F939F93AF93BF93EF93FF939C
:10144000E0910C02F0910D021995FF91EF91BF917F
:10145000AF919F918F917F916F915F914F913F914C
:101460002F910F900BBE0F900FBE0F901F901895ED
:101470001F920F920FB60F9211240BB60F922F935B
:101480003F934F935F936F937F938F939F93AF930C
:10149000BF93EF93FF93E0910202F091030219953D
:1014A000FF91EF91BF91AF919F918F917F916F913C
:1014B0005F914F913F912F910F900BBE0F900FBEF8
:1014C0000F901F9018951F920F920FB60F92112434
:1014D0000BB60F922F933F934F935F936F937F932E
:1014E0008F939F93AF93BF93EF93FF93E09100028D
:1014F000F09101021995FF91EF91BF91AF919F91EA
:101500008F917F916F915F914F913F912F910F90AC
:101510000BBE0F900FBE0F901F9018951F920F9249
:101520000FB60F9211240BB60F922F933F934F9348
:101530005F936F937F938F939F93AF93BF93EF933B
:10154000FF93E0910A02F0910B021995FF91EF9140
:10155000BF91AF919F918F917F916F915F914F91CB
:101560003F912F910F900BBE0F900FBE0F901F90C9
:1015700018951F920F920FB60F9211240BB60F926F
:101580002F933F934F935F936F937F938F939F938B
:10159000AF93BF93EF93FF93E0910802F09109029C
:1015A0001995FF91EF91BF91AF919F918F917F918D
:1015B0006F915F914F913F912F910F900BBE0F90C4
:1015C0000FBE0F901F9018951F920F920FB60F929B
:1015D00011240BB60F922F933F934F935F936F930A
:1015E0007F938F939F93AF93BF93EF93FF93E0917C
:1015F0000602F09107021995FF91EF91BF91AF910B
:101600009F918F917F916F915F914F913F912F911A
:101610000F900BBE0F900FBE0F901F9018951F924A
:101620000F920FB60F9211240BB60F922F933F9388
:101630004F935F936F937F938F939F93AF93BF93DA
:10164000EF93FF93E0910402F09105021995FF9149
:10165000EF91BF91AF919F918F917F916F915F912A
:101660004F913F912F910F900BBE0F900FBE0F9097
:101670001F9018951F920F920FB60F9211240BB660
:101680000F922F933F934F935F936F937F938F931B
:101690009F93AF93BF93EF93FF9382EF93E00E94EA
:1016A0001405FF91EF91BF91AF919F918F917F9121
:1016B0006F915F914F913F912F910F900BBE0F90C3
:1016C0000FBE0F901F9018951F920F920FB60F929A
:1016D00011240BB60F922F938F939F93EF93FF9349
:1016E000E0910204F09103048081E0910804F091FC
:1016F000090482FD1DC0908180910B048F5F8F7360
:1017000020910C04821741F0E0910B04F0E0EE50C0
:10171000FC4F958F80930B04FF91EF919F918F91D8
:101720002F910F900BBE0F900FBE0F901F9018952A
:101730008081F2CFCF931092F5031092F40388EEDC
:1017400093E0A0E0B0E08093F6039093F703A093BA
:10175000F803B093F90382E692E09093F303809349
:10176000F20385EC90E09093FF038093FE0384ECFA
:1017700090E0909301048093000480EC90E09093BB
:1017800003048093020481EC90E09093050480931D
:10179000040482EC90E0909307048093060486ECA6
:1017A00090E0909309048093080410920B04109227
:1017B0000C0410920D0410920E0410925505109214
:1017C000540584E792E0909353058093520587E295
:1017D0008093560584E180935B0584E080935C05EB
:1017E00010925D0592E3909341051092420510928C
:1017F000430510924405109245051092460510923B
:101800004705109248051092490510924A0510921A
:101810004B0510924F05109250051092510592E021
:1018200090934C0593E090934D0580934E058091E5
:101830003F058061877F80933F0562E082E00E94E0
:10184000F50362E080914D050E94F50380913F050C
:1018500084FF05C062E080914E050E94F5038091EF
:10186000400581608093400580914C050E940A02EA
:10187000C82F80914D050E940A02880F991F8C2B5A
:101880008093420582E080933A0581E080933B0596
:1018900080933C0580933D058DE295E00E94DE0635
:1018A00080E295E00E94DE0683E195E00E94DE067C
:1018B00086E095E00E94DE0689EF94E00E94DE0655
:1018C0008CEE94E00E94DE066DE275E08EE994E015
:1018D0000E94AF0660E275E08BEA94E00E94AF06DA
:1018E00063E175E088EB94E00E94AF0666E075E086
:1018F00085EC94E00E94AF0669EF74E082ED94E01D
:101900000E94AF066CEE74E08FED94E00E94AF068B
:101910008FE894E0CF910C941D09CF93DF93CDB75E
:10192000DEB763970FB6F894DEBF0FBECDBF7894D5
:1019300084B5826084BD84B5816084BD85B58260D4
:1019400085BD85B5816085BD80916E008160809385
:101950006E001092810080918100826080938100EE
:1019600080918100816080938100809180008160FE
:10197000809380008091B10084608093B100809159
:10198000B00081608093B00080919100826080936C
:1019900091008091910081608093910080919000EE
:1019A0008160809390008091A10082608093A1006B
:1019B0008091A10081608093A1008091A00081604E
:1019C0008093A00080912101826080932101809109
:1019D00021018160809321018091200181608093A9
:1019E000200180917A00846080937A0080917A004F
:1019F000826080937A0080917A00816080937A007F
:101A000080917A00806880937A001092C100E09102
:101A10000204F091030482E08083E091FE03F091E0
:101A2000FF031082E0910004F09101048FEC8083A9
:101A300010920A04E0910604F091070486E0808386
:101A4000E0910404F0910504808180618083E0913D
:101A50000404F0910504808188608083E09104048F
:101A6000F0910504808180688083E0910404F09106
:101A7000050480818F7D8083CE0101960E941D091F
:101A800062E084E10E94F50362E085E10E94F503D3
:101A900088E48093B8001092B900109257058091A5
:101AA0005C05823018F098E09093570580935A05B2
:101AB00062E370E080E090E00E94560460915D0572
:101AC00082E595E00E94D80568EE73E080E090E042
:101AD0000E94560460E382E595E00E9400060BE454
:101AE00016E4C8010197F1F760E382E595E00E94F2
:101AF0000006C8010197F1F760E382E595E00E94D6
:101B0000000683E592E00197F1F760E282E595E057
:101B10000E94000660915705606240E082E595E012
:101B20000E94190684E08093580540E06CE082E54D
:101B300095E00E94190640E061E082E595E00E9490
:101B400019060BE31FE1C8010197F1F782E0F82EB7
:101B5000F092590540E066E082E595E00E941906A2
:101B600040E062E082E595E00E941906C801019715
:101B7000F1F788E080935D0560E082E595E00E94E2
:101B8000D805F88A81E0898B8A8B8B8B80913F0501
:101B9000877F80933F0561E087E00E94F50361E065
:101BA00086E00E94F50361E085E00E94F50361E0B4
:101BB00089E00E94F50361E088E00E94F50360E09F
:101BC0008DE30E94F50360E082E10E94F50361E08D
:101BD00087E00E94C70360E086E00E94C70360912F
:101BE000DC0385E00E94C70361E085E00E94C70333
:101BF00060E089E00E94C70361E088E00E94C703BB
:101C000086EB94E090930B0280930A028091690026
:101C1000806C80936900EB9ACE0140960E942E085A
:101C2000CE0101960E949808CE0101960E94D80725
:101C300011E02FB7F8948091EE039091EF03A091FB
:101C4000F003B091F1032FBF8093E5039093E60377
:101C5000A093E703B093E8038091D8039091D90350
:101C6000A091DA03B091DB03892B8A2B8B2B31F106
:101C70008091D6039091D7034091D8035091D90316
:101C80006091DA037091DB034093AC045093AD0490
:101C90006093AE047093AF049093B1048093B0044A
:101CA0001093AB041092D8031092D9031092DA0368
:101CB0001092DB031092D7031092D60380913F0558
:101CC00082FD0E94330280914305813081F410929D
:101CD00043051092B9041092BA041092BB041092FA
:101CE000BC041092BE041092BD048093B80480918D
:101CF0003F0582FD0E94330280914305823081F4CA
:101D0000109243051092C6041092C7041092C804A2
:101D10001092C9041092CB041092CA041093C50407
:101D200080913F0582FD0E94330280913E0585FF30
:101D300011C08F7D80933E051092D3041092D4047D
:101D40001092D5041092D6041092D8041092D704A1
:101D50001093D20480913B05811139C08091B80461
:101D6000882359F080913A05882319F08150809397
:101D70003A058AE395E00E942E088091C5048823E5
:101D800059F080913A05823018F48F5F80933A05BC
:101D90008AE395E00E942E088091D204882331F0D6
:101DA00010933B058AE395E00E942E0810929E0452
:101DB0001092AB041092B8041092C5041092D20491
:101DC0001092DF040E9433020E94A30532CF90914B
:101DD0003C05911134C09091B804992339F0815099
:101DE00080933B058AE395E00E942E088091C5040C
:101DF0008823C9F080913A05811105C080913B0587
:101E0000833038F00CC0813041F480913B0585303F
:101E100030F48F5F80933B0502C0823079F38AE310
:101E200095E00E942E088091D204882309F4BECF49
:101E300010933C0510933D050E94BA07B3CF8091E3
:101E4000D2048823A1F010923C0510923D050E9417
:101E5000BA078AE395E00E942E081092DC0360E046
:101E600085E00E94C7038FE894E00E94D807809124
:101E70003A05823009F0DCC000913B05013009F0E1
:101E800002C380913D05882309F442C061E080E0EF
:101E90000E9430066CED72E082E595E00E94B20788
:101EA00061E080E00E94300665E173E082E595E044
:101EB0000E94B20762E080E00E94300667ED72E0A7
:101EC00082E595E00E94B20762E080E00E94300661
:101ED0006FE073E082E595E00E94B20763E080E086
:101EE0000E9430066CED72E082E595E00E94B20738
:101EF00063E080E00E94300664E173E082E595E0F3
:101F00000E94B2070093DC0361E085E00E94C703F2
:101F10008091E1039091E203A091E303B091E40387
:101F2000845D9E4FAF4FBF4F4091E5035091E60354
:101F30006091E7037091E80384179507A607B70738
:101F400028F561E083E00E9430066CED72E082E5E6
:101F500095E00E94B20761E083E00E9430060E9493
:101F60007501BC0182E595E00E9454078091E5036C
:101F70009091E603A091E703B091E8038093E10319
:101F80009093E203A093E303B093E4038091AB0446
:101F9000882309F44DC062E084E00E94300667EDBA
:101FA00072E082E595E00E94B20762E084E00E9460
:101FB00030064091AC045091AD046091AE04709134
:101FC000AF048091DD039091DE03A091DF03B09117
:101FD000E003481B590B6A0B7B0B2AE082E595E076
:101FE0000E94080763E084E00E9430066CED72E016
:101FF00082E595E00E94B20763E084E00E9430062B
:102000006091B0047091B10482E595E00E948E0762
:102010008091AC049091AD04A091AE04B091AF0456
:102020008093DD039093DE03A093DF03B093E0037E
:1020300080913A05813009F026C280913B058823C2
:1020400009F421C280913D05882309F468C061E04C
:1020500080E00E9430066CED72E082E595E00E941F
:10206000B20761E080E00E94300680913B0581303C
:1020700081F469E173E082E595E00E94B207409146
:10208000920450E070E060E02AE082E595E00E9472
:10209000080780913B05823071F465E273E082E5C8
:1020A00095E00E94B207609194047091950482E5D6
:1020B00095E00E948E0780913B05833071F463E3C5
:1020C00073E082E595E00E94B207609197047091F9
:1020D000980482E595E00E948E0780913B0584304C
:1020E00069F46BE473E082E595E00E94B2076091C9
:1020F0009C0470E082E595E00E94540780913B05C6
:10210000853069F464E673E082E595E00E94B207E9
:1021100060919A0470E082E595E00E9454078091F6
:10212000B804882309F4B0C080913B05813001F5E3
:1021300080919204823008F4A6C181508093920469
:1021400061E08BE00E9430066CED72E082E595E084
:102150000E94B20761E08BE00E9430064091920439
:1021600050E070E060E02AE082E595E00E94080718
:1021700080913B05823011F58091940490919504F3
:10218000009709F480C1019790939504809394047B
:1021900061E08DE00E9430066CED72E082E595E032
:1021A0000E94B20761E08DE00E94300660919404C5
:1021B0007091950482E595E00E948E0780913B0521
:1021C000833011F58091970490919804009709F459
:1021D0005AC10197909398048093970461E087E136
:1021E0000E9430066CED72E082E595E00E94B20735
:1021F00061E087E10E943006609197047091980435
:1022000082E595E00E948E0780913B058430E1F4E1
:1022100080919C04882309F436C110929C0461E0EB
:1022200088E10E9430066CED72E082E595E00E9444
:10223000B20761E088E10E94300660919C0470E082
:1022400082E595E00E94540780913B058530E1F4DA
:1022500080919A04882309F416C110929A0461E0CF
:102260008DE00E9430066CED72E082E595E00E9400
:10227000B20761E08DE00E94300660919A0470E040
:1022800082E595E00E9454078091C504882309F4F3
:10229000B2C080913B05813001F58091920482307B
:1022A00008F0F1C08F5F8093920461E08BE00E94A0
:1022B00030066CED72E082E595E00E94B20761E0C5
:1022C0008BE00E9430064091920450E070E060E0A4
:1022D0002AE082E595E00E94080780913B05823064
:1022E00021F58091940490919504883E23E0920713
:1022F00008F0C9C00196909395048093940461E01E
:102300008DE00E9430066CED72E082E595E00E945F
:10231000B20761E08DE00E943006609194047091F4
:10232000950482E595E00E948E0780913B058330FD
:1023300021F58091970490919804883E23E09207BC
:1023400008F0A1C00196909398048093970461E0EF
:1023500087E10E9430066CED72E082E595E00E9414
:10236000B20761E087E10E943006609197047091A6
:10237000980482E595E00E948E0780913B058430A9
:10238000D9F480919C0481117EC010939C0461E07B
:1023900088E10E9430066CED72E082E595E00E94D3
:1023A000B20761E088E10E94300660919C0470E011
:1023B00082E595E00E94540780913B058530D9F471
:1023C00080919A0481115FC010939A0461E08DE0BE
:1023D0000E9430066CED72E082E595E00E94B20743
:1023E00061E08DE00E94300660919A0470E082E521
:1023F00095E00E9454078091D204882309F443C0D9
:1024000080913B05813059F48091930490E09A8348
:10241000898360919204CE0101960E94C308809145
:102420003B05823039F48091960464E974E090E0D1
:102430000E94F50880913B05833039F4809199041E
:1024400067E974E090E00E94F50880913B058430D4
:1024500039F480919D046CE974E090E00E94DC08FE
:1024600080913B05853039F480919B046AE974E0E2
:1024700090E00E94DC088FE894E00E9498088FE8C2
:1024800094E00E94D80710923D0590CCCF93DF9343
:10249000CCEED4E02D97CE0107960E94680684E02A
:1024A000CE39D807B9F783EF94E00E94680680E040
:1024B00095E00E9468068DE095E00E9468068AE13A
:1024C00095E00E94680687E295E00E94680684E332
:1024D00095E0DF91CF910C946806F999FECF92BDFB
:1024E00081BDF89A992780B50895262FF999FECFD6
:1024F0001FBA92BD81BD20BD0FB6F894FA9AF99A21
:102500000FBE01960895A1E21A2EAA1BBB1BFD0166
:102510000DC0AA1FBB1FEE1FFF1FA217B307E407C2
:10252000F50720F0A21BB30BE40BF50B661F771F1A
:10253000881F991F1A9469F76095709580959095FA
:102540009B01AC01BD01CF010895EE0FFF1F881F55
:102550008BBF0790F691E02D19940F931F93CF93A3
:10256000DF938230910510F482E090E0E091600505
:10257000F091610530E020E0B0E0A0E0309799F400
:102580002115310509F44AC0281B390B24303105C7
:10259000D8F58A819B816115710589F1FB019383CF
:1025A0008283FE0111C0408151810281138148174D
:1025B0005907E0F04817590799F4109761F01296FF
:1025C0000C93129713961C933296CF01DF91CF9103
:1025D0001F910F9108950093600510936105F4CF4A
:1025E0002115310551F04217530738F0A901DB01DD
:1025F0009A01BD01DF01F801C1CFEF01F9CF90933E
:10260000610580936005CDCFFE01E20FF31F81933A
:1026100091932250310939832883D7CF20915E05C9
:1026200030915F05232B41F420911602309117025F
:1026300030935F0520935E052091140230911502BE
:102640002115310541F42DB73EB740911802509144
:102650001902241B350BE0915E05F0915F05E2172E
:10266000F307A0F42E1B3F0B2817390778F0AC01B5
:102670004E5F5F4F2417350748F04E0F5F1F509392
:102680005F0540935E05819391939FCFF0E0E0E07A
:102690009CCFCF93DF930097E9F0FC013297138230
:1026A0001282A0916005B0916105ED0130E020E05B
:1026B0001097A1F420813181820F931F20915E0534
:1026C00030915F052817390709F061C0F0935F0565
:1026D000E0935E05DF91CF910895EA01CE17DF0701
:1026E000E8F54A815B819E0141155105B1F7E90189
:1026F000FB83EA8349915991C40FD51FEC17FD075D
:1027000061F4808191810296840F951FE90199837C
:102710008883828193819B838A83F0E0E0E0129634
:102720008D919C9113970097B9F52D913C9111973C
:10273000CD010296820F931F20915E0530915F05B7
:102740002817390739F6309751F510926105109224
:102750006005B0935F05A0935E05BCCFD383C283B1
:1027600040815181840F951FC817D90761F44E5FCE
:102770005F4F88819981480F591F518340838A8117
:102780009B81938382832115310509F0B0CFF093AB
:102790006105E09360059ECFFD01DC01C0CF13828F
:1027A0001282D7CF4F925F926F927F928F929F92B9
:1027B000AF92BF92CF92DF92EF92FF920F931F934F
:1027C000CF93DF938C01009799F4CB01DF91CF91E8
:1027D0001F910F91FF90EF90DF90CF90BF90AF903F
:1027E0009F908F907F906F905F904F900C94AD1260
:1027F000FC01E60FF71F9C0122503109E217F30795
:1028000008F4AEC0D901CD91DC911197C617D70756
:1028100020F1C530D10578F0CE01049786179707CF
:1028200050F0C61BD70B2297C193D1936D937C9325
:10283000CF010E944913C801DF91CF911F910F91E1
:10284000FF90EF90DF90CF90BF90AF909F908F90D0
:102850007F906F905F904F9008955B01AC1ABD0A16
:102860004C018C0E9D1EA0916005B0916105512C0C
:10287000412CF12CE12C109731F580915E0590915F
:102880005F058815990509F05CC04616570608F0E3
:1028900058C08091140290911502009741F48DB7B1
:1028A0009EB74091180250911902841B950BE817AE
:1028B000F90708F055C0F0935F05E0935E05F90154
:1028C00071836083B8CF8D919C91119712966C9013
:1028D000129713967C901397A815B90559F56C01BA
:1028E00042E0C40ED11CCA14DB0420F1AC014A1929
:1028F0005B09DA011296159780F062827382518328
:102900004083D9016D937C93E114F10471F0D701F8
:102910001396FC93EE9312978ECF22968C0F9D1FE9
:10292000F90191838083F301EFCFF0936105E09388
:10293000600581CF4816590608F42C017D01D301AA
:102940009ACFCB010E94AD127C01009749F0AE01F5
:10295000B8010E94B314C8010E94491387016BCFCC
:1029600010E000E068CFFB01DC0102C001900D9295
:1029700041505040D8F70895FB01DC0101900D92C1
:102980000020E1F7089511E0C1E4D1E000E006C0C5
:10299000802FFE010E94A5122196011DC234D1078D
:0A29A00080E00807A9F7F894FFCFC4
:1029AA0088048804880488048804880488048804BD
:1029BA0000000001000062058000000040001400D1
:1029CA0054007203770381038803000000000000AB
:1029DA000000000000008E03920397039E03AA03DF
:1029EA00B3030000000000000000BA03BF03CA03DB
:1029FA00CF030000000000000000000000000000FB
:102A0A00000036058904CD048305FE04DC04F004C5
:102A1A000000000062068904D505D4050D0A0043AA
:102A2A006F6E6669673A200046535F4B45593A20F4
:102A3A00004C4150535F4E3A200053454E534F527B
:102A4A005F49474E4F52455F54494D453A20004D24
:102A5A005554453A2000534156455F524553554C0B
:102A6A0054533A20002020202020202020202020FB
:102A7A00202020202020202020202020202020204C
:102A8A00003C2D002D3E003A004669727374207393
:102A9A00746172742C2077726974696E6720646538
:102AAA006661756C74732E2E2E00446F6E65006419
:102ABA00743A200069563A200052414345204D4F4E
:102ACA0044453A20004C415053204E554D42455200
:102ADA003A200053454E534F522049474E4F5245D4
:102AEA002054494D454F55543A20005341564520EC
:102AFA00524553554C545320544F20454550524F3C
:102B0A004D3A20004D55544520534F554E44533AA3
:102B1A002000526163650053656C207261636572BF
:102B2A000043616E63656C00526574727900536587
:102B3A0074004D6F6465004C617073204E004967E4
:102B4A006E6F72652074696D6500536176652072D7
:102B5A00657300536F756E64730054657374004136
:102B6A006C6C2076616C7565730054696D65004202
:062B7A006C696E6B0000A7
:00000001FF
