:100000000C949B010C9427110C94FC100C94D110AF
:100010000C94A6100C947B100C9450100C9425108A
:100020000C94FA0F0C9451120C94FF120C94D712EA
:100030000C94CC010C9452110C94CC010C94CC0176
:100040000C94CC010C94CC010C94CC010C94CC01FC
:100050000C94CC010C94CC010C94CC010C94B00FFA
:100060000C94CC010C941B120C94F1110C94CC0147
:100070000C94CC010C94CC010C94CC010C94CC01CC
:100080000C94CC010C94CC010C94CC010C94CC01BC
:100090000C94CC010C94CC010C94CC010C94CC01AC
:1000A0000C94CC010C94CC010C94CC010C94CC019C
:1000B0000C94CC010C94CC010C94CC010C94CC018C
:1000C0000C94CC010C94CC010C94CC010C94CC017C
:1000D0000C94CC010C94CC010C94CC010C94CC016C
:1000E0000C94CC010C9451020C9428020C944305FE
:1000F0000C942F020C9484090C94E1040C94692252
:100100000C9420020C941A020C9439020C9461068F
:100110000C9434050C944E130C9470060C94350218
:100120000C9488060C9457050C949D050C9455026C
:100130000C943F020C94820A0C941D050C94B10699
:100140000C945B020C9465050C944D020C942C02EB
:100150000C9443020C94EA050C9424020C945A0269
:100160000C9447060C945F020C94B0060C94470262
:100170000C94F00400C201000100110011000C00F9
:1001800000E100000A002500250021000096000083
:100190001900390039003600127A00001F004600AD
:1001A000460044008070000022004D004D004A00CF
:1001B000004B0000360075007500720040380000EA
:1001C0004A009C009C009900802500007200EC0011
:1001D000EC00E900C0120000E900DA01DA01D70101
:1001E00060090000D701B603B603B303B0040000F2
:1001F000B3036E076E076B07580200006E07DC0E34
:10020000DC0ED80E2C010000DC0EC11DC11DBE1D70
:100210000200002100240027002A002D00300033B6
:100220000001010000040107010A0100000A0B029D
:10023000090C0D0E08070304010000000000000077
:1002400000000000000000000000000000000000AE
:10025000000000000000001211100000000000006B
:10026000000000000000000000000000000000008E
:1002700000000020002300260029002C002F00325F
:100280000000010000030106010901000022002511
:100290000028002B002E0031003400020100000570
:1002A0000108010B010505050507050808080802F6
:1002B0000202020A0A0808040404040101010101FF
:1002C0000101010303030303030303040707070CEE
:1002D0000C0C0C0C0C0C0C020202020606060606A4
:1002E0000606060B0B0B0B0B0B0B0B010210202051
:1002F000080810204010204080020102010804027A
:1003000001010204081020408080402010080402EF
:100310000180040201804020100804020108040248
:10032000010102040810204080010204081020404E
:1003300080004E13692211241FBECFEFD1E2DEBF31
:10034000CDBF00E00CBF27E0A8E5B5E001C01D92DD
:10035000A33CB207E1F715E0A0E0B2E0E6E3FCE47D
:1003600000E00BBF02C007900D92A835B107D9F786
:1003700011E0CAE9D1E000E006C021970109802F11
:10038000FE010E94E223C939D10780E00807A9F7DE
:100390000E946B150C9409260C94000080917B0040
:1003A000877F80937B0087E480937C0080917A0034
:1003B000806480937A0080917A0086FDFCCF8091E2
:1003C00078009091790008958093BB0084E8809331
:1003D000BC008091BC0087FFFCCF8091B900887F72
:1003E000803221F481E0809312020895803319F461
:1003F00081E08093130208958150823108F05AC041
:10040000E82FF0E08827E85FFD4F8F4F0C94E22340
:1004100028022C021A02200224025A022F0235025C
:1004200039023F02430247024D0251025A0255026D
:100430005B025F02809180008F7780938000089537
:10044000809180008F7DF9CF80918000877FF5CFEC
:1004500084B58F7784BD089584B58F7DFBCF80915F
:10046000B0008F778093B00008958091B0008F7DA9
:10047000F9CF809190008F778093900008958091BC
:1004800090008F7DF9CF80919000877FF5CF80918C
:10049000A0008F778093A00008958091A0008F7DA9
:1004A000F9CF8091A000877FF5CF809120018F77D1
:1004B000809320010895809120018F7DF9CF809154
:1004C0002001877FF5CFCF93DF93282F30E0F9010C
:1004D000E55DFD4F8491F901E551FD4FD491F9019E
:1004E000EB55FD4FC491CC23A1F081110E94FC017A
:1004F000EC2FF0E0EE0FFF1FEF58FD4FA591B491E8
:10050000EC91ED2381E090E009F480E0DF91CF9160
:10051000089580E090E0FACF8F929F92AF92BF92C1
:10052000CF92DF92EF92FF920F931F93CF93DF93BF
:100530008FB7F894C0900006D0900106E0900206B4
:10054000F09003068FBF8091A00784FF74C0809055
:10055000A5079090A607A090A707B090A807909134
:10056000B1079111F6C08091AF070E9463022091FC
:10057000A107022F017010E021E00817190709F404
:1005800020E02093B207B701A601481959096A096A
:100590007B092091B20790919F0791FB882780F9F2
:1005A000222309F419C181111AC041355105610591
:1005B0007105A8F0C092A507D092A607E092A70700
:1005C000F092A807997E9261906890939F0780911E
:1005D000A10780628093A10740E050E0BA018091BA
:1005E000A10790919F0784FF12C04D3231E053075D
:1005F0006105710560F092FD05C083FDB4C08260A5
:100600008093A1078091A1078F7E8093A10791FF1E
:1006100012C04D3B52406105710568F092FD0BC060
:10062000222309F4A2C0916090939F078091A107B3
:100630008F7D8093A1078091B107882309F4A2C020
:100640009091A00796FB332730F9C32F80E0D82F75
:10065000CC0FDD1F95FB882780F98C2B2091A307F9
:10066000281709F469C01092A4079091A10796FF7A
:10067000B0C0833009F097C09F7B9093A1072130D1
:1006800009F48DC091E0223009F48AC09091A0074E
:1006900093FD03C0833009F493C09091A40799237C
:1006A000E1F120919F07286020939F074091A907BF
:1006B0005091AA076091AB077091AC079701860132
:1006C000041B150B260B370B4091A20750E070E07E
:1006D00060E0041715072607370760F42091A0078C
:1006E0002260913029F0923029F42091A0072160F6
:1006F0002093A007C092A907D092AA07E092AB0767
:10070000F092AC072091A00724FF07C02091B20708
:10071000222319F09E5F9093A4078093A3078091F2
:100720009F07846080939F07C092A507D092A60779
:10073000E092A707F092A807DF91CF911F910F9148
:10074000FF90EF90DF90CF90BF90AF909F908F90F1
:10075000089587FB882780F98093B20714CF809192
:10076000A107886037CF84604BCF9D7F9E7F909399
:100770009F07C092A507D092A607E092A707F09224
:10078000A80759CF8091AD070E946302C82F8091BE
:10079000AE070E946302880F991F8C2B5FCF92E0F7
:1007A0009093A40773CF3091A00733FD46C0811109
:1007B00074CF9F7B9093A107213041F0223031F01C
:1007C0009091A10790649093A10767CF2093A4070D
:1007D000F7CF8823A9F35ACF882309F400CF4135F6
:1007E00051056105710508F4FACE92FD05C090FD32
:1007F00003C0906290939F074D3B52406105710585
:1008000028F080919F07806480939F0780919F07C5
:10081000C092A507D092A607E092A707F092A8077A
:100820008D7F8E7F80939F078091A10785FF97CF53
:1008300084FD95CF8061877FCDCE882309F26DCF6F
:100840001F93CF93DF93282F30E0F901E55DFD4F33
:100850008491F901E551FD4FD491F901EB55FD4F1C
:10086000C491CC23A9F0162F81110E94FC01EC2F1A
:10087000F0E0EE0FFF1FE557FD4FA591B4918FB744
:10088000F894EC91111108C0D095DE23DC938FBF52
:10089000DF91CF911F910895DE2BF8CFCF93DF9397
:1008A00090E0FC01E551FD4F24918B559D4FFC01DB
:1008B00084918823C9F090E0880F991FFC01EF5EB6
:1008C000FD4FA591B491FC01E557FD4FC591D49121
:1008D00061110DC09FB7F8948C91209582238C9361
:1008E0008881282328839FBFDF91CF9108956230AC
:1008F00051F49FB7F8943C91822F809583238C9379
:10090000E8812E2BEFCF8FB7F894EC912E2B2C9300
:100910008FBFEACF3FB7F8948091FC059091FD0519
:10092000A091FE05B091FF0526B5A89B05C02F3FFD
:1009300019F00196A11DB11D3FBFBA2FA92F982F05
:100940008827BC01CD01620F711D811D911D42E000
:10095000660F771F881F991F4A95D1F708958F92C8
:100960009F92AF92BF92CF92DF92EF92FF924B0194
:100970005C010E948A046B017C010E948A046C194C
:100980007D098E099F09683E734081059105A8F392
:1009900021E0821A9108A108B10888EEC80E83E010
:1009A000D81EE11CF11C81149104A104B10429F7A3
:1009B000FF90EF90DF90CF90BF90AF909F908F907F
:1009C00008950895DB0114964D915C9115976D91F2
:1009D0007C91DC01ED91FC910280F381E02D199472
:1009E000AF92BF92CF92DF92EF92FF920F931F933D
:1009F000CF93DF936C017B018B01040F151FEB017B
:100A00005E01AE18BF08C017D10759F06991D60131
:100A1000ED91FC910190F081E02DC6011995892B93
:100A200079F7C501DF91CF911F910F91FF90EF9062
:100A3000DF90CF90BF90AF9008958091F005909196
:100A4000F105A091F205B091F3058093C005909354
:100A5000C105A093C205B093C3050E94CE01909337
:100A6000BF058093BE050895FC01538D448D252F4D
:100A700030E0842F90E0821B930B541710F0CF9638
:100A8000089501970895FC01918D828D981761F06A
:100A9000A28DAE0FBF2FB11D5D968C91928D9F5F81
:100AA0009F73928F90E008958FEF9FEF0895FC0160
:100AB000918D828D981731F0828DE80FF11D858D13
:100AC00090E008958FEF9FEF0895FC01918D228DA6
:100AD000892F90E0805C9F4F821B91098F7399272B
:100AE000089584E096E00E94650521E0892B09F4D1
:100AF00020E0822F0895FC01A48DA80FB92FB11D0D
:100B0000A35ABF4F2C91848D90E001968F73992743
:100B1000848FA689B7892C93A089B1898C91837021
:100B200080648C93938D848D981306C00288F3891A
:100B3000E02D80818F7D80830895EF92FF920F9347
:100B40001F93CF93DF93EC0181E0888F9B8D8C8D79
:100B500098131AC0E889F989808185FF15C09FB76D
:100B6000F894EE89FF896083E889F9898081837030
:100B7000806480839FBF81E090E0DF91CF911F91DF
:100B80000F91FF90EF900895F62E0B8D10E00F5F00
:100B90001F4F0F731127E02E8C8D8E110CC00FB6D6
:100BA00007FCFACFE889F989808185FFF5CFCE016E
:100BB0000E947B05F1CFEB8DEC0FFD2FF11DE35A69
:100BC000FF4FF0829FB7F8940B8FEA89FB898081F1
:100BD0008062CFCFCF93DF93EC01888D8823B9F06B
:100BE000AA89BB89E889F9898C9185FD03C0808138
:100BF00086FD0DC00FB607FCF7CF8C9185FFF2CFB5
:100C0000808185FFEDCFCE010E947B05E9CFDF918A
:100C1000CF91089580E090E0892B29F00E94710522
:100C200081110E94000080E090E0892B49F080E073
:100C300090E0892B29F00E94000081110E940000A1
:100C400080E090E0892B49F080E090E0892B29F04A
:100C50000E94000081110E94000080E090E0892B3A
:100C600049F080E090E0892B29F00E94000081117A
:100C70000C9400000895DC015196ED91FC9152977F
:100C8000908150968C91809589238083089520913E
:100C9000B3053091B4052817390781F49091B10557
:100CA0008091B205981751F0E091B105F0E0EF584E
:100CB000FA4F8081082E000C990B08958FEF9FEF5B
:100CC00008952091B3053091B4052817390739F4F8
:100CD0008FB7F8941092B2051092B1058FBF0895A6
:100CE0002091B3053091B4052817390771F480912C
:100CF000B2052091B10590E0805C9F4F821B910965
:100D000060E470E00E948D23089590E080E00895F3
:100D10002091B3053091B40528173907B9F49091A3
:100D2000B1058091B205981789F0E091B105F0E026
:100D3000EF58FA4F80812091B10530E02F5F3F4F8F
:100D40002F7333272093B10590E008958FEF9FEF25
:100D5000089520E001972FEF8F3F9207D9F708956C
:100D6000089590E080E008952F923F924F925F9215
:100D70006F927F928F929F92AF92BF92CF92DF92AB
:100D8000EF92FF921F93CF93DF932091D206211110
:100D900009C01B01EC01809100028131A9F08F3F55
:100DA00009F4AAC0DF91CF911F91FF90EF90DF90DF
:100DB000CF90BF90AF909F908F907F906F905F90FB
:100DC0004F903F902F900895E0E1F2E0149117FDCD
:100DD000E9CF61E081E10E944E044E01B12CA12CCB
:100DE0001123F9F0712C612C123009F059C1530113
:100DF0004E0160E970ED83E090E0A3019E010E9446
:100E0000C32369017A0181E0C81AD108E108F10819
:100E100083E09FEFC916D104E104F10409F00CF45A
:100E200064C060E072E18AE790E0A50194010E944D
:100E3000C32329013A0168E478EE81E090E0A5013E
:100E400094010E94C32369017A0181E0C81AD10884
:100E5000E108F108112309F4DBC1123009F0D6C111
:100E600084E09FEFC916D104E104F104F1F1ECF143
:100E700064E274EF80E090E0A50194010E94C32336
:100E800069017A0181E0C81AD108E108F10885E01A
:100E90009FEFC916D104E104F10439F130F162E1A8
:100EA0007AE780E090E0A50194010E94C3236901E4
:100EB0007A0181E0C81AD108E108F10886E09FEFC5
:100EC000C916D104E104F10481F07CF073016201E0
:100ED0009AE0F594E794D794C7949A95D1F791E066
:100EE000C91AD108E108F10887E09091B100987F14
:100EF000892B8093B100B0C181E180930002E0E1D1
:100F0000F2E01491812F1F3F09F44CCF123009F405
:100F100068C060F4112379F1113009F444C087FDF1
:100F200041CF61E081E10E944E045CCF143009F4AE
:100F300099C008F478C0153091F7109220011092F2
:100F400021018091210188608093210180912101FC
:100F5000816080932101E6EBF2E0E491F0E0EE0F96
:100F6000FF1FE557FD4F85919491ECEFF2E0E4917E
:100F7000E09358052ECF14BC15BC84B5826084BDA7
:100F800085B5816085BDE6EBF2E0E491F0E0EE0F1F
:100F9000FF1FE557FD4F85919491ECEFF2E0E4914E
:100FA000E0935C0516CF1092800010928100809132
:100FB00081008860809381008091810081608093AE
:100FC0008100E6EBF2E0E491F0E0EE0FFF1FE55761
:100FD000FD4F85919491ECEFF2E0E491E0935B0595
:100FE000F8CE1092B0001092B1008091B0008260F3
:100FF0008093B0008091B10081608093B100E6EBF6
:10100000F2E0E491F0E0EE0FFF1FE557FD4F859110
:1010100094919093F5058093F405ECEFF2E0E49160
:10102000E093F605D6CE1092900010929100809138
:1010300091008860809391008091910081608093FD
:101040009100E6EBF2E0E491F0E0EE0FFF1FE557D0
:10105000FD4F85919491ECEFF2E0E491E0935A0515
:1010600013E0B7CE1092A0001092A1008091A100D1
:1010700088608093A1008091A10081608093A1008D
:10108000E6EBF2E0E491F0E0EE0FFF1FE557FD4FD5
:1010900085919491ECEFF2E0E491E093590599CEBB
:1010A00060E072E18AE790E0A3019E010E94C32301
:1010B00069017A0191E0C91AD108E108F10891E0CB
:1010C000C114D10481E0E806F10484F068E478EE0C
:1010D00081E090E0A3019E010E94C32369017A018F
:1010E00091E0C91AD108E108F10893E0113039F410
:1010F00080918100887F892B80938100ADC013305F
:1011000039F480919100887F892B80939100A4C04D
:10111000143039F48091A100887F892B8093A1003D
:101120009BC0153009F098C080912101887F892BE0
:101130008093210191C0C7BC20936D0530936E054B
:1011400040936F055093700580916E00826080938C
:101150006E0028CEC092B3002093F7053093F805B7
:101160004093F9055093FA05809170008260809356
:10117000700018CED0929900C09298002093650517
:101180003093660540936705509368058091710020
:1011900082608093710006CED092A900C092A80010
:1011A0002093610530936205409363055093640575
:1011B00080917200826080937200F4CD73016201AD
:1011C0002AE0F594E794D794C7942A95D1F781E063
:1011D000C81AD108E108F10895E03AC01430E1F2EC
:1011E0004CF2153009F0DECDD0922901C0922801D1
:1011F00020935D0530935E0540935F055093600535
:1012000080917300826080937300CCCD84E040CEE7
:1012100093E08FEFC816D104E104F104C9F0C4F0E3
:1012200062E17AE780E090E0A50194010E94C32387
:1012300069017A0191E0C91AD108E108F1088FEF3C
:10124000C816D104E104F10411F00CF0B7CF94E01A
:1012500085B5887F892B85BD9E01220F331FD10163
:101260000E946A2328EE33E040E050E00E94A12370
:10127000123009F46FCF0CF0B1CF112309F45BCF1A
:10128000113009F08FCDD0928900C0928800209350
:10129000690530936A0540936B0550936C05809106
:1012A0006F00826080936F007DCD1092DE051092FA
:1012B000DF051092E0051092E1051092C40510922E
:1012C000C5051092C6051092C7051092DA05109256
:1012D000DB051092DC051092DD051092CE05109210
:1012E000CF051092D0051092D1051092CA05109228
:1012F000CB051092CC051092CD051092C905109225
:10130000C8051092E2050895DF92EF92FF920F93C5
:101310001F93CF93DF93EC01898D9A8D892B71F404
:1013200081E090E09B838A8390E080E0DF91CF9121
:101330001F910F91FF90EF90DF900895162FDFB669
:10134000F8948B8D81FD29C0CE010E943B06898DCA
:101350009A8D05960E94A9068B8D98E0E92EF12CB6
:1013600001E081FF28C0812F8023F1F0CE010E948F
:101370003B06898D9A8D0E94A906000F81E0E81A2C
:10138000F10889F7CE010E943B06DFBE898D9A8D58
:101390000E94A90681E090E0C9CFE989FA8980819D
:1013A0009889892B8083D3CFE989FA8980819889AC
:1013B000892B8083DECF812F8023B1F0E989FA89E0
:1013C00080819889892B8083898D9A8D0E94A906B6
:1013D000000F81E0E81AF10871F7E989FA89808144
:1013E0009889892B8083D1CFCE010E943B06ECCF18
:1013F0001F93CF93DF93EC01162F8C8194EA909387
:10140000BC009091BC0097FFFCCF880F0E94E401C4
:101410008B85812B0E94E40184E98093BC0080913C
:101420001202882329F0109212021092130204C0B3
:10143000809113028111F9CFDF91CF911F9108950F
:101440000F931F93CF938C01C62F0E94F8096C2F26
:101450006460C8010E94F8096C2F6B7FC8010E946C
:10146000F80983EC90E00197F1F7CF911F910F916C
:1014700008950F931F93CF93DF938C01D62FC42F22
:10148000607F642B0E94200A80E1D89FB001112464
:101490006C2BC801DF91CF911F910F910C94200A02
:1014A000CF93DF9300D000D01F921F92CDB7DEB74D
:1014B00098E0EBE1F2E0DE01119601900D929A9531
:1014C000E1F79091BB07961710F46FEF690F262F85
:1014D00030E0220F331F41E050E04C0F5D1F240F1E
:1014E000351FF9016081680F606840E083EB97E089
:1014F00028960FB6F894DEBF0FBECDBFDF91CF9117
:101500000C94390A41E00E94390A81E090E0089584
:10151000CF93DF93EB010E9454238883CE01DF91A8
:10152000CF9108950F931F93CF93DF938C01EB011D
:101530000E9454238883C80101960E945423898302
:10154000CE01DF91CF911F910F910895CF93DF933B
:10155000C7ECD6E08A81BE0190E00E94920A8C819D
:1015600090E00E9454238B838F816CEC76E090E0B6
:101570000E94920A8A856FEC76E090E00E94920ABF
:101580008C8562ED76E090E00E94880A8E8564ED9D
:1015900076E090E0DF91CF910C94880AFB010190F6
:1015A0000020E9F73197AF01461B570BDC01ED91A5
:1015B000FC910280F381E02D199461EB72E084E0EC
:1015C00096E00C94CE0A8F929F92AF92BF92EF92C8
:1015D000FF920F931F93CF93DF93CDB7DEB7A19701
:1015E0000FB6F894DEBF0FBECDBF7C01FA01CB0170
:1015F00019A2223008F42AE08E010F5D1F4F822EBF
:10160000912CB12CA12CBF01A50194010E94A12312
:10161000F901CA016A300CF5605DD8016E938D0145
:10162000232B242B252B79F790E080E0109721F0D5
:10163000BD01C7010E94CE0AA1960FB6F894DEBF85
:101640000FBECDBFDF91CF911F910F91FF90EF9013
:10165000BF90AF909F908F900895695CDECFCF923E
:10166000DF92EF92FF920F931F93CF93DF936B0163
:10167000770FEE08FF08F7FE1FC0EC01E881F98143
:101680000190F081E02D6DE219958C0144275527DA
:10169000BA014C195D096E097F092AE0CE010E944A
:1016A000E30A800F911FDF91CF911F910F91FF905F
:1016B000EF90DF90CF9008952AE0B701A601DF9167
:1016C000CF911F910F91FF90EF90DF90CF900C94EE
:1016D000E30AAB0170E060E02AE00C94E30ACF93E8
:1016E000DF93BC0184E096E00E94690BEC010E944C
:1016F000DD0A8C0F9D1FDF91CF910895CF93DF936B
:10170000BC0184E096E00E94CE0AEC010E94DD0A52
:101710008C0F9D1FDF91CF9108956115710511F018
:101720000C94CE0A90E080E00895CF93DF9384EB91
:1017300092E00E947E0B6DEB72E084E096E00E94E6
:101740008D0BC7ECD6E0888199810E946F0B66EC07
:1017500072E084E096E00E948D0B4B8150E070E0D7
:1017600060E02AE084E096E00E94E30A0E94DD0A3D
:101770006DEC72E084E096E00E948D0B8D819E817D
:101780000E946F0B66ED72E084E096E00E948D0B84
:10179000888599850E946F0B6BEE72E084E096E07D
:1017A0000E948D0B6B8570E084E096E00E942F0B09
:1017B0000E94DD0A62EF72E084E096E00E948D0BE9
:1017C0006D8570E084E096E00E942F0B0E94DD0A98
:1017D000DF91CF910C94DD0A61E080E00E94500A15
:1017E00068E073E083EB97E00E948D0B62E080E09D
:1017F0000E94500A68E073E083EB97E00E948D0B33
:1018000063E080E00E94500A68E073E083EB97E0B9
:101810000C948D0BCF93DF93EC01BC0184E096E038
:101820000E948D0BBE0183E897E0DF91CF910C946D
:101830008D0BCF93DF93EC0160E080E00E94500AB3
:1018400061E073E083EB97E00E948D0B60E080E045
:101850000E94500AE88124E1E29FF0011124ED5D2D
:10186000FD4F6081718183EB97E00E948D0B898130
:10187000882341F16DE173E0813011F060E273E0A3
:1018800083EB97E00E948D0B8881E9812AE0829F9B
:10189000C0011124E80FF92FF11DEE0FFF1FED5DC0
:1018A000FD4F6081718183EB97E00E948D0B8A81EF
:1018B000882341F06FEC73E083EB97E0DF91CF91E9
:1018C0000C948D0BDF91CF9108950F931F93CF93BD
:1018D000DF93EC0188819981009759F02A813B813F
:1018E0002617370730F081E0DF91CF911F910F91DC
:1018F00008958B016F5F7F4F0E940F25009759F06D
:10190000998388831B830A832C813D81232B59F77C
:10191000FC011082E8CF80E0E7CFEF92FF920F93B7
:101920001F93CF93DF936115710541F480E0DF9140
:10193000CF911F910F91FF90EF90089541155105A0
:10194000B1F07B01EC010C811D81040F151FB80162
:101950000E94650C882351F3288139818C819D81F7
:10196000B701820F931F0E9402261D830C8381E022
:10197000DECFCF93DF93EC0188819981009711F03E
:101980000E948624198218821D821C821B821A8260
:10199000DF91CF910895CF93DF93EC01FB0101908C
:1019A0000020E9F73197AF01461B570B0E948D0CC1
:1019B000811103C0CE010E94B90CCE01DF91CF91FD
:1019C0000895CF93DF93EC01FB0144815581608141
:1019D00071810E948D0C811103C0CE010E94B90C4F
:1019E000CE01DF91CF910895EF92FF920F931F9355
:1019F000CF93DF93EC017B018A01BA010E94650C51
:101A000081110BC0CE010E94B90CCE01DF91CF91A4
:101A10001F910F91FF90EF9008951D830C83B701E4
:101A2000888199810E940226F0CFFB01019000205D
:101A3000E9F73197AF01461B570B0C94F40C0F9349
:101A40001F93CF93DF93CDB7DEB761970FB6F894AE
:101A5000DEBF0FBECDBF8C01CB01F8011182108219
:101A600013821282158214824AE0BE016F5F7F4F9B
:101A70000E942A23BE016F5F7F4FC8010E94150D8F
:101A800061960FB6F894DEBF0FBECDBFDF91CF9148
:101A90001F910F910895CF93DF93EC01FB018617FF
:101AA000970749F0608171816115710541F04481AA
:101AB00055810E94F40CCE01DF91CF9108950E94D0
:101AC000B90CF9CFFC0111821082138212821582A7
:101AD00014820C944B0DFC0111821082138212822D
:101AE00015821482FB0101900020E9F73197AF01C4
:101AF000461B570B0C94F40CFC01808191810097DC
:101B000011F00C94862408953F924F925F926F9249
:101B10007F928F929F92AF92BF92CF92DF92EF927D
:101B2000FF920F931F93CF93DF93CDB7DEB76C97E0
:101B30000FB6F894DEBF0FBECDBF4C012A013B01AA
:101B4000CB01BA0128EE33E040E050E00E94A1232F
:101B5000298F3A8F4B8F5C8FC301B20120E63AEE9A
:101B600040E050E00E94A123690128EE33E0498D56
:101B70005A8D249FC001259F900D349F900D1124F4
:101B80005201A81AB90A3CE3332E3C9CC0013D9C8B
:101B9000900D11248A01081B190BC301B20120E822
:101BA0003EEE46E350E00E94A123329EC001339EE8
:101BB000900D1124C81AD90AB501CE0143960E948E
:101BC0001F0D54E6A516B10408F078C023E2E22EFA
:101BD00023E0F22E8AE0A816B10408F473C095E958
:101BE000A92E93E0B92EB801CE010D960E941F0DCB
:101BF0000A30110508F468C005E913E0B601CE010A
:101C000007960E941F0D65E973E04AE0C416D104EF
:101C100010F463E273E0CE0101960E946B0DBE01E9
:101C2000695F7F4FCE0101960E94E10C6FEC73E07B
:101C30000E94CB0CB8010E94CB0CBE01635F7F4FAA
:101C40000E94E10C64E473E00E94CB0CB5010E9499
:101C5000CB0CB7010E94CB0CBE016D5E7F4F0E9482
:101C6000E10CBC01C4010E94620DCE0101960E94EC
:101C70007C0DCE0107960E947C0DCE010D960E9430
:101C80007C0DCE0143960E947C0DC4016C960FB66C
:101C9000F894DEBF0FBECDBFDF91CF911F910F91A2
:101CA000FF90EF90DF90CF90BF90AF909F908F907C
:101CB0007F906F905F904F903F90089585E9E82E58
:101CC00083E0F82E57018FCF03E213E097CF8F9276
:101CD0009F92AF92BF92CF92DF92EF92FF920F93BB
:101CE0001F93CF93DF93CDB7DEB72E970FB6F8943F
:101CF000DEBF0FBECDBFBE01635F7F4F84E690E0C5
:101D00000E94920AFC01808191819E878D87892B98
:101D100009F455C010E000E08D859E850697801778
:101D2000910708F44CC07801F6E6EF0EF11C6E0145
:101D300087E0C80ED11C4801ECE68E0E911C5601BE
:101D4000C7010E945423F60181936F01FFEFEF1A40
:101D5000FF0AE814F904A1F786E0FE013796DE01D8
:101D6000119601900D928A95E1F7CB80DC80ED8091
:101D7000FE8069817A8184E096E00E94690B6BE1C4
:101D800073E084E096E00E948D0BB701A601C501C7
:101D90000E94840DB50184E096E00E94E204C50132
:101DA0000E947C0D64E973E084E096E00E948D0B54
:101DB0000A5F1F4F0E3582E0180709F0ADCF2E964F
:101DC0000FB6F894DEBF0FBECDBFDF91CF911F914C
:101DD0000F91FF90EF90DF90CF90BF90AF909F90CA
:101DE0008F900895EF92FF920F931F93CF93DF93FD
:101DF000CDB7DEB72C970FB6F894DEBF0FBECDBFC0
:101E00007C01E091730786E0E89FF0011124EF5513
:101E1000F94F848161E08E5F0E94500A65E973E0AA
:101E2000CE0107960E946B0D10E000E0BE01695FD5
:101E30007F4FCE0101960E94620D6BE173E0CE01EF
:101E400001960E94CB0CBC01CE0107960E944B0D5F
:101E5000CE0101960E947C0D0F5F1F4F0E151F05CE
:101E600029F7BE01695F7F4F83EB97E00E94E20490
:101E7000E091730786E0E89FF0011124EF55F94FD8
:101E8000848161E08E5F0E94500ACE0107960E9415
:101E90007C0D2C960FB6F894DEBF0FBECDBFDF9140
:101EA000CF911F910F91FF90EF900895FF920F93A4
:101EB0001F93CF93DF93EC01F62E08811981C8019F
:101EC0000E945423F81621F06F2DC8010E945C2354
:101ED000CE01DF91CF911F910F91FF9008950F9345
:101EE0001F93CF93DF931F921F92CDB7DEB78B0165
:101EF0009A838983FB016081CE0101960E94560F6F
:101F0000C8010F900F90DF91CF911F910F9108950D
:101F1000EF92FF920F931F93CF93DF931F921F9225
:101F2000CDB7DEB78C017B019A838983FB01608189
:101F3000CE0101960E94560F0F5F1F4F1A8309832F
:101F4000F7016181CE0101960E94560FC7010F90E3
:101F50000F90DF91CF911F910F91FF90EF90089517
:101F60001F920F920FB60F9211242F933F938F93CE
:101F70009F93AF93BF938091000690910106A0912B
:101F80000206B09103063091FB0523E0230F2D37A5
:101F900058F50196A11DB11D2093FB058093000605
:101FA00090930106A0930206B09303068091FC056E
:101FB0009091FD05A091FE05B091FF050196A11D30
:101FC000B11D8093FC059093FD05A093FE05B09391
:101FD000FF05BF91AF919F918F913F912F910F90EE
:101FE0000FBE0F901F90189526E8230F0296A11D93
:101FF000B11DD2CF1F920F920FB60F9211240BB6C4
:102000000F922F933F934F935F936F937F938F9391
:102010009F93AF93BF93EF93FF93E0910F02F091E3
:1020200010021995FF91EF91BF91AF919F918F9100
:102030007F916F915F914F913F912F910F900BBEC8
:102040000F900FBE0F901F9018951F920F920FB612
:102050000F9211240BB60F922F933F934F935F93E0
:102060006F937F938F939F93AF93BF93EF93FF9360
:10207000E0910D02F0910E021995FF91EF91BF9141
:10208000AF919F918F917F916F915F914F913F9110
:102090002F910F900BBE0F900FBE0F901F901895B1
:1020A0001F920F920FB60F9211240BB60F922F931F
:1020B0003F934F935F936F937F938F939F93AF93D0
:1020C000BF93EF93FF93E0910302F09104021995FF
:1020D000FF91EF91BF91AF919F918F917F916F9100
:1020E0005F914F913F912F910F900BBE0F900FBEBC
:1020F0000F901F9018951F920F920FB60F921124F8
:102100000BB60F922F933F934F935F936F937F93F1
:102110008F939F93AF93BF93EF93FF93E09101024F
:10212000F09102021995FF91EF91BF91AF919F91AC
:102130008F917F916F915F914F913F912F910F9070
:102140000BBE0F900FBE0F901F9018951F920F920D
:102150000FB60F9211240BB60F922F933F934F930C
:102160005F936F937F938F939F93AF93BF93EF93FF
:10217000FF93E0910B02F0910C021995FF91EF9102
:10218000BF91AF919F918F917F916F915F914F918F
:102190003F912F910F900BBE0F900FBE0F901F908D
:1021A00018951F920F920FB60F9211240BB60F9233
:1021B0002F933F934F935F936F937F938F939F934F
:1021C000AF93BF93EF93FF93E0910902F0910A025E
:1021D0001995FF91EF91BF91AF919F918F917F9151
:1021E0006F915F914F913F912F910F900BBE0F9088
:1021F0000FBE0F901F9018951F920F920FB60F925F
:1022000011240BB60F922F933F934F935F936F93CD
:102210007F938F939F93AF93BF93EF93FF93E0913F
:102220000702F09108021995FF91EF91BF91AF91CC
:102230009F918F917F916F915F914F913F912F91DE
:102240000F900BBE0F900FBE0F901F9018951F920E
:102250000F920FB60F9211240BB60F922F933F934C
:102260004F935F936F937F938F939F93AF93BF939E
:10227000EF93FF93E0910502F09106021995FF910B
:10228000EF91BF91AF919F918F917F916F915F91EE
:102290004F913F912F910F900BBE0F900FBE0F905B
:1022A0001F9018951F920F920FB60F9211240BB624
:1022B0000F922F933F934F935F936F937F938F93DF
:1022C0009F93AF93BF93EF93FF938091F705909106
:1022D000F805A091F905B091FA05892B8A2B8B2B73
:1022E000E1F19091F605E091F405F091F50580811A
:1022F000892780838091F7059091F805A091F905D1
:10230000B091FA05181619061A061B069CF480915E
:10231000F7059091F805A091F905B091FA0501979C
:10232000A109B1098093F7059093F805A093F905E9
:10233000B093FA05FF91EF91BF91AF919F918F916B
:102340007F916F915F914F913F912F910F900BBEB5
:102350000F900FBE0F901F90189580910002E0E142
:10236000F2E0E4919FEF90930002E230E9F040F454
:10237000EE2389F0E13091F060E00E942004DACF92
:10238000E43049F110F1E530B9F7909173009D7F89
:1023900090937300F1CF10926E00EECF90916F008A
:1023A0009D7F90936F00E8CF909170009D7F9093F8
:1023B000700091E09093B0009091B100987F94608C
:1023C0009093B1001092B300D7CF909171009D7F90
:1023D00090937100D1CF909172009D7F9093720085
:1023E000CBCF1F920F920FB60F9211240BB60F9204
:1023F0002F933F934F935F936F937F938F939F930D
:10240000AF93BF93EF93FF9384E096E00E947B0528
:10241000FF91EF91BF91AF919F918F917F916F91BC
:102420005F914F913F912F910F900BBE0F900FBE78
:102430000F901F9018951F920F920FB60F921124B4
:102440000BB60F922F938F939F93EF93FF93E0918F
:102450001406F09115068081E0911A06F0911B0692
:1024600082FD1DC0908180911D068F5F8F7320912A
:102470001E06821741F0E0911D06F0E0EC5FF94F77
:10248000958F80931D06FF91EF919F918F912F91D2
:102490000F900BBE0F900FBE0F901F90189580816C
:1024A000F2CF1F920F920FB60F9211240BB60F921C
:1024B000EF92FF920F931F932F933F934F935F934E
:1024C0006F937F938F939F93AF93BF93CF93DF933C
:1024D000EF93FF93C091B305D091B405209749F0D5
:1024E000EE85FF859D858B8D81FF1CC080818923B2
:1024F000E1F4FF91EF91DF91CF91BF91AF919F9167
:102500008F917F916F915F914F913F912F911F918B
:102510000F91FF90EF900F900BBE0F900FBE0F909A
:102520001F9018958081892321F78B899C890E94AF
:10253000A90688E0E82EF12C10E001E08D899E8943
:102540000E94A906EE85FF8580819D85892339F14A
:10255000102B000F81E0E81AF10881F78F89988D20
:102560000E94A9068B8D81FD10958091B205209166
:10257000B10590E001968F7399272817190699F0F5
:10258000E091B205F0E0EF58FA4F10838091B20568
:1025900090E001968F7399278093B205AACF802F80
:1025A00080951823D6CF8B8D81608B8FA2CF1F9201
:1025B0000F920FB60F9211240BB60F922F933F93E9
:1025C0004F935F936F937F938F939F93AF93BF933B
:1025D000EF93FF930E945112FF91EF91BF91AF9142
:1025E0009F918F917F916F915F914F913F912F912B
:1025F0000F900BBE0F900FBE0F901F9018951F925B
:102600000F920FB60F9211240BB60F922F933F9398
:102610004F935F936F937F938F939F93AF93BF93EA
:10262000EF93FF930E945112FF91EF91BF91AF91F1
:102630009F918F917F916F915F914F913F912F91DA
:102640000F900BBE0F900FBE0F901F901895FB01BF
:102650002081DC012C934181528163817481119628
:102660004D935D936D937C931497258136811696D7
:102670003C932E931597BF01695F7F4F07960C948B
:10268000620DFC0110821182128213821482168262
:10269000158265E973E007960C946B0D1F93CF9339
:1026A000DF931F921F92CDB7DEB7109207061092EC
:1026B000060688EE93E0A0E0B0E0809308069093D1
:1026C0000906A0930A06B0930B0685E892E0909362
:1026D00005068093040685EC90E0909311068093A4
:1026E000100684EC90E0909313068093120680EC21
:1026F00090E0909315068093140681EC90E09093FF
:1027000017068093160682EC90E09093190680934A
:10271000180686EC90E090931B0680931A061092A0
:102720001D0610921E0610921F061092200610928F
:10273000B6071092B50789EA92E09093B4078093A8
:10274000B30787E28093B70784E18093BC0784E0F6
:102750008093BD071092BE0792E39093A207109258
:10276000A3071092A4071092A5071092A607109233
:10277000A7071092A8071092A9071092AA07109213
:10278000AB071092AC071092B0071092B1071092ED
:10279000B20792E09093AD0793E09093AE078093D9
:1027A000AF078091A0078061877F8093A00762E0D8
:1027B00082E00E944E0462E08091AE070E944E04C7
:1027C0008091A00784FF05C062E08091AF070E945E
:1027D0004E048091A10781608093A1078091AD078D
:1027E0000E946302182F8091AE070E946302880F37
:1027F000991F812B8093A30710928607109285075B
:1028000088EE93E0A0E0B0E080938707909388077C
:10281000A0938907B0938A0787E992E09093840791
:10282000809383071092970710929607109299074A
:102830001092980710929B0710929A0710929D078A
:1028400010929C0780919E078E7F8D7F80939E07BC
:1028500061E08FE10E944E0461E08FE10E9420045C
:10286000EAE0F3E0E491E0939307E4ECF2E0E49132
:10287000F0E0EE0FFF1FE557FD4F85919491909387
:1028800095078093940760E08EE10E944E0480914A
:102890009E0781FD04C061E08EE10E9420048EE16C
:1028A00080938F07E9E0F3E0E491E0939007E3EC95
:1028B000F2E0E491F0E0EE0FFF1FEF58FD4F85913D
:1028C0009491909392078093910765E973E08DE767
:1028D00097E00E946B0D65E973E087E797E00E943F
:1028E0006B0D109274071092750710927607109274
:1028F000720712E01093730785E697E00E94411378
:1029000088E597E00E9441138BE497E00E94411311
:102910008EE397E00E94411381E397E00E94411308
:1029200084E297E00E94411365E677E086ED96E049
:102930000E94271368E577E083EE96E00E94271354
:102940006BE477E080EF96E00E9427136EE377E078
:102950008DEF96E00E94271361E377E08AE097E02D
:102960000E94271364E277E087E197E00E94271333
:102970001092C8061092C7061092C90681E0809393
:10298000CA061093CB0683E090E09093CD06809327
:10299000CC0623E02093CE069093D0068093CF06FA
:1029A00085E08093D1061092D20687E08093D3060B
:1029B0001092D40688E08093D50667EC76E090E02C
:1029C00080E00E94920A8091C7069091C8068A33DF
:1029D000904309F44CC00E94DD0A85E293E00E9416
:1029E0007E0B8AE390E39A8389838091C906BE01B6
:1029F0006F5F7F4F90E00E94880F8091CB0690E040
:102A00009A8389836091CA06CE0101960E94560F6F
:102A10008091CE066CEC76E090E00E94880F809169
:102A2000D1066FEC76E090E00E94880F8091D3068B
:102A300062ED76E090E00E946F0F8091D50664ED24
:102A400076E090E00E946F0F86E690E09A8389839B
:102A5000BE016F5F7F4F84E690E00E94880F86E49E
:102A600093E00E947E0B0E94A60A0E94950B109292
:102A7000C6061092C50665EC76E084E690E00E94FA
:102A8000920A65E973E081EA96E00E946B0D6BE4BF
:102A900073E087EA96E00E946B0D65E573E08DEACE
:102AA00096E00E946B0D61E673E083EB96E00E9476
:102AB0006B0D61E773E089EB96E00E946B0D60E8B7
:102AC00073E08FEB96E00E946B0D0F900F90DF91FB
:102AD000CF911F910895CF93DF93CDB7DEB76E9757
:102AE0000FB6F894DEBF0FBECDBF789484B5826078
:102AF00084BD84B5816084BD85B5826085BD85B5A2
:102B0000816085BD80916E00816080936E0010921F
:102B1000810080918100826080938100809181009A
:102B2000816080938100809180008160809380002B
:102B30008091B10084608093B1008091B000816089
:102B40008093B00080919100826080939100809189
:102B500091008160809391008091900081608093CA
:102B600090008091A10082608093A1008091A100DB
:102B700081608093A1008091A00081608093A0007B
:102B800080912101826080932101809121018160E7
:102B900080932101809120018160809320018091A8
:102BA0007A00846080937A0080917A0082608093BA
:102BB0007A0080917A00816080937A0080917A0017
:102BC000806880937A001092C100E0911406F09121
:102BD000150682E08083E0911006F09111061082C4
:102BE000E0911206F09113068FEC808310921C0680
:102BF000E0911806F091190686E08083E0911606B0
:102C0000F0911706808180618083E0911606F09133
:102C10001706808188608083E0911606F091170680
:102C2000808180688083E0911606F091170680818C
:102C30008F7D808310929D0710929C0710929B07B6
:102C400010929A071092990710929807109297077E
:102C50001092960790E080E0FC01EC58FE4F459101
:102C6000559165917491403855426105710509F09F
:102C700065C0FC01E858FE4F2591349130939707C9
:102C800020939607FC01E658FE4F2591349130932E
:102C9000990720939807FC01E458FE4F2591349141
:102CA00030939B0720939A07FC01E258FE4F8591D1
:102CB000949190939D0780939C0780919A0790919F
:102CC0009B07892B09F47DC080918F0726EF280F81
:102CD000243048F09EEC980F943028F092EC980F36
:102CE000983008F068C090916800243020F032ECF1
:102CF000380F383048F131E0932B243048F02EEC77
:102D0000280F243028F08E53F0E0E0E0883010F4F3
:102D1000E8E6F0E0908390918F0736EF390F34307A
:102D2000A8F08EEC890F843088F082EC890FEDE6F4
:102D3000F0E0883068F0F0E0E0E00AC00C968C39F2
:102D4000910509F089CFB9CF34E0D6CFEBE6F0E0BA
:102D500020813430C0F481E0692F6650770BAB01DD
:102D600001C0880F4A95EAF7822B343008F12EEC27
:102D7000290F2430E8F09E53EDE6F0E09830D0F0D3
:102D8000F0E0E0E017C088E0923371F384E0933321
:102D900059F382E0943341F382EC890F883030F4A8
:102DA00081E0E92FEE53FF0BAF01DACF81E0DCCFFA
:102DB000EBE6F0E0808380919C0790919D070E9454
:102DC000A9068091B3059091B4058358974091F07E
:102DD00080919E078E7F80939E078FB7F894109204
:102DE000B2051092B10523E837E03093B405209383
:102DF000B3058FBF84E690E0A0E0B0E08093870742
:102E000090938807A0938907B0938A0762E084E1D2
:102E10000E944E0462E085E10E944E0488E48093A3
:102E2000B8001092B9001092B8078091BD078230A7
:102E300018F098E09093B8078093BB0762E370E0C6
:102E400080E090E00E94AF046091BE0783EB97E0C2
:102E50000E94F80968EE73E080E090E00E94AF0401
:102E600060E383EB97E00E94200A0BE416E4C801BC
:102E70000197F1F760E383EB97E00E94200AC80115
:102E80000197F1F760E383EB97E00E94200A83E566
:102E900092E00197F1F760E283EB97E00E94200A4D
:102EA0006091B807606240E083EB97E00E94390AC6
:102EB00084E08093B90740E06CE083EB97E00E94E8
:102EC000390A40E061E083EB97E00E94390A0BE3A6
:102ED0001FE1C8010197F1F792E0F92EF092BA07CD
:102EE00040E066E083EB97E00E94390A40E062E050
:102EF00083EB97E00E94390AC8010197F1F788E057
:102F00008093BE0760E083EB97E00E94F8091B8284
:102F10001C821D821982FA828091A007877F80938C
:102F2000A00761E087E00E944E0461E086E00E9415
:102F30004E0461E085E00E944E0461E089E00E9459
:102F40004E0461E088E00E944E0460E08DE30E9440
:102F50004E0460E082E10E944E0461E087E00E943E
:102F6000200460E086E00E9420046091E70585E08F
:102F70000E94200460E089E00E94200461E088E073
:102F80000E94200461E081E10E944E0461E080E142
:102F90000E944E0460E080E10E9420048DE195E0F3
:102FA00090930C0280930B0280916900806C809357
:102FB0006900EB9ACE0101960E94190C63E973E057
:102FC00084E096E00E948D0B0E94A60A0E94950B59
:102FD00064E670E08CEA9DE00E94B40666E970E069
:102FE00080E090E00E94AF0464E670E088EB9BE034
:102FF0000E94B40666E970E080E090E00E94AF04B1
:1030000064E670E084EC99E00E94B40666E970E042
:1030100080E090E00E94AF0420E3222E312C38EEB5
:10302000432E33E0532E612C712C48EE842E43E066
:10303000942E2FB7F8948091000690910106A091EC
:103040000206B09103062FBF8093F0059093F1051F
:10305000A093F205B093F30583E897E00E94700611
:10306000181619060CF060C083E897E00E947006FD
:10307000BC0184E096E00E942F0B8091B9059091ED
:10308000BA05892B91F481E090E09093BA05809382
:10309000B90565E973E087E797E00E94150D65E9DA
:1030A00073E08DE797E00E94150D8091B90590912E
:1030B000BA05029731F403E010E01093BA050093CB
:1030C000B90583E897E00E948806803209F050C075
:1030D00022E030E03093BA052093B9052091B9057C
:1030E0003091BA052130310509F04CC089831A822C
:1030F00041E050E0BE016F5F7F4F87E797E00E949D
:103100008D0C2FB7F8948091000690910106A09144
:103110000206B09103062FBF8093B5059093B605C4
:10312000A093B705B093B8058091B9059091BA0501
:10313000049709F049C0A0907B07B0907C07C0902D
:103140007707D09078078FE5E82E82E0F82E10E020
:1031500000E0F701619171917F01A114B10401F5C3
:10316000FB01672B11F51093BC050093BB0520C034
:103170008B3309F0B3CF64E070E07093BA056093CD
:10318000B905ACCF2330310509F0BBCF89831A8252
:1031900041E050E0BE016F5F7F4F8DE797E0AFCF1A
:1031A0006115710509F029C1F60180818823D9F2E2
:1031B0000F5F1F4F0131110561F681E08093BD055E
:1031C0001092BA051092B9052FB7F89480910006B5
:1031D00090910106A0910206B09103062FBF409185
:1031E000B5055091B6056091B7057091B805841B7F
:1031F000950BA60BB70B0B97A105B10550F080916D
:10320000B9059091BA05892B21F01092BA05109258
:10321000B9058091BD05882389F11092BD05809183
:10322000BB059091BC05892BD9F480917D079091C5
:103230007E07009739F00E94EE22672B682B692BDE
:1032400009F0E2C086E993E00E940A0C83E993E06A
:103250000E940A0C0E94670E84E993E00E940A0C07
:103260003092BC052092BB0565E973E08DE797E0DD
:103270000E94150D1092BA051092B9058091C005F3
:103280009091C105A091C205B091C305892B8A2BED
:103290008B2B39F18091BE059091BF054091C005FF
:1032A0005091C1056091C2057091C3054093E40639
:1032B0005093E5066093E6067093E7069093E9065F
:1032C0008093E80681E08093E3061092C005109297
:1032D000C1051092C2051092C3051092BF0510924D
:1032E000BE058091A00782FD0E948C028091A407F8
:1032F000813081F41092A4071092F1061092F20628
:103300001092F3061092F4061092F6061092F5064B
:103310008093F0068091A00782FD0E948C0280912C
:10332000A407823089F41092A4071092FE0610922E
:10333000FF061092000710920107109203071092E7
:10334000020781E08093FD068091A00782FD0E9424
:103350008C0280919F0785FF12C08F7D80939F070D
:1033600010920B0710920C0710920D0710920E0787
:103370001092100710920F0781E080930A07809146
:103380007307811164C08091F006882359F0809101
:103390007207882319F081508093720782E797E0C3
:1033A0000E94190C8091FD06882359F080917207C4
:1033B000823018F48F5F8093720782E797E00E9453
:1033C000190C80910A07882339F081E080937307F4
:1033D00082E797E00E94190C1092D6061092E3063D
:1033E0001092F0061092FD0610920A07109217072D
:1033F0000E948C020E940A061CCEC6010E94F9257A
:10340000892B09F0D5CEAFCE83EA93E00E940A0C57
:103410006DE777E0CE0101960E94620DBE016F5FFD
:103420007F4F84E096E00E94E204BE016F5F7F4F11
:1034300083E897E00E94E204CE0107960E947C0D8B
:10344000CE0101960E947C0D83E993E007CF909115
:103450007407911135C09091F006992339F081508D
:103460008093730782E797E00E94190C8091FD0614
:103470008823C9F080917207811105C0809173077C
:10348000833038F00CC0813041F48091730785306F
:1034900030F48F5F8093730702C0823079F382E744
:1034A00097E00E94190C80910A07882309F494CFB1
:1034B00081E080937407809375070E94EC0B88CF9E
:1034C00080910A078823A1F080917607811110C0AE
:1034D00010927407109275070E94EC0B82E797E038
:1034E0000E94190C1092E70560E085E00E9420041C
:1034F000809172078111ACC110917307113009F0EE
:1035000013C180917507882309F472C00E94550980
:103510001093E70561E085E00E94200464E973E010
:1035200084E096E00E948D0B67EB73E084E096E008
:103530000E948D0B6091CC067091CD0684E096E0E0
:103540000E94690B8EEB93E00E947E0B61E080E0AD
:103550000E94500A68E073E083EB97E00E948D0BB5
:1035600061E080E00E94500A6AEC73E083EB97E030
:103570000E948D0B6091E3057091E40583EB97E069
:103580000E94690B61E086E00E94500A6DEC73E0D6
:1035900083EB97E00E948D0B61E089E00E94500A66
:1035A0006091CC067091CD0683EB97E00E94690B89
:1035B00061E08DE00E94500A61ED73E083EB97E0DB
:1035C0000E948D0B62E080E00E94500A68ED73E07B
:1035D00083EB97E00E948D0B8091D4066CE873E03A
:1035E000811102C060E973E083EB97E00E948D0BCC
:1035F0008091E20581112AC48091F006882309F1A7
:103600008091E3059091E405009729F0019790934C
:10361000E4058093E30561E082E00E94500A67E1DF
:1036200073E083EB97E00E948D0B61E082E00E94E3
:10363000500A6091E3057091E40583EB97E00E94E6
:10364000690B8091FD06882319F18091E305909123
:10365000E4058F30F7E29F0728F401969093E40584
:103660008093E30561E082E00E94500A67E173E025
:1036700083EB97E00E948D0B61E082E00E94500A8C
:103680006091E3057091E40583EB97E00E94690B7C
:103690008091E306882309F443C08091E406909169
:1036A000E506A091E606B091E7068093DE059093CB
:1036B000DF05A093E005B093E1058093DA059093D0
:1036C000DB05A093DC05B093DD0581E08093E20586
:1036D00068EC70E080E293E00E94B40689EE93E02B
:1036E0000E947E0B61E08DE00E94500A69EE73E05B
:1036F00083EB97E00E948D0B62E080E00E94500A0D
:1037000068E073E083EB97E00E948D0B63E080E05C
:103710000E94500A61EF73E083EB97E00E948D0BEB
:1037200080917207811194C080917307823009F0F3
:10373000A9C280917507882359F11092E60510926D
:10374000E50561E080E00E94500A6FE474E083EBDD
:1037500097E00E948D0B65E574E083EB97E00E9493
:103760008D0B62E080E00E94500A68E574E083EB14
:1037700097E00E948D0B63E080E00E94500A6EE5A6
:1037800074E083EB97E00E948D0B81E080937607D5
:103790008091F006882301F16091E605662309F423
:1037A0002AC61092E5056F5F86E00E94500A62E12A
:1037B00073E083EB97E00E948D0B6091E6058FEF3D
:1037C000860F8093E60586E00E94500A66E574E065
:1037D00083EB97E00E948D0B8091FD06882301F119
:1037E0006091E6056230E0F41092E5056F5F86E0D7
:1037F0000E94500A62E173E083EB97E00E948D0B18
:103800006091E60581E0860F8093E6056E5F86E0B5
:103810000E94500A66E574E083EB97E00E948D0BEE
:1038200080910A078823A1F08091E6058111F0C5F7
:1038300061E086E00E94500A61E273E083EB97E06A
:103840000E948D0B64E674E083EB97E00E948D0B81
:1038500080917207813009F015C280917307882327
:1038600009F4F1C280917507882309F4B3C061E0BF
:1038700080E00E94500A68E173E083EB97E00E94C9
:103880008D0B61E080E00E94500A809173078130C7
:10389000F9F467EA76E0CE0101960E94620D6DE6CA
:1038A00074E0CE0101960E94CB0CBC0183EB97E043
:1038B0000E94E204CE0101960E947C0D4091CA064E
:1038C00050E070E060E02AE083EB97E00E94E30ABA
:1038D000809173078230E9F46DEA76E0CE010196BB
:1038E0000E94620D6DE674E0CE0101960E94CB0C41
:1038F000BC0183EB97E00E94E204CE0101960E9496
:103900007C0D6091CC067091CD0683EB97E00E9410
:10391000690B809173078330E9F463EB76E0CE01A5
:1039200001960E94620D6DE674E0CE0101960E9440
:10393000CB0CBC0183EB97E00E94E204CE01019620
:103940000E947C0D6091CF067091D00683EB97E0CA
:103950000E94690B809173078430E1F469EB76E093
:10396000CE0101960E94620D6DE674E0CE010196D3
:103970000E94CB0CBC0183EB97E00E94E204CE01D5
:1039800001960E947C0D6091D40670E083EB97E075
:103990000E942F0B809173078530E1F46FEB76E086
:1039A000CE0101960E94620D6DE674E0CE01019693
:1039B0000E94CB0CBC0183EB97E00E94E204CE0195
:1039C00001960E947C0D6091D20670E083EB97E037
:1039D0000E942F0B809173078130A1F58091F00632
:1039E0008823B1F08091CA06823008F44BC181501F
:1039F0008093CA0685E090E00E94F20E4091CA06CC
:103A000050E070E060E02AE083EB97E00E94E30A78
:103A10008091FD068823B1F08091CA06823008F0BB
:103A200031C18F5F8093CA0685E090E00E94F20E5C
:103A30004091CA0650E070E060E02AE083EB97E036
:103A40000E94E30A809173078230D1F58091F006DD
:103A50008823C1F08091CC069091CD06009709F49F
:103A600011C101979093CD068093CC0685E090E03C
:103A70000E94F20E6091CC067091CD0683EB97E028
:103A80000E94690B8091FD068823D1F08091CC06BD
:103A90009091CD06883E03E0900708F0F3C00196B0
:103AA0009093CD068093CC0685E090E00E94F20EC4
:103AB0006091CC067091CD0683EB97E00E94690B74
:103AC000809173078330D1F58091F0068823C1F08F
:103AD0008091CF069091D006009709F4D3C001974A
:103AE0009093D0068093CF0686E090E00E94F20E7D
:103AF0006091CF067091D00683EB97E00E94690B2E
:103B00008091FD068823D1F08091CF069091D00658
:103B10008D3211E0910708F0B5C001969093D00660
:103B20008093CF0686E090E00E94F20E6091CF066F
:103B30007091D00683EB97E00E94690B8091730728
:103B4000843061F58091F006882391F08091D4064D
:103B5000882309F497C01092D40683E090E00E9475
:103B6000F20E6091D40670E083EB97E00E942F0B79
:103B70008091FD06882391F08091D406811182C046
:103B800081E08093D40683E090E00E94F20E609181
:103B9000D40670E083EB97E00E942F0B80917307AF
:103BA000853061F58091F006882391F08091D206EE
:103BB000882309F467C01092D20683E090E00E9447
:103BC000F20E6091D20670E083EB97E00E942F0B1B
:103BD0008091FD06882391F08091D206811152C018
:103BE00081E08093D20683E090E00E94F20E609123
:103BF000D20670E083EB97E00E942F0B80910A07BA
:103C0000882309F43FC080917307813059F4809173
:103C1000CB0690E09A8389836091CA06CE01019613
:103C20000E94560F80917307823039F48091CE063E
:103C30006CEC76E090E00E94880F809173078330EF
:103C400039F48091D1066FEC76E090E00E94880F05
:103C500080917307843039F48091D50664ED76E065
:103C600090E00E946F0F80917307853039F4809146
:103C7000D30662ED76E090E00E946F0F0E94A60AE4
:103C80000E94950B80917207823009F0DCC0109180
:103C90007307113009F0D7C080917507882309F4A4
:103CA00042C061E080E00E94500A68E173E083EB6B
:103CB00097E00E948D0B61E080E00E94500A62E96B
:103CC00074E083EB97E00E948D0B62E080E00E943D
:103CD000500A63E173E083EB97E00E948D0B62E092
:103CE00080E00E94500A6CE874E083EB97E00E9449
:103CF0008D0B63E080E00E94500A68E173E083EB83
:103D000097E00E948D0B63E080E00E94500A61E919
:103D100074E083EB97E00E948D0B1093E70561E060
:103D200085E00E9420048091EC059091ED05A09122
:103D3000EE05B091EF05845D9E4FAF4FBF4F4091B0
:103D4000F0055091F1056091F2057091F30584172B
:103D50009507A607B70728F561E083E00E94500A9F
:103D600068E173E083EB97E00E948D0B61E083E0F4
:103D70000E94500A0E94CE01BC0183EB97E00E9492
:103D80002F0B8091F0059091F105A091F205B09173
:103D9000F3058093EC059093ED05A093EE05B093A9
:103DA000EF058091E306882309F44DC062E084E0CA
:103DB0000E94500A63E173E083EB97E00E948D0B51
:103DC00062E084E00E94500A4091E4065091E506CA
:103DD0006091E6067091E7068091E8059091E9050B
:103DE000A091EA05B091EB05481B590B6A0B7B0BC0
:103DF0002AE083EB97E00E94E30A63E084E00E94FC
:103E0000500A68E173E083EB97E00E948D0B63E05A
:103E100084E00E94500A6091E8067091E90683EB05
:103E200097E00E94690B8091E4069091E506A091CD
:103E3000E606B091E7068093E8059093E905A09324
:103E4000EA05B093EB0510927507C6CA813009F0F8
:103E5000DAC1C090F005D090F105E090F205F09045
:103E6000F3058091D6059091D705A091D805B09122
:103E7000D90588519C4FAF4FBF4F8C159D05AE059E
:103E8000BF0588F563E087E00E94500A8091DE0557
:103E90009091DF05A091E005B091E105B701A60181
:103EA000481B590B6A0B7B0BCE0101960E94840DB7
:103EB000BE016F5F7F4F83EB97E00E94E204CE016B
:103EC00001960E947C0D8091F0059091F105A091E2
:103ED000F205B091F3058093D6059093D705A09392
:103EE000D805B093D905C090F005D090F105E090C9
:103EF000F205F090F3058091D2059091D305A09141
:103F0000D405B091D50588539F4FAF4FBF4F8C1547
:103F10009D05AE05BF0508F07FC063E08DE00E94FF
:103F2000500A8091DE059091DF05A091E005B091E7
:103F3000E105C81AD90AEA0AFB0AC701B601A301BA
:103F400092010E94A123289DC001299D900D389DBA
:103F5000900D1124C81AD90AB601CE0101960E940B
:103F60001F0D63E273E004E6C016D10410F065E9AA
:103F700073E0CE0107960E946B0D63E273E01AE0D6
:103F8000C116D10410F065E973E0CE0143960E949A
:103F90006B0DBE016D5E7F4FCE010D960E94620DCE
:103FA000BE01695F7F4FCE010D960E94E10CBE01FC
:103FB0006F5F7F4F0E94E10CBC01CE0149960E94C9
:103FC000620DCE010D960E947C0DCE0143960E949B
:103FD0007C0DCE0107960E947C0DCE0101960E94B9
:103FE0007C0DBE01675E7F4F83EB97E00E94E20489
:103FF000CE0149960E947C0D8091F0059091F105CB
:10400000A091F205B091F3058093D2059093D3056A
:10401000A093D405B093D5058091E306882309F4D5
:104020007FCB4091E4065091E5066091E6067091E1
:10403000E7068091DA059091DB05A091DC05B0914F
:10404000DD058A019B01081B190B2A0B3B0BD901CB
:10405000C8018093CE059093CF05A093D005B0936F
:10406000D1050091CA051091CB052091CC05309166
:10407000CD05011511052105310529F0801791079E
:10408000A207B30740F48093CA059093CB05A09391
:10409000CC05B093CD054093DA055093DB056093D2
:1040A000DC057093DD058091C8059091C9050196E6
:1040B0009093C9058093C80562E370E088E592E0BB
:1040C0000E94B40666E074E084E096E00E948D0BE6
:1040D0006091C8057091C90584E096E00E94690B63
:1040E0006CE674E084E096E00E948D0B4091DA0566
:1040F0005091DB056091DC057091DD052AE084E0DC
:1041000096E00E94E30A64E973E084E096E00E948E
:104110008D0B66E074E083E897E00E948D0B609160
:10412000C8057091C90583E897E00E94690B6CE6A9
:1041300074E083E897E00E948D0B4091DA0550917E
:10414000DB056091DC057091DD052AE083E897E0EE
:104150000E94E30A64E973E083E897E00E948D0B14
:1041600062E080E00E94500A6BE074E083EB97E02D
:104170000E948D0B62E084E00E94500A6091C805A5
:104180007091C90583EB97E00E94690B6DE674E0BE
:1041900083EB97E00E948D0B4091CE055091CF05A7
:1041A0006091D0057091D105CE0101960E94840DD9
:1041B000BE016F5F7F4F83EB97E00E94E204CE0168
:1041C00001960E947C0D2091CC063091CD06809105
:1041D000C8059091C9058217930708F4A1CA82E027
:1041E0008093E2058091E4069091E506A091E606B1
:1041F000B091E7068093C4059093C505A093C605CA
:10420000B093C7058DCA823009F08ACA68EC70E0A5
:1042100084E690E00E94B40660E274E084E096E0F8
:104220000E948D0B6CE674E084E096E00E948D0B9A
:104230004091C4055091C5056091C6057091C705B0
:104240008091DE059091DF05A091E005B091E10538
:10425000481B590B6A0B7B0B2AE084E096E00E9416
:10426000E30A64E973E084E096E00E948D0B80919C
:10427000D406882309F450C08091C4059091C505E7
:10428000A091C605B091C7054091DE055091DF05AC
:104290006091E0057091E105841B950BA60BB70BAF
:1042A0002091E3053091E4053A8329838B839C8335
:1042B000AD83BE83BE01635F7F4F84E690E00E94C2
:1042C000920A0D851E85680126E6C20ED11CBE012C
:1042D0006F5F7F4F7B0104591F4FD886CF82F70154
:1042E00061917F01CE0107960E94560FFFEFCF1A12
:1042F000DF0A0C151D0589F78D859E8506969E871C
:104300008D87BE01635F7F4F84E690E00E94880F37
:104310008AE294E00E947E0B61E08DE00E94500AE8
:1043200067E374E083EB97E00E948D0B62E080E02E
:104330000E94500A68E073E083EB97E00E948D0BC7
:1043400062E080E00E94500A6FE374E083EB97E044
:104350000E948D0B4091CA055091CB056091CC0510
:104360007091CD05CE0101960E94840DBE016F5F54
:104370007F4F83EB97E00E94E204CE0101960E94FA
:104380007C0D63E080E00E94500A68E073E083EBFC
:1043900097E00E948D0B63E080E00E94500A67E482
:1043A00074E083EB97E00E948D0B4091C40550911F
:1043B000C5056091C6057091C7058091DE05909195
:1043C000DF05A091E005B091E105481B590B6A0B90
:1043D0007B0BCE0101960E94840DBE016F5F7F4F63
:1043E00083EB97E00E94E204CE0101960E947C0DCF
:1043F0000E94550995C91092760710927407109281
:1044000075070E94EC0B82E797E00E94190CE4C943
:10441000813009F50E94670E6091E6056F5F86E0C6
:104420000E94500A61E273E083EB97E00E948D0BDB
:1044300069E674E083EB97E00E948D0B8091C506DE
:104440009091C60666E070E00E94792383EB97E0C6
:104450000E94690BFDC9823009F0FAC963E086E069
:104460000E94500A61E273E083EB97E00E948D0B9B
:104470008091E505811110C06091E6056F5F88E0CD
:104480000E94500A60E774E083EB97E00E948D0B76
:1044900081E08093E505DCC989E794E00E947E0B0A
:1044A0001092C6061092C50665EC76E084E690E0B0
:1044B0000E94880F6091E6056F5F88E00E94500AB5
:1044C00063E874E083EB97E00E948D0B1092E505A2
:1044D000BFC9CF93DF93C5ECD6E02697CE010E94EB
:1044E0007C0D86E0C13AD807C1F7C4E2D7E02D972A
:1044F000CE0107960E947C0D96E0C63DD907B9F71C
:104500008BE297E00E947C0D88E397E00E947C0D8F
:1045100085E497E00E947C0D82E597E00E947C0D87
:104520008FE597E00E947C0D8CE697E00E947C0D61
:1045300087E797E00E947C0D8DE797E00E947C0D55
:1045400087E992E0909384078093830720918F07F7
:1045500046EF420F443068F08EEC820F843048F012
:1045600082EC820FEDE6F0E0883028F0DF91CF9109
:104570000895EBE6F0E03081822F8650990B4430AD
:1045800080F087EF2233A9F08BEF233391F08DEF8A
:10459000243379F082EC820F8830D0F4822F8E534E
:1045A000990BBC0181E090E001C0880F6A95EAF7A1
:1045B00080958323443070F09EEC920F943050F03D
:1045C0002E53F0E0E0E0283038F4EDE6F0E004C0EF
:1045D0008EEFEFCFEBE6F0E08083C8CF1F93FC01B6
:1045E00099278827BC01E89411911032E9F319301A
:1045F00010F01E30C8F31B3251F01D3249F468949C
:1046000006C00E941523610F711D811D911D11911E
:1046100010531A30B0F33EF49095809570956195E3
:104620007F4F8F4F9F4F1F910895592F482F372F3E
:10463000262F660F771F881F991F660F771F881F09
:10464000991F620F731F841F951F660F771F881FA6
:10465000991F0895BB27FB015527AA27880F991F8B
:10466000AA1FA41710F0A41B83955051B9F7A05DA1
:10467000AA3308F0A95DA193009779F7B111B1931E
:104680001192CB010C944423DC01FC01672F719142
:104690007723E1F7329704C07C916D937083629128
:1046A000AE17BF07C8F30895F999FECF92BD81BD3B
:1046B000F89A992780B50895262FF999FECF1FBA49
:1046C00092BD81BD20BD0FB6F894FA9AF99A0FBE3B
:1046D00001960895A29FB001B39FC001A39F700DE2
:1046E000811D1124911DB29F700D811D1124911DFA
:1046F0000895AA1BBB1B51E107C0AA1FBB1FA61729
:10470000B70710F0A61BB70B881F991F5A95A9F77A
:1047100080959095BC01CD01089597FB072E16F466
:10472000009407D077FD09D00E94792307FC05D0BB
:104730003EF4909581959F4F0895709561957F4FB8
:104740000895A1E21A2EAA1BBB1BFD010DC0AA1FD2
:10475000BB1FEE1FFF1FA217B307E407F50720F0EA
:10476000A21BB30BE40BF50B661F771F881F991F65
:104770001A9469F760957095809590959B01AC01AE
:10478000BD01CF010895052E97FB1EF400940E94F1
:10479000DA2357FD07D00E94A12307FC03D04EF473
:1047A0000C94DA2350954095309521953F4F4F4F0B
:1047B0005F4F089590958095709561957F4F8F4FCD
:1047C0009F4F0895EE0FFF1F881F8BBF0790F69134
:1047D000E02D19940F931F93CF93DF9382309105AF
:1047E00010F482E090E0E091C107F091C20730E060
:1047F00020E0B0E0A0E0309799F42115310509F4EC
:104800004AC0281B390B24303105D8F58A819B8199
:104810006115710589F1FB0193838283FE0111C04B
:10482000408151810281138148175907E0F04817F0
:10483000590799F4109761F012960C9312971396FA
:104840001C933296CF01DF91CF911F910F91089564
:104850000093C1071093C207F4CF2115310551F021
:104860004217530738F0A901DB019A01BD01DF01AE
:10487000F801C1CFEF01F9CF9093C2078093C10730
:10488000CDCFFE01E20FF31F8193919322503109A6
:1048900039832883D7CF2091BF073091C007232BBE
:1048A00041F420911702309118023093C0072093F1
:1048B000BF0720911502309116022115310541F4F0
:1048C0002DB73EB74091190250911A02241B350BA7
:1048D000E091BF07F091C007E217F307A0F42E1B89
:1048E0003F0B2817390778F0AC014E5F5F4F241754
:1048F000350748F04E0F5F1F5093C0074093BF0726
:10490000819391939FCFF0E0E0E09CCFCF93DF9332
:104910000097E9F0FC01329713821282A091C1073F
:10492000B091C207ED0130E020E01097A1F42081A2
:104930003181820F931F2091BF073091C007281744
:10494000390709F061C0F093C007E093BF07DF911A
:10495000CF910895EA01CE17DF07E8F54A815B8120
:104960009E0141155105B1F7E901FB83EA834991A5
:104970005991C40FD51FEC17FD0761F48081918117
:104980000296840F951FE901998388838281938120
:104990009B838A83F0E0E0E012968D919C911397BF
:1049A0000097B9F52D913C911197CD010296820F98
:1049B000931F2091BF073091C0072817390739F698
:1049C000309751F51092C2071092C107B093C007FB
:1049D000A093BF07BCCFD383C28340815181840F92
:1049E000951FC817D90761F44E5F5F4F8881998181
:1049F000480F591F518340838A819B81938382830F
:104A00002115310509F0B0CFF093C207E093C1073B
:104A10009ECFFD01DC01C0CF13821282D7CF4F920F
:104A20005F926F927F928F929F92AF92BF92CF923E
:104A3000DF92EF92FF920F931F93CF93DF938C013E
:104A4000009799F4CB01DF91CF911F910F91FF90C7
:104A5000EF90DF90CF90BF90AF909F908F907F901E
:104A60006F905F904F900C94EA23FC01E60FF71FC4
:104A70009C0122503109E217F30708F4AEC0D901B6
:104A8000CD91DC911197C617D70720F1C530D1051C
:104A900078F0CE0104978617970750F0C61BD70B06
:104AA0002297C193D1936D937C93CF010E9486246A
:104AB000C801DF91CF911F910F91FF90EF90DF9090
:104AC000CF90BF90AF909F908F907F906F905F90AE
:104AD0004F9008955B01AC1ABD0A4C018C0E9D1ECF
:104AE000A091C107B091C207512C412CF12CE12CAF
:104AF000109731F58091BF079091C00788159905EF
:104B000009F05CC04616570608F058C0809115029F
:104B100090911602009741F48DB79EB7409119020B
:104B200050911A02841B950BE817F90708F055C03D
:104B3000F093C007E093BF07F90171836083B8CF9A
:104B40008D919C91119712966C90129713967C9070
:104B50001397A815B90559F56C0142E0C40ED11C94
:104B6000CA14DB0420F1AC014A195B09DA01129680
:104B7000159780F06282738251834083D9016D93CF
:104B80007C93E114F10471F0D7011396FC93EE933A
:104B900012978ECF22968C0F9D1FF90191838083EF
:104BA000F301EFCFF093C207E093C10781CF48161E
:104BB000590608F42C017D01D3019ACFCB010E9444
:104BC000EA237C01009749F0AE01B8010E94F0256C
:104BD000C8010E94862487016BCF10E000E068CFF7
:104BE000FB01DC0102C001900D9241505040D8F70A
:104BF0000895FB01DC018D91019080190110D9F31A
:104C0000990B0895FB01DC0101900D920020E1F762
:104C1000089511E0CAE9D1E000E006C0802FFE014E
:104C20000E94E2232196011DCB39D10780E00807BD
:064C3000A9F7F894FFCF84
:104C3600FFE104E104E104E104E104E104E104E14B
:104C460004000000010000C30780000000400014BB
:104C560000540096049B04A5045E040000000000B6
:104C660000000000000000AD04B104B604BD04C994
:104C760004D6040000000000000000DD04E204ED9C
:104C860004F204000000000000000000000000F82C
:104C96000403050D0517051C05210526052B053101
:104CA6000538053D054205470556045005210352C2
:104CB60005000000009D05F0043405EA056505437E
:104CC600055705000000008409F004B1066106706E
:104CD600068806470600000000820AF004B106B006
:104CE600060D0A00436F6E6669673A200046535FF9
:104CF6004B45593A20004D4F44453A20004C41500F
:104D0600535F4E3A200053454E534F525F49474E2C
:104D16004F52455F54494D453A20004D5554453A4A
:104D26002000534156455F524553554C54533A2043
:104D3600002020202020202020202020202020208D
:104D4600202020202020202020202020003C2D0074
:104D56002D3E00300046697273742073746172745C
:104D66002C2077726974696E672064656661756C5C
:104D760074732E2E2E00446F6E65005241434520FB
:104D86004D4F4445004C415053204E554D424552DF
:104D96000053454E532049474E4F524520544D54DB
:104DA600005341564520544F20454550524F4D0023
:104DB6004D55544520534F554E44530059455300C5
:104DC6004E4F000A0A000A526573756C74732061AF
:104DD6006C6C000A526573756C747320666F722072
:104DE600726163657220004C6170733A2000203A4C
:104DF6002052656164792E2E2E00523A00204C3ADC
:104E060000205265616479005341564520544F2075
:104E1600454550524F4D3A20005374617274656493
:104E26000054696D65723A20202020202020202021
:104E36002020202020004C617020004C6170202032
:104E4600202020202020202020202020202020007C
:104E560046696E69736865642000526573756C7483
:104E66002073617665640052656164792020004292
:104E76006573743A202000416C6C3A202020005360
:104E8600686F772000203C005072696E7400436C96
:104E960065617200204F4B2000204F4B203A2000C6
:104EA60020537572653F202000436C656172206156
:104EB6006C6C0020436C65617265640064743A2012
:104EC6000069563A20005261636500476574207296
:104ED6006561647900526573756C7473005365740B
:104EE600004D6F6465004C617073204E0049676E1B
:104EF6006F72652074696D65005361766520726511
:104F060073756C747300536F756E647300546573B8
:104F16007400416C6C2076616C7565730054696D24
:104F26006500426C696E6B00676574726573756CBB
:104F3600747300676574696E707574730067657461
:104F4600636F6E666967007261636500736176659B
:104F5600006D6F6465006C617073006C6576656CDE
:104F66000063616E63656C007363616C00626174FB
:104F760072006D757465007374696D656F75740084
:084F86005E0068656C7000001C
:00000001FF
