:100000000C9442010C9430090C9405090C94DA0804
:100010000C94AF080C9484080C9459080C942E0886
:100020000C9403080C9473010C9473010C947301E9
:100030000C9473010C9473010C9473010C94730170
:100040000C9473010C9473010C9473010C94730160
:100050000C9473010C9473010C9473010C94B90704
:100060000C9473010C9485090C945B090C94730136
:100070000C9473010C9473010C9473010C94730130
:100080000C9473010C9473010C9473010C94730120
:100090000C9473010C9473010C9473010C94730110
:1000A0000C9473010C9473010C9473010C94730100
:1000B0000C9473010C9473010C9473010C947301F0
:1000C0000C9473010C9473010C9473010C947301E0
:1000D0000C9473010C9473010C9473010C947301D0
:1000E0000C9473010C9401020C94DC040C94D40560
:1000F0000C94DC010C94E6010C9402020C94FC01BB
:100100000C9489040C94FE040C94D3010C94EA0121
:100110000C94EE010C94CB010C9483050C949E0D71
:100120000C9488040C9436050C9406020C94C101BE
:100130000C94F4010C94CD040C94F0040C94CF01B5
:100140000C94D6010C94E0010C94D5050C94B604E3
:100150000C94F8010C94C7010C9460060C94BB0934
:1001600000002100240027002A002D003000330069
:1001700001010000040107010A010000220025001E
:1001800028002B002E003100340002010000050180
:1001900008010B01000020002300260029002C008C
:1001A0002F003200000100000301060109010505CE
:1001B0000505070508080808020202020A0A0808DD
:1001C000040404040101010101010101030303030B
:1001D00003030303040707070C0C0C0C0C0C0C0C9A
:1001E0000202020206060606060606060B0B0B0BAB
:1001F0000B0B0B0B010210202008081020401020D0
:1002000040800201020108040201010204081020DA
:1002100040808040201008040201800402018040D8
:100220002010080402010804020101020408102041
:100230004080010204081020408000000A0B0209DF
:100240000C0D0E0807030401000000000000000070
:10025000000000000000000000000000000000009E
:10026000000000000000121110000000000000005B
:10027000000000000000000000000000000000007E
:10028000BB099E0D11241FBECFEFD1E2DEBFCDBF53
:1002900000E00CBF24E0AAEEB2E001C01D92A1373D
:1002A000B207E1F712E0A0E0B2E0EEE3F0E200E036
:1002B0000BBF02C007900D92AA3EB107D9F711E01B
:1002C000C1E4D1E000E006C021970109802FFE01C2
:1002D0000E94EF0DC034D10780E00807A9F70E9403
:1002E000CC0A0C940D100C94000080917B00877F49
:1002F00080937B0087E480937C0080917A00806407
:1003000080937A0080917A0086FDFCCF80917800FE
:100310009091790008958093BB0084E88093BC009D
:100320008091BC0087FFFCCF8091B900887F80322C
:1003300021F481E0809311020895803319F481E063
:100340008093120208958150823108F05AC0E82F3C
:10035000F0E08827E155FE4F8F4F0C94EF0DCF0151
:10036000D301C101C701CB010102D601DC01E001CB
:10037000E601EA01EE01F401F8010102FC010202CA
:100380000602809180008F7780938000089580918D
:1003900080008F7DF9CF80918000877FF5CF84B575
:1003A0008F7784BD089584B58F7DFBCF8091B00099
:1003B0008F778093B00008958091B0008F7DF9CF42
:1003C000809190008F7780939000089580919000A5
:1003D0008F7DF9CF80919000877FF5CF8091A0002D
:1003E0008F778093A00008958091A0008F7DF9CF32
:1003F0008091A000877FF5CF809120018F77809337
:1004000020010895809120018F7DF9CF80912001F6
:10041000877FF5CFCF93DF93282F30E0F901E65C9B
:10042000FD4F8491F901EC50FE4FD491F901E25552
:10043000FE4FC491CC23A1F081110E94A301EC2FA7
:10044000F0E0EE0FFF1FEC56FE4FA591B491EC913A
:10045000ED2381E090E009F480E0DF91CF910895F1
:1004600080E090E0FACF8F929F92AF92BF92CF92AE
:10047000DF92EF92FF920F931F93CF93DF938FB78B
:10048000F894C0900103D0900203E0900303F09031
:1004900004038FBF80914E0484FF74C08090530486
:1004A00090905404A0905504B090560490915F042D
:1004B0009111F6C080915D040E940A0220914F04C0
:1004C000022F017010E021E00817190709F420E05D
:1004D00020936004B701A601481959096A097B09EC
:1004E0002091600490914D0491FB882780F922238C
:1004F00009F419C181111AC0413551056105710511
:10050000A8F0C0925304D0925404E0925504F092A3
:100510005604997E9261906890934D0480914F04A7
:10052000806280934F0440E050E0BA0180914F0414
:1005300090914D0484FF12C04D3231E053076105A4
:10054000710560F092FD05C083FDB4C082608093A8
:100550004F0480914F048F7E80934F0491FF12C00F
:100560004D3B52406105710568F092FD0BC022239E
:1005700009F4A2C0916090934D0480914F048F7D47
:1005800080934F0480915F04882309F4A2C0909166
:100590004E0496FB332730F9C32F80E0D82FCC0FC1
:1005A000DD1F95FB882780F98C2B2091510428179B
:1005B00009F469C01092520490914F0496FFB0C0A4
:1005C000833009F097C09F7B90934F04213009F44A
:1005D0008DC091E0223009F48AC090914E0493FDC1
:1005E00003C0833009F493C0909152049923E1F140
:1005F00020914D04286020934D0440915704509160
:1006000058046091590470915A0497018601041BA3
:10061000150B260B370B4091500450E070E060E062
:10062000041715072607370760F420914E0422604F
:10063000913029F0923029F420914E0421602093CA
:100640004E04C0925704D0925804E0925904F0929C
:100650005A0420914E0424FF07C0209160042223F5
:1006600019F09E5F909352048093510480914D0441
:10067000846080934D04C0925304D0925404E0925D
:100680005504F0925604DF91CF911F910F91FF9086
:10069000EF90DF90CF90BF90AF909F908F90089594
:1006A00087FB882780F98093600414CF80914F04E2
:1006B000886037CF84604BCF9D7F9E7F90934D04A1
:1006C000C0925304D0925404E0925504F092560420
:1006D00059CF80915B040E940A02C82F80915C046C
:1006E0000E940A02880F991F8C2B5FCF92E0909393
:1006F000520473CF30914E0433FD46C0811174CF44
:100700009F7B90934F04213041F0223031F0909143
:100710004F04906490934F0467CF20935204F7CF17
:100720008823A9F35ACF882309F400CF4135510516
:100730006105710508F4FACE92FD05C090FD03C075
:10074000906290934D044D3B52406105710528F035
:1007500080914D04806480934D0480914D04C0923B
:100760005304D0925404E0925504F09256048D7FC5
:100770008E7F80934D0480914F0485FF97CF84FD39
:1007800095CF8061877FCDCE882309F26DCF1F93EF
:10079000CF93DF93282F30E0F901E65CFD4F849181
:1007A000F901EC50FE4FD491F901E255FE4FC4918E
:1007B000CC23A9F0162F81110E94A301EC2FF0E0A9
:1007C000EE0FFF1FE658FE4FA591B4918FB7F89436
:1007D000EC91111108C0D095DE23DC938FBFDF911F
:1007E000CF911F910895DE2BF8CFCF93DF9390E048
:1007F000FC01EC50FE4F249182559E4FFC018491E8
:100800008823C9F090E0880F991FFC01E05AFE4F41
:10081000A591B491FC01E658FE4FC591D4916111A8
:100820000DC09FB7F8948C91209582238C9388817A
:10083000282328839FBFDF91CF910895623051F420
:100840009FB7F8943C91822F809583238C93E88105
:100850002E2BEFCF8FB7F894EC912E2B2C938FBFCC
:10086000EACF3FB7F8948091FD029091FE02A091EB
:10087000FF02B091000326B5A89B05C02F3F19F0D9
:100880000196A11DB11D3FBFBA2FA92F982F882710
:10089000BC01CD01620F711D811D911D42E0660FEB
:1008A000771F881F991F4A95D1F708958F929F92BD
:1008B000AF92BF92CF92DF92EF92FF924B015C0119
:1008C0000E9431046B017C010E9431046C197D0986
:1008D0008E099F09683E734081059105A8F321E0C8
:1008E000821A9108A108B10888EEC80E83E0D81ECC
:1008F000E11CF11C81149104A104B10429F7FF90BB
:10090000EF90DF90CF90BF90AF909F908F90089521
:100910000895AF92BF92CF92DF92EF92FF920F9322
:100920001F93CF93DF936C017B018B01040F151F85
:10093000EB015E01AE18BF08C017D10759F06991ED
:10094000D601ED91FC910190F081E02DC601199541
:10095000892B79F7C501DF91CF911F910F91FF90FE
:10096000EF90DF90CF90BF90AF9008958091F80204
:100970009091F902A091FA02B091FB028093EC02EF
:100980009093ED02A093EE02B093EF020E947501E6
:100990009093EB028093EA020895FC01538D448DFD
:1009A000252F30E0842F90E0821B930B541710F01A
:1009B000CF96089501970895FC01918D828D981727
:1009C00061F0A28DAE0FBF2FB11D5D968C91928DFF
:1009D0009F5F9F73928F90E008958FEF9FEF089530
:1009E000FC01918D828D981731F0828DE80FF11DF9
:1009F000858D90E008958FEF9FEF0895FC01918D14
:100A0000228D892F90E0805C9F4F821B91098F730C
:100A10009927089585E093E00E94FE0421E0892B48
:100A200009F420E0822F0895FC01A48DA80FB92FAE
:100A3000B11DA35ABF4F2C91848D90E001968F7306
:100A40009927848FA689B7892C93A089B1898C9125
:100A5000837080648C93938D848D981306C0028874
:100A6000F389E02D80818F7D80830895EF92FF923E
:100A70000F931F93CF93DF93EC0181E0888F9B8DC1
:100A80008C8D98131AC0E889F989808185FF15C07B
:100A90009FB7F894EE89FF896083E889F98980819E
:100AA0008370806480839FBF81E090E0DF91CF916D
:100AB0001F910F91FF90EF900895F62E0B8D10E08F
:100AC0000F5F1F4F0F731127E02E8C8D8E110CC0FE
:100AD0000FB607FCFACFE889F989808185FFF5CF49
:100AE000CE010E941405F1CFEB8DEC0FFD2FF11D0F
:100AF000E35AFF4FF0829FB7F8940B8FEA89FB8986
:100B000080818062CFCFCF93DF93EC01888D8823E3
:100B1000B9F0AA89BB89E889F9898C9185FD03C060
:100B2000808186FD0DC00FB607FCF7CF8C9185FF45
:100B3000F2CF808185FFEDCFCE010E941405E9CF71
:100B4000DF91CF91089580E090E0892B29F00E94F9
:100B50000A0581110E94000080E090E0892B49F095
:100B600080E090E0892B29F00E94000081110E9412
:100B7000000080E090E0892B49F080E090E0892B34
:100B800029F00E94000081110E94000080E090E0A6
:100B9000892B49F080E090E0892B29F00E94000029
:100BA00081110C9400000895089590E080E008956C
:100BB0001F93CF93DF93EC01162F8C8194EA9093CF
:100BC000BC009091BC0097FFFCCF880F0E948B0166
:100BD0008B85812B0E948B0184E98093BC008091DE
:100BE0001102882329F0109211021092120204C0FF
:100BF000809112028111F9CFDF91CF911F91089559
:100C00000F931F93CF938C01C62F0E94D8056C2F92
:100C10006460C8010E94D8056C2F6B7FC8010E94D8
:100C2000D80583EC90E00197F1F7CF911F910F91D8
:100C300008950F931F93CF93DF938C01D62FC42F6A
:100C4000607F642B0E94000680E1D89FB0011124D0
:100C50006C2BC801DF91CF911F910F910C9400066E
:100C6000CF93DF9300D000D01F921F92CDB7DEB795
:100C700098E0EAE1F2E0DE01119601900D929A957A
:100C8000E1F790916904981710F48FEF890F90E0C5
:100C9000880F991F21E030E02C0F3D1F820F931F1A
:100CA000FC016081606840E081E694E028960FB620
:100CB000F894DEBF0FBECDBFDF91CF910C94190623
:100CC00041E00E94190681E090E008958F929F9282
:100CD000AF92BF920F931F93CF93DF93CDB7DEB741
:100CE000A1970FB6F894DEBF0FBECDBF19A2423058
:100CF00008F44AE08E010F5D1F4F842E912CB12C19
:100D0000A12CA50194010E94CD0DE62FB901CA01C5
:100D1000EA3044F5E05DD801EE938D01232B242BBE
:100D2000252B79F790E080E0109769F0FD010190A4
:100D30000020E9F73197AF014A1B5B0BBD0181E64B
:100D400094E00E948904A1960FB6F894DEBF0FBE0E
:100D5000CDBFDF91CF911F910F91BF90AF909F902A
:100D60008F900895E95CD7CF009769F0FC0101905E
:100D70000020E9F73197AF01481B590BBC0181E610
:100D800094E00C94890490E080E0089580E00E9453
:100D900030068CE792E00E94B40680E00E943006A4
:100DA000E0913E0424E1E29FF0011124EE5DFD4F4D
:100DB000808191810E94B40680913F048823E1F0F4
:100DC0008130B9F488E992E00E94B40680913E0433
:100DD000E0913F042AE0829FC0011124E80FF92F1F
:100DE000F11DEE0FFF1FEE5DFD4F808191810C9490
:100DF000B4068BE992E0E8CF0895FC0180819181EF
:100E0000009711F00C94930E08950F931F93CF93B6
:100E1000DF93EC0188819981009759F02A813B8109
:100E20002617370730F081E0DF91CF911F910F91A6
:100E300008958B016F5F7F4F0E941C0F009759F040
:100E4000998388831B830A832C813D81232B59F747
:100E5000FC011082E8CF80E0E7CFEF92FF920F9382
:100E60001F93CF93DF93EC01DB018C918883119664
:100E70004D915D916D917C91149749835A836B8359
:100E80007C8315968D919C9116979E838D83CE01C0
:100E9000079618861F821A8619861C861B869D0156
:100EA000295F3F4F82179307E9F017960D911C9128
:100EB000189701151105B1F01B96ED90FC90B70144
:100EC0000E9405072F813885811113C02115310536
:100ED00019F0C9010E94930E18861F821C861B867A
:100EE0001A861986DF91CF911F910F91FF90EF9095
:100EF0000895FC86EB86B801C901DF91CF911F915F
:100F00000F91FF90EF900C940610CF93DF93EC01BC
:100F100070E060E00E9405072881398181110FC0CF
:100F20002115310519F0C9010E94930E198218820A
:100F30001D821C821B821A82DF91CF9108951D822F
:100F40001C8267E972E0C901DF91CF910C94061011
:100F5000FC01108211821282138214821682158281
:100F600010861782128611861486138607960C94B3
:100F700085071F920F920FB60F9211242F933F9364
:100F80008F939F93AF93BF9380910103909102033E
:100F9000A0910303B09104033091FC0223E0230FDE
:100FA0002D3758F50196A11DB11D2093FC028093A9
:100FB000010390930203A0930303B0930403809171
:100FC000FD029091FE02A091FF02B09100030196F4
:100FD000A11DB11D8093FD029093FE02A093FF021C
:100FE000B0930003BF91AF919F918F913F912F914B
:100FF0000F900FBE0F901F90189526E8230F0296B2
:10100000A11DB11DD2CF1F920F920FB60F921124C6
:101010000BB60F922F933F934F935F936F937F93F2
:101020008F939F93AF93BF93EF93FF93E0910E0243
:10103000F0910F021995FF91EF91BF91AF919F91A0
:101040008F917F916F915F914F913F912F910F9071
:101050000BBE0F900FBE0F901F9018951F920F920E
:101060000FB60F9211240BB60F922F933F934F930D
:101070005F936F937F938F939F93AF93BF93EF9300
:10108000FF93E0910C02F0910D021995FF91EF9101
:10109000BF91AF919F918F917F916F915F914F9190
:1010A0003F912F910F900BBE0F900FBE0F901F908E
:1010B00018951F920F920FB60F9211240BB60F9234
:1010C0002F933F934F935F936F937F938F939F9350
:1010D000AF93BF93EF93FF93E0910202F09103026D
:1010E0001995FF91EF91BF91AF919F918F917F9152
:1010F0006F915F914F913F912F910F900BBE0F9089
:101100000FBE0F901F9018951F920F920FB60F925F
:1011100011240BB60F922F933F934F935F936F93CE
:101120007F938F939F93AF93BF93EF93FF93E09140
:101130000002F09101021995FF91EF91BF91AF91DB
:101140009F918F917F916F915F914F913F912F91DF
:101150000F900BBE0F900FBE0F901F9018951F920F
:101160000F920FB60F9211240BB60F922F933F934D
:101170004F935F936F937F938F939F93AF93BF939F
:10118000EF93FF93E0910A02F0910B021995FF9102
:10119000EF91BF91AF919F918F917F916F915F91EF
:1011A0004F913F912F910F900BBE0F900FBE0F905C
:1011B0001F9018951F920F920FB60F9211240BB625
:1011C0000F922F933F934F935F936F937F938F93E0
:1011D0009F93AF93BF93EF93FF93E0910802F09139
:1011E00009021995FF91EF91BF91AF919F918F9156
:1011F0007F916F915F914F913F912F910F900BBE17
:101200000F900FBE0F901F9018951F920F920FB660
:101210000F9211240BB60F922F933F934F935F932E
:101220006F937F938F939F93AF93BF93EF93FF93AE
:10123000E0910602F09107021995FF91EF91BF919D
:10124000AF919F918F917F916F915F914F913F915E
:101250002F910F900BBE0F900FBE0F901F901895FF
:101260001F920F920FB60F9211240BB60F922F936D
:101270003F934F935F936F937F938F939F93AF931E
:10128000BF93EF93FF93E0910402F091050219954B
:10129000FF91EF91BF91AF919F918F917F916F914E
:1012A0005F914F913F912F910F900BBE0F900FBE0A
:1012B0000F901F9018951F920F920FB60F92112446
:1012C0000BB60F922F933F934F935F936F937F9340
:1012D0008F939F93AF93BF93EF93FF9385E093E03A
:1012E0000E941405FF91EF91BF91AF919F918F9153
:1012F0007F916F915F914F913F912F910F900BBE16
:101300000F900FBE0F901F9018951F920F920FB65F
:101310000F9211240BB60F922F938F939F93EF93FD
:10132000FF93E0911503F09116038081E0911B0378
:10133000F0911C0382FD1DC0908180911E038F5F80
:101340008F7320911F03821741F0E0911E03F0E09C
:10135000EB5FFC4F958F80931E03FF91EF919F9160
:101360008F912F910F900BBE0F900FBE0F901F907B
:1013700018958081F2CFCF93109208031092070343
:1013800088EE93E0A0E0B0E08093090390930A0315
:10139000A0930B03B0930C0382E692E090930603B4
:1013A0008093050385EC90E09093120380931103E2
:1013B00084EC90E0909314038093130380EC90E00E
:1013C000909316038093150381EC90E0909318039B
:1013D0008093170382EC90E090931A038093190393
:1013E00086EC90E090931C0380931B0310921E03E5
:1013F00010921F0310922003109221031092640494
:101400001092630484E792E09093620480936104F5
:1014100087E28093650484E180936A0484E080938A
:101420006B0410926C0492E3909350041092510458
:1014300010925204109253041092540410925504C6
:1014400010925604109257041092580410925904A6
:1014500010925A0410925E0410925F04109260047D
:1014600092E090935B0493E090935C0480935D041E
:1014700080914E048061877F80934E0462E082E019
:101480000E94F50362E080915C040E94F503809164
:101490004E0484FF05C062E080915D040E94F50364
:1014A00080914F04816080934F0480915B040E947F
:1014B0000A02C82F80915C040E940A02880F991FBB
:1014C0008C2B8093510481E080933E0483E08093D1
:1014D0003F04109240041092420410924104109272
:1014E000440410924304109246041092450481E48F
:1014F00094E00E94850710924804109247041092CD
:101500004A041092490410924C0410924B0487E450
:1015100094E00E94850710923E0410923F0481E3FC
:1015200094E00E94A80784E294E00E94A80787E163
:1015300094E00E94A8078AE094E00E94A8078DEF3B
:1015400093E00E94A80780EF93E00E94A80761E360
:1015500074E082EA93E00E942D0764E274E08FEA6F
:1015600093E00E942D0767E174E08CEB93E00E940A
:101570002D076AE074E089EC93E00E942D076DEF7F
:1015800073E086ED93E00E942D0760EF73E083EE39
:1015900093E0CF910C942D07789484B5826084BD3C
:1015A00084B5816084BD85B5826085BD85B5816067
:1015B00085BD80916E00816080936E0010928100E5
:1015C00080918100826080938100809181008160A0
:1015D0008093810080918000816080938000809161
:1015E000B10084608093B1008091B00081608093ED
:1015F000B000809191008260809391008091910071
:101600008160809391008091900081608093900030
:101610008091A10082608093A1008091A1008160EF
:101620008093A1008091A00081608093A0008091B0
:10163000210182608093210180912101816080934A
:1016400021018091200181608093200180917A00A6
:10165000846080937A0080917A00826080937A001F
:1016600080917A00816080937A0080917A0080680E
:1016700080937A001092C100E0911503F091160357
:1016800082E08083E0911103F09112031082E091D7
:101690001303F09114038FEC808310921D03E091EB
:1016A0001903F0911A0386E08083E0911703F0910B
:1016B0001803808180618083E0911703F091180303
:1016C000808188608083E0911703F0911803808106
:1016D00080688083E0911703F091180380818F7DEB
:1016E000808362E084E10E94F50362E085E10E946C
:1016F000F50388E48093B8001092B9001092660454
:1017000080916B04823018F098E090936604809387
:10171000690462E370E080E090E00E94560460910A
:101720006C0481E694E00E94D80568EE73E080E0E6
:1017300090E00E94560460E381E694E00E94000677
:10174000CBE4D6E4CE010197F1F760E381E694E0C3
:101750000E9400062197F1F760E381E694E00E9481
:10176000000683E592E00197F1F760E281E694E0FC
:101770000E94000660916604606240E081E694E0A9
:101780000E94190684E08093670440E06CE081E6E3
:1017900094E00E94190640E061E081E694E00E9436
:1017A0001906CBE3DFE1CE010197F1F782E08093E8
:1017B000680440E066E081E694E00E94190640E09B
:1017C00062E081E694E00E9419062197F1F788E033
:1017D00080936C0460E081E694E00E94D8058091DB
:1017E0004E04877F80934E0461E087E00E94F503FA
:1017F00061E086E00E94F50361E085E00E94F50368
:1018000061E089E00E94F50361E088E00E94F50351
:1018100060E08DE30E94F50360E082E10E94F50341
:1018200061E087E00E94C70360E086E00E94C70392
:1018300060E085E00E94C70361E085E00E94C70385
:1018400060E089E00E94C70361E088E00E94C7036E
:1018500086EB94E090930B0280930A0280916900DA
:10186000806C80936900EB9A0E94C606C1E02FB796
:10187000F8948091010390910203A0910303B09129
:1018800004032FBF8093F8029093F902A093FA0209
:10189000B093FB028091EC029091ED02A091EE02D8
:1018A000B091EF02892B8A2B8B2B31F18091EA02C8
:1018B0009091EB024091EC025091ED026091EE02AA
:1018C0007091EF024093B0035093B1036093B20361
:1018D0007093B3039093B5038093B403C093AF03A5
:1018E0001092EC021092ED021092EE021092EF02B2
:1018F0001092EB021092EA0280914E0482FD0E9447
:10190000330280915204813081F41092520410927B
:10191000BD031092BE031092BF031092C003109239
:10192000C2031092C1038093BC0380914E0482FDD8
:101930000E94330280915204823081F4109252044A
:101940001092CA031092CB031092CC031092CD03D5
:101950001092CF031092CE03C093C90380914E041E
:1019600082FD0E94330280914D0485FF11C08F7D5E
:1019700080934D041092D7031092D8031092D9038C
:101980001092DA031092DC031092DB03C093D603AB
:101990008091AF03882399F181E00E9430068EE8A0
:1019A00092E00E94B40681E00E9430066091B0038C
:1019B0007091B1038091B2039091B303C090F00293
:1019C000D090F102E090F202F090F3026C197D09E0
:1019D0008E099F094AE00E9466068091B0039091AB
:1019E000B103A091B203B091B3038093F00290933E
:1019F000F102A093F202B093F3021092AF03809130
:101A00003F049091BC03811179C0992359F08091D2
:101A10003E04882319F0815080933E040E94C6063C
:101A20001092BC038091C903882359F080913E0431
:101A3000823018F48F5F80933E040E94C606109295
:101A4000C9038091D603882331F0C0933F040E94DC
:101A5000C6061092D6038091F4029091F502A091EF
:101A6000F602B091F702845D9E4FAF4FBF4F409199
:101A7000F8025091F9026091FA027091FB0284170A
:101A80009507A607B707A8F582E00E9430068EE802
:101A900092E00E94B40682E00E9430060E94750126
:101AA0006C01990FEE08FF084AE0C701B601F7FE86
:101AB0000EC041E06DE281E694E00E9419066627BF
:101AC0007727CB016C197D098E099F094AE00E9496
:101AD00066068091F8029091F902A091FA02B09105
:101AE000FB028093F4029093F502A093F602B09368
:101AF000F7020E9433020E94A305B9CE992339F060
:101B0000815080933F040E94C6061092BC038091CE
:101B1000C903882359F080913F04833018F48F5F04
:101B200080933F040E94C6061092C9038091D60399
:101B3000882309F490CF10923F0489CFCF93DF938D
:101B4000C0EFD3E02D97CE0107960E94FD0683E0FB
:101B5000C23AD807B9F787EF93E00E94FD0684E008
:101B600094E00E94FD0681E194E00E94FD068EE172
:101B700094E00E94FD068BE294E00E94FD0688E35B
:101B800094E00E94FD0687E494E00E94FD0681E453
:101B900094E0DF91CF910C94FD06A1E21A2EAA1BCE
:101BA000BB1BFD010DC0AA1FBB1FEE1FFF1FA2170D
:101BB000B307E407F50720F0A21BB30BE40BF50B0A
:101BC000661F771F881F991F1A9469F76095709593
:101BD000809590959B01AC01BD01CF010895EE0F5A
:101BE000FF1F881F8BBF0790F691E02D19940F936C
:101BF0001F93CF93DF938230910510F482E090E041
:101C0000E0916F04F091700430E020E0B0E0A0E0DB
:101C1000309799F42115310509F44AC0281B390B76
:101C200024303105D8F58A819B816115710589F1D0
:101C3000FB0193838283FE0111C0408151810281A7
:101C4000138148175907E0F04817590799F410977E
:101C500061F012960C93129713961C933296CF0153
:101C6000DF91CF911F910F91089500936F0410930E
:101C70007004F4CF2115310551F04217530738F0A5
:101C8000A901DB019A01BD01DF01F801C1CFEF011C
:101C9000F9CF9093700480936F04CDCFFE01E20FD3
:101CA000F31F819391932250310939832883D7CF31
:101CB00020916D0430916E04232B41F42091160283
:101CC0003091170230936E0420936D04209114021A
:101CD000309115022115310541F42DB73EB74091E1
:101CE000180250911902241B350BE0916D04F091FC
:101CF0006E04E217F307A0F42E1B3F0B28173907D9
:101D000078F0AC014E5F5F4F2417350748F04E0F57
:101D10005F1F50936E0440936D04819391939FCF06
:101D2000F0E0E0E09CCFCF93DF930097E9F0FC0177
:101D3000329713821282A0916F04B0917004ED016A
:101D400030E020E01097A1F420813181820F931FB1
:101D500020916D0430916E042817390709F061C095
:101D6000F0936E04E0936D04DF91CF910895EA0142
:101D7000CE17DF07E8F54A815B819E0141155105C9
:101D8000B1F7E901FB83EA8349915991C40FD51F4B
:101D9000EC17FD0761F4808191810296840F951FF5
:101DA000E90199838883828193819B838A83F0E010
:101DB000E0E012968D919C9113970097B9F52D91C3
:101DC0003C911197CD010296820F931F20916D04D3
:101DD00030916E042817390739F6309751F5109273
:101DE000700410926F04B0936E04A0936D04BCCF86
:101DF000D383C28340815181840F951FC817D907AF
:101E000061F44E5F5F4F88819981480F591F51835C
:101E100040838A819B81938382832115310509F058
:101E2000B0CFF0937004E0936F049ECFFD01DC010E
:101E3000C0CF13821282D7CF4F925F926F927F9260
:101E40008F929F92AF92BF92CF92DF92EF92FF92CA
:101E50000F931F93CF93DF938C01009799F4CB01DD
:101E6000DF91CF911F910F91FF90EF90DF90CF9076
:101E7000BF90AF909F908F907F906F905F904F90AA
:101E80000C94F70DFC01E60FF71F9C01225031095D
:101E9000E217F30708F4AEC0D901CD91DC91119798
:101EA000C617D70720F1C530D10578F0CE010497C9
:101EB0008617970750F0C61BD70B2297C193D19373
:101EC0006D937C93CF010E94930EC801DF91CF9157
:101ED0001F910F91FF90EF90DF90CF90BF90AF9048
:101EE0009F908F907F906F905F904F9008955B01CF
:101EF000AC1ABD0A4C018C0E9D1EA0916F04B091CE
:101F00007004512C412CF12CE12C109731F580916B
:101F10006D0490916E048815990509F05CC0461611
:101F2000570608F058C0809114029091150200974E
:101F300041F48DB79EB74091180250911902841B4D
:101F4000950BE817F90708F055C0F0936E04E0937D
:101F50006D04F90171836083B8CF8D919C911197C5
:101F600012966C90129713967C901397A815B9054A
:101F700059F56C0142E0C40ED11CCA14DB0420F1F7
:101F8000AC014A195B09DA011296159780F062825A
:101F9000738251834083D9016D937C93E114F104E2
:101FA00071F0D7011396FC93EE9312978ECF229681
:101FB0008C0F9D1FF90191838083F301EFCFF09384
:101FC0007004E0936F0481CF4816590608F42C0181
:101FD0007D01D3019ACFCB010E94F70D7C010097C0
:101FE00049F0AE01B8010E94FD0FC8010E94930E96
:101FF00087016BCF10E000E068CFFB01DC0102C07D
:1020000001900D9241505040D8F70895FB01DC013A
:1020100001900D920020E1F7089511E0C1E4D1E0B4
:1020200000E006C0802FFE010E94EF0D2196011DE9
:0E203000C234D10780E00807A9F7F894FFCF6B
:10203E008804880488048804880488048804880432
:10204E000000000100007104800000004000140038
:10205E0054009E02A302AD02B40200000000000074
:10206E00000000000000BA02BE02C502CA02000053
:10207E0000000000000000000000D302D802DF02C2
:10208E00E40200000000000000000000000000005C
:10209E00000036058904CD048305FE04DC04F0043B
:1020AE000000000060068904D505D40520202020FC
:1020BE002020202020202020202020202020202012
:1020CE0020202020202020003C2D002D3E0052619B
:1020DE0063650053656C2072616365720043616EC7
:1020EE0063656C00526574727900536574004C61BF
:1020FE007073206E004D6F64650049676E6F726578
:10210E00207400546573740053656E73205600542A
:0A211E00696D6500426C696E6B008C
:00000001FF
