:100000000C9442010C9423090C94F8080C94CD082C
:100010000C94A2080C9477080C944C080C942108BA
:100020000C94F6070C9473010C9473010C947301F7
:100030000C9473010C9473010C9473010C94730170
:100040000C9473010C9473010C9473010C94730160
:100050000C9473010C9473010C9473010C94AC0711
:100060000C9473010C9478090C944E090C94730150
:100070000C9473010C9473010C9473010C94730130
:100080000C9473010C9473010C9473010C94730120
:100090000C9473010C9473010C9473010C94730110
:1000A0000C9473010C9473010C9473010C94730100
:1000B0000C9473010C9473010C9473010C947301F0
:1000C0000C9473010C9473010C9473010C947301E0
:1000D0000C9473010C9473010C9473010C947301D0
:1000E0000C9473010C9401020C94DC040C94D40560
:1000F0000C94DC010C94E6010C9402020C94FC01BB
:100100000C9489040C94FE040C94D3010C94EA0121
:100110000C94EE010C94CB010C9483050C94EC0D23
:100120000C9488040C9436050C9406020C94C101BE
:100130000C94F4010C94CD040C94F0040C94CF01B5
:100140000C9462060C94D6010C94E0010C94D50535
:100150000C94B6040C94F8010C94C7010C94AE09ED
:1001600000002100240027002A002D003000330069
:1001700001010000040107010A010000220025001E
:1001800028002B002E003100340002010000050180
:1001900008010B01000020002300260029002C008C
:1001A0002F003200000100000301060109010505CE
:1001B0000505070508080808020202020A0A0808DD
:1001C000040404040101010101010101030303030B
:1001D00003030303040707070C0C0C0C0C0C0C0C9A
:1001E0000202020206060606060606060B0B0B0BAB
:1001F0000B0B0B0B010210202008081020401020D0
:1002000040800201020108040201010204081020DA
:1002100040808040201008040201800402018040D8
:100220002010080402010804020101020408102041
:100230004080010204081020408000000A0B0209DF
:100240000C0D0E0807030401000000000000000070
:10025000000000000000000000000000000000009E
:10026000000000000000121110000000000000005B
:10027000000000000000000000000000000000007E
:10028000AE09EC0D11241FBECFEFD1E2DEBFCDBF12
:1002900000E00CBF24E0AAEFB2E001C01D92A73736
:1002A000B207E1F712E0A0E0B2E0EAECF0E200E031
:1002B0000BBF02C007900D92AA3FB107D9F711E01A
:1002C000C1E4D1E000E006C021970109802FFE01C2
:1002D0000E94350EC034D10780E00807A9F70E94BC
:1002E0009D0A0C9453100C94000080917B00877F32
:1002F00080937B0087E480937C0080917A00806407
:1003000080937A0080917A0086FDFCCF80917800FE
:100310009091790008958093BB0084E88093BC009D
:100320008091BC0087FFFCCF8091B900887F80322C
:1003300021F481E0809311020895803319F481E063
:100340008093120208958150823108F05AC0E82F3C
:10035000F0E08827E155FE4F8F4F0C94350ECF010A
:10036000D301C101C701CB010102D601DC01E001CB
:10037000E601EA01EE01F401F8010102FC010202CA
:100380000602809180008F7780938000089580918D
:1003900080008F7DF9CF80918000877FF5CF84B575
:1003A0008F7784BD089584B58F7DFBCF8091B00099
:1003B0008F778093B00008958091B0008F7DF9CF42
:1003C000809190008F7780939000089580919000A5
:1003D0008F7DF9CF80919000877FF5CF8091A0002D
:1003E0008F778093A00008958091A0008F7DF9CF32
:1003F0008091A000877FF5CF809120018F77809337
:1004000020010895809120018F7DF9CF80912001F6
:10041000877FF5CFCF93DF93282F30E0F901E65C9B
:10042000FD4F8491F901EC50FE4FD491F901E25552
:10043000FE4FC491CC23A1F081110E94A301EC2FA7
:10044000F0E0EE0FFF1FEC56FE4FA591B491EC913A
:10045000ED2381E090E009F480E0DF91CF910895F1
:1004600080E090E0FACF8F929F92AF92BF92CF92AE
:10047000DF92EF92FF920F931F93CF93DF938FB78B
:10048000F894C0901203D0901303E0901403F090FE
:1004900015038FBF8091540484FF74C08090590469
:1004A00090905A04A0905B04B0905C049091650415
:1004B0009111F6C0809163040E940A0220915504B4
:1004C000022F017010E021E00817190709F420E05D
:1004D00020936604B701A601481959096A097B09E6
:1004E000209166049091530491FB882780F9222380
:1004F00009F419C181111AC0413551056105710511
:10050000A8F0C0925904D0925A04E0925B04F09291
:100510005C04997E92619068909353048091550495
:1005200080628093550440E050E0BA018091550408
:100530009091530484FF12C04D3231E0530761059E
:10054000710560F092FD05C083FDB4C082608093A8
:100550005504809155048F7E8093550491FF12C0FD
:100560004D3B52406105710568F092FD0BC022239E
:1005700009F4A2C0916090935304809155048F7D3B
:100580008093550480916504882309F4A2C090915A
:10059000540496FB332730F9C32F80E0D82FCC0FBB
:1005A000DD1F95FB882780F98C2B20915704281795
:1005B00009F469C0109258049091550496FFB0C098
:1005C000833009F097C09F7B90935504213009F444
:1005D0008DC091E0223009F48AC09091540493FDBB
:1005E00003C0833009F493C0909158049923E1F13A
:1005F0002091530428602093530440915D0450914E
:100600005E0460915F047091600497018601041B91
:10061000150B260B370B4091560450E070E060E05C
:10062000041715072607370760F420915404226049
:10063000913029F0923029F42091540421602093C4
:100640005404C0925D04D0925E04E0925F04F09284
:1006500060042091540424FF07C0209166042223E3
:1006600019F09E5F9093580480935704809153042F
:10067000846080935304C0925904D0925A04E0924B
:100680005B04F0925C04DF91CF911F910F91FF907A
:10069000EF90DF90CF90BF90AF909F908F90089594
:1006A00087FB882780F98093660414CF80915504D6
:1006B000886037CF84604BCF9D7F9E7F909353049B
:1006C000C0925904D0925A04E0925B04F0925C0408
:1006D00059CF809161040E940A02C82F8091620460
:1006E0000E940A02880F991F8C2B5FCF92E0909393
:1006F000580473CF3091540433FD46C0811174CF38
:100700009F7B90935504213041F0223031F090913D
:10071000550490649093550467CF20935804F7CF05
:100720008823A9F35ACF882309F400CF4135510516
:100730006105710508F4FACE92FD05C090FD03C075
:100740009062909353044D3B52406105710528F02F
:100750008091530480648093530480915304C09229
:100760005904D0925A04E0925B04F0925C048D7FAD
:100770008E7F809353048091550485FF97CF84FD2D
:1007800095CF8061877FCDCE882309F26DCF1F93EF
:10079000CF93DF93282F30E0F901E65CFD4F849181
:1007A000F901EC50FE4FD491F901E255FE4FC4918E
:1007B000CC23A9F0162F81110E94A301EC2FF0E0A9
:1007C000EE0FFF1FE658FE4FA591B4918FB7F89436
:1007D000EC91111108C0D095DE23DC938FBFDF911F
:1007E000CF911F910895DE2BF8CFCF93DF9390E048
:1007F000FC01EC50FE4F249182559E4FFC018491E8
:100800008823C9F090E0880F991FFC01E05AFE4F41
:10081000A591B491FC01E658FE4FC591D4916111A8
:100820000DC09FB7F8948C91209582238C9388817A
:10083000282328839FBFDF91CF910895623051F420
:100840009FB7F8943C91822F809583238C93E88105
:100850002E2BEFCF8FB7F894EC912E2B2C938FBFCC
:10086000EACF3FB7F89480910E0390910F03A091C7
:100870001003B091110326B5A89B05C02F3F19F0B6
:100880000196A11DB11D3FBFBA2FA92F982F882710
:10089000BC01CD01620F711D811D911D42E0660FEB
:1008A000771F881F991F4A95D1F708958F929F92BD
:1008B000AF92BF92CF92DF92EF92FF924B015C0119
:1008C0000E9431046B017C010E9431046C197D0986
:1008D0008E099F09683E734081059105A8F321E0C8
:1008E000821A9108A108B10888EEC80E83E0D81ECC
:1008F000E11CF11C81149104A104B10429F7FF90BB
:10090000EF90DF90CF90BF90AF909F908F90089521
:100910000895AF92BF92CF92DF92EF92FF920F9322
:100920001F93CF93DF936C017B018B01040F151F85
:10093000EB015E01AE18BF08C017D10759F06991ED
:10094000D601ED91FC910190F081E02DC601199541
:10095000892B79F7C501DF91CF911F910F91FF90FE
:10096000EF90DF90CF90BF90AF90089580910903F2
:1009700090910A03A0910B03B0910C038093FC02A9
:100980009093FD02A093FE02B093FF020E947501B6
:100990009093FB028093FA020895FC01538D448DDD
:1009A000252F30E0842F90E0821B930B541710F01A
:1009B000CF96089501970895FC01918D828D981727
:1009C00061F0A28DAE0FBF2FB11D5D968C91928DFF
:1009D0009F5F9F73928F90E008958FEF9FEF089530
:1009E000FC01918D828D981731F0828DE80FF11DF9
:1009F000858D90E008958FEF9FEF0895FC01918D14
:100A0000228D892F90E0805C9F4F821B91098F730C
:100A10009927089586E193E00E94FE0421E0892B46
:100A200009F420E0822F0895FC01A48DA80FB92FAE
:100A3000B11DA35ABF4F2C91848D90E001968F7306
:100A40009927848FA689B7892C93A089B1898C9125
:100A5000837080648C93938D848D981306C0028874
:100A6000F389E02D80818F7D80830895EF92FF923E
:100A70000F931F93CF93DF93EC0181E0888F9B8DC1
:100A80008C8D98131AC0E889F989808185FF15C07B
:100A90009FB7F894EE89FF896083E889F98980819E
:100AA0008370806480839FBF81E090E0DF91CF916D
:100AB0001F910F91FF90EF900895F62E0B8D10E08F
:100AC0000F5F1F4F0F731127E02E8C8D8E110CC0FE
:100AD0000FB607FCFACFE889F989808185FFF5CF49
:100AE000CE010E941405F1CFEB8DEC0FFD2FF11D0F
:100AF000E35AFF4FF0829FB7F8940B8FEA89FB8986
:100B000080818062CFCFCF93DF93EC01888D8823E3
:100B1000B9F0AA89BB89E889F9898C9185FD03C060
:100B2000808186FD0DC00FB607FCF7CF8C9185FF45
:100B3000F2CF808185FFEDCFCE010E941405E9CF71
:100B4000DF91CF91089580E090E0892B29F00E94F9
:100B50000A0581110E94000080E090E0892B49F095
:100B600080E090E0892B29F00E94000081110E9412
:100B7000000080E090E0892B49F080E090E0892B34
:100B800029F00E94000081110E94000080E090E0A6
:100B9000892B49F080E090E0892B29F00E94000029
:100BA00081110C9400000895089590E080E008956C
:100BB0001F93CF93DF93EC01162F8C8194EA9093CF
:100BC000BC009091BC0097FFFCCF880F0E948B0166
:100BD0008B85812B0E948B0184E98093BC008091DE
:100BE0001102882329F0109211021092120204C0FF
:100BF000809112028111F9CFDF91CF911F91089559
:100C00000F931F93CF938C01C62F0E94D8056C2F92
:100C10006460C8010E94D8056C2F6B7FC8010E94D8
:100C2000D80583EC90E00197F1F7CF911F910F91D8
:100C300008950F931F93CF93DF938C01D62FC42F6A
:100C4000607F642B0E94000680E1D89FB0011124D0
:100C50006C2BC801DF91CF911F910F910C9400066E
:100C6000CF93DF9300D000D01F921F92CDB7DEB795
:100C700098E0EAE1F2E0DE01119601900D929A957A
:100C8000E1F790916F04961710F46FEF690F262F1C
:100C900030E0220F331F41E050E04C0F5D1F240F66
:100CA000351FF9016081680F606840E087E694E0D5
:100CB00028960FB6F894DEBF0FBECDBFDF91CF915F
:100CC0000C94190641E00E94190681E090E0089515
:100CD0008F929F92AF92BF920F931F93CF93DF9308
:100CE000CDB7DEB7A1970FB6F894DEBF0FBECDBF6C
:100CF00019A2423008F44AE08E010F5D1F4F842E86
:100D0000912CB12CA12CA50194010E94130EE62F69
:100D1000B901CA01EA3044F5E05DD801EE938D01D6
:100D2000232B242B252B79F790E080E0109769F096
:100D3000FD0101900020E9F73197AF014A1B5B0BE1
:100D4000BD0187E694E00E948904A1960FB6F8944D
:100D5000DEBF0FBECDBFDF91CF911F910F91BF902E
:100D6000AF909F908F900895E95CD7CF009769F07E
:100D7000FC0101900020E9F73197AF01481B590BA6
:100D8000BC0187E694E00C94890490E080E008952B
:100D900060E080E00E9430068CE792E00E94B60698
:100DA00060E080E00E943006E0914F0424E1E29F81
:100DB000F0011124EE5DFD4F808191810E94B60605
:100DC00080915004882321F18130F9F488E992E080
:100DD0000E94B60680914F04E09150042AE0829F61
:100DE000C0011124E80FF92FF11DEE0FFF1FEE5D7A
:100DF000FD4F808191810E94B60680915104882325
:100E000039F08EE992E00C94B6068BE992E0E0CFDF
:100E1000089561E080E00E94300683E892E00E943D
:100E2000B60662E080E00E94300683E892E00E940D
:100E3000B60663E080E00E94300683E892E00C94FE
:100E4000B606FC0180819181009711F00C94D90EB7
:100E50000895EF92FF920F931F93CF93DF93EC01CE
:100E60007B018A0188819981009729F02A813B8141
:100E70002417350788F4B8016F5F7F4F0E94620F17
:100E8000009791F0998388831B830A832C813D818D
:100E9000232B11F4FC0110821D830C83B701888180
:100EA00099810E944C100CC088819981009711F0A3
:100EB0000E94D90E198218821D821C821B821A82FE
:100EC000CE01DF91CF911F910F91FF90EF90089588
:100ED000FC01DB018C91808311964D915D916D91A8
:100EE0007C911497418352836383748315968D910B
:100EF0009C91169796838583CF010796108617825B
:100F000012861186148613869D01295F3F4F821732
:100F1000930761F017966D917C9118976115710593
:100F200029F01B964D915C910C9429070895FC01C2
:100F30001082118212821382148216821582108608
:100F40001782128611861486138650E040E067E906
:100F500072E007960C9429071F920F920FB60F921A
:100F600011242F933F938F939F93AF93BF938091BF
:100F7000120390911303A0911403B09115033091C3
:100F80000D0323E0230F2D3758F50196A11DB11D48
:100F900020930D038093120390931303A0931403E3
:100FA000B093150380910E0390910F03A09110034D
:100FB000B09111030196A11DB11D80930E03909372
:100FC0000F03A0931003B0931103BF91AF919F91B2
:100FD0008F913F912F910F900FBE0F901F901895FA
:100FE00026E8230F0296A11DB11DD2CF1F920F92AA
:100FF0000FB60F9211240BB60F922F933F934F937E
:101000005F936F937F938F939F93AF93BF93EF9370
:10101000FF93E0910E02F0910F021995FF91EF916D
:10102000BF91AF919F918F917F916F915F914F9100
:101030003F912F910F900BBE0F900FBE0F901F90FE
:1010400018951F920F920FB60F9211240BB60F92A4
:101050002F933F934F935F936F937F938F939F93C0
:10106000AF93BF93EF93FF93E0910C02F0910D02C9
:101070001995FF91EF91BF91AF919F918F917F91C2
:101080006F915F914F913F912F910F900BBE0F90F9
:101090000FBE0F901F9018951F920F920FB60F92D0
:1010A00011240BB60F922F933F934F935F936F933F
:1010B0007F938F939F93AF93BF93EF93FF93E091B1
:1010C0000202F09103021995FF91EF91BF91AF9148
:1010D0009F918F917F916F915F914F913F912F9150
:1010E0000F900BBE0F900FBE0F901F9018951F9280
:1010F0000F920FB60F9211240BB60F922F933F93BE
:101100004F935F936F937F938F939F93AF93BF930F
:10111000EF93FF93E0910002F09101021995FF9186
:10112000EF91BF91AF919F918F917F916F915F915F
:101130004F913F912F910F900BBE0F900FBE0F90CC
:101140001F9018951F920F920FB60F9211240BB695
:101150000F922F933F934F935F936F937F938F9350
:101160009F93AF93BF93EF93FF93E0910A02F091A7
:101170000B021995FF91EF91BF91AF919F918F91C4
:101180007F916F915F914F913F912F910F900BBE87
:101190000F900FBE0F901F9018951F920F920FB6D1
:1011A0000F9211240BB60F922F933F934F935F939F
:1011B0006F937F938F939F93AF93BF93EF93FF931F
:1011C000E0910802F09109021995FF91EF91BF910A
:1011D000AF919F918F917F916F915F914F913F91CF
:1011E0002F910F900BBE0F900FBE0F901F90189570
:1011F0001F920F920FB60F9211240BB60F922F93DE
:101200003F934F935F936F937F938F939F93AF938E
:10121000BF93EF93FF93E0910602F09107021995B7
:10122000FF91EF91BF91AF919F918F917F916F91BE
:101230005F914F913F912F910F900BBE0F900FBE7A
:101240000F901F9018951F920F920FB60F921124B6
:101250000BB60F922F933F934F935F936F937F93B0
:101260008F939F93AF93BF93EF93FF93E09104020B
:10127000F09105021995FF91EF91BF91AF919F9168
:101280008F917F916F915F914F913F912F910F902F
:101290000BBE0F900FBE0F901F9018951F920F92CC
:1012A0000FB60F9211240BB60F922F933F934F93CB
:1012B0005F936F937F938F939F93AF93BF93EF93BE
:1012C000FF9386E193E00E941405FF91EF91BF9197
:1012D000AF919F918F917F916F915F914F913F91CE
:1012E0002F910F900BBE0F900FBE0F901F9018956F
:1012F0001F920F920FB60F9211240BB60F922F93DD
:101300008F939F93EF93FF93E0912603F091270330
:101310008081E0912C03F0912D0382FD1DC090810E
:1013200080912F038F5F8F7320913003821741F0DC
:10133000E0912F03F0E0EA5EFC4F958F80932F033E
:10134000FF91EF919F918F912F910F900BBE0F9076
:101350000FBE0F901F9018958081F2CFCF931092FF
:1013600019031092180388EE93E0A0E0B0E0809398
:101370001A0390931B03A0931C03B0931D0382E6F2
:1013800092E0909317038093160385EC90E090937E
:1013900023038093220384EC90E0909325038093B1
:1013A000240380EC90E0909327038093260381EC44
:1013B00090E0909329038093280382EC90E090932F
:1013C0002B0380932A0386EC90E090932D03809367
:1013D0002C0310922F0310923003109231031092BD
:1013E000320310926A041092690484E792E09093A9
:1013F00068048093670487E280936B0484E18093A0
:10140000700484E0809371041092720492E39093CC
:1014100056041092570410925804109259041092D6
:101420005A0410925B0410925C0410925D041092B6
:101430005E0410925F041092600410926404109293
:1014400065041092660492E09093610493E0909397
:10145000620480936304809154048061877F809349
:10146000540462E082E00E94F50362E0809162042D
:101470000E94F5038091540484FF05C062E08091CE
:1014800063040E94F50380915504816080935504A4
:10149000809161040E940A02C82F809162040E9418
:1014A0000A02880F991F8C2B8093570482E0809347
:1014B0004F0481E080935004809351048093520440
:1014C00082E494E00E94970785E394E00E949707E6
:1014D00088E294E00E9497078BE194E00E949707CE
:1014E0008EE094E00E94970781E094E00E949707C5
:1014F00062E474E083EB93E00E94680765E374E0C4
:1015000080EC93E00E94680768E274E08DEC93E061
:101510000E9468076BE174E08AED93E00E9468071F
:101520006EE074E087EE93E00E94680761E074E08B
:1015300084EF93E0CF910C946807789484B582602F
:1015400084BD84B5816084BD85B5826085BD85B567
:10155000816085BD80916E00816080936E001092E5
:101560008100809181008260809381008091810060
:1015700081608093810080918000816080938000F1
:101580008091B10084608093B1008091B00081604F
:101590008093B0008091910082608093910080914F
:1015A0009100816080939100809190008160809390
:1015B00090008091A10082608093A1008091A100A1
:1015C00081608093A1008091A00081608093A00041
:1015D00080912101826080932101809121018160AD
:1015E000809321018091200181608093200180916E
:1015F0007A00846080937A0080917A008260809380
:101600007A0080917A00816080937A0080917A00DC
:10161000806880937A001092C100E0912603F091D7
:10162000270382E08083E0912203F091230310825C
:10163000E0912403F09125038FEC808310922E0318
:10164000E0912A03F0912B0386E08083E091280348
:10165000F0912903808180618083E0912803F091DB
:101660002903808188608083E0912803F091290319
:10167000808180688083E0912803F0912903808134
:101680008F7D808362E084E10E94F50362E085E162
:101690000E94F50388E48093B8001092B90010927C
:1016A0006C0480917104823018F098E090936C047F
:1016B00080936F0462E370E080E090E00E94560443
:1016C0006091720487E694E00E94D80568EE73E0AA
:1016D00080E090E00E94560460E387E694E00E9478
:1016E0000006CBE4D6E4CE010197F1F760E387E68C
:1016F00094E00E9400062197F1F760E387E694E00A
:101700000E94000683E592E00197F1F760E287E628
:1017100094E00E94000660916C04606240E087E6FD
:1017200094E00E94190684E080936D0440E06CE030
:1017300087E694E00E94190640E061E087E694E0C5
:101740000E941906CBE3DFE1CE010197F1F782E0B9
:1017500080936E0440E066E087E694E00E941906FC
:1017600040E062E087E694E00E9419062197F1F7D5
:1017700088E08093720460E087E694E00E94D805D8
:1017800080915404877F8093540461E087E00E9435
:10179000F50361E086E00E94F50361E085E00E94C8
:1017A000F50361E089E00E94F50361E088E00E94B2
:1017B000F50360E08DE30E94F50360E082E10E94A2
:1017C000F50361E087E00E94C70360E086E00E94C5
:1017D000C7036091000385E00E94C70361E085E0D4
:1017E0000E94C70360E089E00E94C70361E088E0CF
:1017F0000E94C70386EB94E090930B0280930A0249
:1018000080916900806C80936900EB9A0E94C80601
:10181000C1E02FB7F8948091120390911303A09127
:101820001403B09115032FBF8093090390930A030B
:10183000A0930B03B0930C038091FC029091FD02E6
:10184000A091FE02B091FF02892B8A2B8B2B31F1E4
:101850008091FA029091FB024091FC025091FD02AE
:101860006091FE027091FF024093C1035093C20346
:101870006093C3037093C4039093C6038093C5031E
:10188000C093C0031092FC021092FD021092FE025F
:101890001092FF021092FB021092FA0280915404FF
:1018A00082FD0E94330280915804813081F41092AD
:1018B00058041092CE031092CF031092D0031092CE
:1018C000D1031092D3031092D2038093CD03809161
:1018D000540482FD0E94330280915804823081F4C6
:1018E000109258041092DB031092DC031092DD0377
:1018F0001092DE031092E0031092DF03C093DA032C
:101900008091540482FD0E9433028091530485FF2C
:1019100011C08F7D809353041092E8031092E90365
:101920001092EA031092EB031092ED031092EC0375
:10193000C093E70380915004811133C08091CD039F
:10194000882349F080914F04882319F081508093B7
:101950004F040E94C8068091DA03882349F08091E1
:101960004F04823018F48F5F80934F040E94C806A2
:101970008091E703882321F0C09350040E94C80699
:101980001092B3031092C0031092CD031092DA03A9
:101990001092E7031092F4030E9433020E94A30501
:1019A00038CF90915104911121C09091CD0399238A
:1019B00029F08150809350040E94C8068091DA0378
:1019C000882349F080915004833018F48F5F80930E
:1019D00050040E94C8068091E703882389F2C093CF
:1019E0005104C09352040E940907C8CF8091E703B5
:1019F000882371F010925104109252040E9409073A
:101A00000E94C8061092000360E085E00E94C703B0
:101A100080914F04823009F0DCC0D0915004D13065
:101A200009F0D7C0809152048823B1F161E080E0D1
:101A30000E94300683E992E00E94B60661E080E0F1
:101A40000E94300686EA92E00E94B60662E080E0DC
:101A50000E9430068EE892E00E94B60662E080E0C6
:101A60000E94300680EA92E00E94B60663E080E0C1
:101A70000E94300683E992E00E94B60663E080E0AF
:101A80000E94300685EA92E00E94B606D0930003D9
:101A900061E085E00E94C7038091050390910603F1
:101AA000A0910703B0910803845D9E4FAF4FBF4FD5
:101AB0004091090350910A0360910B0370910C034C
:101AC00084179507A607B707B8F561E083E00E9481
:101AD000300683E992E00E94B60661E083E00E944E
:101AE00030060E9475016C01990FEE08FF084AE06C
:101AF000C701B601F7FE0EC041E06DE287E694E053
:101B00000E94190666277727CB016C197D098E097B
:101B10009F094AE00E9468068091090390910A0398
:101B2000A0910B03B0910C038093050390930603DF
:101B3000A0930703B09308038091C003882309F49E
:101B400048C062E084E00E9430068EE892E00E9485
:101B5000B60662E084E00E9430066091C103709195
:101B6000C2038091C3039091C403C0900103D0903D
:101B70000203E0900303F09004036C197D098E09C1
:101B80009F094AE00E94680663E084E00E943006F4
:101B900083E992E00E94B60663E084E00E9430068A
:101BA0006091C5037091C60390E080E04AE00E9416
:101BB00068068091C1039091C203A091C303B091C4
:101BC000C4038093010390930203A0930303B09393
:101BD000040310925204D4CECF93DF93C1E0D4E03B
:101BE0002D97CE0107960E94210783E0C33BD807BB
:101BF000B9F788E094E00E94210785E194E00E9413
:101C0000210782E294E00E9421078FE294E00E9483
:101C100021078CE394E00E94210789E494E0DF919E
:101C2000CF910C942107A1E21A2EAA1BBB1BFD0128
:101C30000DC0AA1FBB1FEE1FFF1FA217B307E407AB
:101C4000F50720F0A21BB30BE40BF50B661F771F03
:101C5000881F991F1A9469F76095709580959095E3
:101C60009B01AC01BD01CF010895EE0FFF1F881F3E
:101C70008BBF0790F691E02D19940F931F93CF938C
:101C8000DF938230910510F482E090E0E0917504DA
:101C9000F091760430E020E0B0E0A0E0309799F4D5
:101CA0002115310509F44AC0281B390B24303105B0
:101CB000D8F58A819B816115710589F1FB019383B8
:101CC0008283FE0111C04081518102811381481736
:101CD0005907E0F04817590799F4109761F01296E8
:101CE0000C93129713961C933296CF01DF91CF91EC
:101CF0001F910F9108950093750410937604F4CF0B
:101D00002115310551F04217530738F0A901DB01C5
:101D10009A01BD01DF01F801C1CFEF01F9CF909326
:101D2000760480937504CDCFFE01E20FF31F8193FB
:101D300091932250310939832883D7CF209173049E
:101D400030917404232B41F4209116023091170234
:101D5000309374042093730420911402309115027F
:101D60002115310541F42DB73EB74091180250912D
:101D70001902241B350BE0917304F0917404E217EF
:101D8000F307A0F42E1B3F0B2817390778F0AC019E
:101D90004E5F5F4F2417350748F04E0F5F1F50937B
:101DA000740440937304819391939FCFF0E0E0E03B
:101DB0009CCFCF93DF930097E9F0FC013297138219
:101DC0001282A0917504B0917604ED0130E020E01C
:101DD0001097A1F420813181820F931F2091730409
:101DE000309174042817390709F061C0F093740426
:101DF000E0937304DF91CF910895EA01CE17DF07D6
:101E0000E8F54A815B819E0141155105B1F7E90171
:101E1000FB83EA8349915991C40FD51FEC17FD0745
:101E200061F4808191810296840F951FE901998365
:101E30008883828193819B838A83F0E0E0E012961D
:101E40008D919C9113970097B9F52D913C91119725
:101E5000CD010296820F931F209173043091740478
:101E60002817390739F6309751F5109276041092F9
:101E70007504B0937404A0937304BCCFD383C2835E
:101E800040815181840F951FC817D90761F44E5FB7
:101E90005F4F88819981480F591F518340838A8100
:101EA0009B81938382832115310509F0B0CFF09394
:101EB0007604E09375049ECFFD01DC01C0CF138250
:101EC0001282D7CF4F925F926F927F928F929F92A2
:101ED000AF92BF92CF92DF92EF92FF920F931F9338
:101EE000CF93DF938C01009799F4CB01DF91CF91D1
:101EF0001F910F91FF90EF90DF90CF90BF90AF9028
:101F00009F908F907F906F905F904F900C943D0EBC
:101F1000FC01E60FF71F9C0122503109E217F3077D
:101F200008F4AEC0D901CD91DC911197C617D7073F
:101F300020F1C530D10578F0CE01049786179707B8
:101F400050F0C61BD70B2297C193D1936D937C930E
:101F5000CF010E94D90EC801DF91CF911F910F913F
:101F6000FF90EF90DF90CF90BF90AF909F908F90B9
:101F70007F906F905F904F9008955B01AC1ABD0AFF
:101F80004C018C0E9D1EA0917504B0917604512CCD
:101F9000412CF12CE12C109731F580917304909134
:101FA00074048815990509F05CC04616570608F0B8
:101FB00058C08091140290911502009741F48DB79A
:101FC0009EB74091180250911902841B950BE81797
:101FD000F90708F055C0F0937404E0937304F90115
:101FE00071836083B8CF8D919C91119712966C90FC
:101FF000129713967C901397A815B90559F56C01A3
:1020000042E0C40ED11CCA14DB0420F1AC014A1911
:102010005B09DA011296159780F062827382518310
:102020004083D9016D937C93E114F10471F0D701E1
:102030001396FC93EE9312978ECF22968C0F9D1FD2
:10204000F90191838083F301EFCFF0937604E0935D
:10205000750481CF4816590608F42C017D01D3017F
:102060009ACFCB010E943D0E7C01009749F0AE0152
:10207000B8010E944310C8010E94D90E87016BCF9E
:1020800010E000E068CFFB01DC0102C001900D927E
:1020900041505040D8F70895FB01DC0101900D92AA
:1020A0000020E1F7089511E0C1E4D1E000E006C0AE
:1020B000802FFE010E94350E2196011DC234D107EA
:0A20C00080E00807A9F7F894FFCFAD
:1020CA0088048804880488048804880488048804A6
:1020DA0000000001000077048000000040001400A6
:1020EA005400AA02AF02B902C002000000000000B8
:1020FA00000000000000C602CA02D102D602000097
:10210A0000000000000000000000DF02E402EF020D
:10211A00F4020000000000000000000000000000BF
:10212A00000036058904CD048305FE04DC04F004AE
:10213A000000000062068904D505D405202020206D
:10214A002020202020202020202020202020202085
:10215A0020202020202020003C2D002D3E003A0087
:10216A0064743A200069563A20005261636500534C
:10217A00656C2072616365720043616E63656C0011
:10218A00526574727900536574004C617073206EE5
:10219A00004D6F64650049676E6F72652074005464
:1021AA0065737400416C6C2076616C7565730054BC
:0A21BA00696D6500426C696E6B00F0
:00000001FF
