:100000000C943B010C946C010C946C010C946C01ED
:100010000C946C010C946C010C946C010C946C01AC
:100020000C946C010C946C010C946C010C946C019C
:100030000C946C010C946C010C946C010C946C018C
:100040000C946C010C946C010C946C010C946C017C
:100050000C946C010C946C010C946C010C94DE05F6
:100060000C946C010C9452060C9428060C946C01B0
:100070000C946C010C946C010C946C010C946C014C
:100080000C946C010C946C010C946C010C946C013C
:100090000C946C010C946C010C946C010C946C012C
:1000A0000C946C010C946C010C946C010C946C011C
:1000B0000C946C010C946C010C946C010C946C010C
:1000C0000C946C010C946C010C946C010C946C01FC
:1000D0000C946C010C946C010C946C010C946C01EC
:1000E0000C946C010C9412020C94DE010C9420020E
:1000F0000C9428020C94F3010C9459050C940802FA
:100100000C9458050C9424040C940C020C94820456
:100110000C9424020C94FF010C9402020C9416021D
:100120000C94F7010C9451040C942E020C94D805F5
:100130000C941A020C9488060C94BA040C94600473
:100140000C9407050C94FB010C9432020C9474047B
:100150000C94E301000020002300260029002C005D
:100160002F00320000010000030106010901000018
:100170000A0B02090C0D0E08070304010000000021
:10018000000000000000000000000000000000006F
:10019000000000000000000000001211100000002C
:1001A000000000000000000000000000000000004F
:1001B0000000000000002200250028002B002E0077
:1001C0003100340002010000050108010B010000AC
:1001D0002100240027002A002D00300033000101F7
:1001E0000000040107010A010505050507050808C7
:1001F0000808020202020A0A0808040404040101B1
:1002000001010101010103030303030303030407C5
:1002100007070C0C0C0C0C0C0C0C0202020206065C
:100220000606060606060B0B0B0B0B0B0B0B01024F
:1002300010202008081020401020408002010201F8
:1002400008040201010204081020408080402010B0
:100250000804020180040201804020100804020109
:100260000804020101020408102040800102040871
:1002700010204080880611241FBECFEFD1E2DEBFE0
:10028000CDBF00E00CBF12E0A0E0B2E0EAE9F1E18E
:1002900000E00BBF02C007900D92A634B107D9F75A
:1002A00023E0A6E4B2E001C01D92AE30B207E1F750
:1002B00011E0CBE3D1E000E006C021970109802FD7
:1002C000FE010E94C308CA33D10780E00807A9F7DE
:1002D0000E942F070C94CB080C940000CF93DF935F
:1002E00090E0FC01E25DFD4F249188519E4FFC019E
:1002F00084918823C1F090E0880F991FFC01E2539C
:10030000FE4FC591D491FC01EC54FE4FA591B491E0
:100310009FB7F8943881822F809583238883EC914E
:10032000E22BEC939FBFDF91CF9108958093BB00A8
:1003300084E88093BC008091BC0087FFFCCF809153
:10034000B900887F803221F481E080930102089512
:10035000803319F481E0809302020895282F30E061
:10036000F901E259FE4F9491F901E25DFD4F44918C
:1003700028513E4FF9012491222309F477C0992393
:1003800011F191509231F8F4E92FF0E08827E4530D
:10039000FE4F8F4F0C94C308FB01FF01DE01F301F8
:1003A000F701E301020208020C02120216021A020D
:1003B00020022402E30128022E02320280918000F2
:1003C0008F7780938000E22FF0E0EE0FFF1FEC5A52
:1003D000FE4FA591B491EC91E42381E090E009F007
:1003E00047C080E00895809180008F7DEACF8091A2
:1003F0008000877FE6CF84B58F7784BDE4CF84B556
:100400008F7DFBCF8091B0008F778093B000DBCFE2
:100410008091B0008F7DF9CF809190008F7780938D
:100420009000D1CF809190008F7DF9CF8091900086
:10043000877FF5CF8091A0008F778093A000C3CFF6
:100440008091A0008F7DF9CF8091A000877FF5CFAC
:10045000809120018F7780932001B5CF809120017A
:100460008F7DF9CF80912001877FF5CF80E090E0EC
:1004700008958F929F92AF92BF92CF92DF92EF92A8
:10048000FF920F931F93CF93DF938FB7F894C09091
:100490004D02D0904E02E0904F02F09050028FBF7C
:1004A0008091EF0284FF74C08090F4029090F50276
:1004B000A090F602B090F702909100039111F6C05F
:1004C0008091FE020E94AE012091F002022F017085
:1004D00010E021E00817190709F420E02093010338
:1004E000B701A601481959096A097B09209101033E
:1004F0009091EE0291FB882780F9222309F419C11B
:1005000081111AC04135510561057105A8F0C092ED
:10051000F402D092F502E092F602F092F702997E90
:10052000926190689093EE028091F00280628093D5
:10053000F00240E050E0BA018091F0029091EE02AA
:1005400084FF12C04D3231E053076105710560F040
:1005500092FD05C083FDB4C082608093F00280915B
:10056000F0028F7E8093F00291FF12C04D3B52400B
:100570006105710568F092FD0BC0222309F4A2C049
:1005800091609093EE028091F0028F7D8093F00253
:1005900080910003882309F4A2C09091EF0296FB9A
:1005A000332730F9C32F80E0D82FCC0FDD1F95FB08
:1005B000882780F98C2B2091F202281709F469C052
:1005C0001092F3029091F00296FFB0C0833009F0D0
:1005D00097C09F7B9093F002213009F48DC091E089
:1005E000223009F48AC09091EF0293FD03C083305A
:1005F00009F493C09091F3029923E1F12091EE0266
:1006000028602093EE024091F8025091F902609127
:10061000FA027091FB0297018601041B150B260B51
:10062000370B4091F10250E070E060E004171507CD
:100630002607370760F42091EF022260913029F0FD
:10064000923029F42091EF0221602093EF02C092B2
:10065000F802D092F902E092FA02F092FB022091A5
:10066000EF0224FF07C020910103222319F09E5FAF
:100670009093F3028093F2028091EE028460809363
:10068000EE02C092F402D092F502E092F602F092ED
:10069000F702DF91CF911F910F91FF90EF90DF90C4
:1006A000CF90BF90AF909F908F90089587FB882741
:1006B00080F98093010314CF8091F002886037CFD6
:1006C00084604BCF9D7F9E7F9093EE02C092F40298
:1006D000D092F502E092F602F092F70259CF8091A3
:1006E000FC020E94AE01C82F8091FD020E94AE0163
:1006F000880F991F8C2B5FCF92E09093F30273CFFA
:100700003091EF0233FD46C0811174CF9F7B9093EF
:10071000F002213041F0223031F09091F0029064EB
:100720009093F00267CF2093F302F7CF8823A9F3C9
:100730005ACF882309F400CF413551056105710571
:1007400008F4FACE92FD05C090FD03C0906290932C
:10075000EE024D3B52406105710528F08091EE029A
:1007600080648093EE028091EE02C092F402D092F7
:10077000F502E092F602F092F7028D7F8E7F809371
:10078000EE028091F00285FF97CF84FD95CF8061C6
:10079000877FCDCE882309F26DCF3FB7F894809143
:1007A000490290914A02A0914B02B0914C0226B5A9
:1007B000A89B05C02F3F19F00196A11DB11D3FBF99
:1007C000BA2FA92F982F8827BC01CD01620F711D68
:1007D000811D911D42E0660F771F881F991F4A9562
:1007E000D1F708958F929F92AF92BF92CF92DF92EE
:1007F000EF92FF924B015C010E94CD036B017C01E3
:100800000E94CD036C197D098E099F09683E7340D3
:1008100081059105A8F321E0821A9108A108B10889
:1008200088EEC80E83E0D81EE11CF11C81149104EF
:10083000A104B10429F7FF90EF90DF90CF90BF9013
:10084000AF909F908F900895AF92BF92CF92DF921A
:10085000EF92FF920F931F93CF93DF936C017B0175
:100860008B01040F151FEB015E01AE18BF08C01706
:10087000D10759F06991D601ED91FC910190F08179
:10088000E02DC6011995892B79F7C501DF91CF912C
:100890001F910F91FF90EF90DF90CF90BF90AF909E
:1008A0000895FC01538D448D252F30E0842F90E076
:1008B000821B930B541710F0CF960895019708955B
:1008C000FC01918D828D981761F0A28DAE0FBF2F24
:1008D000B11D5D968C91928D9F5F9F73928F90E07A
:1008E00008958FEF9FEF0895FC01918D828D9817E9
:1008F00031F0828DE80FF11D858D90E008958FEF26
:100900009FEF0895FC01918D228D892F90E0805CEE
:100910009F4F821B91098F739927089581E592E07B
:100920000E94820421E0892B09F420E0822F08959F
:10093000FC01A48DA80FB92FB11DA35ABF4F2C9154
:10094000848D90E001968F739927848FA689B7894B
:100950002C93A089B1898C91837080648C93938D42
:10096000848D981306C00288F389E02D80818F7DE5
:1009700080830895EF92FF920F931F93CF93DF939D
:10098000EC0181E0888F9B8D8C8D98131AC0E889CB
:10099000F989808185FF15C09FB7F894EE89FF899A
:1009A0006083E889F98980818370806480839FBF38
:1009B00081E090E0DF91CF911F910F91FF90EF9038
:1009C0000895F62E0B8D10E00F5F1F4F0F73112748
:1009D000E02E8C8D8E110CC00FB607FCFACFE88983
:1009E000F989808185FFF5CFCE010E949804F1CF6F
:1009F000EB8DEC0FFD2FF11DE35AFF4FF0829FB7F7
:100A0000F8940B8FEA89FB8980818062CFCFCF93E6
:100A1000DF93EC01888D8823B9F0AA89BB89E88926
:100A2000F9898C9185FD03C0808186FD0DC00FB6CC
:100A300007FCF7CF8C9185FFF2CF808185FFEDCF4A
:100A4000CE010E949804E9CFDF91CF91089580E014
:100A500090E0892B29F00E948E0481110E940000F1
:100A600080E090E0892B49F080E090E0892B29F02C
:100A70000E94000081110E94000080E090E0892B1C
:100A800049F080E090E0892B29F00E94000081115C
:100A90000E94000080E090E0892B49F080E090E027
:100AA000892B29F00E94000081110C940000089508
:100AB000089590E080E00895009769F0FC010190AE
:100AC0000020E9F73197AF01481B590BBC0182E0C8
:100AD00093E00C94240490E080E008951F93CF935A
:100AE000DF93EC01162F8C8194EA9093BC009091D7
:100AF000BC0097FFFCCF880F0E9496018B85812B4D
:100B00000E94960184E98093BC00809101028823B1
:100B100029F0109201021092020204C08091020298
:100B20008111F9CFDF91CF911F9108950F931F93FA
:100B3000CF938C01C62F0E946E056C2F6460C80194
:100B40000E946E056C2F6B7FC8010E946E0583ECBE
:100B500090E00197F1F7CF911F910F9108950F93B6
:100B60001F93CF93DF938C01D62FC42F607F642B0C
:100B70000E94960580E1D89FB00111246C2BC8011A
:100B8000DF91CF911F910F910C949605682F6068AB
:100B900040E082E093E00C94AF0540E061E082E049
:100BA00093E00E94AF058BE39FE10197F1F7089571
:100BB00041E00E94AF0581E090E008951F920F92FE
:100BC0000FB60F9211242F933F938F939F93AF9360
:100BD000BF9380914D0290914E02A0914F02B0912F
:100BE00050023091480223E0230F2D3758F501962B
:100BF000A11DB11D2093480280934D0290934E0297
:100C0000A0934F02B09350028091490290914A0202
:100C1000A0914B02B0914C020196A11DB11D809391
:100C2000490290934A02A0934B02B0934C02BF91A9
:100C3000AF919F918F913F912F910F900FBE0F9089
:100C40001F90189526E8230F0296A11DB11DD2CF43
:100C50001F920F920FB60F9211240BB60F922F9383
:100C60003F934F935F936F937F938F939F93AF9334
:100C7000BF93EF93FF9381E592E00E949804FF9168
:100C8000EF91BF91AF919F918F917F916F915F9104
:100C90004F913F912F910F900BBE0F900FBE0F9071
:100CA0001F9018951F920F920FB60F9211240BB63A
:100CB0000F922F938F939F93EF93FF93E091610295
:100CC000F09162028081E0916702F091680282FDFA
:100CD0001DC0908180916A028F5F8F7320916B029B
:100CE000821741F0E0916A02F0E0EF5AFD4F958FD4
:100CF00080936A02FF91EF919F918F912F910F90B6
:100D00000BBE0F900FBE0F901F9018958081F2CFF1
:100D1000CF93109254021092530288EE93E0A0E019
:100D2000B0E08093550290935602A0935702B0937F
:100D300058028EE092E0909352028093510285EC2B
:100D400090E090935E0280935D0284EC90E090933B
:100D5000600280935F0280EC90E090936202809347
:100D6000610281EC90E0909364028093630282ECD4
:100D700090E0909366028093650286EC90E09093F9
:100D800068028093670210926A0210926B021092BE
:100D90006C0210926D02109205031092040380E21F
:100DA00092E0909303038093020387E2809306030B
:100DB00084E180930B0384E080930C0310920D0375
:100DC00092E39093F1021092F2021092F3021092C9
:100DD000F4021092F5021092F6021092F7021092AD
:100DE000F8021092F9021092FA021092FB0210928D
:100DF000FF02109200031092010392E09093FC0214
:100E000093E09093FD028093FE028091EF02806157
:100E1000877F8093EF0282E00E946E018091FD0245
:100E20000E946E018091EF0284FF04C08091FE0257
:100E30000E946E018091F00281608093F0028091A7
:100E4000FC020E94AE01C82F8091FD020E94AE01FB
:100E5000880F991F8C2B8093F202CF91089578947C
:100E600084B5826084BD84B5816084BD85B58260AF
:100E700085BD85B5816085BD80916E008160809360
:100E80006E001092810080918100826080938100C9
:100E900080918100816080938100809180008160D9
:100EA000809380008091B10084608093B100809134
:100EB000B00081608093B000809191008260809347
:100EC00091008091910081608093910080919000C9
:100ED0008160809390008091A10082608093A10046
:100EE0008091A10081608093A1008091A000816029
:100EF0008093A000809121018260809321018091E4
:100F00002101816080932101809120018160809383
:100F1000200180917A00846080937A0080917A0029
:100F2000826080937A0080917A00816080937A0059
:100F300080917A00806880937A001092C100E091DD
:100F40006102F091620282E08083E0915D02F091A3
:100F50005E021082E0915F02F09160028FEC80836C
:100F600010926902E0916502F091660286E080834A
:100F7000E0916302F0916402808180618083E0915E
:100F80006302F0916402808188608083E091630253
:100F9000F0916402808180688083E0916302F09127
:100FA000640280818F7D808384E10E946E0185E1EF
:100FB0000E946E0188E48093B8001092B9001092EC
:100FC000070380910C03823018F098E09093070398
:100FD00080930A0362E370E080E090E00E94F203F5
:100FE00060910D0382E093E00E946E0568EE73E06D
:100FF00080E090E00E94F20360E382E093E00E94D0
:101000009605CBE4D6E4CE010197F1F760E382E0E8
:1010100093E00E9496052197F1F760E382E093E068
:101020000E94960583E592E00197F1F760E282E085
:1010300093E00E94960560910703606240E082E0C1
:1010400093E00E94AF0584E08093080340E06CE0E9
:1010500082E093E00E94AF050E94CD0582E080937C
:10106000090340E066E082E093E00E94AF0540E0C3
:1010700062E082E093E00E94AF058BE39FE101977D
:10108000F1F788E080930D0360E082E093E00E9436
:101090006E0580E00E94C60588E292E00E945C0531
:1010A0008091EF02877F8093EF02D2E00E943902A5
:1010B0008091EF0282FD0E9439028091F30281301B
:1010C000E9F41092F30280914602811102C0D0939C
:1010D0004602E0914602CFEFCE0FC09346020E9437
:1010E000CD0580E00E94C605EC2FF0E0EE0FFF1F5B
:1010F000EC5FFD4F808191810E945C058091EF0241
:1011000082FD0E9439028091F3028230E9F410924C
:10111000F30280914602823010F010924602E09174
:101120004602C1E0CE0FC09346020E94CD0580E08A
:101130000E94C605EC2FF0E0EE0FFF1FEC5FFD4FA5
:10114000808191810E945C058091EF0282FD0E9466
:1011500039028091EE0285FF13C08F7D8093EE02ED
:10116000809147028F5F809347028FE00E94C605FF
:1011700041E050E061E372E082E093E00E942404E9
:101180000E94270593CFEE0FFF1F881F8BBF07908C
:0A119000F691E02D1994F894FFCFBA
:10119A0000000001330238023D0200000000BA04D8
:1011AA00240451040705820460047404000000004A
:1011BA00D8052404590558055459205049444F521A
:1011CA00002B00486F6D65005261636500536574BA
:0611DA0074696E677300EA
:00000001FF
