:100000000C9442010C94CB0C0C94A00C0C94750C29
:100010000C944A0C0C941F0C0C94F40B0C94C90B0C
:100020000C949E0B0C9473010C9473010C9473014B
:100030000C9473010C9473010C9473010C94730170
:100040000C9473010C9473010C9473010C94730160
:100050000C9473010C9473010C9473010C94540B65
:100060000C9473010C94200D0C94F60C0C947301F9
:100070000C9473010C9473010C9473010C94730130
:100080000C9473010C9473010C9473010C94730120
:100090000C9473010C9473010C9473010C94730110
:1000A0000C9473010C9473010C9473010C94730100
:1000B0000C9473010C9473010C9473010C947301F0
:1000C0000C9473010C9473010C9473010C947301E0
:1000D0000C9473010C9473010C9473010C947301D0
:1000E0000C9473010C94EA010C9407050C94010222
:1000F0000C94EE010C94DE050C94F9040C94BF04EE
:100100000C94CB010C94FC010C94E6010C948C052E
:100110000C94D6010C9488040C9406020C94D30120
:100120000C949A060C9402020C94C7010C94DC0106
:100130000C94CF010C94E0010C94DD050C94F801B3
:100140000C9489040C94D6040C943F050C94560D21
:100150000C9485160C94F4010C94E5040C94C101E4
:1001600000002100240027002A002D003000330069
:1001700001010000040107010A010000220025001E
:1001800028002B002E003100340002010000050180
:1001900008010B01000020002300260029002C008C
:1001A0002F003200000100000301060109010505CE
:1001B0000505070508080808020202020A0A0808DD
:1001C000040404040101010101010101030303030B
:1001D00003030303040707070C0C0C0C0C0C0C0C9A
:1001E0000202020206060606060606060B0B0B0BAB
:1001F0000B0B0B0B010210202008081020401020D0
:1002000040800201020108040201010204081020DA
:1002100040808040201008040201800402018040D8
:100220002010080402010804020101020408102041
:100230004080010204081020408000000A0B0209DF
:100240000C0D0E0807030401000000000000000070
:10025000000000000000000000000000000000009E
:10026000000000000000121110000000000000005B
:10027000000000000000000000000000000000007E
:10028000560D851611241FBECFEFD1E2DEBFCDBFC4
:1002900000E00CBF25E0A4E2B4E001C01D92AD3E39
:1002A000B207E1F714E0A0E0B2E0E0E9F2E300E039
:1002B0000BBF02C007900D92A432B107D9F711E02D
:1002C000C1E4D1E000E006C021970109802FFE01C2
:1002D0000E941817C034D10780E00807A9F70E94D0
:1002E000080F0C9436190C94000080917B00877FD6
:1002F00080937B0087E480937C0080917A00806407
:1003000080937A0080917A0086FDFCCF80917800FE
:100310009091790008958093BB0084E88093BC009D
:100320008091BC0087FFFCCF8091B900887F80322C
:1003300021F481E0809311020895803319F481E063
:100340008093120208958150823108F05AC0E82F3C
:10035000F0E08827E155FE4F8F4F0C941817CF011E
:10036000D301C101C701CB010102D601DC01E001CB
:10037000E601EA01EE01F401F8010102FC010202CA
:100380000602809180008F7780938000089580918D
:1003900080008F7DF9CF80918000877FF5CF84B575
:1003A0008F7784BD089584B58F7DFBCF8091B00099
:1003B0008F778093B00008958091B0008F7DF9CF42
:1003C000809190008F7780939000089580919000A5
:1003D0008F7DF9CF80919000877FF5CF8091A0002D
:1003E0008F778093A00008958091A0008F7DF9CF32
:1003F0008091A000877FF5CF809120018F77809337
:1004000020010895809120018F7DF9CF80912001F6
:10041000877FF5CFCF93DF93282F30E0F901E65C9B
:10042000FD4F8491F901EC50FE4FD491F901E25552
:10043000FE4FC491CC23A1F081110E94A301EC2FA7
:10044000F0E0EE0FFF1FEC56FE4FA591B491EC913A
:10045000ED2381E090E009F480E0DF91CF910895F1
:1004600080E090E0FACF8F929F92AF92BF92CF92AE
:10047000DF92EF92FF920F931F93CF93DF938FB78B
:10048000F894C0905304D0905404E0905504F09038
:1004900056048FBF8091CA0584FF74C08090CF0539
:1004A0009090D005A090D105B090D2059091DB0539
:1004B0009111F6C08091D9050E940A022091CB05C6
:1004C000022F017010E021E00817190709F420E05D
:1004D0002093DC05B701A601481959096A097B096F
:1004E0002091DC059091C90591FB882780F9222392
:1004F00009F419C181111AC0413551056105710511
:10050000A8F0C092CF05D092D005E092D105F0922C
:10051000D205997E926190689093C9058091CB0530
:1005200080628093CB0540E050E0BA018091CB051A
:100530009091C90584FF12C04D3231E05307610527
:10054000710560F092FD05C083FDB4C082608093A8
:10055000CB058091CB058F7E8093CB0591FF12C098
:100560004D3B52406105710568F092FD0BC022239E
:1005700009F4A2C091609093C9058091CB058F7D4D
:100580008093CB058091DB05882309F4A2C090916C
:10059000CA0596FB332730F9C32F80E0D82FCC0F44
:1005A000DD1F95FB882780F98C2B2091CD0528171E
:1005B00009F469C01092CE059091CB0596FFB0C0AA
:1005C000833009F097C09F7B9093CB05213009F4CD
:1005D0008DC091E0223009F48AC09091CA0593FD44
:1005E00003C0833009F493C09091CE059923E1F1C3
:1005F0002091C90528602093C9054091D3055091E9
:10060000D4056091D5057091D60597018601041B2C
:10061000150B260B370B4091CC0550E070E060E0E5
:10062000041715072607370760F42091CA052260D2
:10063000913029F0923029F42091CA05216020934D
:10064000CA05C092D305D092D405E092D505F092A8
:10065000D6052091CA0524FF07C02091DC0522237E
:1006600019F09E5F9093CE058093CD058091C905CA
:1006700084608093C905C092CF05D092D005E092E6
:10068000D105F092D205DF91CF911F910F91FF908C
:10069000EF90DF90CF90BF90AF909F908F90089594
:1006A00087FB882780F98093DC0514CF8091CB05E8
:1006B000886037CF84604BCF9D7F9E7F9093C90524
:1006C000C092CF05D092D005E092D105F092D2052C
:1006D00059CF8091D7050E940A02C82F8091D80572
:1006E0000E940A02880F991F8C2B5FCF92E0909393
:1006F000CE0573CF3091CA0533FD46C0811174CF4A
:100700009F7B9093CB05213041F0223031F09091C6
:10071000CB0590649093CB0567CF2093CE05F7CFA0
:100720008823A9F35ACF882309F400CF4135510516
:100730006105710508F4FACE92FD05C090FD03C075
:1007400090629093C9054D3B52406105710528F0B8
:100750008091C90580648093C9058091C905C092C4
:10076000CF05D092D005E092D105F092D2058D7FD1
:100770008E7F8093C9058091CB0585FF97CF84FD3F
:1007800095CF8061877FCDCE882309F26DCF1F93EF
:10079000CF93DF93282F30E0F901E65CFD4F849181
:1007A000F901EC50FE4FD491F901E255FE4FC4918E
:1007B000CC23A9F0162F81110E94A301EC2FF0E0A9
:1007C000EE0FFF1FE658FE4FA591B4918FB7F89436
:1007D000EC91111108C0D095DE23DC938FBFDF911F
:1007E000CF911F910895DE2BF8CFCF93DF9390E048
:1007F000FC01EC50FE4F249182559E4FFC018491E8
:100800008823C9F090E0880F991FFC01E05AFE4F41
:10081000A591B491FC01E658FE4FC591D4916111A8
:100820000DC09FB7F8948C91209582238C9388817A
:10083000282328839FBFDF91CF910895623051F420
:100840009FB7F8943C91822F809583238C93E88105
:100850002E2BEFCF8FB7F894EC912E2B2C938FBFCC
:10086000EACF3FB7F89480914F0490915004A09143
:100870005104B091520426B5A89B05C02F3F19F032
:100880000196A11DB11D3FBFBA2FA92F982F882710
:10089000BC01CD01620F711D811D911D42E0660FEB
:1008A000771F881F991F4A95D1F708958F929F92BD
:1008B000AF92BF92CF92DF92EF92FF924B015C0119
:1008C0000E9431046B017C010E9431046C197D0986
:1008D0008E099F09683E734081059105A8F321E0C8
:1008E000821A9108A108B10888EEC80E83E0D81ECC
:1008F000E11CF11C81149104A104B10429F7FF90BB
:10090000EF90DF90CF90BF90AF909F908F90089521
:100910000895AF92BF92CF92DF92EF92FF920F9322
:100920001F93CF93DF936C017B018B01040F151F85
:10093000EB015E01AE18BF08C017D10759F06991ED
:10094000D601ED91FC910190F081E02DC601199541
:10095000892B79F7C501DF91CF911F910F91FF90FE
:10096000EF90DF90CF90BF90AF900895FC0144814D
:100970005581608171818DED95E00C9489048091A1
:100980004A0490914B04A0914C04B0914D04809383
:10099000260490932704A0932804B09329040E946E
:1009A000750190932504809324040895FC01538DD0
:1009B000448D252F30E0842F90E0821B930B541739
:1009C00010F0CF96089501970895FC01918D828DC6
:1009D000981761F0A28DAE0FBF2FB11D5D968C915F
:1009E000928D9F5F9F73928F90E008958FEF9FEF9E
:1009F0000895FC01918D828D981731F0828DE80F5A
:100A0000F11D858D90E008958FEF9FEF0895FC0113
:100A1000918D228D892F90E0805C9F4F821B9109E0
:100A20008F739927089587E594E00E94070521E0D8
:100A3000892B09F420E0822F0895FC01A48DA80FD2
:100A4000B92FB11DA35ABF4F2C91848D90E0019610
:100A50008F739927848FA689B7892C93A089B18930
:100A60008C91837080648C93938D848D981306C0D1
:100A70000288F389E02D80818F7D80830895EF9235
:100A8000FF920F931F93CF93DF93EC0181E0888F48
:100A90009B8D8C8D98131AC0E889F989808185FF18
:100AA00015C09FB7F894EE89FF896083E889F989BA
:100AB00080818370806480839FBF81E090E0DF91BC
:100AC000CF911F910F91FF90EF900895F62E0B8D0F
:100AD00010E00F5F1F4F0F731127E02E8C8D8E11CA
:100AE0000CC00FB607FCFACFE889F989808185FF31
:100AF000F5CFCE010E941D05F1CFEB8DEC0FFD2F40
:100B0000F11DE35AFF4FF0829FB7F8940B8FEA89EB
:100B1000FB8980818062CFCFCF93DF93EC01888DFA
:100B20008823B9F0AA89BB89E889F9898C9185FD68
:100B300003C0808186FD0DC00FB607FCF7CF8C91F6
:100B400085FFF2CF808185FFEDCFCE010E941D058C
:100B5000E9CFDF91CF91089580E090E0892B29F0D3
:100B60000E94130581110E94000080E090E0892B13
:100B700049F080E090E0892B29F00E94000081116B
:100B80000E94000080E090E0892B49F080E090E036
:100B9000892B29F00E94000081110E94000080E052
:100BA00090E0892B49F080E090E0892B29F00E94A9
:100BB000000081110C9400000895089590E080E0F9
:100BC000089510923C0410923D0410923E0410923D
:100BD0003F0410922A0410922B0410922C041092BD
:100BE0002D04109238041092390410923A04109295
:100BF0003B04109234041092350410923604109283
:100C00003704109230041092310410923204109282
:100C1000330410922F0410922E0410924004089571
:100C20001F93CF93DF93EC01162F8C8194EA90935E
:100C3000BC009091BC0097FFFCCF880F0E948B01F5
:100C40008B85812B0E948B0184E98093BC0080916D
:100C50001102882329F0109211021092120204C08E
:100C6000809112028111F9CFDF91CF911F910895E8
:100C70000F931F93CF938C01C62F0E9410066C2FE9
:100C80006460C8010E9410066C2F6B7FC8010E942F
:100C9000100683EC90E00197F1F7CF911F910F912F
:100CA00008950F931F93CF93DF938C01D62FC42FFA
:100CB000607F642B0E94380680E1D89FB001112428
:100CC0006C2BC801DF91CF911F910F910C943806C6
:100CD000CF93DF9300D000D01F921F92CDB7DEB725
:100CE00098E0EAE1F2E0DE01119601900D929A950A
:100CF000E1F79091E505961710F46FEF690F262F35
:100D000030E0220F331F41E050E04C0F5D1F240FF5
:100D1000351FF9016081680F606840E08DED95E056
:100D200028960FB6F894DEBF0FBECDBFDF91CF91EE
:100D30000C94510641E00E94510681E090E0089534
:100D4000CF93DF93EB010E94E0168883CE01DF9101
:100D5000CF9108950F931F93CF93DF938C01EB01F5
:100D60000E94E0168883C80101960E94E0168983DC
:100D7000CE01DF91CF911F910F910895CF93DF9313
:100D8000CAE1D5E08A81BE0190E00E94AA068C816A
:100D900090E00E94E0168B838F816FE175E090E018
:100DA0000E94AA068A8562E275E090E00E94AA0687
:100DB0008C8565E275E090E00E94A0068E8567E272
:100DC00075E090E0DF91CF910C94A006FB010190BB
:100DD0000020E9F73197AF01461B570BDC01ED917D
:100DE000FC910280F381E02D19946CE772E087E5B5
:100DF00094E00C94E6068F929F92AF92BF92EF928E
:100E0000FF920F931F93CF93DF93CDB7DEB7A197D8
:100E10000FB6F894DEBF0FBECDBF7C01FA01CB0147
:100E200019A2223008F42AE08E010F5D1F4F822E96
:100E3000912CB12CA12CBF01A50194010E94F616A2
:100E4000F901CA016A300CF5605DD8016E938D011D
:100E5000232B242B252B79F790E080E0109721F0AD
:100E6000BD01C7010E94E606A1960FB6F894DEBF49
:100E70000FBECDBFDF91CF911F910F91FF90EF90EB
:100E8000BF90AF909F908F900895695CDECFCF9216
:100E9000DF92EF92FF920F931F93CF93DF936B013B
:100EA000770FEE08FF08F7FE1FC0EC01E881F9811B
:100EB0000190F081E02D6DE219958C0144275527B2
:100EC000BA014C195D096E097F092AE0CE010E9422
:100ED000FB06800F911FDF91CF911F910F91FF9023
:100EE000EF90DF90CF9008952AE0B701A601DF913F
:100EF000CF911F910F91FF90EF90DF90CF900C94C6
:100F0000FB06AB0170E060E02AE00C94FB06CF9397
:100F1000DF93BC0187E594E00E948107EC010E9409
:100F2000F5068C0F9D1FDF91CF910895CF93DF932E
:100F3000BC0187E594E00E94E606EC010E94F506FC
:100F40008C0F9D1FDF91CF9108956115710511F0F0
:100F50000C94E60690E080E00895CF93DF938FE74E
:100F600092E00E94960768E872E087E594E00E94AC
:100F7000A507CAE1D5E0888199810E94870761E9C8
:100F800072E087E594E00E94A5074B8150E070E095
:100F900060E02AE087E594E00E94FB060E94F506E7
:100FA00068E972E087E594E00E94A5078D819E8143
:100FB0000E94870761EA72E087E594E00E94A50736
:100FC000888599850E94870766EB72E087E594E043
:100FD0000E94A5076B8570E087E594E00E944707B3
:100FE0000E94F5066DEB72E087E594E00E94A5078C
:100FF0006D8570E087E594E00E9447070E94F50642
:10100000DF91CF910C94F50661E080E00E946806C4
:1010100063ED72E08DED95E00E94A50762E080E04F
:101020000E94680663ED72E08DED95E00E94A507D1
:1010300063E080E00E94680663ED72E08DED95E06C
:101040000C94A507CF93DF93EC0160E080E00E9451
:1010500068066CEC72E08DED95E00E94A50760E0FB
:1010600080E00E946806E88124E1E29FF0011124FB
:10107000EE5DFD4F608171818DED95E00E94A507C9
:101080008981882341F168EE72E0813011F06BEEC6
:1010900072E08DED95E00E94A5078881E9812AE044
:1010A000829FC0011124E80FF92FF11DEE0FFF1FE1
:1010B000EE5DFD4F608171818DED95E00E94A50789
:1010C0008A81882341F06EEE72E08DED95E0DF912C
:1010D000CF910C94A507DF91CF9108950F931F93A3
:1010E000CF93DF93EC0188819981009759F02A8191
:1010F0003B812617370730F081E0DF91CF911F91B8
:101100000F9108958B016F5F7F4F0E9445180097E4
:1011100059F0998388831B830A832C813D81232B7B
:1011200059F7FC011082E8CF80E0E7CFEF92FF9201
:101130000F931F93CF93DF936115710541F480E006
:10114000DF91CF911F910F91FF90EF90089541157E
:101150005105B1F07B01EC010C811D81040F151FBD
:10116000B8010E946E08882351F3288139818C814F
:101170009D81B701820F931F0E942F191D830C833D
:1011800081E0DECFCF93DF93EC01888199810097D6
:1011900011F00E94BC17198218821D821C821B82CA
:1011A0001A82DF91CF910895CF93DF93EC01FB0179
:1011B00001900020E9F73197AF01461B570B0E94C1
:1011C0009608811103C0CE010E94C208CE01DF91B2
:1011D000CF910895CF93DF93EC01FB0144815581BA
:1011E000608171810E949608811103C0CE010E9426
:1011F000C208CE01DF91CF910895EF92FF920F9335
:101200001F93CF93DF93EC017B018A01BA010E9407
:101210006E0881110BC0CE010E94C208CE01DF9181
:10122000CF911F910F91FF90EF9008951D830C8334
:10123000B701888199810E942F19F0CFEF92FF9218
:101240000F931F93CF93DF93CDB7DEB761970FB6A0
:10125000F894DEBF0FBECDBF8C01CB01F801118227
:10126000108213821282158214824AE09E012F5F3F
:101270003F4F7901B9010E94B616F7010190002095
:10128000E9F73197AF014E195F09B701C8010E9414
:10129000FD0861960FB6F894DEBF0FBECDBFDF919B
:1012A000CF911F910F91FF90EF900895CF93DF930F
:1012B000EC01FB018617970749F060817181611588
:1012C000710541F0448155810E94FD08CE01DF91F6
:1012D000CF9108950E94C208F9CFFC0111821082BB
:1012E00013821282158214820C945609FB0120810C
:1012F000DC012C93418152816381748111964D935D
:101300005D936D937C9314972581368116963C935B
:101310002E931597BF01695F7F4F07960C946D0957
:10132000FC01118210821382128215821482FB0149
:1013300001900020E9F73197AF01461B570B0C9441
:10134000FD08FC011082118212821382148216821F
:1013500015826EE772E007960C949009FC0180817B
:101360009181009711F00C94BC1708953F924F9211
:101370005F926F927F928F929F92AF92BF92CF9225
:10138000DF92EF92FF920F931F93CF93DF93CDB72E
:10139000DEB76C970FB6F894DEBF0FBECDBF4C0121
:1013A0002A013B01CB01BA0128EE33E040E050E0D6
:1013B0000E94F616298F3A8F4B8F5C8FC301B201C2
:1013C00020E63AEE40E050E00E94F616690128EE71
:1013D00033E0498D5A8D249FC001259F900D349F85
:1013E000900D11245201A81AB90A3CE3332E3C9CFB
:1013F000C0013D9C900D11248A01081B190BC301EB
:10140000B20120E83EEE46E350E00E94F616329E1E
:10141000C001339E900D1124C81AD90AB501CE011E
:1014200043960E941E0954E6A516B10408F078C040
:1014300020EFE22E22E0F22E8AE0A816B10408F492
:1014400073C09EE7A92E92E0B92EB801CE010D9689
:101450000E941E090A30110508F468C00EE712E068
:10146000B601CE0107960E941E096EE772E04AE0BF
:10147000C416D10410F460EF72E0CE0101960E9410
:101480009009BE01695F7F4FCE0101960E94EA0874
:101490006EEE72E00E94D408B8010E94D408BE012A
:1014A000635F7F4F0E94EA0861E173E00E94D40805
:1014B000B5010E94D408B7010E94D408BE016D5E38
:1014C0007F4F0E94EA08BC01C4010E946D09CE0151
:1014D00001960E94AE09CE0107960E94AE09CE0188
:1014E0000D960E94AE09CE0143960E94AE09C4013A
:1014F0006C960FB6F894DEBF0FBECDBFDF91CF91D3
:101500001F910F91FF90EF90DF90CF90BF90AF9021
:101510009F908F907F906F905F904F903F90089535
:101520008EE7E82E82E0F82E57018FCF00EF12E011
:1015300097CFEF92FF920F931F93CF93DF93CDB787
:10154000DEB72C970FB6F894DEBF0FBECDBF7C017F
:10155000E091C60586E0E89FF0011124EC50FB4FB6
:10156000848161E08E5F0E9468066EE772E0CE01C2
:1015700007960E94900910E000E0BE01695F7F4F6E
:10158000CE0101960E946D0966EE72E0CE010196D1
:101590000E94D408BC01CE0107960E945609CE01D4
:1015A00001960E94AE090F5F1F4F0E151F0529F708
:1015B000CE0107960E94B604E091C60586E0E89F3A
:1015C000F0011124EC50FB4F848161E08E5F0E949A
:1015D0006806CE0107960E94AE092C960FB6F894C5
:1015E000DEBF0FBECDBFDF91CF911F910F91FF9056
:1015F000EF900895FF920F931F93CF93DF93EC0129
:10160000F62E08811981C8010E94E016F81621F013
:101610006F2DC8010E94E816CE01DF91CF911F9176
:101620000F91FF9008950F931F93CF93DF931F9215
:101630001F92CDB7DEB78B019A838983FB0160814E
:10164000CE0101960E94FA0AC8010F900F90DF9117
:10165000CF911F910F910895EF92FF920F931F93D7
:10166000CF93DF931F921F92CDB7DEB78C017B0122
:101670009A838983FB016081CE0101960E94FA0A58
:101680000F5F1F4F1A830983F7016181CE01019615
:101690000E94FA0AC7010F900F90DF91CF911F911E
:1016A0000F91FF90EF9008951F920F920FB60F9237
:1016B00011242F933F938F939F93AF93BF93809168
:1016C000530490915404A0915504B0915604309164
:1016D0004E0423E0230F2D3758F50196A11DB11DAF
:1016E00020934E048093530490935404A093550484
:1016F000B093560480914F0490915004A0915104EE
:10170000B09152040196A11DB11D80934F04909396
:101710005004A0935104B0935204BF91AF919F9194
:101720008F913F912F910F900FBE0F901F901895A2
:1017300026E8230F0296A11DB11DD2CF1F920F9252
:101740000FB60F9211240BB60F922F933F934F9326
:101750005F936F937F938F939F93AF93BF93EF9319
:10176000FF93E0910E02F0910F021995FF91EF9116
:10177000BF91AF919F918F917F916F915F914F91A9
:101780003F912F910F900BBE0F900FBE0F901F90A7
:1017900018951F920F920FB60F9211240BB60F924D
:1017A0002F933F934F935F936F937F938F939F9369
:1017B000AF93BF93EF93FF93E0910C02F0910D0272
:1017C0001995FF91EF91BF91AF919F918F917F916B
:1017D0006F915F914F913F912F910F900BBE0F90A2
:1017E0000FBE0F901F9018951F920F920FB60F9279
:1017F00011240BB60F922F933F934F935F936F93E8
:101800007F938F939F93AF93BF93EF93FF93E09159
:101810000202F09103021995FF91EF91BF91AF91F0
:101820009F918F917F916F915F914F913F912F91F8
:101830000F900BBE0F900FBE0F901F9018951F9228
:101840000F920FB60F9211240BB60F922F933F9366
:101850004F935F936F937F938F939F93AF93BF93B8
:10186000EF93FF93E0910002F09101021995FF912F
:10187000EF91BF91AF919F918F917F916F915F9108
:101880004F913F912F910F900BBE0F900FBE0F9075
:101890001F9018951F920F920FB60F9211240BB63E
:1018A0000F922F933F934F935F936F937F938F93F9
:1018B0009F93AF93BF93EF93FF93E0910A02F09150
:1018C0000B021995FF91EF91BF91AF919F918F916D
:1018D0007F916F915F914F913F912F910F900BBE30
:1018E0000F900FBE0F901F9018951F920F920FB67A
:1018F0000F9211240BB60F922F933F934F935F9348
:101900006F937F938F939F93AF93BF93EF93FF93C7
:10191000E0910802F09109021995FF91EF91BF91B2
:10192000AF919F918F917F916F915F914F913F9177
:101930002F910F900BBE0F900FBE0F901F90189518
:101940001F920F920FB60F9211240BB60F922F9386
:101950003F934F935F936F937F938F939F93AF9337
:10196000BF93EF93FF93E0910602F0910702199560
:10197000FF91EF91BF91AF919F918F917F916F9167
:101980005F914F913F912F910F900BBE0F900FBE23
:101990000F901F9018951F920F920FB60F9211245F
:1019A0000BB60F922F933F934F935F936F937F9359
:1019B0008F939F93AF93BF93EF93FF93E0910402B4
:1019C000F09105021995FF91EF91BF91AF919F9111
:1019D0008F917F916F915F914F913F912F910F90D8
:1019E0000BBE0F900FBE0F901F9018951F920F9275
:1019F0000FB60F9211240BB60F922F933F934F9374
:101A00005F936F937F938F939F93AF93BF93EF9366
:101A1000FF9387E594E00E941D05FF91EF91BF9130
:101A2000AF919F918F917F916F915F914F913F9176
:101A30002F910F900BBE0F900FBE0F901F90189517
:101A40001F920F920FB60F9211240BB60F922F9385
:101A50008F939F93EF93FF93E0916704F091680455
:101A60008081E0916D04F0916E0482FD1DC0908133
:101A7000809170048F5F8F7320917104821741F001
:101A8000E0917004F0E0E95AFB4F958F8093700469
:101A9000FF91EF919F918F912F910F900BBE0F901F
:101AA0000FBE0F901F9018958081F2CF1F93CF9398
:101AB000DF931F921F92CDB7DEB710925A04109297
:101AC000590488EE93E0A0E0B0E080935B0490932B
:101AD0005C04A0935D04B0935E0482E692E0909370
:101AE00058048093570485EC90E0909364048093AD
:101AF000630484EC90E0909366048093650480EC2A
:101B000090E0909368048093670481EC90E0909358
:101B10006A048093690482EC90E090936C04809353
:101B20006B0486EC90E090936E0480936D041092A9
:101B30007004109271041092720410927304109247
:101B4000E0051092DF0584E792E09093DE05809334
:101B5000DD0587E28093E10584E18093E60584E07A
:101B60008093E7051092E80592E39093CC051092DC
:101B7000CD051092CE051092CF051092D00510928F
:101B8000D1051092D2051092D3051092D40510926F
:101B9000D5051092D6051092DA051092DB05109249
:101BA000DC0592E09093D70593E09093D80580935D
:101BB000D9058091CA058061877F8093CA0562E05C
:101BC00082E00E94F50362E08091D8050E94F5034F
:101BD0008091CA0584FF05C062E08091D9050E940A
:101BE000F5038091CB0581608093CB058091D7056B
:101BF0000E940A02182F8091D8050E940A02880FBD
:101C0000991F812B8093CD051092C7051092C805AE
:101C10001092C50511E01093C60588EB95E00E946F
:101C2000A1098BEA95E00E94A1098EE995E00E9446
:101C3000A10981E995E00E94A10984E895E00E944C
:101C4000A10987E795E00E94A10968EB75E089E2A8
:101C500095E00E9476096BEA75E086E395E00E94C4
:101C600076096EE975E083E495E00E94760961E902
:101C700075E080E595E00E94760964E875E08DE501
:101C800095E00E94760967E775E08AE695E00E9494
:101C9000760910921B0510921A0510921C051093DC
:101CA0001D0582E080931E0583E090E0909320055F
:101CB00080931F0523E020932105909323058093B3
:101CC000220585E0809324051092250587E0809306
:101CD00026051092270588E0809328056AE175E0C3
:101CE00090E080E00E94AA0680911A0590911B0561
:101CF0008A33904309F44CC00E94F50682EF92E0CB
:101D00000E9496078AE390E39A83898380911C0559
:101D1000BE016F5F7F4F90E00E942C0B80911E05EB
:101D200090E09A83898360911D05CE0101960E94FF
:101D3000FA0A809121056FE175E090E00E942C0B7A
:101D40008091240562E275E090E00E942C0B809166
:101D5000260565E275E090E00E94130B809128054E
:101D600067E275E090E00E94130B86E690E09A83AC
:101D70008983BE016F5F7F4F84E690E00E942C0B49
:101D800083E193E00E9496070E94BE060E94AD0781
:101D9000109219051092180568E175E084E690E04C
:101DA0000E94AA0668E173E087E594E00E94A50717
:101DB00080911805909119050E9487076EE772E0DF
:101DC00084EF94E00E94900964E273E08AEF94E06B
:101DD0000E9490096EE273E080E095E00E94900915
:101DE0006AE373E086E095E00E9490096AE473E09C
:101DF0008CE095E00E94900969E573E082E195E04E
:101E00000E9490090F900F90DF91CF911F9108953C
:101E1000CF93DF9300D000D0CDB7DEB7789484B5F0
:101E2000826084BD84B5816084BD85B5826085BDD6
:101E300085B5816085BD80916E00816080936E0064
:101E40001092810080918100826080938100809156
:101E50008100816080938100809180008160809307
:101E600080008091B10084608093B1008091B000C7
:101E700081608093B0008091910082608093910096
:101E800080919100816080939100809190008160A9
:101E9000809390008091A10082608093A100809146
:101EA000A10081608093A1008091A0008160809357
:101EB000A000809121018260809321018091210105
:101EC00081608093210180912001816080932001B5
:101ED00080917A00846080937A0080917A00826099
:101EE00080937A0080917A00816080937A0080915B
:101EF0007A00806880937A001092C100E0916704B4
:101F0000F091680482E08083E0916304F0916404BE
:101F10001082E0916504F09166048FEC808310924A
:101F20006F04E0916B04F0916C0486E08083E09193
:101F30006904F0916A04808180618083E091690482
:101F4000F0916A04808188608083E0916904F09157
:101F50006A04808180688083E0916904F0916A045A
:101F600080818F7D808362E084E10E94F50362E0DE
:101F700085E10E94F50388E48093B8001092B900CF
:101F80001092E2058091E705823018F098E0909376
:101F9000E2058093E50562E370E080E090E00E9456
:101FA00056046091E8058DED95E00E94100668EEFC
:101FB00073E080E090E00E94560460E38DED95E0D0
:101FC0000E9438060BE416E4C8010197F1F760E3BC
:101FD0008DED95E00E943806C8010197F1F760E3A6
:101FE0008DED95E00E94380683E592E00197F1F7C8
:101FF00060E28DED95E00E9438066091E205606236
:1020000040E08DED95E00E94510684E08093E30569
:1020100040E06CE08DED95E00E94510640E061E00B
:102020008DED95E00E9451060BE31FE1C801019779
:10203000F1F782E08093E40540E066E08DED95E005
:102040000E94510640E062E08DED95E00E9451064D
:10205000C8010197F1F788E08093E80560E08DED15
:1020600095E00E9410061B821C82198281E08A83FF
:102070008091CA05877F8093CA0561E087E00E944E
:10208000F50361E086E00E94F50361E085E00E94CF
:10209000F50361E089E00E94F50361E088E00E94B9
:1020A000F50360E08DE30E94F50360E082E10E94A9
:1020B000F50361E087E00E94C70360E086E00E94CC
:1020C000C7036091410485E00E94C70360E089E096
:1020D0000E94C70361E088E00E94C7038FEB94E091
:1020E00090930B0280930A0280916900806C809328
:1020F0006900EB9ACE0101960E9422080E94BE065A
:102100000E94AD0711E02FB7F8948091530490918D
:102110005404A0915504B09156042FBF80934A04F3
:1021200090934B04A0934C04B0934D0480912604EB
:1021300090912704A0912804B0912904892B8A2B1F
:102140008B2B31F180912404909125044091260439
:102150005091270460912804709129044093370519
:10216000509338056093390570933A0590933C0578
:1021700080933B0510933605109226041092270495
:10218000109228041092290410922504109224041D
:102190008091CA0582FD0E9433028091CE05813074
:1021A00081F41092CE0510924405109245051092CC
:1021B00046051092470510924905109248058093F4
:1021C00043058091CA0582FD0E9433028091CE05AD
:1021D000823081F41092CE05109251051092520572
:1021E0001092530510925405109256051092550501
:1021F000109350058091CA0582FD0E9433028091A0
:10220000C90585FF11C08F7D8093C90510925E05B9
:1022100010925F051092600510926105109263059F
:102220001092620510935D058091C605811139C039
:1022300080914305882359F08091C505882319F0C2
:1022400081508093C50585EC95E00E94220880911D
:102250005005882359F08091C505823018F48F5FAE
:102260008093C50585EC95E00E94220880915D056C
:10227000882331F01093C60585EC95E00E94220872
:1022800010922905109236051092430510925005C0
:1022900010925D0510926A050E9433020E94AC05FF
:1022A00032CF9091C705911134C090914305992385
:1022B00039F081508093C60585EC95E00E94220894
:1022C000809150058823C9F08091C505811105C012
:1022D0008091C605833038F00CC0813041F4809184
:1022E000C605853030F48F5F8093C60502C082300A
:1022F00079F385EC95E00E94220880915D058823A2
:1023000009F4BECF1093C7051093C8050E940408B6
:10231000B3CF80915D05882381F01092C70510929C
:10232000C8050E94040885EC95E00E9422081092DE
:10233000410460E085E00E94C7038091C5058111DA
:102340008CC00091C605013009F090C28091C8058B
:102350008823A1F10E94E1050093410461E085E03A
:102360000E94C7036DE772E087E594E00E94A5072D
:1023700065E673E087E594E00E94A50760911F057C
:102380007091200587E594E00E9481078CE693E038
:102390000E94960761E080E00E94680663ED72E0AB
:1023A0008DED95E00E94A50761E080E00E9468063F
:1023B00068E773E08DED95E00E94A50780914004E9
:1023C000811138C380913605882309F446C0809175
:1023D000370590913805A0913905B0913A05809361
:1023E0003C0490933D04A0933E04B0933F0480933B
:1023F000380490933904A0933A04B0933B041093AB
:1024000040048EE793E00E94960761E080E00E941E
:10241000680663ED72E08DED95E00E94A50761E02E
:1024200080E00E9468066EE773E08DED95E00E9403
:10243000A50762E080E00E94680663ED72E08DED22
:1024400095E00E94A50763E080E00E94680663EDC6
:1024500072E08DED95E00E94A5078091C505813061
:1024600009F004C28091C605882309F4E0C2809176
:10247000C805882309F4A4C061E080E00E946806D2
:1024800063EE72E08DED95E00E94A50761E080E0CB
:102490000E9468068091C6058130E1F46AEF74E01D
:1024A000CE0101960E946D096CE873E0CE010196A1
:1024B0000E94D4080E94B604CE0101960E94AE0983
:1024C00040911D0550E070E060E02AE08DED95E060
:1024D0000E94FB068091C6058230D1F460E075E071
:1024E000CE0101960E946D096CE873E0CE01019661
:1024F0000E94D4080E94B604CE0101960E94AE0943
:1025000060911F05709120058DED95E00E94810777
:102510008091C6058330D1F466E075E0CE01019666
:102520000E946D096CE873E0CE0101960E94D40808
:102530000E94B604CE0101960E94AE096091220568
:10254000709123058DED95E00E9481078091C6056D
:102550008430C9F46CE075E0CE0101960E946D09EB
:102560006CE873E0CE0101960E94D4080E94B60484
:10257000CE0101960E94AE096091270570E08DEDB5
:1025800095E00E9447078091C6058530C9F462E155
:1025900075E0CE0101960E946D096CE873E0CE01F2
:1025A00001960E94D4080E94B604CE0101960E94B2
:1025B000AE096091250570E08DED95E00E9447071A
:1025C0008091C6058130A1F5809143058823B1F043
:1025D00080911D05823008F449C1815080931D050A
:1025E00085E090E00E94990A40911D0550E070E05E
:1025F00060E02AE08DED95E00E94FB068091500599
:102600008823B1F080911D05823008F02FC18F5FC3
:1026100080931D0585E090E00E94990A40911D0578
:1026200050E070E060E02AE08DED95E00E94FB064E
:102630008091C6058230D1F5809143058823C1F091
:1026400080911F0590912005009709F40FC1019713
:102650009093200580931F0585E090E00E94990AE1
:1026600060911F05709120058DED95E00E94810716
:10267000809150058823D1F080911F05909120050D
:10268000883E23E0920708F0F1C001969093200560
:1026900080931F0585E090E00E94990A60911F05D4
:1026A000709120058DED95E00E9481078091C6050F
:1026B0008330D1F5809143058823C1F080912205B4
:1026C00090912305009709F4D1C0019790932305B9
:1026D0008093220586E090E00E94990A609122058D
:1026E000709123058DED95E00E9481078091500542
:1026F0008823D1F080912205909123058D3221E02D
:10270000920708F0B3C001969093230580932205A9
:1027100086E090E00E94990A60912205709123055D
:102720008DED95E00E9481078091C605843059F5B2
:1027300080914305882391F080912705882309F42F
:1027400095C01092270583E090E00E94990A60915D
:10275000270570E08DED95E00E94470780915005B8
:10276000882389F080912705811180C01093270567
:1027700083E090E00E94990A6091270570E08DED5A
:1027800095E00E9447078091C605853059F58091F4
:102790004305882391F080912505882309F466C0BC
:1027A0001092250583E090E00E94990A609125052A
:1027B00070E08DED95E00E944707809150058823D9
:1027C00089F080912505811151C01093250583E082
:1027D00090E00E94990A6091250570E08DED95E0EA
:1027E0000E94470780915D05882309F43FC08091CE
:1027F000C605813059F480911E0590E09A83898343
:1028000060911D05CE0101960E94FA0A8091C605CD
:10281000823039F4809121056FE175E090E00E94EB
:102820002C0B8091C605833039F48091240562E237
:1028300075E090E00E942C0B8091C605843039F43D
:102840008091280567E275E090E00E94130B80916B
:10285000C605853039F48091260565E275E090E083
:102860000E94130B0E94BE060E94AD078091C50511
:10287000823009F0DCC00091C605013009F0D7C0F4
:102880008091C805882309F442C061E080E00E947D
:10289000680663EE72E08DED95E00E94A50761E0A9
:1028A00080E00E94680668EB73E08DED95E00E9481
:1028B000A50762E080E00E9468066EED72E08DED93
:1028C00095E00E94A50762E080E00E94680662EB46
:1028D00073E08DED95E00E94A50763E080E00E9423
:1028E000680663EE72E08DED95E00E94A50763E057
:1028F00080E00E94680667EB73E08DED95E00E9432
:10290000A5070093410461E085E00E94C703809120
:10291000460490914704A0914804B0914904845D15
:102920009E4FAF4FBF4F40914A0450914B0460916E
:102930004C0470914D0484179507A607B70728F536
:1029400061E083E00E94680663EE72E08DED95E041
:102950000E94A50761E083E00E9468060E9475015D
:10296000BC018DED95E00E94470780914A0490914B
:102970004B04A0914C04B0914D0480934604909375
:102980004704A0934804B0934904809136058823F6
:1029900009F44DC062E084E00E9468066EED72E0CA
:1029A0008DED95E00E94A50762E084E00E94680634
:1029B00040913705509138056091390570913A057D
:1029C0008091420490914304A0914404B091450445
:1029D000481B590B6A0B7B0B2AE08DED95E00E949A
:1029E000FB0663E084E00E94680663EE72E08DED12
:1029F00095E00E94A50763E084E00E94680660916C
:102A00003B0570913C058DED95E00E94810780911A
:102A1000370590913805A0913905B0913A0580931A
:102A2000420490934304A0934404B093450410924D
:102A3000C80526CC813009F0C7C0809136058823AF
:102A400009F40BCD40913705509138056091390557
:102A500070913A058091380490913904A0913A041C
:102A6000B0913B046A017B01C81AD90AEA0AFB0A41
:102A7000D701C6018093340490933504A0933604A3
:102A8000B0933704C0903004D0903104E090320409
:102A9000F0903304C114D104E104F10429F08C1541
:102AA0009D05AE05BF0540F480933004909331043A
:102AB000A0933204B0933304409338045093390404
:102AC00060933A0470933B0480912E0490912F04FC
:102AD000019690932F0480932E0466E873E087E5B7
:102AE00094E00E94A50760912E0470912F0487E561
:102AF00094E00E9481076BE873E087E594E00E9410
:102B0000A507409138045091390460913A047091BE
:102B10003B042AE087E594E00E94FB066DE772E043
:102B200087E594E00E94A50762E080E00E946806C5
:102B300063ED72E08DED95E00E94A50762E080E014
:102B40000E94680660912E0470912F048DED95E02F
:102B50000E9481076CE873E08DED95E00E94A50767
:102B600040913404509135046091360470913704DB
:102B7000CE0101960E94B609CE0101960E94B604CC
:102B8000CE0101960E94AE0920911F0530912005CB
:102B900080912E0490912F048217930708F45DCC46
:102BA00082E0809340048091370590913805A09190
:102BB0003905B0913A0580932A0490932B04A09391
:102BC0002C04B0932D0449CC823009F046CC6FE838
:102BD00073E087E594E00E94A5076BE873E087E562
:102BE00094E00E94A50740912A0450912B04609123
:102BF0002C0470912D0480913C0490913D04A0918F
:102C00003E04B0913F04481B590B6A0B7B0B2AE032
:102C100087E594E00E94FB066DE772E087E594E0AB
:102C20000E94A50761E080E00E94680663ED72E003
:102C30008DED95E00E94A50761E080E00E946806A6
:102C400069E973E08DED95E00E94A50762E080E000
:102C50000E94680663ED72E08DED95E00E94A50785
:102C600062E080E00E94680662EA73E08DED95E024
:102C70000E94A507409130045091310460913204C4
:102C800070913304CE0101960E94B609CE010196DF
:102C90000E94B604CE0101960E94AE0963E080E076
:102CA0000E94680663ED72E08DED95E00E94A50735
:102CB00063E080E00E9468066AEA73E08DED95E0CB
:102CC0000E94A50740912A0450912B0460912C0486
:102CD00070912D0480913C0490913D04A0913E049C
:102CE000B0913F04481B590B6A0B7B0BCE01019638
:102CF0000E94B609CE0101960E94B604CE0101964B
:102D00000E94AE090E94E105A8CBCF93DF93C8E1F2
:102D1000D5E02697CE010E94AE0984E0C43FD807D3
:102D2000C1F7C7E7D5E02D97CE0107960E94AE09FF
:102D300085E0C932D807B9F78EE795E00E94AE0961
:102D40008BE895E00E94AE0988E995E00E94AE0903
:102D500085EA95E00E94AE0982EB95E00E94AE09FB
:102D60008FEB95E0DF91CF910C94AE09BB27FB016F
:102D70005527AA27880F991FAA1FA41710F0A41B74
:102D800083955051B9F7A05DAA3308F0A95DA193CE
:102D9000009779F7B111B1931192CB010C94D01631
:102DA000DC01FC01672F71917723E1F7329704C0B2
:102DB0007C916D9370836291AE17BF07C8F308953D
:102DC000F999FECF92BD81BDF89A992780B50895F3
:102DD000262FF999FECF1FBA92BD81BD20BD0FB637
:102DE000F894FA9AF99A0FBE01960895A1E21A2E64
:102DF000AA1BBB1BFD010DC0AA1FBB1FEE1FFF1F9F
:102E0000A217B307E407F50720F0A21BB30BE40BEE
:102E1000F50B661F771F881F991F1A9469F7609535
:102E20007095809590959B01AC01BD01CF010895EF
:102E3000EE0FFF1F881F8BBF0790F691E02D1994AE
:102E40000F931F93CF93DF938230910510F482E0AC
:102E500090E0E091EB05F091EC0530E020E0B0E08F
:102E6000A0E0309799F42115310509F44AC0281BD8
:102E7000390B24303105D8F58A819B8161157105A4
:102E800089F1FB0193838283FE0111C0408151814E
:102E90000281138148175907E0F04817590799F440
:102EA000109761F012960C93129713961C9332961A
:102EB000CF01DF91CF911F910F9108950093EB0502
:102EC0001093EC05F4CF2115310551F0421753074B
:102ED00038F0A901DB019A01BD01DF01F801C1CF82
:102EE000EF01F9CF9093EC058093EB05CDCFFE0178
:102EF000E20FF31F81939193225031093983288384
:102F0000D7CF2091E9053091EA05232B41F4209198
:102F10001602309117023093EA052093E9052091BB
:102F20001402309115022115310541F42DB73EB739
:102F30004091180250911902241B350BE091E905CC
:102F4000F091EA05E217F307A0F42E1B3F0B2817B8
:102F5000390778F0AC014E5F5F4F2417350748F012
:102F60004E0F5F1F5093EA054093E90581939193BB
:102F70009FCFF0E0E0E09CCFCF93DF930097E9F0A4
:102F8000FC01329713821282A091EB05B091EC05FF
:102F9000ED0130E020E01097A1F420813181820F13
:102FA000931F2091E9053091EA052817390709F0A8
:102FB00061C0F093EA05E093E905DF91CF910895B0
:102FC000EA01CE17DF07E8F54A815B819E014115D2
:102FD0005105B1F7E901FB83EA8349915991C40F87
:102FE000D51FEC17FD0761F4808191810296840F53
:102FF000951FE90199838883828193819B838A83CA
:10300000F0E0E0E012968D919C9113970097B9F54E
:103010002D913C911197CD010296820F931F209123
:10302000E9053091EA052817390739F6309751F547
:103030001092EC051092EB05B093EA05A093E90518
:10304000BCCFD383C28340815181840F951FC817A1
:10305000D90761F44E5F5F4F88819981480F591FEE
:10306000518340838A819B8193838283211531051B
:1030700009F0B0CFF093EC05E093EB059ECFFD0196
:10308000DC01C0CF13821282D7CF4F925F926F9232
:103090007F928F929F92AF92BF92CF92DF92EF92E8
:1030A000FF920F931F93CF93DF938C01009799F4B6
:1030B000CB01DF91CF911F910F91FF90EF90DF90A7
:1030C000CF90BF90AF909F908F907F906F905F90C8
:1030D0004F900C942017FC01E60FF71F9C01225023
:1030E0003109E217F30708F4AEC0D901CD91DC91A4
:1030F0001197C617D70720F1C530D10578F0CE015A
:1031000004978617970750F0C61BD70B2297C193D9
:10311000D1936D937C93CF010E94BC17C801DF91BE
:10312000CF911F910F91FF90EF90DF90CF90BF90C4
:10313000AF909F908F907F906F905F904F90089589
:103140005B01AC1ABD0A4C018C0E9D1EA091EB05D3
:10315000B091EC05512C412CF12CE12C109731F55C
:103160008091E9059091EA058815990509F05CC000
:103170004616570608F058C0809114029091150227
:10318000009741F48DB79EB74091180250911902F3
:10319000841B950BE817F90708F055C0F093EA0572
:1031A000E093E905F90171836083B8CF8D919C911B
:1031B000119712966C90129713967C901397A815FE
:1031C000B90559F56C0142E0C40ED11CCA14DB04E8
:1031D00020F1AC014A195B09DA011296159780F0CB
:1031E0006282738251834083D9016D937C93E11491
:1031F000F10471F0D7011396FC93EE9312978ECFE2
:1032000022968C0F9D1FF90191838083F301EFCFEC
:10321000F093EC05E093EB0581CF4816590608F4CE
:103220002C017D01D3019ACFCB010E9420177C0194
:10323000009749F0AE01B8010E942619C8010E940A
:10324000BC1787016BCF10E000E068CFFB01DC0109
:1032500002C001900D9241505040D8F70895FB01F3
:10326000DC0101900D920020E1F7089511E0C1E426
:10327000D1E000E006C0802FFE010E9418172196C1
:10328000011DC234D10780E00807A9F7F894FFCFE9
:1032900088048804880488048804880488048804CE
:1032A000000000010000ED05800000004000140057
:1032B0005400BC03C103CB03D30300000000000093
:1032C000000000000000D903DD03E203E903F50379
:1032D0000204000000000000000009040E041904AC
:1032E0001E040000000000000000000000000000BC
:1032F00000003F058904D6048C050705E504F904A0
:10330000000000009A068904DE05DD050D0A004371
:103310006F6E6669673A200046535F4B45593A2005
:10332000004D4F44453A20004C4150535F4E3A20E7
:103330000053454E534F525F49474E4F52455F54DD
:10334000494D453A20004D5554453A2000534156C9
:10335000455F524553554C54533A200020202020BD
:10336000202020202020202020202020202020205D
:1033700020202020202020003C2D002D3E003A005F
:10338000300046697273742073746172742C2077F4
:10339000726974696E672064656661756C74732EFA
:1033A0002E2E00446F6E65006C6173745F616464FF
:1033B000723A200052414345204D4F4445004C4154
:1033C0005053204E554D4245520053454E532049CF
:1033D000474E4F524520544D5400534156452054BA
:1033E0004F20454550524F4D004D55544520534FA9
:1033F000554E4453004C6170733A2000203A2052DD
:10340000656164792E2E2E005265616479005374D3
:103410006172746564004C61702000203A2000469F
:10342000696E6973686564200046696E69736865D2
:103430006400426573743A20200046696E616C3AFC
:10344000200064743A200069563A20005261636596
:103450000047657420726561647900526573756C0C
:10346000747300526574727900536574004D6F6413
:1034700065004C617073204E0049676E6F72652065
:1034800074696D65005361766520726573756C743F
:103490007300536F756E6473005465737400416CF0
:1034A0006C2076616C7565730054696D6500426CC3
:0434B000696E6B00D6
:00000001FF
