:100000000C9442010C94F6080C94CB080C94A008B4
:100010000C9475080C944A080C941F080C94F4076F
:100020000C94C9070C9473010C9473010C94730124
:100030000C9473010C9473010C9473010C94730170
:100040000C9473010C9473010C9473010C94730160
:100050000C9473010C9473010C9473010C947F073E
:100060000C9473010C944B090C9421090C947301AA
:100070000C9473010C9473010C9473010C94730130
:100080000C9473010C9473010C9473010C94730120
:100090000C9473010C9473010C9473010C94730110
:1000A0000C9473010C9473010C9473010C94730100
:1000B0000C9473010C9473010C9473010C947301F0
:1000C0000C9473010C9473010C9473010C947301E0
:1000D0000C9473010C9473010C9473010C947301D0
:1000E0000C9473010C94DC040C94CD040C94CB019F
:1000F0000C9488040C94C1010C9481090C94EA01BD
:100100000C94B6040C94EE010C9460060C9402025C
:100110000C94D4050C94E6010C94E0010C940602B6
:100120000C9436050C94FC010C94F4010C94D6014B
:100130000C94DF0D0C94FE040C94CF010C948305F9
:100140000C94F0040C94F8010C94C7010C948904ED
:100150000C94D5050C94DC010C9401020C94D30191
:1001600000002100240027002A002D003000330069
:1001700001010000040107010A010000220025001E
:1001800028002B002E003100340002010000050180
:1001900008010B01000020002300260029002C008C
:1001A0002F003200000100000301060109010505CE
:1001B0000505070508080808020202020A0A0808DD
:1001C000040404040101010101010101030303030B
:1001D00003030303040707070C0C0C0C0C0C0C0C9A
:1001E0000202020206060606060606060B0B0B0BAB
:1001F0000B0B0B0B010210202008081020401020D0
:1002000040800201020108040201010204081020DA
:1002100040808040201008040201800402018040D8
:100220002010080402010804020101020408102041
:100230004080010204081020408000000A0B0209DF
:100240000C0D0E0807030401000000000000000070
:10025000000000000000000000000000000000009E
:10026000000000000000121110000000000000005B
:10027000000000000000000000000000000000007E
:100280008109DF0D11241FBECFEFD1E2DEBFCDBF4C
:1002900000E00CBF24E0A0E6B2E001C01D92AF393F
:1002A000B207E1F712E0A0E0B2E0E8EFF0E200E030
:1002B0000BBF02C007900D92A036B107D9F711E02D
:1002C000C1E4D1E000E006C021970109802FFE01C2
:1002D0000E944C0EC034D10780E00807A9F70E94A5
:1002E000DA0A0C946A100C94000080917B00877FDE
:1002F00080937B0087E480937C0080917A00806407
:1003000080937A0080917A0086FDFCCF80917800FE
:100310009091790008958093BB0084E88093BC009D
:100320008091BC0087FFFCCF8091B900887F80322C
:1003300021F481E0809311020895803319F481E063
:100340008093120208958150823108F05AC0E82F3C
:10035000F0E08827E155FE4F8F4F0C944C0ECF01F3
:10036000D301C101C701CB010102D601DC01E001CB
:10037000E601EA01EE01F401F8010102FC010202CA
:100380000602809180008F7780938000089580918D
:1003900080008F7DF9CF80918000877FF5CF84B575
:1003A0008F7784BD089584B58F7DFBCF8091B00099
:1003B0008F778093B00008958091B0008F7DF9CF42
:1003C000809190008F7780939000089580919000A5
:1003D0008F7DF9CF80919000877FF5CF8091A0002D
:1003E0008F778093A00008958091A0008F7DF9CF32
:1003F0008091A000877FF5CF809120018F77809337
:1004000020010895809120018F7DF9CF80912001F6
:10041000877FF5CFCF93DF93282F30E0F901E65C9B
:10042000FD4F8491F901EC50FE4FD491F901E25552
:10043000FE4FC491CC23A1F081110E94A301EC2FA7
:10044000F0E0EE0FFF1FEC56FE4FA591B491EC913A
:10045000ED2381E090E009F480E0DF91CF910895F1
:1004600080E090E0FACF8F929F92AF92BF92CF92AE
:10047000DF92EF92FF920F931F93CF93DF938FB78B
:10048000F894C0907702D0907802E0907902F090D2
:100490007A028FBF80917C0484FF74C080908104B5
:1004A00090908204A0908304B090840490918D0475
:1004B0009111F6C080918B040E940A0220917D0464
:1004C000022F017010E021E00817190709F420E05D
:1004D00020938E04B701A601481959096A097B09BE
:1004E00020918E0490917B0491FB882780F9222330
:1004F00009F419C181111AC0413551056105710511
:10050000A8F0C0928104D0928204E0928304F09219
:100510008404997E9261906890937B0480917D041D
:10052000806280937D0440E050E0BA0180917D04B8
:1005300090917B0484FF12C04D3231E05307610576
:10054000710560F092FD05C083FDB4C082608093A8
:100550007D0480917D048F7E80937D0491FF12C085
:100560004D3B52406105710568F092FD0BC022239E
:1005700009F4A2C0916090937B0480917D048F7DEB
:1005800080937D0480918D04882309F4A2C090910A
:100590007C0496FB332730F9C32F80E0D82FCC0F93
:1005A000DD1F95FB882780F98C2B20917F0428176D
:1005B00009F469C01092800490917D0496FFB0C048
:1005C000833009F097C09F7B90937D04213009F41C
:1005D0008DC091E0223009F48AC090917C0493FD93
:1005E00003C0833009F493C0909180049923E1F112
:1005F00020917B04286020937B04409185045091D6
:100600008604609187047091880497018601041B19
:10061000150B260B370B40917E0450E070E060E034
:10062000041715072607370760F420917C04226021
:10063000913029F0923029F420917C04216020939C
:100640007C04C0928504D0928604E0928704F092E4
:10065000880420917C0424FF07C020918E0422236B
:1006600019F09E5F9093800480937F0480917B04B7
:10067000846080937B04C0928104D0928204E092D3
:100680008304F0928404DF91CF911F910F91FF902A
:10069000EF90DF90CF90BF90AF909F908F90089594
:1006A00087FB882780F980938E0414CF80917D0486
:1006B000886037CF84604BCF9D7F9E7F90937B0473
:1006C000C0928104D0928204E0928304F092840468
:1006D00059CF809189040E940A02C82F80918A0410
:1006E0000E940A02880F991F8C2B5FCF92E0909393
:1006F000800473CF30917C0433FD46C0811174CFE8
:100700009F7B90937D04213041F0223031F0909115
:100710007D04906490937D0467CF20938004F7CF8D
:100720008823A9F35ACF882309F400CF4135510516
:100730006105710508F4FACE92FD05C090FD03C075
:10074000906290937B044D3B52406105710528F007
:1007500080917B04806480937B0480917B04C092B1
:100760008104D0928204E0928304F09284048D7F0D
:100770008E7F80937B0480917D0485FF97CF84FDDD
:1007800095CF8061877FCDCE882309F26DCF1F93EF
:10079000CF93DF93282F30E0F901E65CFD4F849181
:1007A000F901EC50FE4FD491F901E255FE4FC4918E
:1007B000CC23A9F0162F81110E94A301EC2FF0E0A9
:1007C000EE0FFF1FE658FE4FA591B4918FB7F89436
:1007D000EC91111108C0D095DE23DC938FBFDF911F
:1007E000CF911F910895DE2BF8CFCF93DF9390E048
:1007F000FC01EC50FE4F249182559E4FFC018491E8
:100800008823C9F090E0880F991FFC01E05AFE4F41
:10081000A591B491FC01E658FE4FC591D4916111A8
:100820000DC09FB7F8948C91209582238C9388817A
:10083000282328839FBFDF91CF910895623051F420
:100840009FB7F8943C91822F809583238C93E88105
:100850002E2BEFCF8FB7F894EC912E2B2C938FBFCC
:10086000EACF3FB7F8948091730290917402A091FF
:100870007502B091760226B5A89B05C02F3F19F0EE
:100880000196A11DB11D3FBFBA2FA92F982F882710
:10089000BC01CD01620F711D811D911D42E0660FEB
:1008A000771F881F991F4A95D1F708958F929F92BD
:1008B000AF92BF92CF92DF92EF92FF924B015C0119
:1008C0000E9431046B017C010E9431046C197D0986
:1008D0008E099F09683E734081059105A8F321E0C8
:1008E000821A9108A108B10888EEC80E83E0D81ECC
:1008F000E11CF11C81149104A104B10429F7FF90BB
:10090000EF90DF90CF90BF90AF909F908F90089521
:100910000895AF92BF92CF92DF92EF92FF920F9322
:100920001F93CF93DF936C017B018B01040F151F85
:10093000EB015E01AE18BF08C017D10759F06991ED
:10094000D601ED91FC910190F081E02DC601199541
:10095000892B79F7C501DF91CF911F910F91FF90FE
:10096000EF90DF90CF90BF90AF90089580916E028E
:1009700090916F02A0917002B09171028093620217
:1009800090936302A0936402B09365020E94750184
:1009900090936102809360020895FC01538D448D11
:1009A000252F30E0842F90E0821B930B541710F01A
:1009B000CF96089501970895FC01918D828D981727
:1009C00061F0A28DAE0FBF2FB11D5D968C91928DFF
:1009D0009F5F9F73928F90E008958FEF9FEF089530
:1009E000FC01918D828D981731F0828DE80FF11DF9
:1009F000858D90E008958FEF9FEF0895FC01918D14
:100A0000228D892F90E0805C9F4F821B91098F730C
:100A1000992708958BE792E00E94FE0421E0892B3C
:100A200009F420E0822F0895FC01A48DA80FB92FAE
:100A3000B11DA35ABF4F2C91848D90E001968F7306
:100A40009927848FA689B7892C93A089B1898C9125
:100A5000837080648C93938D848D981306C0028874
:100A6000F389E02D80818F7D80830895EF92FF923E
:100A70000F931F93CF93DF93EC0181E0888F9B8DC1
:100A80008C8D98131AC0E889F989808185FF15C07B
:100A90009FB7F894EE89FF896083E889F98980819E
:100AA0008370806480839FBF81E090E0DF91CF916D
:100AB0001F910F91FF90EF900895F62E0B8D10E08F
:100AC0000F5F1F4F0F731127E02E8C8D8E110CC0FE
:100AD0000FB607FCFACFE889F989808185FFF5CF49
:100AE000CE010E941405F1CFEB8DEC0FFD2FF11D0F
:100AF000E35AFF4FF0829FB7F8940B8FEA89FB8986
:100B000080818062CFCFCF93DF93EC01888D8823E3
:100B1000B9F0AA89BB89E889F9898C9185FD03C060
:100B2000808186FD0DC00FB607FCF7CF8C9185FF45
:100B3000F2CF808185FFEDCFCE010E941405E9CF71
:100B4000DF91CF91089580E090E0892B29F00E94F9
:100B50000A0581110E94000080E090E0892B49F095
:100B600080E090E0892B29F00E94000081110E9412
:100B7000000080E090E0892B49F080E090E0892B34
:100B800029F00E94000081110E94000080E090E0A6
:100B9000892B49F080E090E0892B29F00E94000029
:100BA00081110C9400000895089590E080E008956C
:100BB0001F93CF93DF93EC01162F8C8194EA9093CF
:100BC000BC009091BC0097FFFCCF880F0E948B0166
:100BD0008B85812B0E948B0184E98093BC008091DE
:100BE0001102882329F0109211021092120204C0FF
:100BF000809112028111F9CFDF91CF911F91089559
:100C00000F931F93CF938C01C62F0E94D8056C2F92
:100C10006460C8010E94D8056C2F6B7FC8010E94D8
:100C2000D80583EC90E00197F1F7CF911F910F91D8
:100C300008950F931F93CF93DF938C01D62FC42F6A
:100C4000607F642B0E94000680E1D89FB0011124D0
:100C50006C2BC801DF91CF911F910F910C9400066E
:100C6000CF93DF9300D000D01F921F92CDB7DEB795
:100C700098E0EAE1F2E0DE01119601900D929A957A
:100C8000E1F790919704981710F48FEF890F90E097
:100C9000880F991F21E030E02C0F3D1F820F931F1A
:100CA000FC016081606840E08FE894E028960FB610
:100CB000F894DEBF0FBECDBFDF91CF910C94190623
:100CC00041E00E94190681E090E00895FB01019047
:100CD0000020E9F73197AF01461B570BDC01ED917E
:100CE000FC910280F381E02D19948F929F92AF9234
:100CF000BF92EF92FF920F931F93CF93DF93CDB7E5
:100D0000DEB7A1970FB6F894DEBF0FBECDBF7C0152
:100D1000FA01CB0119A2223008F42AE08E010F5DFE
:100D20001F4F822E912CB12CA12CBF01A501940143
:100D30000E942A0EF901CA016A300CF5605DD801E3
:100D40006E938D01232B242B252B79F790E080E0E7
:100D5000109721F0BD01C7010E946606A1960FB64B
:100D6000F894DEBF0FBECDBFDF91CF911F910F91E1
:100D7000FF90EF90BF90AF909F908F900895695C27
:100D8000DECF0C946606FC0180819181009711F002
:100D90000C94F00E08950F931F93CF93DF93EC0103
:100DA00088819981009759F02A813B81261737075E
:100DB00030F081E0DF91CF911F910F9108958B0169
:100DC0006F5F7F4F0E94790F009759F09983888356
:100DD0001B830A832C813D81232B59F7FC01108250
:100DE000E8CF80E0E7CFEF92FF920F931F93CF936E
:100DF000DF93EC01DB018C91888311964D915D911D
:100E00006D917C91149749835A836B837C831596EB
:100E10008D919C9116979E838D83CE01079618869F
:100E20001F821A8619861C861B869D01295F3F4FEB
:100E300082179307E9F017960D911C9118970115E9
:100E40001105B1F01B96ED90FC90B7010E94CB0606
:100E50002F813885811113C02115310519F0C90181
:100E60000E94F00E18861F821C861B861A86198621
:100E7000DF91CF911F910F91FF90EF900895FC8625
:100E8000EB86B801C901DF91CF911F910F91FF90BF
:100E9000EF900C946310CF93DF93EC0170E060E06F
:100EA0000E94CB062881398181110FC0211531059F
:100EB00019F0C9010E94F00E198218821D821C824D
:100EC0001B821A82DF91CF9108951D821C8261E4FA
:100ED00072E0C901DF91CF910C946310FC01108284
:100EE0001182128213821482168215821086178252
:100EF000128611861486138607960C944B071F9250
:100F00000F920FB60F9211242F933F938F939F93BD
:100F1000AF93BF938091770290917802A09179026C
:100F2000B0917A023091720223E0230F2D3758F5E9
:100F30000196A11DB11D20937202809377029093B8
:100F40007802A0937902B0937A0280917302909113
:100F50007402A0917502B09176020196A11DB11D97
:100F60008093730290937402A0937502B0937602FB
:100F7000BF91AF919F918F913F912F910F900FBE95
:100F80000F901F90189526E8230F0296A11DB11D02
:100F9000D2CF1F920F920FB60F9211240BB60F9261
:100FA0002F933F934F935F936F937F938F939F9371
:100FB000AF93BF93EF93FF93E0910E02F0910F0276
:100FC0001995FF91EF91BF91AF919F918F917F9173
:100FD0006F915F914F913F912F910F900BBE0F90AA
:100FE0000FBE0F901F9018951F920F920FB60F9281
:100FF00011240BB60F922F933F934F935F936F93F0
:101000007F938F939F93AF93BF93EF93FF93E09161
:101010000C02F0910D021995FF91EF91BF91AF91E4
:101020009F918F917F916F915F914F913F912F9100
:101030000F900BBE0F900FBE0F901F9018951F9230
:101040000F920FB60F9211240BB60F922F933F936E
:101050004F935F936F937F938F939F93AF93BF93C0
:10106000EF93FF93E0910202F09103021995FF9133
:10107000EF91BF91AF919F918F917F916F915F9110
:101080004F913F912F910F900BBE0F900FBE0F907D
:101090001F9018951F920F920FB60F9211240BB646
:1010A0000F922F933F934F935F936F937F938F9301
:1010B0009F93AF93BF93EF93FF93E0910002F09162
:1010C00001021995FF91EF91BF91AF919F918F917F
:1010D0007F916F915F914F913F912F910F900BBE38
:1010E0000F900FBE0F901F9018951F920F920FB682
:1010F0000F9211240BB60F922F933F934F935F9350
:101100006F937F938F939F93AF93BF93EF93FF93CF
:10111000E0910A02F0910B021995FF91EF91BF91B6
:10112000AF919F918F917F916F915F914F913F917F
:101130002F910F900BBE0F900FBE0F901F90189520
:101140001F920F920FB60F9211240BB60F922F938E
:101150003F934F935F936F937F938F939F93AF933F
:10116000BF93EF93FF93E0910802F0910902199564
:10117000FF91EF91BF91AF919F918F917F916F916F
:101180005F914F913F912F910F900BBE0F900FBE2B
:101190000F901F9018951F920F920FB60F92112467
:1011A0000BB60F922F933F934F935F936F937F9361
:1011B0008F939F93AF93BF93EF93FF93E0910602BA
:1011C000F09107021995FF91EF91BF91AF919F9117
:1011D0008F917F916F915F914F913F912F910F90E0
:1011E0000BBE0F900FBE0F901F9018951F920F927D
:1011F0000FB60F9211240BB60F922F933F934F937C
:101200005F936F937F938F939F93AF93BF93EF936E
:10121000FF93E0910402F09105021995FF91EF917F
:10122000BF91AF919F918F917F916F915F914F91FE
:101230003F912F910F900BBE0F900FBE0F901F90FC
:1012400018951F920F920FB60F9211240BB60F92A2
:101250002F933F934F935F936F937F938F939F93BE
:10126000AF93BF93EF93FF938BE792E00E94140537
:10127000FF91EF91BF91AF919F918F917F916F916E
:101280005F914F913F912F910F900BBE0F900FBE2A
:101290000F901F9018951F920F920FB60F92112466
:1012A0000BB60F922F938F939F93EF93FF93E09141
:1012B0008B02F0918C028081E0919102F091920278
:1012C00082FD1DC09081809194028F5F8F73209169
:1012D0009502821741F0E0919402F0E0E558FD4F4D
:1012E000958F80939402FF91EF919F918F912F9111
:1012F0000F900BBE0F900FBE0F901F90189580811E
:10130000F2CFCF9310927E0210927D0288EE93E08E
:10131000A0E0B0E080937F0290938002A0938102CE
:10132000B093820286E292E090937C0280937B02EB
:1013300085EC90E0909388028093870284EC90E0A3
:1013400090938A028093890280EC90E090938C02C3
:1013500080938B0281EC90E090938E0280938D02BB
:1013600082EC90E09093900280938F0286EC90E064
:10137000909392028093910210929402109295029F
:101380001092960210929702109292041092910479
:1013900088E392E09093900480938F0487E2809397
:1013A000930484E18093980484E0809399041092DC
:1013B0009A0492E390937E0410927F04109280042A
:1013C000109281041092820410928304109284047B
:1013D000109285041092860410928704109288045B
:1013E00010928C0410928D0410928E0492E09093CF
:1013F000890493E090938A0480938B0480917C0409
:101400008061877F80937C0462E082E00E94F50324
:1014100062E080918A040E94F50380917C0484FF3D
:1014200005C062E080918B040E94F50380917D04E9
:10143000816080937D04809189040E940A02C82FF4
:1014400080918A040E940A02880F991F8C2B809336
:101450007F0481E090E090936B0480936A0483E0C2
:1014600090E090936D0480936C0410926E0410923F
:10147000700410926F041092720410927104109212
:101480007404109273048FE694E00E944B0710924C
:1014900076041092750410927804109277041092DA
:1014A0007A041092790485E794E00E944B078DE559
:1014B00094E00E946E0780E594E00E946E0783E44A
:1014C00094E00E946E0786E394E00E946E0789E232
:1014D00094E00E946E078CE194E00E946E078FE01A
:1014E00094E00E946E0782E094E00E946E0785EF10
:1014F00093E00E946E0788EE93E00E946E078BEDEA
:1015000093E00E946E078EEC93E00E946E0781ECE0
:1015100093E00E946E076DE574E088E193E00E941D
:10152000F30660E574E085E293E00E94F30663E46D
:1015300074E082E393E00E94F30666E374E08FE3D5
:1015400093E00E94F30669E274E08CE493E00E9469
:10155000F3066CE174E089E593E00E94F3066FE026
:1015600074E086E693E00E94F30662E074E083E7AD
:1015700093E00E94F30665EF73E080E893E00E9439
:10158000F30668EE73E08DE893E00E94F3066BEDDE
:1015900073E08AE993E00E94F3066EEC73E087EA59
:1015A00093E00E94F30661EC73E084EB93E0CF914B
:1015B0000C94F306789484B5826084BD84B5816010
:1015C00084BD85B5826085BD85B5816085BD80910E
:1015D0006E00816080936E00109281008091810086
:1015E000826080938100809181008160809381007E
:1015F000809180008160809380008091B100846040
:101600008093B1008091B00081608093B0008091A0
:10161000910082608093910080919100816080931D
:101620009100809190008160809390008091A10052
:1016300082608093A1008091A10081608093A100CD
:101640008091A00081608093A00080912101826040
:1016500080932101809121018160809321018091FB
:10166000200181608093200180917A0084608093C2
:101670007A0080917A00826080937A0080917A006B
:10168000816080937A0080917A00806880937A00EC
:101690001092C100E0918B02F0918C0282E0808375
:1016A000E0918702F09188021082E0918902F09126
:1016B0008A028FEC808310929302E0918F02F09166
:1016C000900286E08083E0918D02F0918E0280810D
:1016D00080618083E0918D02F0918E02808188602C
:1016E0008083E0918D02F0918E02808180688083FA
:1016F000E0918D02F0918E0280818F7D808362E087
:1017000084E10E94F50362E085E10E94F50388E42C
:101710008093B8001092B9001092940480919904BB
:10172000823018F098E0909394048093970462E3D9
:1017300070E080E090E00E94560460919A048FE887
:1017400094E00E94D80568EE73E080E090E00E948B
:10175000560460E38FE894E00E940006CBE4D6E4F0
:10176000CE010197F1F760E38FE894E00E94000654
:101770002197F1F760E38FE894E00E94000683E58B
:1017800092E00197F1F760E28FE894E00E94000692
:1017900060919404606240E08FE894E00E94190632
:1017A00084E08093950440E06CE08FE894E00E9430
:1017B000190640E061E08FE894E00E941906CBE34F
:1017C000DFE1CE010197F1F782E08093960440E0DB
:1017D00066E08FE894E00E94190640E062E08FE83E
:1017E00094E00E9419062197F1F788E080939A040B
:1017F00060E08FE894E00E94D80580917C04877FA8
:1018000080937C0461E087E00E94F50361E086E05C
:101810000E94F50361E085E00E94F50361E089E044
:101820000E94F50361E088E00E94F50360E08DE32B
:101830000E94F50360E082E10E94F50361E087E029
:101840000E94C70360E086E00E94C70360E085E075
:101850000E94C70361E085E00E94C70360E089E061
:101860000E94C70361E088E00E94C70386EB94E012
:1018700090930B0280930A0280916900806C8093A0
:101880006900EB9AC1E02FB7F894809177029091AC
:101890007802A0917902B0917A022FBF80936E02F4
:1018A00090936F02A0937002B093710280916202D4
:1018B00090916302A0916402B0916502892B8A2BFA
:1018C0008B2B31F180916002909161024091620214
:1018D0005091630260916402709165024093260307
:1018E00050932703609328037093290390932B034D
:1018F00080932A03C0932503109262021092630220
:1019000010926402109265021092610210926002BD
:1019100080917C0482FD0E9433028091800481309A
:1019200081F41092800410929B0310929C031092F9
:101930009D0310929E031092A00310929F03809328
:101940009A0380917C0482FD0E943302809180047E
:10195000823081F4109280041092A8031092A9039F
:101960001092AA031092AB031092AD031092AC0335
:10197000C093A70380917C0482FD0E943302809172
:101980007B0485FF11C08F7D80937B041092B5038B
:101990001092B6031092B7031092B8031092BA03D4
:1019A0001092B903C093B40380912503882309F4EE
:1019B00067C04091260350912703609128037091DE
:1019C00029038091660290916702A0916802B0910C
:1019D0006902481B590B6A0B7B0B2AE08BE792E0EC
:1019E0000E94750660E472E08BE792E00E94C106F7
:1019F00040912A0350912B0370E060E02AE08BE7CE
:101A000092E00E94750662E472E08BE792E00E9429
:101A1000C10681E00E94300665E472E08FE894E040
:101A20000E94C10681E00E94300640912603509139
:101A30002703609128037091290380916602909199
:101A40006702A0916802B0916902481B590B6A0BAA
:101A50007B0B2AE08FE894E00E94750680912603B4
:101A600090912703A0912803B091290380936602E7
:101A700090936702A0936802B093690210922503C5
:101A800080919A038823A1F083E00E94300665E4E8
:101A900072E08FE894E00E94C10683E00E94300665
:101AA0006FE472E08FE894E00E94C10610929A03FE
:101AB0008091A7038823A1F083E00E94300665E4AB
:101AC00072E08FE894E00E94C10683E00E94300635
:101AD00064E572E08FE894E00E94C1061092A703CB
:101AE0008091B4038823A1F083E00E94300665E46E
:101AF00072E08FE894E00E94C10683E00E94300605
:101B00006AE572E08FE894E00E94C1061092B40387
:101B100080916A0290916B02A0916C02B0916D026B
:101B2000845D9E4FAF4FBF4F40916E0250916F0248
:101B3000609170027091710284179507A607B7072C
:101B4000C8F582E00E94300665E472E08FE894E018
:101B50000E94C10682E00E9430060E9475016C015D
:101B6000990FEE08FF082AE0B701A601F7FE0EC0A4
:101B700041E06DE28FE894E00E9419064427552762
:101B8000BA014C195D096E097F092AE08FE894E0DB
:101B90000E94750680916E0290916F02A091700272
:101BA000B091710280936A0290936B02A0936C02D1
:101BB000B0936D020E9433020E94A30564CECF93BE
:101BC000DF93C1ECD3E02D97CE0107960E94C306A8
:101BD00083E0C831D807B9F788EC93E00E94C306C8
:101BE00085ED93E00E94C30682EE93E00E94C30657
:101BF0008FEE93E00E94C3068CEF93E00E94C30631
:101C000089E094E00E94C30686E194E00E94C30646
:101C100083E294E00E94C30680E394E00E94C3063E
:101C20008DE394E00E94C3068AE494E00E94C30618
:101C300087E594E00E94C30684E694E00E94C30610
:101C400085E794E00E94C3068FE694E0DF91CF9190
:101C50000C94C306A1E21A2EAA1BBB1BFD010DC0EA
:101C6000AA1FBB1FEE1FFF1FA217B307E407F5074C
:101C700020F0A21BB30BE40BF50B661F771F881F28
:101C8000991F1A9469F760957095809590959B01BE
:101C9000AC01BD01CF010895EE0FFF1F881F8BBF60
:101CA0000790F691E02D19940F931F93CF93DF9334
:101CB0008230910510F482E090E0E0919D04F09173
:101CC0009E0430E020E0B0E0A0E0309799F42115C8
:101CD000310509F44AC0281B390B24303105D8F5E9
:101CE0008A819B816115710589F1FB019383828350
:101CF000FE0111C0408151810281138148175907AB
:101D0000E0F04817590799F4109761F012960C9378
:101D1000129713961C933296CF01DF91CF911F91AA
:101D20000F91089500939D0410939E04F4CF211504
:101D3000310551F04217530738F0A901DB019A0130
:101D4000BD01DF01F801C1CFEF01F9CF90939E04EF
:101D500080939D04CDCFFE01E20FF31F81939193F9
:101D60002250310939832883D7CF20919B043091A9
:101D70009C04232B41F420911602309117023093DA
:101D80009C0420939B04209114023091150221158C
:101D9000310541F42DB73EB7409118025091190218
:101DA000241B350BE0919B04F0919C04E217F30790
:101DB000A0F42E1B3F0B2817390778F0AC014E5FBB
:101DC0005F4F2417350748F04E0F5F1F50939C0458
:101DD00040939B04819391939FCFF0E0E0E09CCFF0
:101DE000CF93DF930097E9F0FC01329713821282C0
:101DF000A0919D04B0919E04ED0130E020E0109789
:101E0000A1F420813181820F931F20919B04309196
:101E10009C042817390709F061C0F0939C04E093F3
:101E20009B04DF91CF910895EA01CE17DF07E8F513
:101E30004A815B819E0141155105B1F7E901FB83A0
:101E4000EA8349915991C40FD51FEC17FD0761F43E
:101E5000808191810296840F951FE901998388837F
:101E6000828193819B838A83F0E0E0E012968D91DA
:101E70009C9113970097B9F52D913C911197CD0145
:101E80000296820F931F20919B0430919C04281787
:101E9000390739F6309751F510929E0410929D043F
:101EA000B0939C04A0939B04BCCFD383C283408196
:101EB0005181840F951FC817D90761F44E5F5F4F9A
:101EC00088819981480F591F518340838A819B8162
:101ED000938382832115310509F0B0CFF0939E04DE
:101EE000E0939D049ECFFD01DC01C0CF13821282DE
:101EF000D7CF4F925F926F927F928F929F92AF92C5
:101F0000BF92CF92DF92EF92FF920F931F93CF93E6
:101F1000DF938C01009799F4CB01DF91CF911F9152
:101F20000F91FF90EF90DF90CF90BF90AF909F9078
:101F30008F907F906F905F904F900C94540EFC01A7
:101F4000E60FF71F9C0122503109E217F30708F44E
:101F5000AEC0D901CD91DC911197C617D70720F1FA
:101F6000C530D10578F0CE0104978617970750F059
:101F7000C61BD70B2297C193D1936D937C93CF014E
:101F80000E94F00EC801DF91CF911F910F91FF9039
:101F9000EF90DF90CF90BF90AF909F908F907F9009
:101FA0006F905F904F9008955B01AC1ABD0A4C0191
:101FB0008C0E9D1EA0919D04B0919E04512C412C2D
:101FC000F12CE12C109731F580919B0490919C04A9
:101FD0008815990509F05CC04616570608F058C0E8
:101FE0008091140290911502009741F48DB79EB72D
:101FF0004091180250911902841B950BE817F907BC
:1020000008F055C0F0939C04E0939B04F9017183A0
:102010006083B8CF8D919C91119712966C90129716
:1020200013967C901397A815B90559F56C0142E0F9
:10203000C40ED11CCA14DB0420F1AC014A195B099F
:10204000DA011296159780F0628273825183408381
:10205000D9016D937C93E114F10471F0D7011396CB
:10206000FC93EE9312978ECF22968C0F9D1FF90151
:1020700091838083F301EFCFF0939E04E0939D045E
:1020800081CF4816590608F42C017D01D3019ACF5F
:10209000CB010E94540E7C01009749F0AE01B801BB
:1020A0000E945A10C8010E94F00E87016BCF10E009
:1020B00000E068CFFB01DC0102C001900D924150AD
:1020C0005040D8F70895FB01DC0101900D920020EB
:1020D000E1F7089511E0C1E4D1E000E006C0802FEF
:1020E000FE010E944C0E2196011DC234D10780E0F2
:0820F0000807A9F7F894FFCFDF
:1020F8008804880488048804880488048804880478
:102108000000000100009F0480000000400014004F
:1021180054000000000036058904CD048305FE0440
:10212800DC04F0040000000060068904D505D4052D
:102138000900090A00202020202020202020006CEF
:1021480065667400726967687400636C69636B0024
:00000001FF
