:100000000C94D3000C94FB000C94FB000C94FB00AC
:100010000C94FB000C94FB000C94FB000C94FB0074
:100020000C94FB000C94FB000C94C0090C942F0A58
:100030000C94FB000C94FB000C94FB000C94FB0054
:100040000C94FB000C94FB000C94FB000C94FB0044
:100050000C94FB000C94FB000C94FB000C947609B0
:100060000C94FB000C94FB000C94FB000C94FB0024
:100070000C94FB000C94FB000C94FB000C94FB0014
:100080000C94FB000C94FB000C94FB000C94FB0004
:100090000C94FB000C94FB000C94FB000C94FB00F4
:1000A0000C94FB000C94FB000C94FB00080B00026A
:1000B0000202000009040000010202000005240001
:1000C0001001052401010104240206052406000193
:1000D0000705810310004009040100020A00000026
:1000E00007050202400000070583024000000403E8
:1000F000090412010002EF0201404123388000018F
:100100000102030141726475696E6F204C4C43001B
:10011000526F626F7420436F6E74726F6C000000D8
:100120000000240027002A002D00300000000000FD
:10013000250028002B002E003100000000002300C5
:10014000260029002C002F000404040404030405E5
:100150000202020204030202020206060606060664
:10016000040402020204040802011040804010202E
:10017000408040800802040180402010020110806D
:10018000102040400000000200090F00000304019D
:10019000000C00000000070605040100080A0B0C13
:1001A0000D09610C511111241FBECFEFDAE0DEBF43
:1001B000CDBF22E0ACEFB1E001C01D92A43AB2077E
:1001C000E1F711E0A0E0B1E0E6E6F7E202C0059059
:1001D0000D92AC3FB107D9F710E0C2EDD0E004C0FA
:1001E0002197FE010E94AE11C13DD107C9F70E94BF
:1001F0001A0D0C94A6130C940000EDE9F1E0E491C3
:1002000090917B008E2F880F880F80729F7D892BA5
:1002100080937B00E770E064E0937C0080917A003B
:10022000806480937A0080917A0086FDFCCF809173
:1002300078009091790008958093BB0084E88093C2
:10024000BC008091BC0087FFFCCF8091B900887F03
:10025000803221F481E0809318010895803319F4ED
:1002600081E0809319010895FC0180911A0288238E
:1002700011F13FB7F89482E08093E9002091F200F9
:10028000822F90E01816190614F481E090E088237C
:1002900039F0289844E6409319024091F1004083D8
:1002A000222339F02091F200211103C02BE6209384
:1002B000E8003FBF08958FEF9FEF08952FB7F894A0
:1002C00083E08093E9009091E800892F807295FF88
:1002D00004C09091F20080E4891B2FBF08958091A3
:1002E000110281110DC082E080930D0284E08093A1
:1002F0000E021092100210920F0281E08093110200
:100300008DE092E0089581508F3008F047C0E82FCB
:10031000F0E0E357FE4F0C94AE11AA01AE019C0130
:10032000A201A601CE01CE01CE01B101B701BB01F0
:10033000BF01C501CE01C901809180008F778093F4
:1003400080000895809180008F7DF9CF809180009A
:10035000877FF5CF84B58F7784BD089584B58F7D71
:10036000FBCF809190008F778093900008958091CB
:1003700090008F7DF9CF80919000877FF5CF80919D
:10038000C0008F778093C00008958091C0008F7D5A
:10039000F9CF8091C200877F8093C2000895CF93E8
:1003A000DF93282F30E0F901EC57FE4F8491F901DB
:1003B000EA59FE4FD491F901E85BFE4FC491CC237A
:1003C000A1F081110E948301EC2FF0E0EE0FFF1FDE
:1003D000E65CFE4FA591B491EC91ED2381E090E0B5
:1003E00009F480E0DF91CF91089580E090E0FACFAA
:1003F0008F929F92AF92BF92CF92DF92EF92FF9235
:100400000F931F93CF93DF938FB7F894C0901B0285
:10041000D0901C02E0901D02F0901E028FBF8091D0
:10042000810284FF74C08090860290908702A09021
:100430008802B0908902909192029111F6C0809149
:1004400090020E94CF0120918202022F017010E0E1
:1004500021E00817190709F420E020939302B7015F
:10046000A601481959096A097B09209193029091C4
:10047000800291FB882780F9222309F419C1811198
:100480001AC04135510561057105A8F0C092860278
:10049000D0928702E0928802F0928902997E92615E
:1004A00090689093800280918202806280938202A1
:1004B00040E050E0BA01809182029091800284FF76
:1004C00012C04D3231E053076105710560F092FDB5
:1004D00005C083FDB4C08260809382028091820255
:1004E0008F7E8093820291FF12C04D3B5240610586
:1004F000710568F092FD0BC0222309F4A2C091603F
:1005000090938002809182028F7D809382028091FD
:100510009202882309F4A2C09091810296FB3327AE
:1005200030F9C32F80E0D82FCC0FDD1F95FB882733
:1005300080F98C2B20918402281709F469C010924D
:1005400085029091820296FFB0C0833009F097C077
:100550009F7B90938202213009F48DC091E022307C
:1005600009F48AC09091810293FD03C0833009F49D
:1005700093C0909185029923E1F120918002286037
:100580002093800240918A0250918B0260918C02EC
:1005900070918D0297018601041B150B260B370BFA
:1005A0004091830250E070E060E0041715072607D1
:1005B000370760F4209181022260913029F0923057
:1005C00029F420918102216020938102C0928A0245
:1005D000D0928B02E0928C02F0928D0220918102E7
:1005E00024FF07C020919302222319F09E5F90936D
:1005F00085028093840280918002846080938002CF
:10060000C0928602D0928702E0928802F09289021C
:10061000DF91CF911F910F91FF90EF90DF90CF90DE
:10062000BF90AF909F908F90089587FB882780F9A7
:100630008093930214CF80918202886037CF8460C8
:100640004BCF9D7F9E7F90938002C0928602D09276
:100650008702E0928802F092890259CF80918E023F
:100660000E94CF01C82F80918F020E94CF01880F76
:10067000991F8C2B5FCF92E09093850273CF3091BE
:10068000810233FD46C0811174CF9F7B909382021B
:10069000213041F0223031F09091820290649093A9
:1006A000820267CF20938502F7CF8823A9F35ACF20
:1006B000882309F400CF413551056105710508F41F
:1006C000FACE92FD05C090FD03C090629093800227
:1006D0004D3B52406105710528F080918002806495
:1006E0008093800280918002C0928602D09287021D
:1006F000E0928802F09289028D7F8E7F8093800243
:100700008091820285FF97CF84FD95CF8061877F9E
:10071000CDCE882309F26DCF1F93CF93DF93282F7F
:1007200030E0F901EC57FE4F8491F901EA59FE4F90
:10073000D491F901E85BFE4FC491CC23A9F0162FA8
:1007400081110E948301EC2FF0E0EE0FFF1FE45DAA
:10075000FE4FA591B4918FB7F894EC91111108C098
:10076000D095DE23DC938FBFDF91CF911F91089549
:10077000DE2BF8CFCF93DF9390E0FC01EA59FE4FD8
:100780002491885B9E4FFC0184918823C9F090E0FE
:10079000880F991FFC01E25EFE4FA591B491FC0108
:1007A000E45DFE4FC591D49161110DC09FB7F894DF
:1007B0008C91209582238C938881282328839FBF46
:1007C000DF91CF910895623051F49FB7F8943C9136
:1007D000822F809583238C93E8812E2BEFCF8FB7C8
:1007E000F894EC912E2B2C938FBFEACF3FB7F8945F
:1007F0008091090290910A02A0910B02B0910C0223
:1008000026B5A89B05C02F3F19F00196A11DB11D6B
:100810003FBFBA2FA92F982F8827BC01CD01620FA7
:10082000711D811D911D42E0660F771F881F991F62
:100830004A95D1F708958F929F92AF92BF92CF922F
:10084000DF92EF92FF924B015C010E94F6036B0175
:100850007C010E94F6036C197D098E099F09683E90
:10086000734081059105A8F321E0821A9108A1083F
:10087000B10888EEC80E83E0D81EE11CF11C81147B
:100880009104A104B10429F7FF90EF90DF90CF907D
:10089000BF90AF909F908F9008950895409102026D
:1008A0005091030220910002309101024217530738
:1008B000B4F49091E8009570E1F39091E80092FD16
:1008C00019C08093F1008091020290910302019679
:1008D0008F739927892B19F48EEF8093E80080910C
:1008E0000202909103020196909303028093020208
:1008F00081E0089580E00895EF92FF920F931F9397
:10090000CF93DF93F82E192FE62E042F81E0860F68
:10091000880F0E944E0483E00E944E04CF2DD12FF9
:10092000EC0EFD2EF11CCE15DF05B9F007FF13C04C
:10093000FE0184910E944E04182F80E00E944E0414
:10094000812321968111EFCFDF91CF911F910F91DC
:10095000FF90EF9008958881EDCF81E0F5CFDF9291
:10096000EF92FF920F931F93CF93DF93D82E8A01BC
:10097000EB017B01E40EF51ECE15DF0559F0D7FE25
:1009800012C0FE0184910E944E0421968111F4CF81
:100990000FEF1FEFC801DF91CF911F910F91FF90D3
:1009A000EF90DF9008958881EECF0F931F93CF9340
:1009B000DF931F92CDB7DEB782E0898342E450E037
:1009C0006CEA70E080E80E94AF040E946F01DC01D5
:1009D00012960D911C910115110589F0D801ED9128
:1009E000FC910280F381E02DBE016F5F7F4FC80153
:1009F000099597FD04C0F80100851185ECCF898128
:100A00000F90DF91CF911F910F910895615030F0B9
:100A10002091F100FC0120830196F8CF289884E60C
:100A2000809319020895AF92BF92CF92DF92EF9216
:100A3000FF920F931F93CF93DF936C017B018B0188
:100A4000040F151FEB015E01AE18BF08C017D107D8
:100A500059F06991D601ED91FC910190F081E02D62
:100A6000C6010995892B79F7C501DF91CF911F91B7
:100A70000F91FF90EF90DF90CF90BF90AF900895CF
:100A80008F929F92AF92BF92CF92DF92EF92FF929E
:100A90000F931F93CF93DF936C017B018A018091A9
:100AA0001601882309F45CC080911A02882309F496
:100AB00057C08091060280FF05C08091E0008260EF
:100AC0008093E000E801B12C8AEFA82E93E0892EF4
:100AD0002AE3922E209711F4BB20D9F10E945E01E7
:100AE00081110AC0AA94AA20D9F161E070E080E0E7
:100AF00090E00E941B04EECF8C171D0611F00CF045
:100B00008C2F9FB7F8948092E9002091E80025FD92
:100B100002C09FBFDFCF282F30E0C21BD30BF701ED
:100B2000815020F041914093F100FACFE20EF31E84
:100B3000BB2021F09092E800B12CEBCF8091E8002F
:100B400085FDE7CF9092E800BB24B394209709F38A
:100B5000F3CF5D9884E680930702101611063CF0EF
:100B600081E090E0F6019383828310E000E0C80109
:100B7000DF91CF911F910F91FF90EF90DF90CF9079
:100B8000BF90AF909F908F900895CF93DF931F9267
:100B9000CDB7DEB76983DC01ED91FC910280F38172
:100BA000E02D41E050E0BE016F5F7F4F09950F904F
:100BB000DF91CF91089583E08093E9008091F20066
:100BC000882319F08AE38093E80008950E945E016B
:100BD00090E00895CF93DF931F92CDB7DEB7FC016D
:100BE0008485958597FD08C02FEF3FEF35872487D3
:100BF0000F90DF91CF910895CE0101960E943401AC
:100C0000019719F4898190E0F3CF8FEF9FEFF0CF38
:100C10000F931F93CF93DF931F92CDB7DEB78C0155
:100C2000FC018485958597FF0BC0CE0101960E943B
:100C30003401019771F4898190E0F80195878487E8
:100C4000F801848595850F90DF91CF911F910F91C9
:100C500008958FEF9FEFF1CFFC018485958597FD77
:100C60000BC09FB7F89482E08093E9008091F20076
:100C70009FBF90E0019608959FB7F89482E080931B
:100C8000E9008091F2009FBF90E0089590E080E03D
:100C900008951F93CF93DF93EC01162F8C8194EA74
:100CA0009093BC009091BC0097FFFCCF880F0E94EE
:100CB0001C018B85812B0E941C0184E98093BC0060
:100CC00080911801882329F01092180110921901BF
:100CD00004C0809119018111F9CFDF91CF911F914B
:100CE00008950F931F93CF938C01C62F0E9449063E
:100CF0006C2F6460C8010E9449066C2F6B7FC8018D
:100D00000E94490683EC90E00197F1F7CF911F9183
:100D10000F9108950F931F93CF93DF938C01D62FDC
:100D2000C42F607F642B0E94710680E1D89FB001C0
:100D300011246C2BC801DF91CF911F910F910C945E
:100D40007106CF93DF93CDB7DEB728970FB6F8942F
:100D5000DEBF0FBECDBF98E0E1E2F1E0DE0111960B
:100D600001900D929A95E1F790919C02961710F4DC
:100D70006FEF690F262F30E0220F331F41E050E064
:100D80004C0F5D1F240F351FF9016081680F6068EB
:100D900040E084E992E028960FB6F894DEBF0FBEDB
:100DA000CDBFDF91CF910C948A0641E00E948A0664
:100DB00081E090E00895DC01FB0180819181119632
:100DC0009C938E938281938113969C938E9312971A
:100DD000848114968C93149716961C921E921597E4
:100DE00018961C921E9217971A961C921E9219978B
:100DF0008581968116969C938E9315978781908511
:100E000018969C938E931797818592851A969C933A
:100E10008E93199716821582108617821286118674
:100E20001C961C921E921B971E961C921E921D973A
:100E300050961C921E921F97838594851C969C93B6
:100E40008E931B97858596851E969C938E931D97F2
:100E50008785908950969C938E931F97148613864E
:100E600016861586108A178608958F929F92AF92E4
:100E7000BF920F931F93CF93DF93CDB7DEB7A197A8
:100E80000FB6F894DEBF0FBECDBF19A2423008F4F2
:100E90004AE08E010F5D1F4F842E912CB12CA12CA6
:100EA000A50194010E948C11E62FB901CA01EA3014
:100EB00044F5E05DD801EE938D01232B242B252BE7
:100EC00079F790E080E0109769F0FD010190002033
:100ED000E9F73197AF014A1B5B0BBD0184E992E052
:100EE0000E941305A1960FB6F894DEBF0FBECDBFCA
:100EF000DF91CF911F910F91BF90AF909F908F90F6
:100F00000895E95CD7CFBC0190E080E04AE00C9402
:100F10003507FC0101900020E9F73197AF01481B2C
:100F2000590BBC0184E992E00C94130560E080E069
:100F30000E94A1068DEB91E00E94890760E080E0AD
:100F40000E94A10680916F02909170020E94830717
:100F5000409178025091790260917402709175020B
:100F600084E992E00E9413058091710290917202CF
:100F70000097D9F00197B1F48EE491E00E948907BF
:100F800080917102909172020E94830740917E02CB
:100F900050917F0260917A0270917B0284E992E025
:100FA0000C94130581E591E0E9CF0895CF93DF9389
:100FB000EC018B859C85009711F00E9450128D8169
:100FC0009E81009721F0DF91CF910C945012DF9118
:100FD000CF9108950F931F93CF93DF938C01EB0173
:100FE000FC01808191810097E1F068817981611530
:100FF0007105A9F0428153812C813D81421753072D
:1010000070F00E949F138C819D81F80195838483E9
:101010001D821C82DF91CF911F910F9108950E9434
:10102000501288819981F801918380838A819B8104
:10103000938382838C819D81958384831982188216
:101040001B821A82E5CFCF93DF93EC0188819981CF
:101050009093700280936F028A819B8190937202B9
:10106000809371028C8180937302BE016B5F7F4F0E
:1010700082E06437780721F084E792E00E94EA0773
:10108000BE01655F7F4F82E06A37780721F08AE70B
:1010900092E00E94EA078FE692E0DF91CF910895F7
:1010A000EF92FF920F931F93CF93DF93EC017B019D
:1010B0008A0188819981009729F02A813B81241730
:1010C000350788F4B8016F5F7F4F0E94D9120097EF
:1010D00091F0998388831B830A832C813D81232B84
:1010E00011F4FC0110821D830C83B7018881998162
:1010F0000E949F130CC088819981009711F00E9473
:101100005012198218821D821C821B821A82CE0103
:10111000DF91CF911F910F91FF90EF900895FB0108
:1011200001900020E9F73197AF01461B570B0C9453
:101130005008EF92FF920F931F93CF93DF938C0190
:10114000EB017A0188819981892B81F564E571E051
:10115000CE0105960E948F088A819B81009791F4A9
:1011600068ED71E0CE010B960E948F08BE01C801A8
:101170000E94DB06C801DF91CF911F910F91FF9074
:10118000EF9008958130910519F469E571E0EACF97
:101190006EE571E08230910529F364E671E08330F9
:1011A000910501F369E671E00497E1F28881998184
:1011B0000197B1F460E771E0CE0105960E948F08B7
:1011C0008A819B81009761F281309105F1F264E799
:1011D00071E08230910531F26FE771E0039711F20F
:1011E00088819981029799F469E871E0CE010596AA
:1011F0000E948F088A819B81009709F4B1CF8130CA
:10120000910519F26EE871E0029709F4ABCF88817D
:1012100099810397D1F468E971E0CE0105960E94A7
:101220008F088A819B81009709F49ACF81309105BC
:1012300009F4ABCF6CE971E08230910509F492CFEB
:10124000039719F464EA71E08DCFB70190CFCF9383
:10125000DF93EC01FB018617970749F060817181EC
:101260006115710541F0448155810E945008CE01FD
:10127000DF91CF91089588819981009711F00E94A4
:101280005012198218821D821C821B821A82EFCF93
:101290000F931F93CF93DF93EC018B01FB018081B0
:1012A000918199838883828193819B838A838481BE
:1012B0008C831E821D8218861F821A8619866B5F98
:1012C0007F4FCE0105960E9427091C861B861E862D
:1012D0001D86188A1F86B801655F7F4FCE010B9669
:1012E000DF91CF911F910F910C9427091F920F92BC
:1012F0000FB60F9211242F933F938F939F93AF9329
:10130000BF9380911B0290911C02A0911D02B0918D
:101310001E023091080223E0230F2D3758F5019665
:10132000A11DB11D2093080280931B0290931C0203
:10133000A0931D02B0931E028091090290910A02AF
:10134000A0910B02B0910C020196A11DB11D8093DA
:10135000090290930A02A0930B02B0930C02BF9172
:10136000AF919F918F913F912F910F900FBE0F9052
:101370001F90189526E8230F0296A11DB11DD2CF0C
:101380001F920F920FB60F9211248F939F9380910B
:10139000E1009091E100937F9093E10083FF0FC003
:1013A0001092E90091E09093EB001092EC0092E330
:1013B0009093ED0010921A0298E09093F00082FF53
:1013C00022C093E09093E9009091F200992319F0E4
:1013D0009AE39093E80090910702992341F090914D
:1013E0000702915090930702911101C05D9A90916C
:1013F0001902992341F0909119029150909319028A
:10140000911101C0289A84FF18C08091E2008E7E5D
:1014100081608093E2008091E1008F7E8093E10003
:10142000809106028E7E8061809306029F918F914B
:101430000F900FBE0F901F90189580FFF7CF8091EF
:10144000E2008E7E80618093E2008091E1008E7EDA
:101450008093E100809106028E7E8160E5CF1F922D
:101460000F920FB60F921124CF92DF92EF92FF925C
:101470000F931F932F933F934F935F936F937F939C
:101480008F939F93AF93BF93EF93FF93CF93DF938C
:10149000CDB7DEB76C97DEBFCDBF1092E90080916B
:1014A000E80083FF25C068E0CE0145960E9406054E
:1014B00082EF8093E8008D8987FF39C09091E80022
:1014C00090FFFCCF982F907609F034C19E894F8908
:1014D000588D2F89F88C911131C0803861F5809139
:1014E00005028093F1001092F1008EEF8093E800E6
:1014F0006C960FB6F894DEBF0FBECDBFDF91CF91D3
:10150000FF91EF91BF91AF919F918F917F916F91DB
:101510005F914F913F912F911F910F91FF90EF900D
:10152000DF90CF900F900FBE0F901F9018959EEFF9
:101530009093E800C7CF1092F100D5CF913059F4C5
:101540008111D3CF4130510581F6809105028D7F05
:1015500080930502CACF933049F48111C6CF413040
:10156000510519F6809105028260F2CF953041F461
:101570008091E80080FFFCCF20682093E300B5CF86
:10158000963009F0A9C00B8D1C8D22E01092E90065
:101590001092030210920202F2122EC01092010267
:1015A000109200020E94D5041F8299E09983FA826A
:1015B00091E09E8390EA98879AEF998720910202A2
:1015C00030910302275F3F4F3C832B838D83109222
:1015D000E90010920302109202021093010200939C
:1015E000000249E050E0BE016F5F7F4F80E00E9443
:1015F000AF040E94D50479CF10930102009300023A
:101600000E946F01DC0112960D911C9101151105CC
:1016100009F451C1D801ED91FC910480F581E02DD0
:10162000BE016B5E7F4FC8010995009709F03EC16E
:10163000F80100851185EACFF3E0FF120EC08F8913
:10164000882309F440C0823061F440E86DE080E115
:1016500091E00E947C04811148CF81E28093EB00ED
:1016600047CF813029F440E86BE084E091E0F1CF8E
:10167000833099F70E946F01DC011296ED90FC9087
:101680008E010F5F1F4F6801E114F10479F0D7015B
:10169000ED91FC910680F781E02DB801C701099515
:1016A000080F111DF701E084F184EECFD8011C92E0
:1016B000F60101900020E9F73197BF016C197D090F
:1016C00040E0C601C6CF6EEE70E0FB01449150E0F1
:1016D00080E80E94AF0409CF973009F4BECF98305C
:1016E00021F481E08093F10000CF993009F0FDCE24
:1016F000837009F0B2CFEAE2F1E081E031E096E3F5
:101700002191222371F08093E9003093EB00DF01F7
:1017100011972C912093EC009093ED008F5F873010
:1017200079F78EE78093EA001092EA008F89809320
:101730001A02DBCE8B8D9C8D1092E9001092030271
:10174000109202029093010280930002898D811110
:1017500092C08E899D89913A49F4813209F07DCFFA
:1017600047E050E06FE071E080E0B3CF913209F0E4
:1017700074CF833269F48F89988DB0E0A0E08093B4
:101780000B0190930C01A0930D01B0930E01ADCE0F
:10179000803269F48091E80082FFFCCF67E08FE03F
:1017A00091E00E9406058BEF8093E8009ECE823286
:1017B00009F09BCE8F8980931601EEEFFFE78591AC
:1017C00094918B3F9C4D51F1E0E0F8E080910F0146
:1017D00090911001A0911101B0911201803B9440B1
:1017E000A105B105F1F48091160180FD1AC0EE3F0C
:1017F0008AE0F80789F587E797E7918380838091EE
:1018000060008093040288E19BE00FB6F894A895ED
:10181000809360000FBE9093600067CEEEEFFAE019
:10182000D5CF808191818737974709F05ECEA89503
:1018300080916000886180936000809104028093B1
:101840006000EE3F2AE0F20789F08091FE0A909155
:10185000FF0A9183808349CE8081918187379807E1
:1018600051F29093FF0A8093FE0AC5CF1092FF0AAF
:101870001092FE0A3ACE0E946F01DC0112960D9181
:101880001C910115110509F4E8CED801ED91FC91E8
:101890000190F081E02DBE016B5E7F4FC80109957C
:1018A000811123CEF80100851185EBCF181619069A
:1018B0000CF41BCED2CEF1E0FF12BECE62EF70E090
:1018C00004CFCF93109222021092210288EE93E06F
:1018D000A0E0B0E08093230290932402A09325021D
:1018E000B093260284E391E09093200280931F023C
:1018F0008FEF9FEF90932C0280932B021092970210
:101900001092960286E491E090939502809394025F
:1019100087E28093980284E180939D0284E0809323
:101920009E0210929F0292E390938302109284028F
:1019300010928502109286021092870210928802FD
:101940001092890210928A0210928B0210928C02DD
:1019500010928D02109291021092920210929302B4
:1019600092E090938E0293E090938F028093900286
:10197000809181028061877F8093810262E082E0B2
:101980000E94BA0362E080918F020E94BA038091A4
:10199000810284FF05C062E0809190020E94BA0338
:1019A0008091820281608093820280918E020E94E7
:1019B000CF01C82F80918F020E94CF01880F991FFD
:1019C0008C2B8093840281E090E09093700280934E
:1019D0006F0283E090E09093720280937102109204
:1019E0007302109275021092740210927702109294
:1019F0007602109279021092780250E040E068ED91
:101A000071E084E792E00E94500810927B021092ED
:101A10007A0210927D0210927C0210927F02109244
:101A20007E0250E040E068ED71E08AE792E0CF91FD
:101A30000C945008CF93DF93CDB7DEB7C454D109CF
:101A40000FB6F894DEBF0FBECDBF789484B5826028
:101A500084BD84B5816084BD85B5826085BD85B552
:101A6000816085BD80916E00816080936E001092D0
:101A7000810080918100826080938100809181004B
:101A800081608093810080918000816080938000DC
:101A9000809191008260809391008091910081609B
:101AA000809391008091900081608093900080915C
:101AB000C10084608093C1008091C10082608093E6
:101AC000C1008091C10081608093C1008091C300FA
:101AD00081608093C3008091C00082608093C000C9
:101AE0008091C20081608093C20080917A008460FE
:101AF00080937A0080917A00826080937A0080914E
:101B00007A00816080937A0080917A008068809367
:101B10007A0010921A021092050210920602809129
:101B2000D70081608093D70080EA8093D80089B580
:101B3000806189BD89B5826089BD09B400FEFDCF91
:101B400061E070E080E090E00E941B048091D8008A
:101B50008F7C80618093D8008091E000807F8093AB
:101B6000E0008091E1008E7E8093E1008DE0809323
:101B7000E200559A209A8FEF9FEF90932C0280936A
:101B80002B0262E082E00E94BA0362E083E00E94DE
:101B9000BA0388E48093B8001092B90010929902B9
:101BA00080919E02823018F098E090939902809381
:101BB0009C0262E370E080E090E00E941B04609170
:101BC0009F0284E992E00E94490668EE73E080E09B
:101BD00090E00E941B0460E384E992E00E94710699
:101BE0000BE416E4C8010197F1F760E384E992E0A1
:101BF0000E947106C8010197F1F760E384E992E061
:101C00000E94710683E592E00197F1F760E284E9B2
:101C100092E00E94710660919902606240E084E95E
:101C200092E00E948A0684E080939A0240E06CE091
:101C300084E992E00E948A0640E061E084E992E053
:101C40000E948A060BE31FE1C8010197F1F782E0C9
:101C500080939B0240E066E084E992E00E948A065D
:101C600040E062E084E992E00E948A06C8010197A0
:101C7000F1F788E080939F0260E084E992E00E949F
:101C800049066FE672E0CE0142960E9448096FE66F
:101C900072E0CE0183960E944809AE014E5E5F4F0E
:101CA000BE016D5D7F4FCE0101960E949908CE0165
:101CB00001960E942308CE0101960E94D607CE010C
:101CC00083960E94D607CE0142960E94D6070E94B4
:101CD000960780918102877F8093810261E087E08F
:101CE0000E94BA0361E086E00E94BA0361E085E0E9
:101CF0000E94BA0361E089E00E94BA0361E088E0D3
:101D00000E94BA0360E089E10E94BA0361E087E0C3
:101D10000E948C0360E086E00E948C0360E085E016
:101D20000E948C0360E089E00E948C0361E088E0FF
:101D30000E948C039924939400E010E052E0A52EB9
:101D4000B12C0E94F8018091810282FD0E94F8016D
:101D500080918502813069F08091810282FD0E942C
:101D6000F801809185028230C1F5109285028BE0E6
:101D700003C0109285028AE020916F0230917002B8
:101D80002130310509F0A0C1209171023091720219
:101D90002330310509F098C190917302992309F419
:101DA00056C18C3051F560E085E00E948C0361E003
:101DB00080E00E94A10682EB91E00E94890761E029
:101DC00080E00E94A10689ED91E00E948907809140
:101DD000730289258093730205C18091810282FD7F
:101DE0000E94F8018091800285FF05C08F7D80935D
:101DF00080028CE0C1CF80E0BFCF8A3009F0F9C00B
:101E00008091070190910801A0910901B0910A0108
:101E100083309105A105B10538F1B695A795979541
:101E200087958093070190930801A0930901B093CF
:101E30000A0161E080E00E94A1068EEC91E00E9420
:101E4000890761E080E00E94A10681EE91E00E9496
:101E500089076091070170910801809109019091B3
:101E60000A014AE00E9435072FB7F89480911B02BF
:101E700090911C02A0911D02B0911E022FBF4091B3
:101E8000FC015091FD016091FE017091FF01841BE6
:101E9000950BA60BB70B409107015091080160917B
:101EA000090170910A01481759076A077B0708F072
:101EB00099C080910601882309F4B2C00E94FD00F8
:101EC000909305018093040162E08EE00E94A106D8
:101ED00083ED91E00E94890762E08EE00E94A106F6
:101EE00080910401909105010E9483078091020175
:101EF000909103012091040130910501820F931FFD
:101F000096958795909301018093000163E08EE0A0
:101F10000E94A10683ED91E00E94890763E08EE0B4
:101F20000E94A10680910001909101010E94830707
:101F300063E084E00E94A10685ED91E00E9489079C
:101F400063E084E00E94A106809104019091050164
:101F50002091020130910301821B930B0E948307A1
:101F600062E084E00E94A10683ED91E00E9489076F
:101F700062E084E00E94A1060E94FD006C01990FBE
:101F8000EE08FF084AE0C701B601F7FE0EC041E0C7
:101F90006DE284E992E00E948A0666277727CB01EA
:101FA0006C197D098E099F094AE00E9435076091EE
:101FB000060169256093060185E00E948C032FB716
:101FC000F89480911B0290911C02A0911D02B09187
:101FD0001E022FBF8093FC019093FD01A093FE0190
:101FE000B093FF010115110509F4ABCE0E9400006A
:101FF000A8CE8B3009F038CF80910701909108016D
:10200000A0910901B0910A01803127E29207A10550
:10201000B10508F029CF880F991FAA1FBB1F01CF58
:102020000E94FD00909303018093020161E08EE025
:102030000E94A10683ED91E00E94890761E08EE095
:102040000E94A10680910201909103014DCF8C3036
:10205000D9F561E085E00E948C0361E080E00E9498
:10206000A10682EB91E00E94890761E080E00E9476
:10207000A10684EE91E00E94890761E08AE00E9457
:10208000A1068CEE91E00E94890762E08AE00E943E
:10209000A10680EF91E00E94890763E08AE00E9438
:1020A000A10684EF91E00E94890763E080E00E942E
:1020B000A10688EF91E00E94890762E080E00E941B
:1020C000A10689EF91E081CE882309F48BCF8A3075
:1020D00009F05EC06FE672E0CE01C4960E94480926
:1020E0008EA99FA9009709F44DC08230910520F078
:1020F00001979FAB8EAB18AE6FE672E0CE014296B1
:102100000E944809BE016C5C7F4FCE0183960E94FD
:102110004809AE014E5E5F4FBE016D5D7F4FCE013F
:1021200001960E949908CE0101960E942308CE01D3
:1021300001960E94D607CE0183960E94D607CE0153
:1021400042960E94D60762E080E00E94A1068EEBD4
:1021500091E00E94890763E080E00E94A1068EEB77
:1021600091E00E94890764E080E00E94A1068EEB66
:1021700091E00E948907CE01C4960E94D6070E9472
:10218000960730CF8CA99DA901979DAB8CABB3CF9F
:102190008B3009F044C06FE672E0CE01C4960E9415
:1021A00048098EA99FA90097A1F101969FAB8EAB1C
:1021B00018AE6FE672E0CE0142960E944809BE0159
:1021C0006C5C7F4FCE0183960E944809AE014E5E43
:1021D0005F4FBE016D5D7F4FCE0101960E94990851
:1021E000CE0101960E942308CE0101960E94D607D7
:1021F000CE0183960E94D607CE0142960E94D60752
:1022000061E080E00E94A1068EEB91E00E948907C8
:102210009ACF8CA99DA901969DAB8CABC9CF8C3070
:1022200009F0E0CE6FE672E0CE01C4960E94480944
:102230008EA99FA98130910551F51FAA1EAA6FE6AC
:1022400072E0CE0142960E944809BE016C5C7F4F4D
:10225000CE0183960E944809AE014E5E5F4FBE01DB
:102260006D5D7F4FCE0101960E949908CE010196C7
:102270000E942308CE0101960E94D607CE018396C4
:102280000E94D607CE0142960E94D60774CF892BB2
:1022900019F4BFAAAEAAD3CF80917302892588AF63
:1022A000CECF8FE692E00C94D6072F923F924F92BA
:1022B0005F926F927F928F929F92AF92BF92CF92D6
:1022C000DF92EF92FF920F931F93CF93DF93CDB7DF
:1022D000DEB7CA1BDB0B0FB6F894DEBF0FBECDBF57
:1022E00009942A88398848885F846E847D848C8428
:1022F0009B84AA84B984C884DF80EE80FD800C8131
:102300001B81AA81B981CE0FD11D0FB6F894DEBF13
:102310000FBECDBFED010895A1E21A2EAA1BBB1B73
:10232000FD010DC0AA1FBB1FEE1FFF1FA217B307A1
:10233000E407F50720F0A21BB30BE40BF50B661FB7
:10234000771F881F991F1A9469F76095709580957B
:1023500090959B01AC01BD01CF010895EE0FFF1FC9
:102360000590F491E02D09940F931F93CF93DF9381
:102370008230910510F482E090E0E091A202F091A9
:10238000A30230E020E0B0E0A0E0309799F42115FE
:10239000310509F44AC0281B390B24303105D8F522
:1023A0008A819B816115710589F1FB019383828389
:1023B000FE0111C0408151810281138148175907E4
:1023C000E0F04817590799F4109761F012960C93B2
:1023D000129713961C933296CF01DF91CF911F91E4
:1023E0000F9108950093A2021093A302F4CF211538
:1023F000310551F04217530738F0A901DB019A016A
:10240000BD01DF01F801C1CFEF01F9CF9093A30225
:102410008093A202CDCFFE01E20FF31F819391932F
:102420002250310939832883D7CF2091A0023091DF
:10243000A102232B41F420911D0130911E01309304
:10244000A1022093A00220911B0130911C012115B3
:10245000310541F42DB73EB740911F015091200145
:10246000241B350BE091A002F091A102E217F307C3
:10247000A0F42E1B3F0B2817390778F0AC014E5FF4
:102480005F4F2417350748F04E0F5F1F5093A1028E
:102490004093A002819391939FCFF0E0E0E09CCF26
:1024A000CF93DF930097E9F0FC01329713821282F9
:1024B000A091A202B091A302ED0130E020E01097BC
:1024C000A1F420813181820F931F2091A0023091CD
:1024D000A1022817390709F061C0F093A102E09327
:1024E000A002DF91CF910895EA01CE17DF07E8F54A
:1024F0004A815B819E0141155105B1F7E901FB83DA
:10250000EA8349915991C40FD51FEC17FD0761F477
:10251000808191810296840F951FE90199838883B8
:10252000828193819B838A83F0E0E0E012968D9113
:102530009C9113970097B9F52D913C911197CD017E
:102540000296820F931F2091A0023091A1022817BA
:10255000390739F6309751F51092A3021092A20272
:10256000B093A102A093A002BCCFD383C2834081C9
:102570005181840F951FC817D90761F44E5F5F4FD3
:1025800088819981480F591F518340838A819B819B
:10259000938382832115310509F0B0CFF093A30214
:1025A000E093A2029ECFFD01DC01C0CF1382128214
:1025B000D7CFB0E0A0E0EFEDF2E10C9457118C0121
:1025C000009751F4CB010E94B4118C01C801CDB722
:1025D000DEB7E0E10C947311FC01E60FF71F9C01DC
:1025E00022503109E217F30708F49DC0D901CD91BB
:1025F000DC911197C617D70798F0C530D10530F395
:10260000CE0104978617970708F3C61BD70B2297AE
:10261000C193D1936D937C93CF010E945012D6CF7A
:102620005B01AC1ABD0A4C018C0E9D1EA091A2024A
:10263000B091A302512C412CF12CE12C109731F5D3
:102640008091A0029091A1028815990509F05CC0C3
:102650004616570608F058C080911B0190911C0146
:10266000009741F48DB79EB740911F015091200112
:10267000841B950BE817F90708F055C0F093A102E9
:10268000E093A002F90171836083A0CF8D919C91AA
:10269000119712966C90129713967C901397A81529
:1026A000B90559F56C0142E0C40ED11CCA14DB0413
:1026B00020F1AC014A195B09DA011296159780F0F6
:1026C0006282738251834083D9016D937C93E114BC
:1026D000F10471F0D7011396FC93EE93129776CF25
:1026E00022968C0F9D1FF90191838083F301EFCF18
:1026F000F093A302E093A20269CF4816590608F4AA
:102700002C017D01D3019ACFCB010E94B4117C0131
:10271000009749F0AE01B8010E949613C8010E94CB
:102720005012870153CF10E000E050CFFB01DC01D5
:1027300002C001900D9241505040D8F70895FB011E
:10274000DC0101900D920020E1F7089510E0C2ED48
:10275000D0E004C0FE010E94AE112196C33DD10716
:06276000C9F7F894FFCF59
:1027660003000100020001F4010000FFFFFFFF006B
:10277600E1000000000000000000010000A402804B
:1027860000000040001400540000C18081000000D9
:1027960000000000C5054005E605DB052C06EA0538
:1027A600080600000000D506130546064D043C2D1C
:1027B600002D3E00486F6D65006261636B004162EB
:1027C6006F75740048656C700043726564697400C7
:1027D6005365740053656E73206C6576656C0053A3
:1027E600656E73207465737400526163650052618F
:1027F6006365722073656C0052657300416C6C20D2
:1028060072657300526573657420726573756C74B6
:10281600730020202020202020202020202020207F
:1028260020202020202020202020202020202020A2
:1028360020202020202020200053746F70706564B3
:1028460000543A00537461727465640056303A005D
:0C28560056313A0056413A0064563A00F0
:00000001FF
