:100000000C9442010C94930A0C94680A0C943D0AD7
:100010000C94120A0C94E7090C94BC090C949109F5
:100020000C9466090C9473010C9473010C94730185
:100030000C9473010C9473010C9473010C94730170
:100040000C9473010C9473010C9473010C94730160
:100050000C9473010C9473010C9473010C941C099F
:100060000C9473010C94E80A0C94BE0A0C9473016E
:100070000C9473010C9473010C9473010C94730130
:100080000C9473010C9473010C9473010C94730120
:100090000C9473010C9473010C9473010C94730110
:1000A0000C9473010C9473010C9473010C94730100
:1000B0000C9473010C9473010C9473010C947301F0
:1000C0000C9473010C9473010C9473010C947301E0
:1000D0000C9473010C9473010C9473010C947301D0
:1000E0000C9473010C9483050C94D4050C94B60401
:1000F0000C94D5050C94CD040C94F0040C94E601FA
:100100000C94D6010C9402020C94FE040C94F4019D
:100110000C94EA010C94FC010C94CB010C94C101E9
:100120000C94F8010C94CF010C9489040C94DC011C
:100130000C94D3010C9462060C943D100C94E001D5
:100140000C94EE010C94DC040C9488040C940602CC
:100150000C94C7010C9436050C941E0B0C940102F0
:1001600000002100240027002A002D003000330069
:1001700001010000040107010A010000220025001E
:1001800028002B002E003100340002010000050180
:1001900008010B01000020002300260029002C008C
:1001A0002F003200000100000301060109010505CE
:1001B0000505070508080808020202020A0A0808DD
:1001C000040404040101010101010101030303030B
:1001D00003030303040707070C0C0C0C0C0C0C0C9A
:1001E0000202020206060606060606060B0B0B0BAB
:1001F0000B0B0B0B010210202008081020401020D0
:1002000040800201020108040201010204081020DA
:1002100040808040201008040201800402018040D8
:100220002010080402010804020101020408102041
:100230004080010204081020408000000A0B0209DF
:100240000C0D0E0807030401000000000000000070
:10025000000000000000000000000000000000009E
:10026000000000000000121110000000000000005B
:10027000000000000000000000000000000000007E
:100280001E0B3D1011241FBECFEFD1E2DEBFCDBF4C
:1002900000E00CBF24E0A0E7B3E001C01D92AA3F3C
:1002A000B207E1F713E0A0E0B2E0E8E9F5E200E030
:1002B0000BBF02C007900D92A037B107D9F711E02C
:1002C000C1E4D1E000E006C021970109802FFE01C2
:1002D0000E949C10C034D10780E00807A9F70E9453
:1002E000110C0C94BA120C94000080917B00877F53
:1002F00080937B0087E480937C0080917A00806407
:1003000080937A0080917A0086FDFCCF80917800FE
:100310009091790008958093BB0084E88093BC009D
:100320008091BC0087FFFCCF8091B900887F80322C
:1003300021F481E0809311020895803319F481E063
:100340008093120208958150823108F05AC0E82F3C
:10035000F0E08827E155FE4F8F4F0C949C10CF01A1
:10036000D301C101C701CB010102D601DC01E001CB
:10037000E601EA01EE01F401F8010102FC010202CA
:100380000602809180008F7780938000089580918D
:1003900080008F7DF9CF80918000877FF5CF84B575
:1003A0008F7784BD089584B58F7DFBCF8091B00099
:1003B0008F778093B00008958091B0008F7DF9CF42
:1003C000809190008F7780939000089580919000A5
:1003D0008F7DF9CF80919000877FF5CF8091A0002D
:1003E0008F778093A00008958091A0008F7DF9CF32
:1003F0008091A000877FF5CF809120018F77809337
:1004000020010895809120018F7DF9CF80912001F6
:10041000877FF5CFCF93DF93282F30E0F901E65C9B
:10042000FD4F8491F901EC50FE4FD491F901E25552
:10043000FE4FC491CC23A1F081110E94A301EC2FA7
:10044000F0E0EE0FFF1FEC56FE4FA591B491EC913A
:10045000ED2381E090E009F480E0DF91CF910895F1
:1004600080E090E0FACF8F929F92AF92BF92CF92AE
:10047000DF92EF92FF920F931F93CF93DF938FB78B
:10048000F894C0908803D0908903E0908A03F0909C
:100490008B038FBF8091D70484FF74C08090DC04ED
:1004A0009090DD04A090DE04B090DF049091E80409
:1004B0009111F6C08091E6040E940A022091D804AE
:1004C000022F017010E021E00817190709F420E05D
:1004D0002093E904B701A601481959096A097B0963
:1004E0002091E9049091D60491FB882780F922237A
:1004F00009F419C181111AC0413551056105710511
:10050000A8F0C092DC04D092DD04E092DE04F09208
:10051000DF04997E926190689093D6048091D8040C
:1005200080628093D80440E050E0BA018091D80402
:100530009091D60484FF12C04D3231E0530761051B
:10054000710560F092FD05C083FDB4C082608093A8
:10055000D8048091D8048F7E8093D80491FF12C074
:100560004D3B52406105710568F092FD0BC022239E
:1005700009F4A2C091609093D6048091D8048F7D35
:100580008093D8048091E804882309F4A2C0909154
:10059000D70496FB332730F9C32F80E0D82FCC0F38
:1005A000DD1F95FB882780F98C2B2091DA04281712
:1005B00009F469C01092DB049091D80496FFB0C092
:1005C000833009F097C09F7B9093D804213009F4C1
:1005D0008DC091E0223009F48AC09091D70493FD38
:1005E00003C0833009F493C09091DB049923E1F1B7
:1005F0002091D60428602093D6044091E0045091C5
:10060000E1046091E2047091E30497018601041B08
:10061000150B260B370B4091D90450E070E060E0D9
:10062000041715072607370760F42091D7042260C6
:10063000913029F0923029F42091D7042160209341
:10064000D704C092E004D092E104E092E204F09278
:10065000E3042091D70424FF07C02091E90422235A
:1006600019F09E5F9093DB048093DA048091D604A6
:1006700084608093D604C092DC04D092DD04E092C2
:10068000DE04F092DF04DF91CF911F910F91FF9074
:10069000EF90DF90CF90BF90AF909F908F90089594
:1006A00087FB882780F98093E90414CF8091D804D0
:1006B000886037CF84604BCF9D7F9E7F9093D60418
:1006C000C092DC04D092DD04E092DE04F092DF04FC
:1006D00059CF8091E4040E940A02C82F8091E5045A
:1006E0000E940A02880F991F8C2B5FCF92E0909393
:1006F000DB0473CF3091D70433FD46C0811174CF32
:100700009F7B9093D804213041F0223031F09091BA
:10071000D80490649093D80467CF2093DB04F7CF7C
:100720008823A9F35ACF882309F400CF4135510516
:100730006105710508F4FACE92FD05C090FD03C075
:1007400090629093D6044D3B52406105710528F0AC
:100750008091D60480648093D6048091D604C092A0
:10076000DC04D092DD04E092DE04F092DF048D7FA1
:100770008E7F8093D6048091D80485FF97CF84FD27
:1007800095CF8061877FCDCE882309F26DCF1F93EF
:10079000CF93DF93282F30E0F901E65CFD4F849181
:1007A000F901EC50FE4FD491F901E255FE4FC4918E
:1007B000CC23A9F0162F81110E94A301EC2FF0E0A9
:1007C000EE0FFF1FE658FE4FA591B4918FB7F89436
:1007D000EC91111108C0D095DE23DC938FBFDF911F
:1007E000CF911F910895DE2BF8CFCF93DF9390E048
:1007F000FC01EC50FE4F249182559E4FFC018491E8
:100800008823C9F090E0880F991FFC01E05AFE4F41
:10081000A591B491FC01E658FE4FC591D4916111A8
:100820000DC09FB7F8948C91209582238C9388817A
:10083000282328839FBFDF91CF910895623051F420
:100840009FB7F8943C91822F809583238C93E88105
:100850002E2BEFCF8FB7F894EC912E2B2C938FBFCC
:10086000EACF3FB7F8948091840390918503A091DB
:100870008603B091870326B5A89B05C02F3F19F0CA
:100880000196A11DB11D3FBFBA2FA92F982F882710
:10089000BC01CD01620F711D811D911D42E0660FEB
:1008A000771F881F991F4A95D1F708958F929F92BD
:1008B000AF92BF92CF92DF92EF92FF924B015C0119
:1008C0000E9431046B017C010E9431046C197D0986
:1008D0008E099F09683E734081059105A8F321E0C8
:1008E000821A9108A108B10888EEC80E83E0D81ECC
:1008F000E11CF11C81149104A104B10429F7FF90BB
:10090000EF90DF90CF90BF90AF909F908F90089521
:100910000895AF92BF92CF92DF92EF92FF920F9322
:100920001F93CF93DF936C017B018B01040F151F85
:10093000EB015E01AE18BF08C017D10759F06991ED
:10094000D601ED91FC910190F081E02DC601199541
:10095000892B79F7C501DF91CF911F910F91FF90FE
:10096000EF90DF90CF90BF90AF90089580917F037C
:1009700090918003A0918103B091820380937203D0
:1009800090937303A0937403B09375030E94750151
:1009900090937103809370030895FC01538D448DEF
:1009A000252F30E0842F90E0821B930B541710F01A
:1009B000CF96089501970895FC01918D828D981727
:1009C00061F0A28DAE0FBF2FB11D5D968C91928DFF
:1009D0009F5F9F73928F90E008958FEF9FEF089530
:1009E000FC01918D828D981731F0828DE80FF11DF9
:1009F000858D90E008958FEF9FEF0895FC01918D14
:100A0000228D892F90E0805C9F4F821B91098F730C
:100A1000992708958CE893E00E94FE0421E0892B39
:100A200009F420E0822F0895FC01A48DA80FB92FAE
:100A3000B11DA35ABF4F2C91848D90E001968F7306
:100A40009927848FA689B7892C93A089B1898C9125
:100A5000837080648C93938D848D981306C0028874
:100A6000F389E02D80818F7D80830895EF92FF923E
:100A70000F931F93CF93DF93EC0181E0888F9B8DC1
:100A80008C8D98131AC0E889F989808185FF15C07B
:100A90009FB7F894EE89FF896083E889F98980819E
:100AA0008370806480839FBF81E090E0DF91CF916D
:100AB0001F910F91FF90EF900895F62E0B8D10E08F
:100AC0000F5F1F4F0F731127E02E8C8D8E110CC0FE
:100AD0000FB607FCFACFE889F989808185FFF5CF49
:100AE000CE010E941405F1CFEB8DEC0FFD2FF11D0F
:100AF000E35AFF4FF0829FB7F8940B8FEA89FB8986
:100B000080818062CFCFCF93DF93EC01888D8823E3
:100B1000B9F0AA89BB89E889F9898C9185FD03C060
:100B2000808186FD0DC00FB607FCF7CF8C9185FF45
:100B3000F2CF808185FFEDCFCE010E941405E9CF71
:100B4000DF91CF91089580E090E0892B29F00E94F9
:100B50000A0581110E94000080E090E0892B49F095
:100B600080E090E0892B29F00E94000081110E9412
:100B7000000080E090E0892B49F080E090E0892B34
:100B800029F00E94000081110E94000080E090E0A6
:100B9000892B49F080E090E0892B29F00E94000029
:100BA00081110C9400000895089590E080E008956C
:100BB0001F93CF93DF93EC01162F8C8194EA9093CF
:100BC000BC009091BC0097FFFCCF880F0E948B0166
:100BD0008B85812B0E948B0184E98093BC008091DE
:100BE0001102882329F0109211021092120204C0FF
:100BF000809112028111F9CFDF91CF911F91089559
:100C00000F931F93CF938C01C62F0E94D8056C2F92
:100C10006460C8010E94D8056C2F6B7FC8010E94D8
:100C2000D80583EC90E00197F1F7CF911F910F91D8
:100C300008950F931F93CF93DF938C01D62FC42F6A
:100C4000607F642B0E94000680E1D89FB0011124D0
:100C50006C2BC801DF91CF911F910F910C9400066E
:100C6000CF93DF9300D000D01F921F92CDB7DEB795
:100C700098E0EAE1F2E0DE01119601900D929A957A
:100C8000E1F79091F204961710F46FEF690F262F99
:100C900030E0220F331F41E050E04C0F5D1F240F66
:100CA000351FF9016081680F606840E08AEE94E0CA
:100CB00028960FB6F894DEBF0FBECDBFDF91CF915F
:100CC0000C94190641E00E94190681E090E0089515
:100CD000FC0180819181009711F00C9440110895DE
:100CE000EF92FF920F931F93CF93DF93EC017B0161
:100CF0008A0188819981009729F02A813B812417F4
:100D0000350788F4B8016F5F7F4F0E94C9110097C3
:100D100091F0998388831B830A832C813D81232B47
:100D200011F4FC0110821D830C83B7018881998125
:100D30000E94B3120CC088819981009711F00E9423
:100D40004011198218821D821C821B821A82CE01D8
:100D5000DF91CF911F910F91FF90EF900895FC01CB
:100D6000DB018C91808311964D915D916D917C9109
:100D70001497418352836383748315968D919C915C
:100D8000169796838583CF01079610861782128661
:100D90001186148613869D01295F3F4F82179307A2
:100DA00061F017966D917C9118976115710529F086
:100DB0001B964D915C910C9470060895FC01108275
:100DC0001182128213821482168215821086178273
:100DD000128611861486138650E040E06EE772E0BA
:100DE00007960C947006FB0101900020E9F73197FB
:100DF000AF01461B570BDC01ED91FC910280F381A2
:100E0000E02D19946CE772E08CE893E00C94F30603
:100E10008F929F92AF92BF92EF92FF920F931F9388
:100E2000CF93DF93CDB7DEB7A1970FB6F894DEBFAF
:100E30000FBECDBF7C01FA01CB0119A2223008F40C
:100E40002AE08E010F5D1F4F822E912CB12CA12C18
:100E5000BF01A50194010E947A10F901CA016A300C
:100E60000CF5605DD8016E938D01232B242B252B6F
:100E700079F790E080E0109721F0BD01C7010E9452
:100E8000F306A1960FB6F894DEBF0FBECDBFDF917B
:100E9000CF911F910F91FF90EF90BF90AF909F90D7
:100EA0008F900895695CDECFCF93DF93AC0170E043
:100EB00060E02AE08CE893E00E940807EC010E94C1
:100EC00002078C0F9D1FDF91CF910895CF93DF9381
:100ED000BC018CE893E00E94F306EC010E9402073B
:100EE0008C0F9D1FDF91CF9108956115710511F051
:100EF0000C94F30690E080E0089561E080E00E94A9
:100F0000300664EC72E08AEE94E00E94750762E0BD
:100F100080E00E94300664EC72E08AEE94E00E9469
:100F2000750763E080E00E94300664EC72E08AEEB0
:100F300094E00C947507CF93DF93EC018FE792E078
:100F40000E94660768E872E08CE893E00E947507EB
:100F5000888199810E94540761E972E08CE893E0EE
:100F60000E9475074B8150E070E060E02AE08CE859
:100F700093E00E9408070E94020768E972E08CE88B
:100F800093E00E9475078D819E810E94540761EA5B
:100F900072E08CE893E00E947507888599850E942D
:100FA000540766EB72E08CE893E00E9475074B856E
:100FB00050E070E060E02AE08CE893E00E940807CF
:100FC0000E940207DF91CF910C940207CF93DF9329
:100FD000EC0160E080E00E9430066DEB72E08AEE8A
:100FE00094E00E94750760E080E00E943006E8818E
:100FF00024E1E29FF0011124EE5DFD4F60817181DB
:101000008AEE94E00E9475078981882341F169ED99
:1010100072E0813011F06CED72E08AEE94E00E9493
:1010200075078881E9812AE0829FC0011124E80FB9
:10103000F92FF11DEE0FFF1FEE5DFD4F60817181F5
:101040008AEE94E00E9475078A81882341F06FED53
:1010500072E08AEE94E0DF91CF910C947507DF91F6
:10106000CF9108950F931F93CF93DF938C01EB01E2
:101070000E9464108883C80101960E9464108983CD
:10108000CE01DF91CF911F910F910895CF93DF9300
:10109000EC018A81BE0190E00E9432088C8190E0D0
:1010A0000E9464108B83BE016B5F7F4F8F8190E045
:1010B0000E943208BE01685F7F4F8A8590E00E94DF
:1010C00032088C8590E00E9464108B87DF91CF916D
:1010D0000895FF920F931F93CF93DF93EC01F62EA9
:1010E00008811981C8010E946410F81621F06F2D43
:1010F000C8010E946C10CE01DF91CF911F910F911A
:10110000FF900895EF92FF920F931F93CF93DF9379
:101110001F921F92CDB7DEB78C017B019A83898322
:10112000FB016081CE0101960E9469080F5F1F4F8D
:101130001A830983F7016181CE0101960E94690833
:10114000C7010F900F90DF91CF911F910F91FF90EA
:10115000EF9008950F931F93CF93DF931F921F92E9
:10116000CDB7DEB78C01FC0111821082128281E0C2
:10117000838382E0848383E090E096838583878302
:1011800088EB9BE09187808785E08287138687E0E4
:101190008487B80190E080E00E943208F8018081E5
:1011A00091818933904309F440C00E94020781EE87
:1011B00092E00E94660789E390E39A838983F801AD
:1011C0008281BE016F5F7F4F90E00E948208F8012C
:1011D000848190E09A8389836381CE0101960E9485
:1011E0006908B8016B5F7F4FF801878190E00E942A
:1011F0008208B801685F7F4FF801828590E00E9405
:101200008208F801848590E09A8389836385CE0102
:1012100001960E94690882E093E00E946607C80177
:101220000E944608C8010E949B070F900F90DF9113
:10123000CF911F910F9108951F920F920FB60F92A9
:1012400011242F933F938F939F93AF93BF938091DC
:10125000880390918903A0918A03B0918B03309108
:10126000830323E0230F2D3758F50196A11DB11DEF
:10127000209383038093880390938903A0938A0328
:10128000B0938B038091840390918503A091860392
:10129000B09187030196A11DB11D809384039093A3
:1012A0008503A0938603B0938703BF91AF919F916D
:1012B0008F913F912F910F900FBE0F901F90189517
:1012C00026E8230F0296A11DB11DD2CF1F920F92C7
:1012D0000FB60F9211240BB60F922F933F934F939B
:1012E0005F936F937F938F939F93AF93BF93EF938E
:1012F000FF93E0910E02F0910F021995FF91EF918B
:10130000BF91AF919F918F917F916F915F914F911D
:101310003F912F910F900BBE0F900FBE0F901F901B
:1013200018951F920F920FB60F9211240BB60F92C1
:101330002F933F934F935F936F937F938F939F93DD
:10134000AF93BF93EF93FF93E0910C02F0910D02E6
:101350001995FF91EF91BF91AF919F918F917F91DF
:101360006F915F914F913F912F910F900BBE0F9016
:101370000FBE0F901F9018951F920F920FB60F92ED
:1013800011240BB60F922F933F934F935F936F935C
:101390007F938F939F93AF93BF93EF93FF93E091CE
:1013A0000202F09103021995FF91EF91BF91AF9165
:1013B0009F918F917F916F915F914F913F912F916D
:1013C0000F900BBE0F900FBE0F901F9018951F929D
:1013D0000F920FB60F9211240BB60F922F933F93DB
:1013E0004F935F936F937F938F939F93AF93BF932D
:1013F000EF93FF93E0910002F09101021995FF91A4
:10140000EF91BF91AF919F918F917F916F915F917C
:101410004F913F912F910F900BBE0F900FBE0F90E9
:101420001F9018951F920F920FB60F9211240BB6B2
:101430000F922F933F934F935F936F937F938F936D
:101440009F93AF93BF93EF93FF93E0910A02F091C4
:101450000B021995FF91EF91BF91AF919F918F91E1
:101460007F916F915F914F913F912F910F900BBEA4
:101470000F900FBE0F901F9018951F920F920FB6EE
:101480000F9211240BB60F922F933F934F935F93BC
:101490006F937F938F939F93AF93BF93EF93FF933C
:1014A000E0910802F09109021995FF91EF91BF9127
:1014B000AF919F918F917F916F915F914F913F91EC
:1014C0002F910F900BBE0F900FBE0F901F9018958D
:1014D0001F920F920FB60F9211240BB60F922F93FB
:1014E0003F934F935F936F937F938F939F93AF93AC
:1014F000BF93EF93FF93E0910602F09107021995D5
:10150000FF91EF91BF91AF919F918F917F916F91DB
:101510005F914F913F912F910F900BBE0F900FBE97
:101520000F901F9018951F920F920FB60F921124D3
:101530000BB60F922F933F934F935F936F937F93CD
:101540008F939F93AF93BF93EF93FF93E091040228
:10155000F09105021995FF91EF91BF91AF919F9185
:101560008F917F916F915F914F913F912F910F904C
:101570000BBE0F900FBE0F901F9018951F920F92E9
:101580000FB60F9211240BB60F922F933F934F93E8
:101590005F936F937F938F939F93AF93BF93EF93DB
:1015A000FF938CE893E00E941405FF91EF91BF91A7
:1015B000AF919F918F917F916F915F914F913F91EB
:1015C0002F910F900BBE0F900FBE0F901F9018958C
:1015D0001F920F920FB60F9211240BB60F922F93FA
:1015E0008F939F93EF93FF93E0919C03F0919D0362
:1015F0008081E091A203F091A30382FD1DC0908140
:101600008091A5038F5F8F732091A603821741F00D
:10161000E091A503F0E0E457FC4F958F8093A5037C
:10162000FF91EF919F918F912F910F900BBE0F9093
:101630000FBE0F901F9018958081F2CFCF9310921C
:101640008F0310928E0388EE93E0A0E0B0E08093C9
:10165000900390939103A0939203B093930382E637
:1016600092E090938D0380938C0385EC90E09093AF
:1016700099038093980384EC90E090939B0380936C
:101680009A0380EC90E090939D0380939C0381ECFF
:1016900090E090939F0380939E0382EC90E0909360
:1016A000A1038093A00386EC90E09093A303809322
:1016B000A2031092A5031092A6031092A703109202
:1016C000A8031092ED041092EC0484E792E090934A
:1016D000EB048093EA0487E28093EE0484E1809334
:1016E000F30484E08093F4041092F50492E3909361
:1016F000D9041092DA041092DB041092DC041092E8
:10170000DD041092DE041092DF041092E0041092C7
:10171000E1041092E2041092E3041092E7041092A4
:10172000E8041092E90492E09093E40493E090932B
:10173000E5048093E6048091D7048061877F8093DD
:10174000D70462E082E00E94F50362E08091E50444
:101750000E94F5038091D70484FF05C062E0809168
:10176000E6040E94F5038091D80481608093D80438
:101770008091E4040E940A02C82F8091E5040E942F
:101780000A02880F991F8C2B8093DA0482E08093E1
:10179000D20481E08093D3048093D4048093D50451
:1017A00085EC94E00E94DE0688EB94E00E94DE0661
:1017B0008BEA94E00E94DE068EE994E00E94DE0649
:1017C00081E994E00E94DE0684E894E00E94DE064F
:1017D00065EC74E086E394E00E94AF0668EB74E089
:1017E00083E494E00E94AF066BEA74E080E594E045
:1017F0000E94AF066EE974E08DE594E00E94AF06AA
:1018000061E974E08AE694E00E94AF0664E874E05F
:1018100087E794E00E94AF0689E294E0CF910C94B0
:10182000AA08CF93DF93CDB7DEB761970FB6F894D0
:10183000DEBF0FBECDBF789484B5826084BD84B511
:10184000816084BD85B5826085BD85B5816085BDBB
:1018500080916E00816080936E0010928100809173
:1018600081008260809381008091810081608093FB
:101870008100809180008160809380008091B10020
:1018800084608093B1008091B00081608093B0004B
:10189000809191008260809391008091910081609D
:1018A000809391008091900081608093900080915E
:1018B000A10082608093A1008091A100816080934B
:1018C000A1008091A00081608093A00080912101FF
:1018D00082608093210180912101816080932101A8
:1018E0008091200181608093200180917A00846042
:1018F00080937A0080917A00826080937A00809150
:101900007A00816080937A0080917A008068809369
:101910007A001092C100E0919C03F0919D0382E057
:101920008083E0919803F09199031082E0919A03EB
:10193000F0919B038FEC80831092A403E091A003AD
:10194000F091A10386E08083E0919E03F0919F03D4
:10195000808180618083E0919E03F0919F0380816C
:1019600088608083E0919E03F0919F03808180686E
:101970008083E0919E03F0919F0380818F7D80831F
:10198000CE0101960E94AA0862E084E10E94F5035C
:1019900062E085E10E94F50388E48093B80010922C
:1019A000B9001092EF048091F404823018F098E0AE
:1019B0009093EF048093F20462E370E080E090E0A3
:1019C0000E9456046091F5048AEE94E00E94D805C6
:1019D00068EE73E080E090E00E94560460E38AEED7
:1019E00094E00E9400060BE416E4C8010197F1F7A9
:1019F00060E38AEE94E00E940006C8010197F1F7C7
:101A000060E38AEE94E00E94000683E592E001978D
:101A1000F1F760E28AEE94E00E9400066091EF0424
:101A2000606240E08AEE94E00E94190684E08093B0
:101A3000F00440E06CE08AEE94E00E94190640E079
:101A400061E08AEE94E00E9419060BE31FE1C801F1
:101A50000197F1F782E0F82EF092F10440E066E0A1
:101A60008AEE94E00E94190640E062E08AEE94E07B
:101A70000E941906C8010197F1F788E08093F504E8
:101A800060E08AEE94E00E94D805FE8681E08F87B0
:101A9000888B898B8091D704877F8093D70461E0FE
:101AA00087E00E94F50361E086E00E94F50361E0B3
:101AB00085E00E94F50361E089E00E94F50361E0A2
:101AC00088E00E94F50360E08DE30E94F50360E08A
:101AD00082E10E94F50361E087E00E94C70360E0B5
:101AE00086E00E94C7036091760385E00E94C703E9
:101AF00061E085E00E94C70360E089E00E94C703BF
:101B000061E088E00E94C70386EB94E090930B02AB
:101B100080930A0280916900806C80936900EB9A3F
:101B2000CE010E960E94E607CE0101960E9446085D
:101B3000CE0101960E949B0711E02FB7F894809187
:101B4000880390918903A0918A03B0918B032FBFE2
:101B500080937F0390938003A0938103B0938203CB
:101B60008091720390917303A0917403B0917503F7
:101B7000892B8A2B8B2B31F180917003909171030B
:101B800040917203509173036091740370917503D7
:101B90004093440450934504609346047093470473
:101BA0009093490480934804109343041092720365
:101BB00010927303109274031092750310927103C4
:101BC000109270038091D70482FD0E9433028091AD
:101BD000DB04813081F41092DB04109251041092E6
:101BE000520410925304109254041092560410920E
:101BF0005504809350048091D70482FD0E943302E3
:101C00008091DB04823081F41092DB0410925E0438
:101C100010925F04109260041092610410926304A9
:101C20001092620410935D048091D70482FD0E949B
:101C300033028091D60485FF11C08F7D8093D60436
:101C400010926B0410926C0410926D0410926E044A
:101C50001092700410926F0410936A048091D30460
:101C6000811139C080915004882359F08091D204A9
:101C7000882319F081508093D20482ED94E00E9471
:101C8000E60780915D04882359F08091D204823068
:101C900018F48F5F8093D20482ED94E00E94E607EF
:101CA00080916A04882331F01093D30482ED94E08C
:101CB0000E94E607109236041092430410925004DA
:101CC00010925D0410926A04109277040E9433020D
:101CD0000E94A30532CF9091D404911125C0909118
:101CE0005004992339F081508093D30482ED94E01D
:101CF0000E94E60780915D04882359F08091D30407
:101D0000833018F48F5F8093D30482ED94E00E94B7
:101D1000E60780916A04882369F21093D404109333
:101D2000D5040E947D07C2CF80916A048823A1F068
:101D30001092D4041092D5040E947D0782ED94E0A5
:101D40000E94E6071092760360E085E00E94C703D8
:101D500089E294E00E949B078091D204823009F0CE
:101D6000F5C00091D304013009F084C18091D504FD
:101D7000882309F442C061E080E00E94300664EDEF
:101D800072E08AEE94E00E94750761E080E00E94B4
:101D900030066DE073E08AEE94E00E94750762E021
:101DA00080E00E9430066FEC72E08AEE94E00E94C0
:101DB000750762E080E00E94300667E073E08AEE1B
:101DC00094E00E94750763E080E00E94300664EDB5
:101DD00072E08AEE94E00E94750763E080E00E9462
:101DE00030066CE073E08AEE94E00E947507009381
:101DF000760361E085E00E94C70380917B039091A8
:101E00007C03A0917D03B0917E03845D9E4FAF4F14
:101E1000BF4F40917F035091800360918103709187
:101E2000820384179507A607B707D8F561E083E01A
:101E30000E94300664ED72E08AEE94E00E9475071D
:101E400061E083E00E9430060E9475016C01990FE9
:101E5000EE08FF082AE0B701A601F7FE0EC041E038
:101E60006DE28AEE94E00E94190644275527BA01D4
:101E70004C195D096E097F092AE08AEE94E00E9400
:101E8000080780917F0390918003A0918103B09116
:101E9000820380937B0390937C03A0937D03B09394
:101EA0007E0380914304882309F450C062E084E0FB
:101EB0000E9430066FEC72E08AEE94E00E94750793
:101EC00062E084E00E943006409144045091450451
:101ED0006091460470914704809177039091780354
:101EE000A0917903B0917A03481B590B6A0B7B0BC5
:101EF0002AE08AEE94E00E94080763E084E00E94F2
:101F0000300664ED72E08AEE94E00E94750763E0AB
:101F100084E00E943006409148045091490470E0EA
:101F200060E02AE08AEE94E00E9408078091440471
:101F300090914504A0914604B091470480937703A3
:101F400090937803A0937903B0937A038091D2049D
:101F5000813009F08FC08091D304813009F08AC0AC
:101F60008091D5048823F9F061E080E00E9430067A
:101F700064ED72E08AEE94E00E94750761E080E013
:101F80000E94300661E173E08AEE94E00E947507DA
:101F900040912E0450912F0470E060E02AE08AEE18
:101FA00094E00E94080780915004882329F18091D1
:101FB0002E0490912F04009709F488CE01979093F6
:101FC0002F0480932E0461E08DE00E94300664EDC2
:101FD00072E08AEE94E00E94750761E08DE00E9455
:101FE000300640912E0450912F0470E060E02AE00A
:101FF0008AEE94E00E94080780915D04882339F1FD
:1020000080912E0490912F04883E23E0920708F0DF
:102010005DCE019690932F0480932E0461E08DE0B5
:102020000E94300664ED72E08AEE94E00E9475072B
:1020300061E08DE00E94300640912E0450912F0403
:1020400070E060E02AE08AEE94E00E940807809148
:102050006A04882379F0809130046EE274E090E0A5
:102060000E94820889E294E00E94460889E294E096
:102070000E949B071092D5041DCECF93DF93C4E836
:10208000D4E02D97CE0107960E94680684E0C633FF
:10209000D807B9F78BE894E00E94680688E994E0D5
:1020A0000E94680685EA94E00E94680682EB94E04C
:1020B0000E9468068FEB94E00E9468068CEC94E026
:1020C000DF91CF910C946806F999FECF92BD81BD46
:1020D000F89A992780B50895262FF999FECF1FBA4F
:1020E00092BD81BD20BD0FB6F894FA9AF99A0FBE41
:1020F00001960895A1E21A2EAA1BBB1BFD010DC07B
:10210000AA1FBB1FEE1FFF1FA217B307E407F507A7
:1021100020F0A21BB30BE40BF50B661F771F881F83
:10212000991F1A9469F760957095809590959B0119
:10213000AC01BD01CF010895EE0FFF1F881F8BBFBB
:102140000790F691E02D19940F931F93CF93DF938F
:102150008230910510F482E090E0E091F804F09173
:10216000F90430E020E0B0E0A0E0309799F42115C8
:10217000310509F44AC0281B390B24303105D8F544
:102180008A819B816115710589F1FB0193838283AB
:10219000FE0111C040815181028113814817590706
:1021A000E0F04817590799F4109761F012960C93D4
:1021B000129713961C933296CF01DF91CF911F9106
:1021C0000F9108950093F8041093F904F4CF2115AA
:1021D000310551F04217530738F0A901DB019A018C
:1021E000BD01DF01F801C1CFEF01F9CF9093F904F0
:1021F0008093F804CDCFFE01E20FF31F81939193FA
:102200002250310939832883D7CF2091F6043091A9
:10221000F704232B41F420911602309117023093DA
:10222000F7042093F6042091140230911502211531
:10223000310541F42DB73EB7409118025091190273
:10224000241B350BE091F604F091F704E217F30735
:10225000A0F42E1B3F0B2817390778F0AC014E5F16
:102260005F4F2417350748F04E0F5F1F5093F70458
:102270004093F604819391939FCFF0E0E0E09CCFF0
:10228000CF93DF930097E9F0FC013297138212821B
:10229000A091F804B091F904ED0130E020E010972E
:1022A000A1F420813181820F931F2091F604309197
:1022B000F7042817390709F061C0F093F704E09399
:1022C000F604DF91CF910895EA01CE17DF07E8F514
:1022D0004A815B819E0141155105B1F7E901FB83FC
:1022E000EA8349915991C40FD51FEC17FD0761F49A
:1022F000808191810296840F951FE90199838883DB
:10230000828193819B838A83F0E0E0E012968D9135
:102310009C9113970097B9F52D913C911197CD01A0
:102320000296820F931F2091F6043091F70428172C
:10233000390739F6309751F51092F9041092F804E4
:10234000B093F704A093F604BCCFD383C28340813B
:102350005181840F951FC817D90761F44E5F5F4FF5
:1023600088819981480F591F518340838A819B81BD
:10237000938382832115310509F0B0CFF093F904DE
:10238000E093F8049ECFFD01DC01C0CF13821282DE
:10239000D7CF4F925F926F927F928F929F92AF9220
:1023A000BF92CF92DF92EF92FF920F931F93CF9342
:1023B000DF938C01009799F4CB01DF91CF911F91AE
:1023C0000F91FF90EF90DF90CF90BF90AF909F90D4
:1023D0008F907F906F905F904F900C94A410FC01B1
:1023E000E60FF71F9C0122503109E217F30708F4AA
:1023F000AEC0D901CD91DC911197C617D70720F156
:10240000C530D10578F0CE0104978617970750F0B4
:10241000C61BD70B2297C193D1936D937C93CF01A9
:102420000E944011C801DF91CF911F910F91FF9041
:10243000EF90DF90CF90BF90AF909F908F907F9064
:102440006F905F904F9008955B01AC1ABD0A4C01EC
:102450008C0E9D1EA091F804B091F904512C412CD2
:10246000F12CE12C109731F58091F6049091F7044E
:102470008815990509F05CC04616570608F058C043
:102480008091140290911502009741F48DB79EB788
:102490004091180250911902841B950BE817F90717
:1024A00008F055C0F093F704E093F604F901718346
:1024B0006083B8CF8D919C91119712966C90129772
:1024C00013967C901397A815B90559F56C0142E055
:1024D000C40ED11CCA14DB0420F1AC014A195B09FB
:1024E000DA011296159780F06282738251834083DD
:1024F000D9016D937C93E114F10471F0D701139627
:10250000FC93EE9312978ECF22968C0F9D1FF901AC
:1025100091838083F301EFCFF093F904E093F80403
:1025200081CF4816590608F42C017D01D3019ACFBA
:10253000CB010E94A4107C01009749F0AE01B801C4
:102540000E94AA12C8010E94401187016BCF10E0BF
:1025500000E068CFFB01DC0102C001900D92415008
:102560005040D8F70895FB01DC0101900D92002046
:10257000E1F7089511E0C1E4D1E000E006C0802F4A
:10258000FE010E949C102196011DC234D10780E0FB
:082590000807A9F7F894FFCF3A
:1025980088048804880488048804880488048804D3
:1025A800000000010000FA04800000004000140050
:1025B80054001F0324032E0335030000000000000D
:1025C8000000000000003B033F0346034B030000EC
:1025D80000000000000000000000540359036403D9
:1025E8006903000000000000000000000000000077
:1025F800000036058904CD048305FE04DC04F004DC
:102608000000000062068904D505D4050D0A0043C0
:102618006F6E6669673A200046535F4B45593A200A
:10262800004D4F44453A20004C4150535F4E3A20EC
:102638000053454E534F525F49474E4F52455F54E2
:10264800494D453A20004D5554453A200020202058
:102658002020202020202020202020202020202072
:102668002020202020202020003C2D002D3E003A54
:102678000046697273742073746172742C207772C7
:102688006974696E672064656661756C74732E2E53
:102698002E00446F6E650064743A200069563A2033
:1026A800004C415053204E554D4245523A2000525D
:1026B8006163650053656C207261636572004361F4
:1026C8006E63656C00526574727900536574004CD2
:1026D800617073206E004D6F64650049676E6F729C
:1026E800652074005465737400416C6C2076616CCD
:1026F8007565730054696D6500426C696E6B000006
:00000001FF
