:100000000C9442010C9452090C9427090C94FC089E
:100010000C94D1080C94A6080C947B080C945008FE
:100020000C9425080C9473010C9473010C947301C7
:100030000C9473010C9473010C9473010C94730170
:100040000C9473010C9473010C9473010C94730160
:100050000C9473010C9473010C9473010C94DB07E2
:100060000C9473010C94A7090C947D090C947301F2
:100070000C9473010C9473010C9473010C94730130
:100080000C9473010C9473010C9473010C94730120
:100090000C9473010C9473010C9473010C94730110
:1000A0000C9473010C9473010C9473010C94730100
:1000B0000C9473010C9473010C9473010C947301F0
:1000C0000C9473010C9473010C9473010C947301E0
:1000D0000C9473010C9473010C9473010C947301D0
:1000E0000C9473010C94E6010C94F0040C94EA0156
:1000F0000C94D6010C9488040C94CF010C94DC046D
:100100000C94D4050C9436050C94D3010C9462061F
:100110000C94CD040C94CB010C9483050C94010237
:100120000C94EE010C94E0010C9402020C94DC019E
:100130000C94F8010C94B6040C94F4010C94710E18
:100140000C94DD090C9489040C9406020C94C101F2
:100150000C94D5050C94FE040C94C7010C94FC017E
:1001600000002100240027002A002D003000330069
:1001700001010000040107010A010000220025001E
:1001800028002B002E003100340002010000050180
:1001900008010B01000020002300260029002C008C
:1001A0002F003200000100000301060109010505CE
:1001B0000505070508080808020202020A0A0808DD
:1001C000040404040101010101010101030303030B
:1001D00003030303040707070C0C0C0C0C0C0C0C9A
:1001E0000202020206060606060606060B0B0B0BAB
:1001F0000B0B0B0B010210202008081020401020D0
:1002000040800201020108040201010204081020DA
:1002100040808040201008040201800402018040D8
:100220002010080402010804020101020408102041
:100230004080010204081020408000000A0B0209DF
:100240000C0D0E0807030401000000000000000070
:10025000000000000000000000000000000000009E
:10026000000000000000121110000000000000005B
:10027000000000000000000000000000000000007E
:10028000DD09710E11241FBECFEFD1E2DEBFCDBF5D
:1002900000E00CBF24E0AEEFB2E001C01D92AB372E
:1002A000B207E1F712E0A0E0B2E0E4EEF1E200E034
:1002B0000BBF02C007900D92AE3FB107D9F711E016
:1002C000C1E4D1E000E006C021970109802FFE01C2
:1002D0000E94C20EC034D10780E00807A9F70E942F
:1002E000CC0A0C94E0100C94000080917B00877F76
:1002F00080937B0087E480937C0080917A00806407
:1003000080937A0080917A0086FDFCCF80917800FE
:100310009091790008958093BB0084E88093BC009D
:100320008091BC0087FFFCCF8091B900887F80322C
:1003300021F481E0809311020895803319F481E063
:100340008093120208958150823108F05AC0E82F3C
:10035000F0E08827E155FE4F8F4F0C94C20ECF017D
:10036000D301C101C701CB010102D601DC01E001CB
:10037000E601EA01EE01F401F8010102FC010202CA
:100380000602809180008F7780938000089580918D
:1003900080008F7DF9CF80918000877FF5CF84B575
:1003A0008F7784BD089584B58F7DFBCF8091B00099
:1003B0008F778093B00008958091B0008F7DF9CF42
:1003C000809190008F7780939000089580919000A5
:1003D0008F7DF9CF80919000877FF5CF8091A0002D
:1003E0008F778093A00008958091A0008F7DF9CF32
:1003F0008091A000877FF5CF809120018F77809337
:1004000020010895809120018F7DF9CF80912001F6
:10041000877FF5CFCF93DF93282F30E0F901E65C9B
:10042000FD4F8491F901EC50FE4FD491F901E25552
:10043000FE4FC491CC23A1F081110E94A301EC2FA7
:10044000F0E0EE0FFF1FEC56FE4FA591B491EC913A
:10045000ED2381E090E009F480E0DF91CF910895F1
:1004600080E090E0FACF8F929F92AF92BF92CF92AE
:10047000DF92EF92FF920F931F93CF93DF938FB78B
:10048000F894C0901603D0901703E0901803F090F2
:1004900019038FBF8091580484FF74C080905D045D
:1004A00090905E04A0905F04B09060049091690405
:1004B0009111F6C0809167040E940A0220915904AC
:1004C000022F017010E021E00817190709F420E05D
:1004D00020936A04B701A601481959096A097B09E2
:1004E00020916A049091570491FB882780F9222378
:1004F00009F419C181111AC0413551056105710511
:10050000A8F0C0925D04D0925E04E0925F04F09285
:100510006004997E92619068909357048091590489
:1005200080628093590440E050E0BA018091590400
:100530009091570484FF12C04D3231E0530761059A
:10054000710560F092FD05C083FDB4C082608093A8
:100550005904809159048F7E8093590491FF12C0F1
:100560004D3B52406105710568F092FD0BC022239E
:1005700009F4A2C0916090935704809159048F7D33
:100580008093590480916904882309F4A2C0909152
:10059000580496FB332730F9C32F80E0D82FCC0FB7
:1005A000DD1F95FB882780F98C2B20915B04281791
:1005B00009F469C010925C049091590496FFB0C090
:1005C000833009F097C09F7B90935904213009F440
:1005D0008DC091E0223009F48AC09091580493FDB7
:1005E00003C0833009F493C090915C049923E1F136
:1005F0002091570428602093570440916104509142
:100600006204609163047091640497018601041B85
:10061000150B260B370B40915A0450E070E060E058
:10062000041715072607370760F420915804226045
:10063000913029F0923029F42091580421602093C0
:100640005804C0926104D0926204E0926304F09274
:1006500064042091580424FF07C020916A042223D7
:1006600019F09E5F90935C0480935B048091570423
:10067000846080935704C0925D04D0925E04E0923F
:100680005F04F0926004DF91CF911F910F91FF9072
:10069000EF90DF90CF90BF90AF909F908F90089594
:1006A00087FB882780F980936A0414CF80915904CE
:1006B000886037CF84604BCF9D7F9E7F9093570497
:1006C000C0925D04D0925E04E0925F04F0926004F8
:1006D00059CF809165040E940A02C82F8091660458
:1006E0000E940A02880F991F8C2B5FCF92E0909393
:1006F0005C0473CF3091580433FD46C0811174CF30
:100700009F7B90935904213041F0223031F0909139
:10071000590490649093590467CF20935C04F7CFF9
:100720008823A9F35ACF882309F400CF4135510516
:100730006105710508F4FACE92FD05C090FD03C075
:100740009062909357044D3B52406105710528F02B
:100750008091570480648093570480915704C0921D
:100760005D04D0925E04E0925F04F09260048D7F9D
:100770008E7F809357048091590485FF97CF84FD25
:1007800095CF8061877FCDCE882309F26DCF1F93EF
:10079000CF93DF93282F30E0F901E65CFD4F849181
:1007A000F901EC50FE4FD491F901E255FE4FC4918E
:1007B000CC23A9F0162F81110E94A301EC2FF0E0A9
:1007C000EE0FFF1FE658FE4FA591B4918FB7F89436
:1007D000EC91111108C0D095DE23DC938FBFDF911F
:1007E000CF911F910895DE2BF8CFCF93DF9390E048
:1007F000FC01EC50FE4F249182559E4FFC018491E8
:100800008823C9F090E0880F991FFC01E05AFE4F41
:10081000A591B491FC01E658FE4FC591D4916111A8
:100820000DC09FB7F8948C91209582238C9388817A
:10083000282328839FBFDF91CF910895623051F420
:100840009FB7F8943C91822F809583238C93E88105
:100850002E2BEFCF8FB7F894EC912E2B2C938FBFCC
:10086000EACF3FB7F8948091120390911303A091BF
:100870001403B091150326B5A89B05C02F3F19F0AE
:100880000196A11DB11D3FBFBA2FA92F982F882710
:10089000BC01CD01620F711D811D911D42E0660FEB
:1008A000771F881F991F4A95D1F708958F929F92BD
:1008B000AF92BF92CF92DF92EF92FF924B015C0119
:1008C0000E9431046B017C010E9431046C197D0986
:1008D0008E099F09683E734081059105A8F321E0C8
:1008E000821A9108A108B10888EEC80E83E0D81ECC
:1008F000E11CF11C81149104A104B10429F7FF90BB
:10090000EF90DF90CF90BF90AF909F908F90089521
:100910000895AF92BF92CF92DF92EF92FF920F9322
:100920001F93CF93DF936C017B018B01040F151F85
:10093000EB015E01AE18BF08C017D10759F06991ED
:10094000D601ED91FC910190F081E02DC601199541
:10095000892B79F7C501DF91CF911F910F91FF90FE
:10096000EF90DF90CF90BF90AF90089580910D03EE
:1009700090910E03A0910F03B09110038093000398
:1009800090930103A0930203B09303030E947501A7
:100990009093FF028093FE020895FC01538D448DD5
:1009A000252F30E0842F90E0821B930B541710F01A
:1009B000CF96089501970895FC01918D828D981727
:1009C00061F0A28DAE0FBF2FB11D5D968C91928DFF
:1009D0009F5F9F73928F90E008958FEF9FEF089530
:1009E000FC01918D828D981731F0828DE80FF11DF9
:1009F000858D90E008958FEF9FEF0895FC01918D14
:100A0000228D892F90E0805C9F4F821B91098F730C
:100A1000992708958AE193E00E94FE0421E0892B42
:100A200009F420E0822F0895FC01A48DA80FB92FAE
:100A3000B11DA35ABF4F2C91848D90E001968F7306
:100A40009927848FA689B7892C93A089B1898C9125
:100A5000837080648C93938D848D981306C0028874
:100A6000F389E02D80818F7D80830895EF92FF923E
:100A70000F931F93CF93DF93EC0181E0888F9B8DC1
:100A80008C8D98131AC0E889F989808185FF15C07B
:100A90009FB7F894EE89FF896083E889F98980819E
:100AA0008370806480839FBF81E090E0DF91CF916D
:100AB0001F910F91FF90EF900895F62E0B8D10E08F
:100AC0000F5F1F4F0F731127E02E8C8D8E110CC0FE
:100AD0000FB607FCFACFE889F989808185FFF5CF49
:100AE000CE010E941405F1CFEB8DEC0FFD2FF11D0F
:100AF000E35AFF4FF0829FB7F8940B8FEA89FB8986
:100B000080818062CFCFCF93DF93EC01888D8823E3
:100B1000B9F0AA89BB89E889F9898C9185FD03C060
:100B2000808186FD0DC00FB607FCF7CF8C9185FF45
:100B3000F2CF808185FFEDCFCE010E941405E9CF71
:100B4000DF91CF91089580E090E0892B29F00E94F9
:100B50000A0581110E94000080E090E0892B49F095
:100B600080E090E0892B29F00E94000081110E9412
:100B7000000080E090E0892B49F080E090E0892B34
:100B800029F00E94000081110E94000080E090E0A6
:100B9000892B49F080E090E0892B29F00E94000029
:100BA00081110C9400000895089590E080E008956C
:100BB0001F93CF93DF93EC01162F8C8194EA9093CF
:100BC000BC009091BC0097FFFCCF880F0E948B0166
:100BD0008B85812B0E948B0184E98093BC008091DE
:100BE0001102882329F0109211021092120204C0FF
:100BF000809112028111F9CFDF91CF911F91089559
:100C00000F931F93CF938C01C62F0E94D8056C2F92
:100C10006460C8010E94D8056C2F6B7FC8010E94D8
:100C2000D80583EC90E00197F1F7CF911F910F91D8
:100C300008950F931F93CF93DF938C01D62FC42F6A
:100C4000607F642B0E94000680E1D89FB0011124D0
:100C50006C2BC801DF91CF911F910F910C9400066E
:100C6000CF93DF9300D000D01F921F92CDB7DEB795
:100C700098E0EAE1F2E0DE01119601900D929A957A
:100C8000E1F790917304961710F46FEF690F262F18
:100C900030E0220F331F41E050E04C0F5D1F240F66
:100CA000351FF9016081680F606840E08BE694E0D1
:100CB00028960FB6F894DEBF0FBECDBFDF91CF915F
:100CC0000C94190641E00E94190681E090E0089515
:100CD000FC0180819181009711F00C94660F0895BA
:100CE000EF92FF920F931F93CF93DF93EC017B0161
:100CF0008A0188819981009729F02A813B812417F4
:100D0000350788F4B8016F5F7F4F0E94EF0F00979F
:100D100091F0998388831B830A832C813D81232B47
:100D200011F4FC0110821D830C83B7018881998125
:100D30000E94D9100CC088819981009711F00E94FF
:100D4000660F198218821D821C821B821A82CE01B4
:100D5000DF91CF911F910F91FF90EF900895FC01CB
:100D6000DB018C91808311964D915D916D917C9109
:100D70001497418352836383748315968D919C915C
:100D8000169796838583CF01079610861782128661
:100D90001186148613869D01295F3F4F82179307A2
:100DA00061F017966D917C9118976115710529F086
:100DB0001B964D915C910C9470060895FC01108275
:100DC0001182128213821482168215821086178273
:100DD000128611861486138650E040E062EA72E0C3
:100DE00007960C947006FB0101900020E9F73197FB
:100DF000AF01461B570BDC01ED91FC910280F381A2
:100E0000E02D19948F929F92AF92BF92EF92FF9232
:100E10000F931F93CF93DF93CDB7DEB7A1970FB694
:100E2000F894DEBF0FBECDBF7C01FA01CB0119A241
:100E3000223008F42AE08E010F5D1F4F822E912C84
:100E4000B12CA12CBF01A50194010E94A00EF901B3
:100E5000CA016A300CF5605DD8016E938D01232BB9
:100E6000242B252B79F790E080E0109721F0BD012D
:100E7000C7010E94F306A1960FB6F894DEBF0FBE1D
:100E8000CDBFDF91CF911F910F91FF90EF90BF9059
:100E9000AF909F908F900895695CDECF009729F006
:100EA000BC018BE694E00C94F30690E080E008959A
:100EB00060E080E00E9430068CE792E00E944E07DE
:100EC00060E080E00E943006E091530424E1E29F5C
:100ED000F0011124EE5DFD4F808191810E944E074B
:100EE00080915404882321F18130F9F488E992E05B
:100EF0000E944E0780915304E09154042AE0829F9F
:100F0000C0011124E80FF92FF11DEE0FFF1FEE5D58
:100F1000FD4F808191810E944E0780915504882366
:100F200039F08EE992E00C944E078BE992E0E0CF25
:100F3000089561E080E00E94300683E892E00E941C
:100F40004E0762E080E00E94300683E892E00E9453
:100F50004E0763E080E00E94300683E892E00C9444
:100F60004E07CF93DF93AC0170E060E02AE08AE1A6
:100F700093E00E940207EC0160EA72E08AE193E0EC
:100F80000E94F3068C0F9D1FDF91CF9108950F9360
:100F90001F93CF93DF938C01EB010E94980E8883FF
:100FA000C80101960E94980E8983CE01DF91CF91EE
:100FB0001F910F9108951F920F920FB60F92112457
:100FC0002F933F938F939F93AF93BF93809116037B
:100FD00090911703A0911803B09119033091110358
:100FE00023E0230F2D3758F50196A11DB11D209345
:100FF00011038093160390931703A0931803B093E3
:1010000019038091120390911303A0911403B091DE
:1010100015030196A11DB11D809312039093130334
:10102000A0931403B0931503BF91AF919F918F913B
:101030003F912F910F900FBE0F901F90189526E8AB
:10104000230F0296A11DB11DD2CF1F920F920FB692
:101050000F9211240BB60F922F933F934F935F93F0
:101060006F937F938F939F93AF93BF93EF93FF9370
:10107000E0910E02F0910F021995FF91EF91BF914F
:10108000AF919F918F917F916F915F914F913F9120
:101090002F910F900BBE0F900FBE0F901F901895C1
:1010A0001F920F920FB60F9211240BB60F922F932F
:1010B0003F934F935F936F937F938F939F93AF93E0
:1010C000BF93EF93FF93E0910C02F0910D021995FD
:1010D000FF91EF91BF91AF919F918F917F916F9110
:1010E0005F914F913F912F910F900BBE0F900FBECC
:1010F0000F901F9018951F920F920FB60F92112408
:101100000BB60F922F933F934F935F936F937F9301
:101110008F939F93AF93BF93EF93FF93E09102025E
:10112000F09103021995FF91EF91BF91AF919F91BB
:101130008F917F916F915F914F913F912F910F9080
:101140000BBE0F900FBE0F901F9018951F920F921D
:101150000FB60F9211240BB60F922F933F934F931C
:101160005F936F937F938F939F93AF93BF93EF930F
:10117000FF93E0910002F09101021995FF91EF9128
:10118000BF91AF919F918F917F916F915F914F919F
:101190003F912F910F900BBE0F900FBE0F901F909D
:1011A00018951F920F920FB60F9211240BB60F9243
:1011B0002F933F934F935F936F937F938F939F935F
:1011C000AF93BF93EF93FF93E0910A02F0910B026C
:1011D0001995FF91EF91BF91AF919F918F917F9161
:1011E0006F915F914F913F912F910F900BBE0F9098
:1011F0000FBE0F901F9018951F920F920FB60F926F
:1012000011240BB60F922F933F934F935F936F93DD
:101210007F938F939F93AF93BF93EF93FF93E0914F
:101220000802F09109021995FF91EF91BF91AF91DA
:101230009F918F917F916F915F914F913F912F91EE
:101240000F900BBE0F900FBE0F901F9018951F921E
:101250000F920FB60F9211240BB60F922F933F935C
:101260004F935F936F937F938F939F93AF93BF93AE
:10127000EF93FF93E0910602F09107021995FF9119
:10128000EF91BF91AF919F918F917F916F915F91FE
:101290004F913F912F910F900BBE0F900FBE0F906B
:1012A0001F9018951F920F920FB60F9211240BB634
:1012B0000F922F933F934F935F936F937F938F93EF
:1012C0009F93AF93BF93EF93FF93E0910402F0914C
:1012D00005021995FF91EF91BF91AF919F918F9169
:1012E0007F916F915F914F913F912F910F900BBE26
:1012F0000F900FBE0F901F9018951F920F920FB670
:101300000F9211240BB60F922F933F934F935F933D
:101310006F937F938F939F93AF93BF93EF93FF93BD
:101320008AE193E00E941405FF91EF91BF91AF9184
:101330009F918F917F916F915F914F913F912F91ED
:101340000F900BBE0F900FBE0F901F9018951F921D
:101350000F920FB60F9211240BB60F922F938F930B
:101360009F93EF93FF93E0912A03F0912B038081E9
:10137000E0913003F091310382FD1DC09081809196
:1013800033038F5F8F7320913403821741F0E09114
:101390003303F0E0E65EFC4F958F80933303FF91BB
:1013A000EF919F918F912F910F900BBE0F900FBED9
:1013B0000F901F9018958081F2CFCF9310921D034C
:1013C00010921C0388EE93E0A0E0B0E080931E032F
:1013D00090931F03A0932003B093210382E692E031
:1013E00090931B0380931A0385EC90E0909327035E
:1013F0008093260384EC90E0909329038093280344
:1014000080EC90E090932B0380932A0381EC90E092
:1014100090932D0380932C0382EC90E090932F0304
:1014200080932E0386EC90E09093310380933003F9
:101430001092330310923403109235031092360346
:1014400010926E0410926D0484E792E090936C0405
:1014500080936B0487E280936F0484E1809374042B
:1014600084E0809375041092760492E390935A047A
:1014700010925B0410925C0410925D0410925E0462
:1014800010925F0410926004109261041092620442
:10149000109263041092640410926804109269041C
:1014A00010926A0492E09093650493E0909366042E
:1014B00080936704809158048061877F80935804EB
:1014C00062E082E00E94F50362E0809166040E947F
:1014D000F5038091580484FF05C062E080916704A1
:1014E0000E94F50380915904816080935904809192
:1014F00065040E940A02C82F809166040E940A02B5
:10150000880F991F8C2B80935B0482E08093530497
:1015100081E080935404809355048093560486E4BC
:1015200094E00E94DE0689E394E00E94DE068CE2ED
:1015300094E00E94DE068FE194E00E94DE0682E1E4
:1015400094E00E94DE0685E094E00E94DE0666E4F8
:1015500074E087EB93E00E94AF0669E374E084ECEB
:1015600093E00E94AF066CE274E081ED93E00E948C
:10157000AF066FE174E08EED93E00E94AF0662E18A
:1015800074E08BEE93E00E94AF0665E074E088EFB4
:1015900093E0CF910C94AF06CF93DF9300D000D0AF
:1015A0001F921F92CDB7DEB7789484B5826084BD58
:1015B00084B5816084BD85B5826085BD85B5816057
:1015C00085BD80916E00816080936E0010928100D5
:1015D0008091810082608093810080918100816090
:1015E0008093810080918000816080938000809151
:1015F000B10084608093B1008091B00081608093DD
:10160000B000809191008260809391008091910060
:101610008160809391008091900081608093900020
:101620008091A10082608093A1008091A1008160DF
:101630008093A1008091A00081608093A0008091A0
:10164000210182608093210180912101816080933A
:1016500021018091200181608093200180917A0096
:10166000846080937A0080917A00826080937A000F
:1016700080917A00816080937A0080917A008068FE
:1016800080937A001092C100E0912A03F0912B031D
:1016900082E08083E0912603F09127031082E0919D
:1016A0002803F09129038FEC808310923203E0919C
:1016B0002E03F0912F0386E08083E0912C03F091BC
:1016C0002D03808180618083E0912C03F0912D03B4
:1016D000808188608083E0912C03F0912D038081CC
:1016E00080688083E0912C03F0912D0380818F7DB1
:1016F000808362E084E10E94F50362E085E10E945C
:10170000F50388E48093B8001092B9001092700439
:1017100080917504823018F098E090937004809363
:10172000730462E370E080E090E00E9456046091F0
:1017300076048BE694E00E94D80568EE73E080E0C2
:1017400090E00E94560460E38BE694E00E9400065D
:101750000BE416E4C8010197F1F760E38BE694E02F
:101760000E940006C8010197F1F760E38BE694E060
:101770000E94000683E592E00197F1F760E28BE6B4
:1017800094E00E94000660917004606240E08BE685
:1017900094E00E94190684E08093710440E06CE0BC
:1017A0008BE694E00E94190640E061E08BE694E04D
:1017B0000E9419060BE31FE1C8010197F1F782E0CF
:1017C0008093720440E066E08BE694E00E94190684
:1017D00040E062E08BE694E00E941906C8010197A0
:1017E000F1F788E08093760460E08BE694E00E9455
:1017F000D80580915804877F8093580461E087E082
:101800000E94F50361E086E00E94F50361E085E057
:101810000E94F50361E089E00E94F50361E088E041
:101820000E94F50360E08DE30E94F50360E082E131
:101830000E94F50361E087E00E94C70360E086E054
:101840000E94C7036091040385E00E94C70361E022
:1018500085E00E94C70360E089E00E94C70361E061
:1018600088E00E94C70386EB94E090930B0280937C
:101870000A0280916900806C80936900EB9A0E9453
:101880005807BE01695F7F4F87E090E00E94C7075D
:1018900086E090E00E94980E182FBE016B5F7F4F8C
:1018A00084E090E00E94C707BE016D5F7F4F82E039
:1018B00090E00E94C707BE016F5F7F4F80E090E01D
:1018C0000E94C7078F8198850E94B107412F50E081
:1018D00070E060E02AE08AE193E00E94020760EA9B
:1018E00072E08AE193E00E94F3068D819E810E945E
:1018F000B1078B819C810E94B10789819A810E94E6
:10190000B10760EA72E08AE193E00E94F30611E019
:101910002FB7F8948091160390911703A0911803A4
:10192000B09119032FBF80930D0390930E03A093E2
:101930000F03B09310038091000390910103A091D5
:101940000203B0910303892B8A2B8B2B31F18091F9
:10195000FE029091FF0240910003509101036091BB
:101960000203709103034093C5035093C603609331
:10197000C7037093C8039093CA038093C90310935D
:10198000C4031092000310920103109202031092FC
:1019900003031092FF021092FE028091580482FD10
:1019A0000E94330280915C04813081F410925C04C7
:1019B0001092D2031092D3031092D4031092D50345
:1019C0001092D7031092D6038093D10380915804CC
:1019D00082FD0E94330280915C04823081F4109277
:1019E0005C041092DF031092E0031092E103109266
:1019F000E2031092E4031092E3031093DE0380915C
:101A0000580482FD0E9433028091570485FF11C063
:101A10008F7D809357041092EC031092ED03109287
:101A2000EE031092EF031092F1031092F003109363
:101A3000EB0380915404811133C08091D10388233A
:101A400049F080915304882319F081508093530406
:101A50000E9458078091DE03882349F08091530447
:101A6000823018F48F5F809353040E94580780914E
:101A7000EB03882321F0109354040E94580710921E
:101A8000B7031092C4031092D1031092DE03109298
:101A9000EB031092F8030E9433020E94A30538CF93
:101AA00090915504911121C09091D103992329F06F
:101AB0008150809354040E9458078091DE0388234C
:101AC00049F080915404833018F48F5F809354045C
:101AD0000E9458078091EB03882389F210935504E4
:101AE000109356040E949907C8CF8091EB03882376
:101AF00071F010925504109256040E9499070E94AA
:101B000058071092040360E085E00E94C7038091AB
:101B10005304823009F0E2C000915404013009F00E
:101B2000DDC0809156048823B1F161E080E00E941D
:101B3000300683E992E00E944E0761E080E00E9457
:101B4000300689EA92E00E944E0762E080E00E943F
:101B500030068EE892E00E944E0762E080E00E942C
:101B6000300683EA92E00E944E0763E080E00E9424
:101B7000300683E992E00E944E0763E080E00E9415
:101B8000300688EA92E00E944E070093040361E069
:101B900085E00E94C7038091090390910A03A091F8
:101BA0000B03B0910C03845D9E4FAF4FBF4F40912C
:101BB0000D0350910E0360910F0370911003841771
:101BC0009507A607B707C8F561E083E00E943006D5
:101BD00083E992E00E944E0761E083E00E943006B4
:101BE0000E9475016C01990FEE08FF082AE0B70109
:101BF000A601F7FE0EC041E06DE28BE694E00E9484
:101C0000190644275527BA014C195D096E097F0949
:101C10002AE08BE694E00E94020780910D039091E8
:101C20000E03A0910F03B0911003809309039093CA
:101C30000A03A0930B03B0930C038091C403882381
:101C400009F44CC062E084E00E9430068EE892E025
:101C50000E944E0762E084E00E9430064091C50376
:101C60005091C6036091C7037091C803809105032A
:101C700090910603A0910703B0910803481B590BEC
:101C80006A0B7B0B2AE08BE694E00E94020763E07C
:101C900084E00E94300683E992E00E944E0763E0F0
:101CA00084E00E9430064091C9035091CA0370E05D
:101CB00060E02AE08BE694E00E9402078091C50371
:101CC0009091C603A091C703B091C8038093050308
:101CD00090930603A0930703B09308031092560451
:101CE000CECECF93DF93C5E0D4E02D97CE010796FB
:101CF0000E94680683E0C73BD807B9F78CE094E000
:101D00000E94680689E194E00E94680686E294E0F9
:101D10000E94680683E394E00E94680680E494E0F1
:101D20000E9468068DE494E0DF91CF910C946806E0
:101D3000F999FECF92BD81BDF89A992780B5089593
:101D4000A1E21A2EAA1BBB1BFD010DC0AA1FBB1FBF
:101D5000EE1FFF1FA217B307E407F50720F0A21B31
:101D6000B30BE40BF50B661F771F881F991F1A949E
:101D700069F760957095809590959B01AC01BD01C8
:101D8000CF010895EE0FFF1F881F8BBF0790F691BC
:101D9000E02D19940F931F93CF93DF938230910519
:101DA00010F482E090E0E0917904F0917A0430E060
:101DB00020E0B0E0A0E0309799F42115310509F456
:101DC0004AC0281B390B24303105D8F58A819B8104
:101DD0006115710589F1FB0193838283FE0111C0B6
:101DE000408151810281138148175907E0F048175B
:101DF000590799F4109761F012960C931297139665
:101E00001C933296CF01DF91CF911F910F910895CE
:101E10000093790410937A04F4CF2115310551F021
:101E20004217530738F0A901DB019A01BD01DF0118
:101E3000F801C1CFEF01F9CF90937A048093790430
:101E4000CDCFFE01E20FF31F819391932250310910
:101E500039832883D7CF2091770430917804232BBE
:101E600041F42091160230911702309378042093A8
:101E7000770420911402309115022115310541F4A7
:101E80002DB73EB74091180250911902241B350B13
:101E9000E0917704F0917804E217F307A0F42E1B89
:101EA0003F0B2817390778F0AC014E5F5F4F2417BE
:101EB000350748F04E0F5F1F509378044093770426
:101EC000819391939FCFF0E0E0E09CCFCF93DF939D
:101ED0000097E9F0FC01329713821282A0917904F5
:101EE000B0917A04ED0130E020E01097A1F4208158
:101EF0003181820F931F2091770430917804281745
:101F0000390709F061C0F0937804E0937704DF911A
:101F1000CF910895EA01CE17DF07E8F54A815B818A
:101F20009E0141155105B1F7E901FB83EA8349910F
:101F30005991C40FD51FEC17FD0761F48081918181
:101F40000296840F951FE90199838883828193818A
:101F50009B838A83F0E0E0E012968D919C91139729
:101F60000097B9F52D913C911197CD010296820F02
:101F7000931F20917704309178042817390739F698
:101F8000309751F510927A0410927904B093780446
:101F9000A0937704BCCFD383C28340815181840F47
:101FA000951FC817D90761F44E5F5F4F88819981EB
:101FB000480F591F518340838A819B819383828379
:101FC0002115310509F0B0CFF0937A04E09379043C
:101FD0009ECFFD01DC01C0CF13821282D7CF4F927A
:101FE0005F926F927F928F929F92AF92BF92CF92A9
:101FF000DF92EF92FF920F931F93CF93DF938C01A9
:10200000009799F4CB01DF91CF911F910F91FF9031
:10201000EF90DF90CF90BF90AF909F908F907F9088
:102020006F905F904F900C94CA0EFC01E60FF71F63
:102030009C0122503109E217F30708F4AEC0D90120
:10204000CD91DC911197C617D70720F1C530D10586
:1020500078F0CE0104978617970750F0C61BD70B70
:102060002297C193D1936D937C93CF010E94660F09
:10207000C801DF91CF911F910F91FF90EF90DF90FA
:10208000CF90BF90AF909F908F907F906F905F9018
:102090004F9008955B01AC1ABD0A4C018C0E9D1E39
:1020A000A0917904B0917A04512C412CF12CE12CAF
:1020B000109731F5809177049091780488159905EF
:1020C00009F05CC04616570608F058C0809114020B
:1020D00090911502009741F48DB79EB74091180278
:1020E00050911902841B950BE817F90708F055C0A9
:1020F000F0937804E0937704F90171836083B8CF9B
:102100008D919C91119712966C90129713967C90DA
:102110001397A815B90559F56C0142E0C40ED11CFE
:10212000CA14DB0420F1AC014A195B09DA011296EA
:10213000159780F06282738251834083D9016D9339
:102140007C93E114F10471F0D7011396FC93EE93A4
:1021500012978ECF22968C0F9D1FF9019183808359
:10216000F301EFCFF0937A04E093790481CF48161E
:10217000590608F42C017D01D3019ACFCB010E94AE
:10218000CA0E7C01009749F0AE01B8010E94D01040
:10219000C8010E94660F87016BCF10E000E068CF96
:1021A000FB01DC0102C001900D9241505040D8F774
:1021B0000895FB01DC0101900D920020E1F70895E4
:1021C00011E0C1E4D1E000E006C0802FFE010E94D2
:1021D000C20E2196011DC234D10780E00807A9F77D
:0421E000F894FFCFA1
:1021E400880488048804880488048804880488048B
:1021F4000000000100007B04800000004000140087
:102204005400AD02B202BC02C30200000000000090
:10221400000000000000C902CD02D402D90200006F
:1022240000000000000000000000E202E702F202E9
:10223400F7020000000000000000000000000000A1
:10224400000036058904CD048305FE04DC04F00493
:102254000000000062068904D505D4052020202052
:10226400202020202020202020202020202020206A
:1022740020202020202020003C2D002D3E003A006C
:102284000D0A0064743A200069563A2000526163D2
:10229400650053656C2072616365720043616E630F
:1022A400656C00526574727900536574004C6170FA
:1022B40073206E004D6F64650049676E6F72652010
:1022C40074005465737400416C6C2076616C7565A0
:0E22D400730054696D6500426C696E6B00000A
:00000001FF
