:100000000C943E010C946F010C946F010C946F01E1
:100010000C946F010C946F010C946F010C946F01A0
:100020000C946F010C946F010C946F010C946F0190
:100030000C946F010C946F010C946F010C946F0180
:100040000C946F010C946F010C946F010C946F0170
:100050000C946F010C946F010C946F010C94D108F7
:100060000C946F010C9445090C941B090C946F01BE
:100070000C946F010C946F010C946F010C946F0140
:100080000C946F010C946F010C946F010C946F0130
:100090000C946F010C946F010C946F010C946F0120
:1000A0000C946F010C946F010C946F010C946F0110
:1000B0000C946F010C946F010C946F010C946F0100
:1000C0000C946F010C946F010C946F010C946F01F0
:1000D0000C946F010C946F010C946F010C946F01E0
:1000E0000C946F010C94D0010C94A3050C94DE01C8
:1000F0000C94B1010C94C2010C94CD040C94CC016D
:100100000C94AB040C949C040C946E040C94E801C5
:100110000C94DA010C946F040C9405050C943006D1
:100120000C94360D0C94D4010C94C6010C94AD01C2
:100130000C94A7010C94BC010C94BF040C947B0993
:100140000C94EC010C94E7010C94B9010C94E201BD
:100150000C9452050C94B5010000210024002700E6
:100160002A002D00300033000101000004010701C6
:100170000A0100002200250028002B002E0031007B
:10018000340002010000050108010B0100002000FD
:100190002300260029002C002F003200000100005F
:1001A00003010601090105050505070508080808FA
:1001B000020202020A0A08080404040401010101FF
:1001C00001010101030303030303030304070707FA
:1001D0000C0C0C0C0C0C0C0C02020202060606069F
:1001E000060606060B0B0B0B0B0B0B0B010210206C
:1001F000200808102040102040800201020108045D
:1002000002010102040810204080804020100804F0
:100210000201800402018040201008040201080449
:10022000020101020408102040800102040810208D
:10023000408000000A0B02090C0D0E0807030401A0
:1002400000000000000000000000000000000000AE
:10025000000000000000000000000000000012117B
:10026000100000000000000000000000000000007E
:1002700000000000000000007B09360D11241FBEA5
:10028000CFEFD1E2DEBFCDBF00E00CBF23E0A4EC96
:10029000B2E001C01D92A33AB207E1F712E0A0E07C
:1002A000B2E0E8E1FFE100E00BBF02C007900D9271
:1002B000A43CB107D9F711E0CDE3D1E000E006C0DE
:1002C00021970109802FFE010E945C0DCC33D107DC
:1002D00080E00807A9F70E94560A0C947A0F0C9444
:1002E00000008093BB0084E88093BC008091BC0038
:1002F00087FFFCCF8091B900887F803221F481E0B4
:10030000809301020895803319F481E08093020202
:1003100008958150823108F05AC0E82FF0E0882714
:10032000EB56FE4F8F4F0C945C0DB501B901A70140
:10033000AD01B101E701BC01C201C601CC01D00190
:10034000D401DA01DE01E701E201E801EC0180916C
:1003500080008F77809380000895809180008F7D4A
:10036000F9CF80918000877FF5CF84B58F7784BDEA
:10037000089584B58F7DFBCF8091B0008F778093F7
:10038000B00008958091B0008F7DF9CF80919000EA
:100390008F77809390000895809190008F7DF9CFA2
:1003A00080919000877FF5CF8091A0008F77809318
:1003B000A00008958091A0008F7DF9CF8091A000CA
:1003C000877FF5CF809120018F778093200108955A
:1003D000809120018F7DF9CF80912001877FF5CF1B
:1003E000CF93DF93282F30E0F901EE5CFD4F84912D
:1003F000F901E451FE4FD491F901EA55FE4FC49141
:10040000CC23A1F081110E948901EC2FF0E0EE0FC6
:10041000FF1FE457FE4FA591B491EC91ED2381E0CD
:1004200090E009F480E0DF91CF91089580E090E0C2
:10043000FACF8F929F92AF92BF92CF92DF92EF92BC
:10044000FF920F931F93CF93DF938FB7F894C090D1
:10045000CD02D090CE02E090CF02F090D0028FBFBC
:100460008091800384FF74C0809085039090860300
:10047000A0908703B0908803909191039111F6C0EA
:1004800080918F030E94F00120918103022F01705F
:1004900010E021E00817190709F420E020939203E7
:1004A000B701A601481959096A097B0920919203ED
:1004B00090917F0391FB882780F9222309F419C1C9
:1004C00081111AC04135510561057105A8F0C0922E
:1004D0008503D0928603E0928703F0928803997E89
:1004E0009261906890937F038091810380628093F2
:1004F000810340E050E0BA018091810390917F0335
:1005000084FF12C04D3231E053076105710560F080
:1005100092FD05C083FDB4C0826080938103809109
:1005200081038F7E8093810391FF12C04D3B524027
:100530006105710568F092FD0BC0222309F4A2C089
:10054000916090937F03809181038F7D80938103DD
:1005500080919103882309F4A2C09091800396FBB7
:10056000332730F9C32F80E0D82FCC0FDD1F95FB48
:10057000882780F98C2B20918303281709F469C000
:10058000109284039091810396FFB0C0833009F0EC
:1005900097C09F7B90938103213009F48DC091E037
:1005A000223009F48AC09091800393FD03C0833008
:1005B00009F493C0909184039923E1F120917F0382
:1005C000286020937F034091890350918A036091B2
:1005D0008B0370918C0397018601041B150B260B6E
:1005E000370B4091820350E070E060E0041715077C
:1005F0002607370760F4209180032260913029F0AC
:10060000923029F420918003216020938003C092CE
:100610008903D0928A03E0928B03F0928C0320919D
:10062000800324FF07C020919203222319F09E5FCC
:10063000909384038093830380917F0384608093ED
:100640007F03C0928503D0928603E0928703F092E5
:100650008803DF91CF911F910F91FF90EF90DF9072
:10066000CF90BF90AF909F908F90089587FB882781
:1006700080F98093920314CF80918103886037CFF3
:1006800084604BCF9D7F9E7F90937F03C0928503B4
:10069000D0928603E0928703F092880359CF80912D
:1006A0008D030E94F001C82F80918E030E94F001FB
:1006B000880F991F8C2B5FCF92E09093840373CFA8
:1006C0003091800333FD46C0811174CF9F7B90939E
:1006D0008103213041F0223031F090918103906408
:1006E0009093810367CF20938403F7CF8823A9F3E6
:1006F0005ACF882309F400CF4135510561057105B2
:1007000008F4FACE92FD05C090FD03C0906290936C
:100710007F034D3B52406105710528F080917F03B6
:10072000806480937F0380917F03C0928503D09281
:100730008603E0928703F09288038D7F8E7F8093FB
:100740007F038091810385FF97CF84FD95CF8061E2
:10075000877FCDCE882309F26DCF1F93CF93DF9390
:10076000282F30E0F901EE5CFD4F8491F901E4514E
:10077000FE4FD491F901EA55FE4FC491CC23A9F064
:10078000162F81110E948901EC2FF0E0EE0FFF1F60
:10079000EE58FE4FA591B4918FB7F894EC911111DA
:1007A00008C0D095DE23DC938FBFDF91CF911F91DE
:1007B0000895DE2BF8CFCF93DF9390E0FC01E45156
:1007C000FE4F24918A559E4FFC0184918823C9F0E5
:1007D00090E0880F991FFC01E85AFE4FA591B49153
:1007E000FC01EE58FE4FC591D49161110DC09FB729
:1007F000F8948C91209582238C93888128232883D8
:100800009FBFDF91CF910895623051F49FB7F89464
:100810003C91822F809583238C93E8812E2BEFCF00
:100820008FB7F894EC912E2B2C938FBFEACF3FB764
:10083000F8948091C9029091CA02A091CB02B09124
:10084000CC0226B5A89B05C02F3F19F00196A11D2B
:10085000B11D3FBFBA2FA92F982F8827BC01CD010A
:10086000620F711D811D911D42E0660F771F881F69
:10087000991F4A95D1F708958F929F92AF92BF9298
:10088000CF92DF92EF92FF924B015C010E9417041E
:100890006B017C010E9417046C197D098E099F0968
:1008A000683E734081059105A8F321E0821A910802
:1008B000A108B10888EEC80E83E0D81EE11CF11C27
:1008C00081149104A104B10429F7FF90EF90DF9007
:1008D000CF90BF90AF909F908F9008950895AF9262
:1008E000BF92CF92DF92EF92FF920F931F93CF931D
:1008F000DF936C017B018B01040F151FEB015E017F
:10090000AE18BF08C017D10759F06991D601ED9113
:10091000FC910190F081E02DC6011995892B79F7A2
:10092000C501DF91CF911F910F91FF90EF90DF9064
:10093000CF90BF90AF900895FC01538D448D252F2B
:1009400030E0842F90E0821B930B541710F0CF9669
:10095000089501970895FC01918D828D981761F09B
:10096000A28DAE0FBF2FB11D5D968C91928D9F5FB2
:100970009F73928F90E008958FEF9FEF0895FC0191
:10098000918D828D981731F0828DE80FF11D858D44
:1009900090E008958FEF9FEF0895FC01918D228DD7
:1009A000892F90E0805C9F4F821B91098F7399275C
:1009B000089581ED92E00E94CD0421E0892B09F495
:1009C00020E0822F0895FC01A48DA80FB92FB11D3E
:1009D000A35ABF4F2C91848D90E001968F73992775
:1009E000848FA689B7892C93A089B1898C91837053
:1009F00080648C93938D848D981306C00288F3894C
:100A0000E02D80818F7D80830895EF92FF920F9378
:100A10001F93CF93DF93EC0181E0888F9B8D8C8DAA
:100A200098131AC0E889F989808185FF15C09FB79E
:100A3000F894EE89FF896083E889F9898081837061
:100A4000806480839FBF81E090E0DF91CF911F9110
:100A50000F91FF90EF900895F62E0B8D10E00F5F31
:100A60001F4F0F731127E02E8C8D8E110CC00FB607
:100A700007FCFACFE889F989808185FFF5CFCE019F
:100A80000E94E304F1CFEB8DEC0FFD2FF11DE35A33
:100A9000FF4FF0829FB7F8940B8FEA89FB89808122
:100AA0008062CFCFCF93DF93EC01888D8823B9F09C
:100AB000AA89BB89E889F9898C9185FD03C0808169
:100AC00086FD0DC00FB607FCF7CF8C9185FFF2CFE6
:100AD000808185FFEDCFCE010E94E304E9CFDF9155
:100AE000CF91089580E090E0892B29F00E94D904ED
:100AF00081110E94000080E090E0892B49F080E0A5
:100B000090E0892B29F00E94000081110E940000D2
:100B100080E090E0892B49F080E090E0892B29F07B
:100B20000E94000081110E94000080E090E0892B6B
:100B300049F080E090E0892B29F00E9400008111AB
:100B40000C940000089590E080E008951F93CF93E7
:100B5000DF93EC01162F8C8194EA9093BC00909166
:100B6000BC0097FFFCCF880F0E9471018B85812B01
:100B70000E94710184E98093BC0080910102882366
:100B800029F0109201021092020204C08091020228
:100B90008111F9CFDF91CF911F9108950F931F938A
:100BA000CF938C01C62F0E94A6056C2F6460C801EC
:100BB0000E94A6056C2F6B7FC8010E94A60583ECDE
:100BC00090E00197F1F7CF911F910F9108950F9346
:100BD0001F93CF93DF938C01D62FC42F607F642B9C
:100BE0000E94CE0580E1D89FB00111246C2BC80172
:100BF000DF91CF911F910F910C94CE05CF93DF938E
:100C000000D000D01F921F92CDB7DEB798E0EAE087
:100C1000F2E0DE01119601900D929A95E1F7909124
:100C20009B03961710F46FEF690F262F30E0220F09
:100C3000331F41E050E04C0F5D1F240F351FF901B9
:100C40006081680F606840E083E993E028960FB602
:100C5000F894DEBF0FBECDBFDF91CF910C94E705B6
:100C600041E00E94E70581E090E00895DC01FB018E
:100C70008081918111969C938E93828193811396AA
:100C80009C938E931297848114968C931497169646
:100C90001C921E92159718961C921E9217971A96E0
:100CA0001C921E9219978581968116969C938E931D
:100CB00015978781908518969C938E9317978185B9
:100CC00092851A969C938E93199716821582108698
:100CD0001782128611861C961C921E921B971E96D6
:100CE0001C921E921D9750961C921E921F978385F0
:100CF00094851C969C938E931B97858596851E964E
:100D00009C938E931D978785908950969C938E9384
:100D10001F971486138616861586108A17860895DF
:100D20008F929F92AF92BF920F931F93CF93DF93B7
:100D3000CDB7DEB7A1970FB6F894DEBF0FBECDBF1B
:100D400019A2423008F44AE08E010F5D1F4F842E35
:100D5000912CB12CA12CA50194010E943A0DE62FF3
:100D6000B901CA01EA3044F5E05DD801EE938D0186
:100D7000232B242B252B79F790E080E0109769F046
:100D8000FD0101900020E9F73197AF014A1B5B0B91
:100D9000BD0183E993E00E946F04A1960FB6F89419
:100DA000DEBF0FBECDBFDF91CF911F910F91BF90DE
:100DB000AF909F908F900895E95CD7CFFC01019090
:100DC0000020E9F73197AF01481B590BBC0183E9BB
:100DD00093E00C946F0460E080E00E94FE0580E3E5
:100DE00092E00E94DE0660E080E00E94FE056091D5
:100DF0006E0370916F0390E080E04AE00E949006DD
:100E0000409177035091780360917303709174035C
:100E100083E993E00E946F048091700390917103C5
:100E20000097F1F00197C9F48CE492E00E94DE068D
:100E3000609170037091710390E080E04AE00E943D
:100E4000900640917D0350917E03609179037091EB
:100E50007A0383E993E00C946F048FE492E0E6CF89
:100E60000895CF93DF93EC018B859C85009711F05B
:100E70000E94000E8D819E81009721F0DF91CF911D
:100E80000C94000EDF91CF9108950F931F93CF9391
:100E9000DF938C01EB01FC01808191810097E1F0EF
:100EA0006881798161157105A9F0428153812C8196
:100EB0003D814217530770F00E94730F8C819D8112
:100EC000F801958384831D821C82DF91CF911F914D
:100ED0000F9108950E94000E88819981F8019183F5
:100EE00080838A819B81938382838C819D8195837A
:100EF0008483198218821B821A82E5CFCF93DF93F5
:100F0000EC018881998190936F0380936E038A81AD
:100F10009B8190937103809370038C818093720303
:100F2000BE016B5F7F4F83E06337780721F083E773
:100F300093E00E944507BE01655F7F4F83E06937FC
:100F4000780721F089E793E00E9445078EE693E059
:100F5000DF91CF910895EF92FF920F931F93CF935C
:100F6000DF93EC017B018A0188819981009729F048
:100F70002A813B812417350788F4B8016F5F7F4FC2
:100F80000E94890E009791F0998388831B830A83BE
:100F90002C813D81232B11F4FC0110821D830C83D5
:100FA000B701888199810E94730F0CC08881998153
:100FB000009711F00E94000E198218821D821C8277
:100FC0001B821A82CE01DF91CF911F910F91FF906A
:100FD000EF900895FB0101900020E9F73197AF01F0
:100FE000461B570B0C94AB07EF92FF920F931F9386
:100FF000CF93DF938C01EB017A0188819981892B52
:1010000081F562E572E0CE0105960E94EA078A81C9
:101010009B81009791F46BE472E0CE010B960E94E5
:10102000EA07BE01C8010E943606C801DF91CF91D0
:101030001F910F91FF90EF9008958130910519F461
:1010400067E572E0EACF6CE572E08230910529F342
:1010500062E672E08330910501F367E672E004977F
:10106000E1F2888199810197B1F46EE672E0CE01D8
:1010700005960E94EA078A819B81009761F2813080
:101080009105F1F262E772E08230910531F26DE78D
:1010900072E0039711F288819981029799F467E8C9
:1010A00072E0CE0105960E94EA078A819B81009733
:1010B00009F4B1CF8130910519F26CE872E0029722
:1010C00009F4ABCF888199810397D1F466E972E086
:1010D000CE0105960E94EA078A819B81009709F458
:1010E0009ACF8130910509F4ABCF6AE972E0823082
:1010F000910509F492CF039719F462EA72E08DCF5B
:10110000B70190CFCF93DF93EC01FB0186179707D0
:1011100049F0608171816115710541F0448155810B
:101120000E94AB07CE01DF91CF910895888199810C
:10113000009711F00E94000E198218821D821C82F5
:101140001B821A82EFCF0F931F93CF93DF93EC0193
:101150008B01FB01808191819983888382819381B6
:101160009B838A8384818C831E821D8218861F82C2
:101170001A8619866B5F7F4FCE0105960E94820802
:101180001C861B861E861D86188A1F86B801655F11
:101190007F4FCE010B96DF91CF911F910F910C9451
:1011A00082081F920F920FB60F9211242F933F9334
:1011B0008F939F93AF93BF938091CD029091CE0276
:1011C000A091CF02B091D0023091C80223E0230F4A
:1011D0002D3758F50196A11DB11D2093C8028093AB
:1011E000CD029093CE02A093CF02B093D002809113
:1011F000C9029091CA02A091CB02B091CC02019693
:10120000A11DB11D8093C9029093CA02A093CB0285
:10121000B093CC02BF91AF919F918F913F912F914D
:101220000F900FBE0F901F90189526E8230F02967F
:10123000A11DB11DD2CF1F920F920FB60F92112494
:101240000BB60F922F933F934F935F936F937F93C0
:101250008F939F93AF93BF93EF93FF9381ED92E0B2
:101260000E94E304FF91EF91BF91AF919F918F9105
:101270007F916F915F914F913F912F910F900BBE96
:101280000F900FBE0F901F9018951F920F920FB6E0
:101290000F9211240BB60F922F938F939F93EF937E
:1012A000FF93E091E102F091E2028081E091E70298
:1012B000F091E80282FD1DC090818091EA028F5F6B
:1012C0008F732091EB02821741F0E091EA02F0E087
:1012D000EF52FD4F958F8093EA02FF91EF919F911E
:1012E0008F912F910F900BBE0F900FBE0F901F90FC
:1012F00018958081F2CFCF931092D4021092D3022E
:1013000088EE93E0A0E0B0E08093D5029093D602FF
:10131000A093D702B093D80286E192E09093D202D4
:101320008093D10285EC90E09093DE028093DD0201
:1013300084EC90E09093E0028093DF0280EC90E0F8
:101340009093E2028093E10281EC90E09093E402BA
:101350008093E30282EC90E09093E6028093E502B2
:1013600086EC90E09093E8028093E7021092EA0204
:101370001092EB021092EC021092ED021092960382
:101380001092950388E292E09093940380939303E4
:1013900087E28093970384E180939C0384E08093A9
:1013A0009D0310929E0392E3909382031092830315
:1013B0001092840310928503109286031092870383
:1013C000109288031092890310928A0310928B0363
:1013D00010928C031092900310929103109292033A
:1013E00092E090938D0393E090938E0380938F030C
:1013F000809180038061877F8093800362E082E038
:101400000E94DB0362E080918E030E94DB038091E7
:10141000800384FF05C062E080918F030E94DB039C
:101420008091810381608093810380918D030E946C
:10143000F001C82F80918E030E94F001880F991F40
:101440008C2B8093830310926F0310926E03109283
:101450007103109270031092720310927403109231
:101460007303109276031092750310927803109212
:10147000770350E040E06BE472E083E793E00E9482
:10148000AB0710927A031092790310927C031092AA
:101490007B0310927E0310927D0350E040E06BE4EA
:1014A00072E089E793E0CF910C94AB07CF93DF9381
:1014B000CDB7DEB7C454D1090FB6F894DEBF0FBE66
:1014C000CDBF789484B5826084BD84B5816084BDCD
:1014D00085B5826085BD85B5816085BD80916E00D2
:1014E000816080936E001092810080918100826003
:1014F0008093810080918100816080938100809140
:1015000080008160809380008091B100846080932E
:10151000B1008091B00081608093B0008091910013
:10152000826080939100809191008160809391000E
:10153000809190008160809390008091A1008260F2
:101540008093A1008091A10081608093A10080918F
:10155000A00081608093A00080912101826080932F
:1015600021018091210181608093210180912001DE
:1015700081608093200180917A00846080937A005A
:1015800080917A00826080937A0080917A008160F5
:1015900080937A0080917A00806880937A0010921C
:1015A000C100E091E102F091E20282E08083E091EB
:1015B000DD02F091DE021082E091DF02F091E002A4
:1015C0008FEC80831092E902E091E502F091E6024F
:1015D00086E08083E091E302F091E4028081806103
:1015E0008083E091E302F091E4028081886080834F
:1015F000E091E302F091E402808180688083E091D1
:10160000E302F091E40280818F7D808362E084E1D7
:101610000E94DB0362E085E10E94DB0388E48093A3
:10162000B8001092B9001092980380919D03823007
:1016300018F098E09093980380939B0362E370E026
:1016400080E090E00E943C0460919E0383E993E077
:101650000E94A60568EE73E080E090E00E943C04E2
:1016600060E383E993E00E94CE050BE416E4C80131
:101670000197F1F760E383E993E00E94CE05C8018A
:101680000197F1F760E383E993E00E94CE0583E5DB
:1016900092E00197F1F760E283E993E00E94CE05C2
:1016A00060919803606240E083E993E00E94E7055F
:1016B00084E08093990340E06CE083E993E00E942A
:1016C000E70540E061E083E993E00E94E7050BE372
:1016D0001FE1C8010197F1F782E080939A0340E08F
:1016E00066E083E993E00E94E70540E062E083E979
:1016F00093E00E94E705C8010197F1F788E0809325
:101700009E0360E083E993E00E94A6056EE673E025
:10171000CE0142960E94A3086EE673E0CE01839646
:101720000E94A308AE014E5E5F4FBE016D5D7F4F0C
:10173000CE0101960E94F407CE0101960E947E0719
:10174000CE0101960E943107CE0183960E94310797
:10175000CE0142960E9431070E94EB0680918003E1
:10176000877F8093800361E087E00E94DB0361E074
:1017700086E00E94DB0361E085E00E94DB0361E01C
:1017800089E00E94DB0360E08DE30E94DB0361E0FF
:1017900087E00E94AD0360E086E00E94AD0360E058
:1017A00085E00E94AD0360E089E00E94AD03FF2464
:1017B000F39402E010E087E4E82E0E941902809181
:1017C000800382FD0E94190280918403813069F0B8
:1017D0008091800382FD0E941902809184038230EF
:1017E000D1F5109284038BE003C0109284038AE049
:1017F00020916E0330916F032130310509F0BFC095
:1018000020917003309171032330310509F0B7C086
:101810009091720391112FC08C3009F0B0C061E03B
:1018200085E00E94AD0362E080E00E94FE0580E357
:1018300092E00E94DE0662E080E00E94FE0580EBFE
:1018400092E00E94DE06809172038F2580937203DE
:101850000E947205B2CF8091800382FD0E9419021E
:1018600080917F0385FF05C08F7D80937F038CE08F
:10187000BFCF80E0BDCF8C3099F460E085E00E945E
:10188000AD0362E080E00E94FE0580E392E00E94EA
:10189000DE0662E080E00E94FE0589EB92E0D1CF97
:1018A0002FB7F8948091CD029091CE02A091CF02F3
:1018B000B091D0022FBF4091C4025091C5026091F7
:1018C000C6027091C702841B950BA60BB70B893E0D
:1018D0009340A105B10508F4BBCF62E08CE00E9403
:1018E000FE0580E392E00E94DE0662E08CE00E944A
:1018F000FE0580917B00877F80937B00E0927C00D7
:1019000080917A00806480937A0080917A0086FDCD
:10191000FCCF9091780080917900892798278927BA
:101920004C01092E000CAA08BB0897FF24C041E017
:101930006DE283E993E00E94E70566277727CB01F4
:10194000681979098A099B094AE00E9490062FB715
:10195000F8948091CD029091CE02A091CF02B091E7
:10196000D0022FBF8093C4029093C502A093C602F9
:10197000B093C7026DCF4AE0C501B401E6CF88231A
:1019800009F466CF8A3009F044C06EE673E0CE01F8
:10199000C4960E94A3088EA99FA90097A1F1823046
:1019A000910518F001979FAB8EAB6EE673E0CE0108
:1019B00042960E94A308BE016C5C7F4FCE018396C5
:1019C0000E94A308AE014E5E5F4FBE016D5D7F4F6A
:1019D000CE0101960E94F407CE0101960E947E0777
:1019E000CE0101960E943107CE0183960E943107F5
:1019F000CE0142960E943107CE01C4960E94310763
:101A00000E94EB0625CF8CA99DA901979DAB8CABBD
:101A1000CCCF8B3081F46EE673E0CE01C4960E9489
:101A2000A3088EA99FA9009711F00196BCCF8CA99D
:101A30009DA90196EBCF8C3009F00ACF6EE673E0DA
:101A4000CE01C4960E94A3088EA99FA9813091055A
:101A500019F41FAA1EAAA9CF892B19F41FAB0EAB2C
:101A6000A4CF809172038F2588AF9FCF8EE693E03D
:101A70000C943107A1E21A2EAA1BBB1BFD010DC05D
:101A8000AA1FBB1FEE1FFF1FA217B307E407F5072E
:101A900020F0A21BB30BE40BF50B661F771F881F0A
:101AA000991F1A9469F760957095809590959B01A0
:101AB000AC01BD01CF010895EE0FFF1F881F8BBF42
:101AC0000790F691E02D19940F931F93CF93DF9316
:101AD0008230910510F482E090E0E091A103F09152
:101AE000A20330E020E0B0E0A0E0309799F42115A7
:101AF000310509F44AC0281B390B24303105D8F5CB
:101B00008A819B816115710589F1FB019383828331
:101B1000FE0111C04081518102811381481759078C
:101B2000E0F04817590799F4109761F012960C935A
:101B3000129713961C933296CF01DF91CF911F918C
:101B40000F9108950093A1031093A203F4CF2115E0
:101B5000310551F04217530738F0A901DB019A0112
:101B6000BD01DF01F801C1CFEF01F9CF9093A203CE
:101B70008093A103CDCFFE01E20FF31F81939193D8
:101B80002250310939832883D7CF20919F03309188
:101B9000A003232B41F420910602309107023093D9
:101BA000A00320939F032091040230910502211588
:101BB000310541F42DB73EB740910802509109021A
:101BC000241B350BE0919F03F091A003E217F3076C
:101BD000A0F42E1B3F0B2817390778F0AC014E5F9D
:101BE0005F4F2417350748F04E0F5F1F5093A00337
:101BF00040939F03819391939FCFF0E0E0E09CCFCF
:101C0000CF93DF930097E9F0FC01329713821282A1
:101C1000A091A103B091A203ED0130E020E0109764
:101C2000A1F420813181820F931F20919F03309175
:101C3000A0032817390709F061C0F093A003E093CF
:101C40009F03DF91CF910895EA01CE17DF07E8F5F2
:101C50004A815B819E0141155105B1F7E901FB8382
:101C6000EA8349915991C40FD51FEC17FD0761F420
:101C7000808191810296840F951FE9019983888361
:101C8000828193819B838A83F0E0E0E012968D91BC
:101C90009C9113970097B9F52D913C911197CD0127
:101CA0000296820F931F20919F033091A003281763
:101CB000390739F6309751F51092A2031092A1031B
:101CC000B093A003A0939F03BCCFD383C283408172
:101CD0005181840F951FC817D90761F44E5F5F4F7C
:101CE00088819981480F591F518340838A819B8144
:101CF000938382832115310509F0B0CFF093A203BD
:101D0000E093A1039ECFFD01DC01C0CF13821282BC
:101D1000D7CF4F925F926F927F928F929F92AF92A6
:101D2000BF92CF92DF92EF92FF920F931F93CF93C8
:101D3000DF938C01009799F4CB01DF91CF911F9134
:101D40000F91FF90EF90DF90CF90BF90AF909F905A
:101D50008F907F906F905F904F900C94640DFC017A
:101D6000E60FF71F9C0122503109E217F30708F430
:101D7000AEC0D901CD91DC911197C617D70720F1DC
:101D8000C530D10578F0CE0104978617970750F03B
:101D9000C61BD70B2297C193D1936D937C93CF0130
:101DA0000E94000EC801DF91CF911F910F91FF900B
:101DB000EF90DF90CF90BF90AF909F908F907F90EB
:101DC0006F905F904F9008955B01AC1ABD0A4C0173
:101DD0008C0E9D1EA091A103B091A203512C412C09
:101DE000F12CE12C109731F580919F039091A00385
:101DF0008815990509F05CC04616570608F058C0CA
:101E00008091040290910502009741F48DB79EB72E
:101E10004091080250910902841B950BE817F907BD
:101E200008F055C0F093A003E0939F03F90171837C
:101E30006083B8CF8D919C91119712966C901297F8
:101E400013967C901397A815B90559F56C0142E0DB
:101E5000C40ED11CCA14DB0420F1AC014A195B0981
:101E6000DA011296159780F0628273825183408363
:101E7000D9016D937C93E114F10471F0D7011396AD
:101E8000FC93EE9312978ECF22968C0F9D1FF90133
:101E900091838083F301EFCFF093A203E093A1033A
:101EA00081CF4816590608F42C017D01D3019ACF41
:101EB000CB010E94640D7C01009749F0AE01B8018E
:101EC0000E946A0FC8010E94000E87016BCF10E0CC
:101ED00000E068CFFB01DC0102C001900D9241508F
:101EE0005040D8F70895FB01DC0101900D920020CD
:101EF000E1F7089511E0CDE3D1E000E006C0802FC6
:101F0000FE010E945C0D2196011DCE33D10780E0B9
:081F10000807A9F7F894FFCFC0
:101F1800000000010000A30380000000400014003E
:101F280054000000000005056F049C045205CD0410
:101F3800AB04BF040000000030066F04A3056E0464
:101F48002020202020202020202020202020202089
:101F58002020202020202020202020003C2D002D83
:101F68003E00486F6D65006261636B0041626F758A
:101F7800740048656C700043726564697400536549
:101F8800740053656E73206C6576656C0053656EDE
:101F980073207465737400526163650052616365F0
:101FA800722073656C0052657300416C6C20726519
:101FB8007300526573657420726573756C74730071
:101FC8004C41534552204F4E004C41534552204FEF
:041FD8004646000079
:00000001FF
