:100000000C9442010C94F00B0C94C50B0C949A0BBD
:100010000C946F0B0C94440B0C94190B0C94EE0A7B
:100020000C94C30A0C9473010C9473010C94730127
:100030000C9473010C9473010C9473010C94730170
:100040000C9473010C9473010C9473010C94730160
:100050000C9473010C9473010C9473010C94790A41
:100060000C9473010C94450C0C941B0C0C947301B0
:100070000C9473010C9473010C9473010C94730130
:100080000C9473010C9473010C9473010C94730120
:100090000C9473010C9473010C9473010C94730110
:1000A0000C9473010C9473010C9473010C94730100
:1000B0000C9473010C9473010C9473010C947301F0
:1000C0000C9473010C9473010C9473010C947301E0
:1000D0000C9473010C9473010C9473010C947301D0
:1000E0000C9473010C94F4010C946B060C94E504CD
:1000F0000C9411150C94DE050C94C1010C94880429
:100100000C947B0C0C94D6010C94FC010C94DC0137
:100110000C943F050C9407050C94DD050C94EE013E
:100120000C94E0010C9489040C94D3010C94BF044A
:100130000C9406020C94EA010C948C050C94D604E1
:100140000C94F9040C94CB010C94CF010C94F8019D
:100150000C94C7010C9401020C94E6010C94020269
:1001600000002100240027002A002D003000330069
:1001700001010000040107010A010000220025001E
:1001800028002B002E003100340002010000050180
:1001900008010B01000020002300260029002C008C
:1001A0002F003200000100000301060109010505CE
:1001B0000505070508080808020202020A0A0808DD
:1001C000040404040101010101010101030303030B
:1001D00003030303040707070C0C0C0C0C0C0C0C9A
:1001E0000202020206060606060606060B0B0B0BAB
:1001F0000B0B0B0B010210202008081020401020D0
:1002000040800201020108040201010204081020DA
:1002100040808040201008040201800402018040D8
:100220002010080402010804020101020408102041
:100230004080010204081020408000000A0B0209DF
:100240000C0D0E0807030401000000000000000070
:10025000000000000000000000000000000000009E
:10026000000000000000121110000000000000005B
:10027000000000000000000000000000000000007E
:100280007B0C111511241FBECFEFD1E2DEBFCDBF15
:1002900000E00CBF25E0A6E0B4E001C01D92A93C3F
:1002A000B207E1F714E0A0E0B2E0E4E5FFE200E02D
:1002B0000BBF02C007900D92A630B107D9F711E02D
:1002C000C1E4D1E000E006C021970109802FFE01C2
:1002D0000E947A15C034D10780E00807A9F70E9470
:1002E000910D0C9498170C94000080917B00877FEF
:1002F00080937B0087E480937C0080917A00806407
:1003000080937A0080917A0086FDFCCF80917800FE
:100310009091790008958093BB0084E88093BC009D
:100320008091BC0087FFFCCF8091B900887F80322C
:1003300021F481E0809311020895803319F481E063
:100340008093120208958150823108F05AC0E82F3C
:10035000F0E08827E155FE4F8F4F0C947A15CF01BE
:10036000D301C101C701CB010102D601DC01E001CB
:10037000E601EA01EE01F401F8010102FC010202CA
:100380000602809180008F7780938000089580918D
:1003900080008F7DF9CF80918000877FF5CF84B575
:1003A0008F7784BD089584B58F7DFBCF8091B00099
:1003B0008F778093B00008958091B0008F7DF9CF42
:1003C000809190008F7780939000089580919000A5
:1003D0008F7DF9CF80919000877FF5CF8091A0002D
:1003E0008F778093A00008958091A0008F7DF9CF32
:1003F0008091A000877FF5CF809120018F77809337
:1004000020010895809120018F7DF9CF80912001F6
:10041000877FF5CFCF93DF93282F30E0F901E65C9B
:10042000FD4F8491F901EC50FE4FD491F901E25552
:10043000FE4FC491CC23A1F081110E94A301EC2FA7
:10044000F0E0EE0FFF1FEC56FE4FA591B491EC913A
:10045000ED2381E090E009F480E0DF91CF910895F1
:1004600080E090E0FACF8F929F92AF92BF92CF92AE
:10047000DF92EF92FF920F931F93CF93DF938FB78B
:10048000F894C0903104D0903204E0903304F0909E
:1004900034048FBF8091A60584FF74C08090AB05A3
:1004A0009090AC05A090AD05B090AE059091B705C9
:1004B0009111F6C08091B5050E940A022091A7050E
:1004C000022F017010E021E00817190709F420E05D
:1004D0002093B805B701A601481959096A097B0993
:1004E0002091B8059091A50591FB882780F92223DA
:1004F00009F419C181111AC0413551056105710511
:10050000A8F0C092AB05D092AC05E092AD05F09298
:10051000AE05997E926190689093A5058091A7059C
:1005200080628093A70540E050E0BA018091A70562
:100530009091A50584FF12C04D3231E0530761054B
:10054000710560F092FD05C083FDB4C082608093A8
:10055000A7058091A7058F7E8093A70591FF12C004
:100560004D3B52406105710568F092FD0BC022239E
:1005700009F4A2C091609093A5058091A7058F7D95
:100580008093A7058091B705882309F4A2C09091B4
:10059000A60596FB332730F9C32F80E0D82FCC0F68
:1005A000DD1F95FB882780F98C2B2091A905281742
:1005B00009F469C01092AA059091A70596FFB0C0F2
:1005C000833009F097C09F7B9093A705213009F4F1
:1005D0008DC091E0223009F48AC09091A60593FD68
:1005E00003C0833009F493C09091AA059923E1F1E7
:1005F0002091A50528602093A5054091AF05509155
:10060000B0056091B1057091B20597018601041B98
:10061000150B260B370B4091A80550E070E060E009
:10062000041715072607370760F42091A6052260F6
:10063000913029F0923029F42091A6052160209371
:10064000A605C092AF05D092B005E092B105F09238
:10065000B2052091A60524FF07C02091B8052223EA
:1006600019F09E5F9093AA058093A9058091A50536
:1006700084608093A505C092AB05D092AC05E09252
:10068000AD05F092AE05DF91CF911F910F91FF90D4
:10069000EF90DF90CF90BF90AF909F908F90089594
:1006A00087FB882780F98093B80514CF8091A70530
:1006B000886037CF84604BCF9D7F9E7F9093A50548
:1006C000C092AB05D092AC05E092AD05F092AE05BC
:1006D00059CF8091B3050E940A02C82F8091B405BA
:1006E0000E940A02880F991F8C2B5FCF92E0909393
:1006F000AA0573CF3091A60533FD46C0811174CF92
:100700009F7B9093A705213041F0223031F09091EA
:10071000A70590649093A70567CF2093AA05F7CF0C
:100720008823A9F35ACF882309F400CF4135510516
:100730006105710508F4FACE92FD05C090FD03C075
:1007400090629093A5054D3B52406105710528F0DC
:100750008091A50580648093A5058091A505C09230
:10076000AB05D092AC05E092AD05F092AE058D7F61
:100770008E7F8093A5058091A70585FF97CF84FD87
:1007800095CF8061877FCDCE882309F26DCF1F93EF
:10079000CF93DF93282F30E0F901E65CFD4F849181
:1007A000F901EC50FE4FD491F901E255FE4FC4918E
:1007B000CC23A9F0162F81110E94A301EC2FF0E0A9
:1007C000EE0FFF1FE658FE4FA591B4918FB7F89436
:1007D000EC91111108C0D095DE23DC938FBFDF911F
:1007E000CF911F910895DE2BF8CFCF93DF9390E048
:1007F000FC01EC50FE4F249182559E4FFC018491E8
:100800008823C9F090E0880F991FFC01E05AFE4F41
:10081000A591B491FC01E658FE4FC591D4916111A8
:100820000DC09FB7F8948C91209582238C9388817A
:10083000282328839FBFDF91CF910895623051F420
:100840009FB7F8943C91822F809583238C93E88105
:100850002E2BEFCF8FB7F894EC912E2B2C938FBFCC
:10086000EACF3FB7F89480912D0490912E04A09187
:100870002F04B091300426B5A89B05C02F3F19F076
:100880000196A11DB11D3FBFBA2FA92F982F882710
:10089000BC01CD01620F711D811D911D42E0660FEB
:1008A000771F881F991F4A95D1F708958F929F92BD
:1008B000AF92BF92CF92DF92EF92FF924B015C0119
:1008C0000E9431046B017C010E9431046C197D0986
:1008D0008E099F09683E734081059105A8F321E0C8
:1008E000821A9108A108B10888EEC80E83E0D81ECC
:1008F000E11CF11C81149104A104B10429F7FF90BB
:10090000EF90DF90CF90BF90AF909F908F90089521
:100910000895AF92BF92CF92DF92EF92FF920F9322
:100920001F93CF93DF936C017B018B01040F151F85
:10093000EB015E01AE18BF08C017D10759F06991ED
:10094000D601ED91FC910190F081E02DC601199541
:10095000892B79F7C501DF91CF911F910F91FF90FE
:10096000EF90DF90CF90BF90AF900895FC0144814D
:1009700055816081718189EB95E00C9489048091A7
:10098000280490912904A0912A04B0912B0480930B
:10099000080490930904A0930A04B0930B040E94E6
:1009A000750190930704809306040895FC01538D0C
:1009B000448D252F30E0842F90E0821B930B541739
:1009C00010F0CF96089501970895FC01918D828DC6
:1009D000981761F0A28DAE0FBF2FB11D5D968C915F
:1009E000928D9F5F9F73928F90E008958FEF9FEF9E
:1009F0000895FC01918D828D981731F0828DE80F5A
:100A0000F11D858D90E008958FEF9FEF0895FC0113
:100A1000918D228D892F90E0805C9F4F821B9109E0
:100A20008F739927089585E394E00E94070521E0DC
:100A3000892B09F420E0822F0895FC01A48DA80FD2
:100A4000B92FB11DA35ABF4F2C91848D90E0019610
:100A50008F739927848FA689B7892C93A089B18930
:100A60008C91837080648C93938D848D981306C0D1
:100A70000288F389E02D80818F7D80830895EF9235
:100A8000FF920F931F93CF93DF93EC0181E0888F48
:100A90009B8D8C8D98131AC0E889F989808185FF18
:100AA00015C09FB7F894EE89FF896083E889F989BA
:100AB00080818370806480839FBF81E090E0DF91BC
:100AC000CF911F910F91FF90EF900895F62E0B8D0F
:100AD00010E00F5F1F4F0F731127E02E8C8D8E11CA
:100AE0000CC00FB607FCFACFE889F989808185FF31
:100AF000F5CFCE010E941D05F1CFEB8DEC0FFD2F40
:100B0000F11DE35AFF4FF0829FB7F8940B8FEA89EB
:100B1000FB8980818062CFCFCF93DF93EC01888DFA
:100B20008823B9F0AA89BB89E889F9898C9185FD68
:100B300003C0808186FD0DC00FB607FCF7CF8C91F6
:100B400085FFF2CF808185FFEDCFCE010E941D058C
:100B5000E9CFDF91CF91089580E090E0892B29F0D3
:100B60000E94130581110E94000080E090E0892B13
:100B700049F080E090E0892B29F00E94000081116B
:100B80000E94000080E090E0892B49F080E090E036
:100B9000892B29F00E94000081110E94000080E052
:100BA00090E0892B49F080E090E0892B29F00E94A9
:100BB000000081110C9400000895089590E080E0F9
:100BC00008951F93CF93DF93EC01162F8C8194EA45
:100BD0009093BC009091BC0097FFFCCF880F0E94BF
:100BE0008B018B85812B0E948B0184E98093BC0053
:100BF00080911102882329F01092110210921202A2
:100C000004C0809112028111F9CFDF91CF911F9121
:100C100008950F931F93CF938C01C62F0E94E10577
:100C20006C2F6460C8010E94E1056C2F6B7FC801C6
:100C30000E94E10583EC90E00197F1F7CF911F91BD
:100C40000F9108950F931F93CF93DF938C01D62FAD
:100C5000C42F607F642B0E94090680E1D89FB001F9
:100C600011246C2BC801DF91CF911F910F910C942F
:100C70000906CF93DF9300D000D01F921F92CDB70B
:100C8000DEB798E0EAE1F2E0DE01119601900D9204
:100C90009A95E1F79091C105961710F46FEF690FDF
:100CA000262F30E0220F331F41E050E04C0F5D1F34
:100CB000240F351FF9016081680F606840E089EBFF
:100CC00095E028960FB6F894DEBF0FBECDBFDF913A
:100CD000CF910C94220641E00E94220681E090E030
:100CE0000895FB0101900020E9F73197AF01461B01
:100CF000570BDC01ED91FC910280F381E02D1994FA
:100D00006CE772E085E394E00C9471068F929F92F9
:100D1000AF92BF92EF92FF920F931F93CF93DF9307
:100D2000CDB7DEB7A1970FB6F894DEBF0FBECDBF2B
:100D30007C01FA01CB0119A2223008F42AE08E01CD
:100D40000F5D1F4F822E912CB12CA12CBF01A5014C
:100D500094010E945815F901CA016A300CF5605DD2
:100D6000D8016E938D01232B242B252B79F790E04E
:100D700080E0109721F0BD01C7010E947106A19685
:100D80000FB6F894DEBF0FBECDBFDF91CF911F919C
:100D90000F91FF90EF90BF90AF909F908F9008952C
:100DA000695CDECFCF92DF92EF92FF920F931F9399
:100DB000CF93DF936B01770FEE08FF08F7FE1FC09C
:100DC000EC01E881F9810190F081E02D6DE2199547
:100DD0008C0144275527BA014C195D096E097F091A
:100DE0002AE0CE010E948606800F911FDF91CF91ED
:100DF0001F910F91FF90EF90DF90CF9008952AE020
:100E0000B701A601DF91CF911F910F91FF90EF9055
:100E1000DF90CF900C948606AB0170E060E02AE092
:100E20000C948606CF93DF93BC0185E394E00E9487
:100E30000C07EC010E9480068C0F9D1FDF91CF9163
:100E40000895CF93DF93BC0185E394E00E9471067F
:100E5000EC010E9480068C0F9D1FDF91CF910895B9
:100E60006115710511F00C94710690E080E0089511
:100E700061E080E00E94390663ED72E089EB95E065
:100E80000E94300762E080E00E94390663ED72E064
:100E900089EB95E00E94300763E080E00E9439060C
:100EA00063ED72E089EB95E00C943007CF93DF930C
:100EB000EC018FE792E00E94210768E872E085E389
:100EC00094E00E943007888199810E94120761E9AD
:100ED00072E085E394E00E9430074B8150E070E0BF
:100EE00060E02AE085E394E00E9486060E94800686
:100EF00068E972E085E394E00E9430078D819E816D
:100F00000E94120761EA72E085E394E00E943007D4
:100F1000888599850E94120766EB72E085E394E06C
:100F20000E9430076B8570E085E394E00E94D20652
:100F30000E9480066DEB72E085E394E00E9430072A
:100F40006D8570E085E394E00E94D2060E948006E1
:100F5000DF91CF910C948006CF93DF93EC0160E09A
:100F600080E00E9439066CEC72E089EB95E00E940B
:100F7000300760E080E00E943906E88124E1E29FCA
:100F8000F0011124EE5DFD4F6081718189EB95E0E8
:100F90000E9430078981882341F168EE72E0813038
:100FA00011F06BEE72E089EB95E00E9430078881CA
:100FB000E9812AE0829FC0011124E80FF92FF11D79
:100FC000EE0FFF1FEE5DFD4F6081718189EB95E0B3
:100FD0000E9430078A81882341F06EEE72E089EB2F
:100FE00095E0DF91CF910C943007DF91CF91089578
:100FF0000F931F93CF93DF93EC0188819981009722
:1010000059F02A813B812617370730F081E0DF91C4
:10101000CF911F910F9108958B016F5F7F4F0E94B9
:10102000A716009759F0998388831B830A832C8124
:101030003D81232B59F7FC011082E8CF80E0E7CFF8
:10104000CF93DF93EC0188819981009711F00E9482
:101050001E16198218821D821C821B821A82DF9141
:10106000CF910895EF92FF920F931F93CF93DF9349
:101070008C017B01FB0101900020E9F73197E61B11
:10108000F70BD1F0DC011496CD91DC91CE0FDF1F70
:10109000BE010E94F8078823B9F0F8012081318150
:1010A00084819581B701820F931F0E949117D80107
:1010B0001596DC93CE931497C801DF91CF911F91C1
:1010C0000F91FF90EF900895C8010E942008F4CF7F
:1010D000EF92FF920F931F93CF93DF93EC0186174C
:1010E000970781F0FB01008111810115110539F08D
:1010F000E480F580B7010E94F80781110BC0CE0192
:101100000E942008CE01DF91CF911F910F91FF9097
:10111000EF900895FD82EC82B801888199810E9448
:101120009117F0CFFC011182108213821282158276
:1011300014820C946808FB012081DC012C9341810E
:1011400052816381748111964D935D936D937C936D
:1011500014972581368116963C932E931597BF01DF
:10116000695F7F4F07960C949208EF92FF920F935E
:101170001F93CF93DF93EC017B01198218821B82AE
:101180001A821D821C82FB0101900020E9F7319731
:101190008F01061B170BB8010E94F807811109C0C7
:1011A000CE01DF91CF911F910F91FF90EF900C94A2
:1011B00020081D830C83B70188819981DF91CF912D
:1011C0001F910F91FF90EF900C949117FC011082EA
:1011D0001182128213821482168215826EE772E0E7
:1011E00007960C94B508FC0180819181009711F05D
:1011F0000C941E160895EF92FF920F931F93CF93B6
:10120000DF93CDB7DEB72C970FB6F894DEBF0FBED5
:10121000CDBF7C01E091A20586E0E89FF00111249A
:10122000EE52FB4F848161E08E5F0E9439066EE7CB
:1012300072E0CE0107960E94B50810E000E0BE0102
:10124000695F7F4FCE0101960E94920866EE72E0C0
:10125000CE0101960E943208BC01CE0107960E9481
:101260006808CE0101960E94F3080F5F1F4F0E150C
:101270001F0529F7CE0107960E94B604E091A2054A
:1012800086E0E89FF0011124EE52FB4F848161E07B
:101290008E5F0E943906CE0107960E94F3082C96B5
:1012A0000FB6F894DEBF0FBECDBFDF91CF911F9177
:1012B0000F91FF90EF900895CF93DF93EB010E9481
:1012C00042158883CE01DF91CF9108950F931F932C
:1012D000CF93DF938C01EB010E9442158883C801F4
:1012E00001960E9442158983CE01DF91CF911F9113
:1012F0000F910895CF93DF93EC018A81BE0190E0B6
:101300000E9466098C8190E00E9442158B83BE0189
:101310006B5F7F4F8F8190E00E946609BE01685F1E
:101320007F4F8A8590E00E946609BE01655F7F4F0E
:101330008C8590E00E945C09BE01635F7F4F8E85C3
:1013400090E0DF91CF910C945C09FF920F931F9373
:10135000CF93DF93EC01F62E08811981C8010E941A
:101360004215F81621F06F2DC8010E944A15CE01D2
:10137000DF91CF911F910F91FF9008950F931F93CD
:10138000CF93DF931F921F92CDB7DEB78B019A8365
:101390008983FB016081CE0101960E94A509C801E5
:1013A0000F900F90DF91CF911F910F910895EF92C1
:1013B000FF920F931F93CF93DF931F921F92CDB78E
:1013C000DEB78C017B019A838983FB016081CE01AA
:1013D00001960E94A5090F5F1F4F1A830983F70129
:1013E0006181CE0101960E94A509C7010F900F905F
:1013F000DF91CF911F910F91FF90EF9008950F9380
:101400001F93CF93DF931F921F92CDB7DEB78C014E
:10141000FC0111821082128281E0838382E0848346
:1014200083E090E09683858323E0278391878087FC
:1014300085E08287138687E08487158688E0868723
:10144000B80190E080E00E946609F80180819181F6
:101450008933904309F446C00E94800680EF92E0F1
:101460000E94210789E390E39A838983F8018281AE
:10147000BE016F5F7F4F90E00E94D709F801848121
:1014800090E09A8389836381CE0101960E94A50929
:10149000B8016B5F7F4FF801878190E00E94D70908
:1014A000B801685F7F4FF801828590E00E94D709FC
:1014B000B801655F7F4FF801848590E00E94BE0906
:1014C000B801635F7F4FF801868590E00E94BE09F6
:1014D00081E193E00E942107C8010E947A09C801B6
:1014E0000E9456070F900F90DF91CF911F910F919F
:1014F00008951F920F920FB60F9211242F933F93CE
:101500008F939F93AF93BF93809131049091320456
:10151000A0913304B091340430912C0423E0230FC4
:101520002D3758F50196A11DB11D20932C048093F1
:10153000310490933204A0933304B0933404809127
:101540002D0490912E04A0912F04B09130040196A7
:10155000A11DB11D80932D0490932E04A0932F0400
:10156000B0933004BF91AF919F918F913F912F9194
:101570000F900FBE0F901F90189526E8230F02962C
:10158000A11DB11DD2CF1F920F920FB60F92112441
:101590000BB60F922F933F934F935F936F937F936D
:1015A0008F939F93AF93BF93EF93FF93E0910E02BE
:1015B000F0910F021995FF91EF91BF91AF919F911B
:1015C0008F917F916F915F914F913F912F910F90EC
:1015D0000BBE0F900FBE0F901F9018951F920F9289
:1015E0000FB60F9211240BB60F922F933F934F9388
:1015F0005F936F937F938F939F93AF93BF93EF937B
:10160000FF93E0910C02F0910D021995FF91EF917B
:10161000BF91AF919F918F917F916F915F914F910A
:101620003F912F910F900BBE0F900FBE0F901F9008
:1016300018951F920F920FB60F9211240BB60F92AE
:101640002F933F934F935F936F937F938F939F93CA
:10165000AF93BF93EF93FF93E0910202F0910302E7
:101660001995FF91EF91BF91AF919F918F917F91CC
:101670006F915F914F913F912F910F900BBE0F9003
:101680000FBE0F901F9018951F920F920FB60F92DA
:1016900011240BB60F922F933F934F935F936F9349
:1016A0007F938F939F93AF93BF93EF93FF93E091BB
:1016B0000002F09101021995FF91EF91BF91AF9156
:1016C0009F918F917F916F915F914F913F912F915A
:1016D0000F900BBE0F900FBE0F901F9018951F928A
:1016E0000F920FB60F9211240BB60F922F933F93C8
:1016F0004F935F936F937F938F939F93AF93BF931A
:10170000EF93FF93E0910A02F0910B021995FF917C
:10171000EF91BF91AF919F918F917F916F915F9169
:101720004F913F912F910F900BBE0F900FBE0F90D6
:101730001F9018951F920F920FB60F9211240BB69F
:101740000F922F933F934F935F936F937F938F935A
:101750009F93AF93BF93EF93FF93E0910802F091B3
:1017600009021995FF91EF91BF91AF919F918F91D0
:101770007F916F915F914F913F912F910F900BBE91
:101780000F900FBE0F901F9018951F920F920FB6DB
:101790000F9211240BB60F922F933F934F935F93A9
:1017A0006F937F938F939F93AF93BF93EF93FF9329
:1017B000E0910602F09107021995FF91EF91BF9118
:1017C000AF919F918F917F916F915F914F913F91D9
:1017D0002F910F900BBE0F900FBE0F901F9018957A
:1017E0001F920F920FB60F9211240BB60F922F93E8
:1017F0003F934F935F936F937F938F939F93AF9399
:10180000BF93EF93FF93E0910402F09105021995C5
:10181000FF91EF91BF91AF919F918F917F916F91C8
:101820005F914F913F912F910F900BBE0F900FBE84
:101830000F901F9018951F920F920FB60F921124C0
:101840000BB60F922F933F934F935F936F937F93BA
:101850008F939F93AF93BF93EF93FF9385E394E0B0
:101860000E941D05FF91EF91BF91AF919F918F91C4
:101870007F916F915F914F913F912F910F900BBE90
:101880000F900FBE0F901F9018951F920F920FB6DA
:101890000F9211240BB60F922F938F939F93EF9378
:1018A000FF93E0914504F09146048081E0914B0460
:1018B000F0914C0482FD1DC0908180914E048F5F99
:1018C0008F7320914F04821741F0E0914E04F0E0B5
:1018D000EB5CFB4F958F80934E04FF91EF919F91AE
:1018E0008F912F910F900BBE0F900FBE0F901F90F6
:1018F00018958081F2CFCF9310923804109237045C
:1019000088EE93E0A0E0B0E08093390490933A042D
:10191000A0933B04B0933C0482E692E0909336049B
:101920008093350485EC90E09093420480934104C9
:1019300084EC90E0909344048093430480EC90E026
:10194000909346048093450481EC90E09093480482
:101950008093470482EC90E090934A04809349047A
:1019600086EC90E090934C0480934B0410924E04CC
:1019700010924F0410925004109251041092BC0522
:101980001092BB0584E792E09093BA058093B90565
:1019900087E28093BD0584E18093C20584E0809353
:1019A000C3051092C40592E39093A8051092A9056F
:1019B0001092AA051092AB051092AC051092AD05DD
:1019C0001092AE051092AF051092B0051092B105BD
:1019D0001092B2051092B6051092B7051092B80594
:1019E00092E09093B30593E09093B4058093B5058E
:1019F0008091A6058061877F8093A60562E082E0E2
:101A00000E94F50362E08091B4050E94F503809185
:101A1000A60584FF05C062E08091B5050E94F5032C
:101A20008091A70581608093A7058091B3050E94EE
:101A30000A02C82F8091B4050E940A02880F991FDC
:101A40008C2B8093A9051092A3051092A4051092E7
:101A5000A10581E08093A20584E995E00E94E60853
:101A600087E895E00E94E6088AE795E00E94E6088C
:101A70008DE695E00E94E60880E695E00E94E60883
:101A800083E595E00E94E60864E975E085E095E06D
:101A90000E949B0867E875E082E195E00E949B0840
:101AA0006AE775E08FE195E00E949B086DE675E0BE
:101AB0008CE295E00E949B0860E675E089E395E082
:101AC0000E949B0863E575E086E495E00E949B0810
:101AD00086EF94E00E94FF096EE772E082ED94E0E9
:101AE0000E94B50866E173E088ED94E00E94B508B5
:101AF00060E273E08EED94E00E94B5086CE273E062
:101B000084EE94E00E94B5086CE373E08AEE94E002
:101B10000E94B5086BE473E080EF94E0CF910C94E1
:101B2000B508CF93DF93CDB7DEB763970FB6F894C0
:101B3000DEBF0FBECDBF789484B5826084BD84B50E
:101B4000816084BD85B5826085BD85B5816085BDB8
:101B500080916E00816080936E0010928100809170
:101B600081008260809381008091810081608093F8
:101B70008100809180008160809380008091B1001D
:101B800084608093B1008091B00081608093B00048
:101B9000809191008260809391008091910081609A
:101BA000809391008091900081608093900080915B
:101BB000A10082608093A1008091A1008160809348
:101BC000A1008091A00081608093A00080912101FC
:101BD00082608093210180912101816080932101A5
:101BE0008091200181608093200180917A0084603F
:101BF00080937A0080917A00826080937A0080914D
:101C00007A00816080937A0080917A008068809366
:101C10007A001092C100E0914504F091460482E000
:101C20008083E0914104F09142041082E0914304EA
:101C3000F09144048FEC808310924D04E0914904AC
:101C4000F0914A0486E08083E0914704F0914804D3
:101C5000808180618083E0914704F0914804808115
:101C600088608083E0914704F09148048081806817
:101C70008083E0914704F091480480818F7D8083C8
:101C8000CE0101960E94FF0962E084E10E94F50303
:101C900062E085E10E94F50388E48093B800109229
:101CA000B9001092BE058091C305823018F098E00B
:101CB0009093BE058093C10562E370E080E090E000
:101CC0000E9456046091C40589EB95E00E94E105ED
:101CD00068EE73E080E090E00E94560460E389EBD8
:101CE00095E00E9409060BE416E4C8010197F1F79C
:101CF00060E389EB95E00E940906C8010197F1F7BE
:101D000060E389EB95E00E94090683E592E0019784
:101D1000F1F760E289EB95E00E9409066091BE054B
:101D2000606240E089EB95E00E94220684E08093A7
:101D3000BF0540E06CE089EB95E00E94220640E0A0
:101D400061E089EB95E00E9422060BE31FE1C801E8
:101D50000197F1F782E08093C00540E066E089EBEF
:101D600095E00E94220640E062E089EB95E00E9447
:101D70002206C8010197F1F788E08093C40560E06E
:101D800089EB95E00E94E1051A8A1B8A188A81E096
:101D9000898B8091A605877F8093A60561E087E007
:101DA0000E94F50361E086E00E94F50361E085E0B2
:101DB0000E94F50361E089E00E94F50361E088E09C
:101DC0000E94F50360E08DE30E94F50360E082E18C
:101DD0000E94F50361E087E00E94C70360E086E0AF
:101DE0000E94C70360911F0485E00E94C70360E062
:101DF00089E00E94C70361E088E00E94C7038FEB7F
:101E000094E090930B0280930A0280916900806CA9
:101E100080936900EB9ACE0140960E94AC07CE01F8
:101E200001960E947A09CE0101960E94560711E0A0
:101E30002FB7F8948091310490913204A09133042B
:101E4000B09134042FBF8093280490932904A09369
:101E50002A04B0932B048091080490910904A09166
:101E60000A04B0910B04892B8A2B8B2B31F18091C2
:101E70000604909107044091080450910904609170
:101E80000A0470910B04409313055093140560935A
:101E900015057093160590931805809317051093F8
:101EA0001205109208041092090410920A0410926C
:101EB0000B0410920704109206048091A60582FD7F
:101EC0000E9433028091AA05813081F41092AA0504
:101ED00010922005109221051092220510922305E0
:101EE000109225051092240580931F058091A60568
:101EF00082FD0E9433028091AA05823081F4109203
:101F0000AA0510922D0510922E0510922F05109201
:101F10003005109232051092310510932C058091F6
:101F2000A60582FD0E9433028091A50585FF11C0A0
:101F30008F7D8093A50510923A0510923B05109273
:101F40003C0510923D0510923F0510923E051093FE
:101F500039058091A205811139C080911F05882320
:101F600059F08091A105882319F081508093A10533
:101F700081EA95E00E94AC0780912C05882359F0F6
:101F80008091A105823018F48F5F8093A10581EACA
:101F900095E00E94AC0780913905882331F01093B9
:101FA000A20581EA95E00E94AC0710920505109207
:101FB000120510921F0510922C05109239051092EF
:101FC00046050E9433020E94AC0532CF9091A305D2
:101FD000911134C090911F05992339F0815080935D
:101FE000A20581EA95E00E94AC0780912C05882328
:101FF000C9F08091A105811105C08091A2058330AF
:1020000038F00CC0813041F48091A205853030F465
:102010008F5F8093A20502C0823079F381EA95E058
:102020000E94AC0780913905882309F4BECF109334
:10203000A3051093A4050E943807B3CF80913905FA
:10204000882381F01092A3051092A4050E943807FE
:1020500081EA95E00E94AC0710921F0460E085E0E1
:102060000E94C7038091A1058111B1C08091A20592
:10207000882309F4B9C28091A405882309F458C0C3
:1020800010921B0410921C0410921D0410921E0446
:1020900010921704109218041092190410921A0446
:1020A0001092130410921404109215041092160446
:1020B00010920F0410921004109211041092120446
:1020C00010920E0410920D0410920C0410931F0431
:1020D00061E085E00E94C7036DE772E085E394E06C
:1020E0000E94300767E573E085E394E00E943007C3
:1020F0006091FB047091FC0485E394E00E940C075E
:102100008EE593E00E94210761E080E00E9439069D
:102110006DED72E089EB95E00E94300761E080E0B0
:102120000E9439066AE673E089EB95E00E94300769
:1021300080910C0481113CC380911205882309F41D
:1021400046C08091130590911405A0911505B0919A
:10215000160580931B0490931C04A0931D04B09358
:102160001E048093130490931404A0931504B09359
:10217000160410930C0480E793E00E94210761E0AD
:1021800080E00E9439066DED72E089EB95E00E94D7
:10219000300761E080E00E94390660E773E089EB78
:1021A00095E00E94300762E080E00E9439066DED04
:1021B00072E089EB95E00E94300763E080E00E94C6
:1021C00039066DED72E089EB95E00E943007809151
:1021D000A105813009F008C28091A205882309F485
:1021E000E4C28091A405882309F4A4C061E080E0E2
:1021F0000E94390663EE72E089EB95E00E94300799
:1022000061E080E00E9439068091A2058130E1F40E
:1022100068ED74E0CE0101960E9492086EE773E0CB
:10222000CE0101960E9432080E94B604CE010196AA
:102230000E94F3084091F90450E070E060E02AE069
:1022400089EB95E00E9486068091A2058230D1F448
:102250006EED74E0CE0101960E9492086EE773E085
:10226000CE0101960E9432080E94B604CE0101966A
:102270000E94F3086091FB047091FC0489EB95E0E7
:102280000E940C078091A2058330D1F464EE74E0C3
:10229000CE0101960E9492086EE773E0CE0101968E
:1022A0000E9432080E94B604CE0101960E94F308F3
:1022B0006091FE047091FF0489EB95E00E940C0789
:1022C0008091A2058430C9F46AEE74E0CE010196D3
:1022D0000E9492086EE773E0CE0101960E943208D8
:1022E0000E94B604CE0101960E94F3086091030596
:1022F00070E089EB95E00E94D2068091A2058530BE
:10230000C9F460EF74E0CE0101960E9492086EE776
:1023100073E0CE0101960E9432080E94B604CE01FD
:1023200001960E94F3086091010570E089EB95E049
:102330000E94D2068091A2058130A1F580911F05EF
:102340008823B1F08091F904823008F44DC18150A6
:102350008093F90485E090E00E94FB084091F90425
:1023600050E070E060E02AE089EB95E00E9486068C
:1023700080912C058823B1F08091F904823008F017
:1023800033C18F5F8093F90485E090E00E94FB08E1
:102390004091F90450E070E060E02AE089EB95E0BC
:1023A0000E9486068091A2058230D1F580911F059A
:1023B0008823C1F08091FB049091FC04009709F4FC
:1023C00013C101979093FC048093FB0485E090E097
:1023D0000E94FB086091FB047091FC0489EB95E07E
:1023E0000E940C0780912C058823D1F08091FB047A
:1023F0009091FC04883E23E0920708F0F5C0019616
:102400009093FC048093FB0485E090E00E94FB081D
:102410006091FB047091FC0489EB95E00E940C072D
:102420008091A2058330D1F580911F058823C1F0EA
:102430008091FE049091FF04009709F4D5C00197A4
:102440009093FF048093FE0486E090E00E94FB08D6
:102450006091FE047091FF0489EB95E00E940C07E7
:1024600080912C058823D1F08091FE049091FF0487
:102470008D3221E0920708F0B7C001969093FF04D7
:102480008093FE0486E090E00E94FB086091FE04C9
:102490007091FF0489EB95E00E940C078091A205E2
:1024A000843059F580911F05882391F080910305B0
:1024B000882309F499C01092030583E090E00E94FC
:1024C000FB086091030570E089EB95E00E94D2065D
:1024D00080912C05882389F080910305811184C0A7
:1024E0001093030583E090E00E94FB0860910305D0
:1024F00070E089EB95E00E94D2068091A2058530BC
:1025000059F580911F05882391F08091010588235A
:1025100009F46AC01092010583E090E00E94FB0874
:102520006091010570E089EB95E00E94D2068091F0
:102530002C05882389F080910105811155C01093E5
:10254000010583E090E00E94FB086091010570E0C6
:1025500089EB95E00E94D20680913905882309F421
:1025600043C08091A205813059F48091FA0490E033
:102570009A8389836091F904CE0101960E94A5098E
:102580008091A205823039F48091FD046BEF74E0F4
:1025900090E00E94D7098091A205833039F48091A0
:1025A00000056EEF74E090E00E94D7098091A205CB
:1025B000843039F48091040563E075E090E00E9476
:1025C000BE098091A205853039F48091020561E051
:1025D00075E090E00E94BE0986EF94E00E947A09BF
:1025E00086EF94E00E9456078091A105823009F0A1
:1025F000DCC00091A205013009F0D7C08091A4058C
:10260000882309F442C061E080E00E94390663EE4D
:1026100072E089EB95E00E94300761E080E00E9463
:1026200039066AE973E089EB95E00E94300762E0C1
:1026300080E00E9439066EED72E089EB95E00E9421
:10264000300762E080E00E94390664E973E089EBBC
:1026500095E00E94300763E080E00E94390663EE57
:1026600072E089EB95E00E94300763E080E00E9411
:10267000390669E973E089EB95E00E943007009321
:102680001F0461E085E00E94C703809124049091BB
:102690002504A0912604B0912704845D9E4FAF4F7E
:1026A000BF4F409128045091290460912A047091F1
:1026B0002B0484179507A607B70728F561E083E088
:1026C0000E94390663EE72E089EB95E00E943007C4
:1026D00061E083E00E9439060E947501BC0189EB2C
:1026E00095E00E94D2068091280490912904A0913F
:1026F0002A04B0912B048093240490932504A09382
:102700002604B093270480911205882309F44DC054
:1027100062E084E00E9439066EED72E089EB95E09C
:102720000E94300762E084E00E9439064091130560
:102730005091140560911505709116058091200443
:1027400090912104A0912204B0912304481B590BBD
:102750006A0B7B0B2AE089EB95E00E94860663E01A
:1027600084E00E94390663EE72E089EB95E00E94F6
:10277000300763E084E00E9439066091170570918C
:10278000180589EB95E00E940C0780911305909144
:102790001405A0911505B09116058093200490931F
:1027A0002104A0932204B09323041092A405FDCB2E
:1027B000813009F0A6C080911205882309F407CD65
:1027C0008091130590911405A0911505B0911605FF
:1027D00040911304509114046091150470911604F3
:1027E0006C017D01C41AD50AE60AF70AB701A601F1
:1027F00040930F04509310046093110470931204DB
:102800008093130490931404A0931504B0931604BA
:1028100080910D0490910E04019690930E04809384
:102820000D0468E773E085E394E00E94300760914F
:102830000D0470910E0485E394E00E940C076DE78F
:1028400073E085E394E00E943007409113045091B7
:10285000140460911504709116042AE085E394E055
:102860000E9486066DE772E085E394E00E943007DF
:1028700062E080E00E9439066DED72E089EB95E040
:102880000E94300762E080E00E94390660910D04EA
:1028900070910E0489EB95E00E940C076EE773E0DF
:1028A00089EB95E00E94300740910F04509110048D
:1028B00060911104709112042AE089EB95E00E9466
:1028C00086062091FB043091FC0480910D049091C8
:1028D0000E048217930708F47ACC82E080930C04EC
:1028E0008091130590911405A0911505B0911605DE
:1028F0008093170490931804A0931904B0931A04BA
:1029000066CC823009F063CC61E873E085E394E043
:102910000E9430076DE773E085E394E00E94300782
:1029200040911704509118046091190470911A0491
:1029300080911B0490911C04A0911D04B0911E0471
:10294000481B590B6A0B7B0B2AE085E394E00E943D
:1029500086066DE772E085E394E00E94300761E04F
:1029600080E00E9439066DED72E089EB95E00E94EF
:10297000300761E080E00E9439066BE873E089EB84
:1029800095E00E94300763E080E00E9439066DED1B
:1029900072E089EB95E00E94300763E080E00E94DE
:1029A00039064091170450911804609119047091F0
:1029B0001A0480911B0490911C04A0911D04B091F5
:1029C0001E04481B590B6A0B7B0B2AE089EB95E030
:1029D0000E94860610920C0410921B0410921C0494
:1029E00010921D0410921E041092170410921804E5
:1029F0001092190410921A041092130410921404E5
:102A0000109215041092160410920F0410921004E4
:102A1000109211041092120410920E0410920D04E0
:102A2000D6CBCF93DF93C6EFD4E02697CE010E949A
:102A3000F30884E0C23DD807C1F7C3E5D5E02D9780
:102A4000CE0107960E94F30885E0C530D807B9F794
:102A50008AE595E00E94F30887E695E00E94F30876
:102A600084E795E00E94F30881E895E00E94F3086E
:102A70008EE895E00E94F3088BE995E0DF91CF9115
:102A80000C94F308F999FECF92BD81BDF89A99276D
:102A900080B50895262FF999FECF1FBA92BD81BD4A
:102AA00020BD0FB6F894FA9AF99A0FBE01960895D0
:102AB000A1E21A2EAA1BBB1BFD010DC0AA1FBB1F42
:102AC000EE1FFF1FA217B307E407F50720F0A21BB4
:102AD000B30BE40BF50B661F771F881F991F1A9421
:102AE00069F760957095809590959B01AC01BD014B
:102AF000CF010895EE0FFF1F881F8BBF0790F6913F
:102B0000E02D19940F931F93CF93DF93823091059B
:102B100010F482E090E0E091C705F091C80530E044
:102B200020E0B0E0A0E0309799F42115310509F4D8
:102B30004AC0281B390B24303105D8F58A819B8186
:102B40006115710589F1FB0193838283FE0111C038
:102B5000408151810281138148175907E0F04817DD
:102B6000590799F4109761F012960C9312971396E7
:102B70001C933296CF01DF91CF911F910F91089551
:102B80000093C7051093C805F4CF2115310551F006
:102B90004217530738F0A901DB019A01BD01DF019B
:102BA000F801C1CFEF01F9CF9093C8058093C70515
:102BB000CDCFFE01E20FF31F819391932250310993
:102BC00039832883D7CF2091C5053091C605232BA3
:102BD00041F420911602309117023093C6052093DC
:102BE000C50520911402309115022115310541F4DB
:102BF0002DB73EB74091180250911902241B350B96
:102C0000E091C505F091C605E217F307A0F42E1B6D
:102C10003F0B2817390778F0AC014E5F5F4F241740
:102C2000350748F04E0F5F1F5093C6054093C5050A
:102C3000819391939FCFF0E0E0E09CCFCF93DF931F
:102C40000097E9F0FC01329713821282A091C70528
:102C5000B091C805ED0130E020E01097A1F420818B
:102C60003181820F931F2091C5053091C605281729
:102C7000390709F061C0F093C605E093C505DF91FF
:102C8000CF910895EA01CE17DF07E8F54A815B810D
:102C90009E0141155105B1F7E901FB83EA83499192
:102CA0005991C40FD51FEC17FD0761F48081918104
:102CB0000296840F951FE90199838883828193810D
:102CC0009B838A83F0E0E0E012968D919C911397AC
:102CD0000097B9F52D913C911197CD010296820F85
:102CE000931F2091C5053091C6052817390739F67D
:102CF000309751F51092C8051092C705B093C605DC
:102D0000A093C505BCCFD383C28340815181840F7A
:102D1000951FC817D90761F44E5F5F4F888199816D
:102D2000480F591F518340838A819B8193838283FB
:102D30002115310509F0B0CFF093C805E093C70520
:102D40009ECFFD01DC01C0CF13821282D7CF4F92FC
:102D50005F926F927F928F929F92AF92BF92CF922B
:102D6000DF92EF92FF920F931F93CF93DF938C012B
:102D7000009799F4CB01DF91CF911F910F91FF90B4
:102D8000EF90DF90CF90BF90AF909F908F907F900B
:102D90006F905F904F900C948215FC01E60FF71F27
:102DA0009C0122503109E217F30708F4AEC0D901A3
:102DB000CD91DC911197C617D70720F1C530D10509
:102DC00078F0CE0104978617970750F0C61BD70BF3
:102DD0002297C193D1936D937C93CF010E941E16CD
:102DE000C801DF91CF911F910F91FF90EF90DF907D
:102DF000CF90BF90AF909F908F907F906F905F909B
:102E00004F9008955B01AC1ABD0A4C018C0E9D1EBB
:102E1000A091C705B091C805512C412CF12CE12C93
:102E2000109731F58091C5059091C60588159905D3
:102E300009F05CC04616570608F058C0809114028D
:102E400090911502009741F48DB79EB740911802FA
:102E500050911902841B950BE817F90708F055C02B
:102E6000F093C605E093C505F90171836083B8CF7F
:102E70008D919C91119712966C90129713967C905D
:102E80001397A815B90559F56C0142E0C40ED11C81
:102E9000CA14DB0420F1AC014A195B09DA0112966D
:102EA000159780F06282738251834083D9016D93BC
:102EB0007C93E114F10471F0D7011396FC93EE9327
:102EC00012978ECF22968C0F9D1FF90191838083DC
:102ED000F301EFCFF093C805E093C70581CF481603
:102EE000590608F42C017D01D3019ACFCB010E9431
:102EF00082157C01009749F0AE01B8010E94881745
:102F0000C8010E941E1687016BCF10E000E068CF59
:102F1000FB01DC0102C001900D9241505040D8F7F6
:102F20000895FB01DC0101900D920020E1F7089566
:102F300011E0C1E4D1E000E006C0802FFE010E9454
:102F40007A152196011DC234D10780E00807A9F740
:042F5000F894FFCF23
:102F5400880488048804880488048804880488040D
:102F6400000000010000C9058000000040001400BA
:102F740054009E03A303AD03B4030000000000004B
:102F8400000000000000BA03BE03C303CA03D60353
:102F9400E3030000000000000000EA03EF03FA036B
:102FA400FF0300000000000000000000000000001B
:102FB40000003F058904D6048C050705E504F904DF
:102FC400000000006B068904DE05DD050D0A0043E0
:102FD4006F6E6669673A200046535F4B45593A2045
:102FE400004D4F44453A20004C4150535F4E3A2027
:102FF4000053454E534F525F49474E4F52455F541D
:10300400494D453A20004D5554453A200053415608
:10301400455F524553554C54533A200020202020FC
:10302400202020202020202020202020202020209C
:1030340020202020202020003C2D002D3E003A009E
:1030440046697273742073746172742C2077726988
:1030540074696E672064656661756C74732E2E2EB8
:1030640000446F6E650052414345204D4F44450076
:103074004C415053204E554D4245520053454E53FA
:103084002049474E4F524520544D54005341564514
:1030940020544F20454550524F4D004D5554452026
:1030A400534F554E4453004C6170733A2000203AFC
:1030B4002052656164792E2E2E0052656164790078
:1030C40053746172746564004C61702000203A206E
:1030D4000046696E6973686564200046696E6973A9
:1030E4006865640064743A200069563A20005261AD
:1030F4006365004765742072656164790043616E9D
:1031040063656C00526574727900536574004D6F89
:103114006465004C617073204E0049676E6F726580
:103124002074696D65005361766520726573756CF2
:10313400747300536F756E64730054657374004147
:103144006C6C2076616C7565730054696D65004222
:063154006C696E6B0000C7
:00000001FF
