:100000000C943B010C946C010C946C010C946C01ED
:100010000C946C010C946C010C946C010C946C01AC
:100020000C946C010C946C010C946C010C946C019C
:100030000C946C010C946C010C946C010C946C018C
:100040000C946C010C946C010C946C010C946C017C
:100050000C946C010C946C010C946C010C9439069A
:100060000C946C010C94AD060C9483060C946C01FA
:100070000C946C010C946C010C946C010C946C014C
:100080000C946C010C946C010C946C010C946C013C
:100090000C946C010C946C010C946C010C946C012C
:1000A0000C946C010C946C010C946C010C946C011C
:1000B0000C946C010C946C010C946C010C946C010C
:1000C0000C946C010C946C010C946C010C946C01FC
:1000D0000C946C010C946C010C946C010C946C01EC
:1000E0000C946C010C94DE010C94E3060C947404E3
:1000F0000C9424020C9412020C941A020C943202F6
:100100000C9407050C9460040C9408020C94BB0535
:100110000C940C020C94BA040C9451040C94F70146
:100120000C9420020C94FB010C9402020C948204A7
:100130000C94FF010C9424040C94E3010C945805D6
:100140000C9428020C9416020C9459050C94F3019B
:100150000C942E02000020002300260029002C0011
:100160002F00320000010000030106010901000018
:100170000A0B02090C0D0E08070304010000000021
:10018000000000000000000000000000000000006F
:10019000000000000000000000001211100000002C
:1001A000000000000000000000000000000000004F
:1001B0000000000000002200250028002B002E0077
:1001C0003100340002010000050108010B010000AC
:1001D0002100240027002A002D00300033000101F7
:1001E0000000040107010A010505050507050808C7
:1001F0000808020202020A0A0808040404040101B1
:1002000001010101010103030303030303030407C5
:1002100007070C0C0C0C0C0C0C0C0202020206065C
:100220000606060606060B0B0B0B0B0B0B0B01024F
:1002300010202008081020401020408002010201F8
:1002400008040201010204081020408080402010B0
:100250000804020180040201804020100804020109
:100260000804020101020408102040800102040871
:1002700010204080E30611241FBECFEFD1E2DEBF85
:10028000CDBF00E00CBF12E0A0E0B2E0ECE1F2E193
:1002900000E00BBF02C007900D92A634B107D9F75A
:1002A00023E0A6E4B2E001C01D92A031B207E1F75D
:1002B00011E0CBE3D1E000E006C021970109802FD7
:1002C000FE010E940409CA33D10780E00807A9F79C
:1002D0000E948A070C940C090C940000CF93DF93C2
:1002E00090E0FC01E25DFD4F249188519E4FFC019E
:1002F00084918823C1F090E0880F991FFC01E2539C
:10030000FE4FC591D491FC01EC54FE4FA591B491E0
:100310009FB7F8943881822F809583238883EC914E
:10032000E22BEC939FBFDF91CF9108958093BB00A8
:1003300084E88093BC008091BC0087FFFCCF809153
:10034000B900887F803221F481E080930102089512
:10035000803319F481E0809302020895282F30E061
:10036000F901E259FE4F9491F901E25DFD4F44918C
:1003700028513E4FF9012491222309F477C0992393
:1003800011F191509231F8F4E92FF0E08827E4530D
:10039000FE4F8F4F0C940409FB01FF01DE01F301B6
:1003A000F701E301020208020C02120216021A020D
:1003B00020022402E30128022E02320280918000F2
:1003C0008F7780938000E22FF0E0EE0FFF1FEC5A52
:1003D000FE4FA591B491EC91E42381E090E009F007
:1003E00047C080E00895809180008F7DEACF8091A2
:1003F0008000877FE6CF84B58F7784BDE4CF84B556
:100400008F7DFBCF8091B0008F778093B000DBCFE2
:100410008091B0008F7DF9CF809190008F7780938D
:100420009000D1CF809190008F7DF9CF8091900086
:10043000877FF5CF8091A0008F778093A000C3CFF6
:100440008091A0008F7DF9CF8091A000877FF5CFAC
:10045000809120018F7780932001B5CF809120017A
:100460008F7DF9CF80912001877FF5CF80E090E0EC
:1004700008958F929F92AF92BF92CF92DF92EF92A8
:10048000FF920F931F93CF93DF938FB7F894C09091
:100490004F02D0905002E0905102F09052028FBF74
:1004A0008091F10284FF74C08090F6029090F70270
:1004B000A090F802B090F902909102039111F6C059
:1004C000809100030E94AE012091F202022F017080
:1004D00010E021E00817190709F420E02093030336
:1004E000B701A601481959096A097B09209103033C
:1004F0009091F00291FB882780F9222309F419C119
:1005000081111AC04135510561057105A8F0C092ED
:10051000F602D092F702E092F802F092F902997E88
:10052000926190689093F0028091F20280628093D1
:10053000F20240E050E0BA018091F2029091F002A4
:1005400084FF12C04D3231E053076105710560F040
:1005500092FD05C083FDB4C082608093F202809159
:10056000F2028F7E8093F20291FF12C04D3B524007
:100570006105710568F092FD0BC0222309F4A2C049
:1005800091609093F0028091F2028F7D8093F2024D
:1005900080910203882309F4A2C09091F10296FB96
:1005A000332730F9C32F80E0D82FCC0FDD1F95FB08
:1005B000882780F98C2B2091F402281709F469C050
:1005C0001092F5029091F20296FFB0C0833009F0CC
:1005D00097C09F7B9093F202213009F48DC091E087
:1005E000223009F48AC09091F10293FD03C0833058
:1005F00009F493C09091F5029923E1F12091F00262
:1006000028602093F0024091FA025091FB02609121
:10061000FC027091FD0297018601041B150B260B4D
:10062000370B4091F30250E070E060E004171507CB
:100630002607370760F42091F1022260913029F0FB
:10064000923029F42091F10221602093F102C092AE
:10065000FA02D092FB02E092FC02F092FD0220919D
:10066000F10224FF07C020910303222319F09E5FAB
:100670009093F5028093F4028091F002846080935D
:10068000F002C092F602D092F702E092F802F092E5
:10069000F902DF91CF911F910F91FF90EF90DF90C2
:1006A000CF90BF90AF909F908F90089587FB882741
:1006B00080F98093030314CF8091F202886037CFD2
:1006C00084604BCF9D7F9E7F9093F002C092F60294
:1006D000D092F702E092F802F092F90259CF80919D
:1006E000FE020E94AE01C82F8091FF020E94AE015F
:1006F000880F991F8C2B5FCF92E09093F50273CFF8
:100700003091F10233FD46C0811174CF9F7B9093ED
:10071000F202213041F0223031F09091F2029064E7
:100720009093F20267CF2093F502F7CF8823A9F3C5
:100730005ACF882309F400CF413551056105710571
:1007400008F4FACE92FD05C090FD03C0906290932C
:10075000F0024D3B52406105710528F08091F00296
:1007600080648093F0028091F002C092F602D092F1
:10077000F702E092F802F092F9028D7F8E7F80936B
:10078000F0028091F20285FF97CF84FD95CF8061C2
:10079000877FCDCE882309F26DCF3FB7F894809143
:1007A0004B0290914C02A0914D02B0914E0226B5A1
:1007B000A89B05C02F3F19F00196A11DB11D3FBF99
:1007C000BA2FA92F982F8827BC01CD01620F711D68
:1007D000811D911D42E0660F771F881F991F4A9562
:1007E000D1F708958F929F92AF92BF92CF92DF92EE
:1007F000EF92FF924B015C010E94CD036B017C01E3
:100800000E94CD036C197D098E099F09683E7340D3
:1008100081059105A8F321E0821A9108A108B10889
:1008200088EEC80E83E0D81EE11CF11C81149104EF
:10083000A104B10429F7FF90EF90DF90CF90BF9013
:10084000AF909F908F900895AF92BF92CF92DF921A
:10085000EF92FF920F931F93CF93DF936C017B0175
:100860008B01040F151FEB015E01AE18BF08C01706
:10087000D10759F06991D601ED91FC910190F08179
:10088000E02DC6011995892B79F7C501DF91CF912C
:100890001F910F91FF90EF90DF90CF90BF90AF909E
:1008A0000895FC01538D448D252F30E0842F90E076
:1008B000821B930B541710F0CF960895019708955B
:1008C000FC01918D828D981761F0A28DAE0FBF2F24
:1008D000B11D5D968C91928D9F5F9F73928F90E07A
:1008E00008958FEF9FEF0895FC01918D828D9817E9
:1008F00031F0828DE80FF11D858D90E008958FEF26
:100900009FEF0895FC01918D228D892F90E0805CEE
:100910009F4F821B91098F739927089583E592E079
:100920000E94820421E0892B09F420E0822F08959F
:10093000FC01A48DA80FB92FB11DA35ABF4F2C9154
:10094000848D90E001968F739927848FA689B7894B
:100950002C93A089B1898C91837080648C93938D42
:10096000848D981306C00288F389E02D80818F7DE5
:1009700080830895EF92FF920F931F93CF93DF939D
:10098000EC0181E0888F9B8D8C8D98131AC0E889CB
:10099000F989808185FF15C09FB7F894EE89FF899A
:1009A0006083E889F98980818370806480839FBF38
:1009B00081E090E0DF91CF911F910F91FF90EF9038
:1009C0000895F62E0B8D10E00F5F1F4F0F73112748
:1009D000E02E8C8D8E110CC00FB607FCFACFE88983
:1009E000F989808185FFF5CFCE010E949804F1CF6F
:1009F000EB8DEC0FFD2FF11DE35AFF4FF0829FB7F7
:100A0000F8940B8FEA89FB8980818062CFCFCF93E6
:100A1000DF93EC01888D8823B9F0AA89BB89E88926
:100A2000F9898C9185FD03C0808186FD0DC00FB6CC
:100A300007FCF7CF8C9185FFF2CF808185FFEDCF4A
:100A4000CE010E949804E9CFDF91CF91089580E014
:100A500090E0892B29F00E948E0481110E940000F1
:100A600080E090E0892B49F080E090E0892B29F02C
:100A70000E94000081110E94000080E090E0892B1C
:100A800049F080E090E0892B29F00E94000081115C
:100A90000E94000080E090E0892B49F080E090E027
:100AA000892B29F00E94000081110C940000089508
:100AB000089590E080E008951F93CF93DF93EC01B9
:100AC000162F8C8194EA9093BC009091BC0097FF04
:100AD000FCCF880F0E9496018B85812B0E94960186
:100AE00084E98093BC0080910102882329F0109250
:100AF00001021092020204C0809102028111F9CF1A
:100B0000DF91CF911F9108950F931F93CF938C0185
:100B1000C62F0E945C056C2F6460C8010E945C05B2
:100B20006C2F6B7FC8010E945C0583EC90E00197FD
:100B3000F1F7CF911F910F9108950F931F93CF93CA
:100B4000DF938C01D62FC42F607F642B0E94840515
:100B500080E1D89FB00111246C2BC801DF91CF91A7
:100B60001F910F910C948405682F606840E084E029
:100B700093E00C949D0541E00E949D0581E090E08A
:100B800008958F929F92AF92BF92EF92FF920F9330
:100B90001F93CF93DF93CDB7DEB7A1970FB6F8942D
:100BA000DEBF0FBECDBF8C019093470280934602FB
:100BB00040E061E084E093E00E949D058BE39FE1CB
:100BC0000197F1F780E00E94B405980150E040E001
:100BD00019A27E0181E2E80EF11C9AE0892E912C87
:100BE000A12CB12CCA01B901A50194010E94E2080F
:100BF000605DF70162937F012115310541055105C3
:100C000089F7309761F001900020E9F73197AF0143
:100C10004E195F09B70184E093E00E94240482E04A
:100C20000E94B405000F111FF801EC5FFD4F6081B9
:100C300071816115710561F0FB0101900020E9F7F8
:100C40003197AF01461B570B84E093E00E942404C8
:100C5000A1960FB6F894DEBF0FBECDBFDF91CF9146
:100C60001F910F91FF90EF90BF90AF909F908F904A
:100C700008951F920F920FB60F9211242F933F9356
:100C80008F939F93AF93BF9380914F0290915002A7
:100C9000A0915102B091520230914A0223E0230FF9
:100CA0002D3758F50196A11DB11D20934A0280935E
:100CB0004F0290935002A0935102B0935202809140
:100CC0004B0290914C02A0914D02B0914E020196C0
:100CD000A11DB11D80934B0290934C02A0934D0235
:100CE000B0934E02BF91AF919F918F913F912F9101
:100CF0000F900FBE0F901F90189526E8230F0296B5
:100D0000A11DB11DD2CF1F920F920FB60F921124C9
:100D10000BB60F922F933F934F935F936F937F93F5
:100D20008F939F93AF93BF93EF93FF9383E592E0ED
:100D30000E949804FF91EF91BF91AF919F918F9185
:100D40007F916F915F914F913F912F910F900BBECB
:100D50000F900FBE0F901F9018951F920F920FB615
:100D60000F9211240BB60F922F938F939F93EF93B3
:100D7000FF93E0916302F09164028081E091690247
:100D8000F0916A0282FD1DC0908180916C028F5F9C
:100D90008F7320916D02821741F0E0916C02F0E0B8
:100DA000ED5AFD4F958F80936C02FF91EF919F91CB
:100DB0008F912F910F900BBE0F900FBE0F901F9031
:100DC00018958081F2CFCF9310925602109255025F
:100DD00088EE93E0A0E0B0E0809357029093580231
:100DE000A0935902B0935A0280E192E0909354028A
:100DF0008093530285EC90E09093600280935F02B1
:100E000084EC90E0909362028093610280EC90E029
:100E1000909364028093630281EC90E09093660269
:100E20008093650282EC90E0909368028093670261
:100E300086EC90E090936A028093690210926C02B3
:100E400010926D0210926E0210926F0210920703C0
:100E50001092060382E292E09093050380930403CC
:100E600087E28093080384E180930D0384E08093FC
:100E70000E0310920F0392E39093F3021092F40288
:100E80001092F5021092F6021092F7021092F802F8
:100E90001092F9021092FA021092FB021092FC02D8
:100EA0001092FD02109201031092020310920303AC
:100EB00092E09093FE0293E09093FF0280930003F0
:100EC0008091F1028061877F8093F10282E00E942D
:100ED0006E018091FF020E946E018091F10284FFF9
:100EE00004C0809100030E946E018091F202816033
:100EF0008093F2028091FE020E94AE01C82F809181
:100F0000FF020E94AE01880F991F8C2B8093F40280
:100F1000CF910895789484B5826084BD84B5816052
:100F200084BD85B5826085BD85B5816085BD8091B4
:100F30006E00816080936E0010928100809181002C
:100F40008260809381008091810081608093810024
:100F5000809180008160809380008091B1008460E6
:100F60008093B1008091B00081608093B000809147
:100F700091008260809391008091910081608093C4
:100F80009100809190008160809390008091A100F9
:100F900082608093A1008091A10081608093A10074
:100FA0008091A00081608093A000809121018260E7
:100FB00080932101809121018160809321018091A2
:100FC000200181608093200180917A008460809369
:100FD0007A0080917A00826080937A0080917A0012
:100FE000816080937A0080917A00806880937A0093
:100FF0001092C100E0916302F091640282E080836C
:10100000E0915F02F09160021082E0916102F09144
:1010100062028FEC808310926B02E0916702F09184
:10102000680286E08083E0916502F091660280812B
:1010300080618083E0916502F09166028081886022
:101040008083E0916502F0916602808180688083F0
:10105000E0916502F091660280818F7D808384E15A
:101060000E946E0185E10E946E0188E48093B800C1
:101070001092B9001092090380910E03823018F08B
:1010800098E09093090380930C0362E370E080E0A2
:1010900090E00E94F20360910F0384E093E00E94CD
:1010A0005C0568EE73E080E090E00E94F20360E38C
:1010B00084E093E00E948405CBE4D6E4CE0101975E
:1010C000F1F760E384E093E00E9484052197F1F753
:1010D00060E384E093E00E94840583E592E0019759
:1010E000F1F760E284E093E00E94840560910903D7
:1010F000606240E084E093E00E949D0584E080937C
:101100000A0340E06CE084E093E00E949D0540E02B
:1011100061E084E093E00E949D05CBE3DFE1CE0136
:101120000197F1F782E080930B0340E066E084E0F2
:1011300093E00E949D0540E062E084E093E00E941D
:101140009D052197F1F788E080930F0360E084E02C
:1011500093E00E945C0590E080E00E94C1058091D0
:10116000F102877F8093F1020E9439028091F1029F
:1011700082FD0E9439028091F502813059F410926B
:10118000F5028091460290914702009719F001976D
:101190000E94C1058091F10282FD0E943902809176
:1011A000F502823061F41092F5028091460290912E
:1011B00047028330910518F401960E94C1050E94F0
:1011C0002705D2CFA1E21A2EAA1BBB1BFD010DC021
:1011D000AA1FBB1FEE1FFF1FA217B307E407F507E7
:1011E00020F0A21BB30BE40BF50B661F771F881FC3
:1011F000991F1A9469F760957095809590959B0159
:10120000AC01BD01CF010895EE0FFF1F881F8BBFFA
:0C1210000790F691E02D1994F894FFCFA0
:10121C00000000012A022F0234023D0200000000EF
:10122C00BA04240451040705820460047404000009
:10123C000000BB05240459055805486F6D65005224
:10124C006163650053657474696E677300526573EE
:06125C00756C74730000C4
:00000001FF
