:100000000C942F010C9460010C9460010C9460011D
:100010000C9460010C9460010C9460010C946001DC
:100020000C9460010C9460010C9460010C946001CC
:100030000C9460010C9460010C9460010C946001BC
:100040000C9460010C9460010C9460010C946001AC
:100050000C9460010C9460010C9460010C94BF043A
:100060000C9460010C9460010C9460010C9460018C
:100070000C9460010C9460010C9460010C9460017C
:100080000C9460010C9460010C9460010C9460016C
:100090000C9460010C9460010C9460010C9460015C
:1000A0000C9460010C9460010C9460010C9460014C
:1000B0000C9460010C9460010C9460010C9460013C
:1000C0000C9460010C9460010C9460010C9460012C
:1000D0000C9460010C9460010C9460010C9460011C
:1000E0000C9460010C94E7010C9426020C94180403
:1000F0000C94EB010C9400020C9414020C94FC017F
:100100000C94D2010C9418020C94D7010C94F301B6
:100110000C9445040C94B9040C941C020C940E022B
:100120000C94F6010C9446040C9406020C94A3065D
:100130000C94EF010C9422020C940A02000020009F
:100140002300260029002C002F00320000010000AF
:1001500003010601090100000A0B02090C0D0E083B
:100160000703040100000000000000000000000080
:10017000000000000000000000000000000000007F
:10018000000012111000000000000000000000003C
:10019000000000000000000000000000000022003D
:1001A000250028002B002E00310034000201000041
:1001B000050108010B0100002100240027002A008E
:1001C0002D003000330001010000040107010A0185
:1001D00005050505070508080808020202020A0AC3
:1001E00008080404040401010101010101010303E1
:1001F000030303030303040707070C0C0C0C0C0C8C
:100200000C0C0202020206060606060606060B0B88
:100210000B0B0B0B0B0B01021020200808102040C9
:1002200010204080020102010804020101020408BA
:100230001020408080402010080402018004020148
:100240008040201008040201080402010102040891
:10025000102040800102040810204080A3061124D1
:100260001FBECFEFD1E2DEBFCDBF00E00CBF12E07A
:10027000A0E0B2E0E4E2FEE000E00BBF02C00790C5
:100280000D92A835B107D9F722E0A8E5B2E001C088
:100290001D92A138B207E1F711E0CFE2D1E000E012
:1002A00006C021970109802FFE010E940807CE3267
:1002B000D10780E00807A9F70E9409050C941007F0
:1002C0000C940000CF93DF9390E0FC01EA5EFD4FB9
:1002D000249180539E4FFC0184918823C1F090E0CB
:1002E000880F991FFC01EA54FE4FC591D491FC017F
:1002F000E456FE4FA591B4919FB7F8943881822FB0
:10030000809583238883EC91E22BEC939FBFDF9150
:10031000CF9108958093BB0084E88093BC008091C6
:10032000BC0087FFFCCF8091B900887F803221F428
:1003300081E0809301020895803319F481E0809375
:1003400002020895282F30E0F901EA5AFE4F9491F5
:10035000F901EA5EFD4F449120533E4FF90124918B
:10036000222309F477C0992311F191509231F8F4C6
:10037000E92FF0E08827E054FE4F8F4F0C940807D8
:10038000EF01F301D201E701EB01D701F601FC0116
:10039000000206020A020E0214021802D7011C0211
:1003A00022022602809180008F7780938000E22FC6
:1003B000F0E0EE0FFF1FE45CFE4FA591B491EC91CD
:1003C000E42381E090E009F047C080E00895809147
:1003D00080008F7DEACF80918000877FE6CF84B553
:1003E0008F7784BDE4CF84B58F7DFBCF8091B00043
:1003F0008F778093B000DBCF8091B0008F7DF9CFF5
:10040000809190008F7780939000D1CF8091900061
:100410008F7DF9CF80919000877FF5CF8091A000EC
:100420008F778093A000C3CF8091A0008F7DF9CFFC
:100430008091A000877FF5CF809120018F778093F6
:100440002001B5CF809120018F7DF9CF80912001CF
:10045000877FF5CF80E090E008958F929F92AF92D2
:10046000BF92CF92DF92EF92FF920F931F93CF93A1
:10047000DF938FB7F894C0905D02D0905E02E09059
:100480005F02F09060028FBF8091620284FF74C0AF
:100490008090670290906802A0906902B0906A0212
:1004A000909173029111F6C0809171020E94A20195
:1004B00020916302022F017010E021E00817190754
:1004C00009F420E020937402B701A60148195909E4
:1004D0006A097B09209174029091610291FB88273F
:1004E00080F9222309F419C181111AC0413551053F
:1004F00061057105A8F0C0926702D0926802E0928F
:100500006902F0926A02997E92619068909361020A
:100510008091630280628093630240E050E0BA0100
:10052000809163029091610284FF12C04D3231E0EC
:1005300053076105710560F092FD05C083FDB4C0ED
:10054000826080936302809163028F7E8093630256
:1005500091FF12C04D3B52406105710568F092FD5C
:100560000BC0222309F4A2C0916090936102809194
:1005700063028F7D8093630280917302882309F464
:10058000A2C09091620296FB332730F9C32F80E01E
:10059000D82FCC0FDD1F95FB882780F98C2B20915D
:1005A0006502281709F469C01092660290916302EF
:1005B00096FFB0C0833009F097C09F7B9093630291
:1005C000213009F48DC091E0223009F48AC0909165
:1005D000620293FD03C0833009F493C090916602D8
:1005E0009923E1F1209161022860209361024091FA
:1005F0006B0250916C0260916D0270916E029701D6
:100600008601041B150B260B370B4091640250E04A
:1006100070E060E0041715072607370760F42091A3
:1006200062022260913029F0923029F42091620216
:10063000216020936202C0926B02D0926C02E09221
:100640006D02F0926E022091620224FF07C0209199
:100650007402222319F09E5F9093660280936502D4
:1006600080916102846080936102C0926702D0929F
:100670006802E0926902F0926A02DF91CF911F91C5
:100680000F91FF90EF90DF90CF90BF90AF909F9031
:100690008F90089587FB882780F98093740214CF88
:1006A00080916302886037CF84604BCF9D7F9E7FAF
:1006B00090936102C0926702D0926802E092690250
:1006C000F0926A0259CF80916F020E94A201C82F56
:1006D000809170020E94A201880F991F8C2B5FCF1E
:1006E00092E09093660273CF3091620233FD46C070
:1006F000811174CF9F7B90936302213041F02230AF
:1007000031F09091630290649093630267CF2093DD
:100710006602F7CF8823A9F35ACF882309F400CFC4
:10072000413551056105710508F4FACE92FD05C009
:1007300090FD03C09062909361024D3B5240610571
:10074000710528F08091610280648093610280913C
:100750006102C0926702D0926802E0926902F09250
:100760006A028D7F8E7F809361028091630285FF94
:1007700097CF84FD95CF8061877FCDCE882309F206
:100780006DCF3FB7F8948091590290915A02A09191
:100790005B02B0915C0226B5A89B05C02F3F19F003
:1007A0000196A11DB11D3FBFBA2FA92F982F8827F1
:1007B000BC01CD01620F711D811D911D42E0660FCC
:1007C000771F881F991F4A95D1F708958F929F929E
:1007D000AF92BF92CF92DF92EF92FF924B015C01FA
:1007E0000E94C1036B017C010E94C1036C197D0949
:1007F0008E099F09683E734081059105A8F321E0A9
:10080000821A9108A108B10888EEC80E83E0D81EAC
:10081000E11CF11C81149104A104B10429F7FF909B
:10082000EF90DF90CF90BF90AF909F908F90089502
:10083000AF92BF92CF92DF92EF92FF920F931F93EE
:10084000CF93DF936C017B018B01040F151FEB012C
:100850005E01AE18BF08C017D10759F06991D601E3
:10086000ED91FC910190F081E02DC6011995892B45
:1008700079F7C501DF91CF911F910F91FF90EF9014
:10088000DF90CF90BF90AF900895089590E080E002
:100890000895FC0101900020E9F73197AF01481B52
:1008A000590BBC0185E792E00C9418041F93CF9379
:1008B000DF93EC01162F8C8194EA9093BC00909109
:1008C000BC0097FFFCCF880F0E948A018B85812B8B
:1008D0000E948A0184E98093BC00809101028823F0
:1008E00029F0109201021092020204C080910202CB
:1008F0008111F9CFDF91CF911F9108950F931F932D
:10090000CF938C01C62F0E9456046C2F6460C801DF
:100910000E9456046C2F6B7FC8010E94560483EC22
:1009200090E00197F1F7CF911F910F9108950F93E8
:100930001F93CF93DF938C01D62FC42F607F642B3E
:100940000E947E0480E1D89FB00111246C2BC80165
:10095000DF91CF911F910F910C947E0440E061E0F4
:1009600085E792E00E9497048BE39FE10197F1F7FE
:10097000089541E00E94970481E090E008951F925D
:100980000F920FB60F9211242F933F938F939F9343
:10099000AF93BF9380915D0290915E02A0915F0240
:1009A000B09160023091580223E0230F2D3758F5A3
:1009B0000196A11DB11D2093580280935D02909372
:1009C0005E02A0935F02B093600280915902909101
:1009D0005A02A0915B02B0915C020196A11DB11D6B
:1009E0008093590290935A02A0935B02B0935C02E9
:1009F000BF91AF919F918F913F912F910F900FBE1B
:100A00000F901F90189526E8230F0296A11DB11D87
:100A1000D2CF789484B5826084BD84B5816084BD72
:100A200085B5826085BD85B5816085BD80916E008C
:100A3000816080936E0010928100809181008260BD
:100A400080938100809181008160809381008091FA
:100A500080008160809380008091B10084608093E9
:100A6000B1008091B00081608093B00080919100CE
:100A700082608093910080919100816080939100C9
:100A8000809190008160809390008091A1008260AD
:100A90008093A1008091A10081608093A10080914A
:100AA000A00081608093A0008091210182608093EA
:100AB0002101809121018160809321018091200199
:100AC00081608093200180917A00846080937A0015
:100AD00080917A00826080937A0080917A008160B0
:100AE00080937A0080917A00806880937A001092D7
:100AF000C10084E10E94620185E10E94620188E4F4
:100B00008093B8001092B90010927A0280917F020F
:100B1000823018F098E090937A0280937D0262E32D
:100B200070E080E090E00E94E6036091800285E73B
:100B300092E00E94560468EE73E080E090E00E942C
:100B4000E60360E385E792E00E947E04CBE4D6E40E
:100B5000CE010197F1F760E385E792E00E947E0401
:100B60002197F1F760E385E792E00E947E0483E538
:100B700092E00197F1F760E285E792E00E947E043F
:100B800060917A02606240E085E792E00E949704FB
:100B900084E080937B0240E06CE085E792E00E9475
:100BA00097040E94AE0482E080937C0240E066E0FD
:100BB00085E792E00E94970440E062E085E792E0DA
:100BC0000E9497048BE39FE10197F1F788E08093FF
:100BD000800260E085E792E00E94560440E060E811
:100BE00085E792E00E94970480E192E00E94490428
:100BF00080916202886080936202C0E0D0E00E942F
:100C00002D028091620282FD0E942D02809161027C
:100C100083FF03C0877F809361028091620282FD1F
:100C20000E942D0280916602823041F41092660289
:100C30000E94AE0489E192E00E9449048091620220
:100C400082FD0E942D0280916602813041F4109253
:100C500066020E94AE048FE192E00E9449048091F6
:100C6000620282FD0E942D0280916602843041F46E
:100C7000109266020E94AE0484E292E00E9449044F
:100C80008091620282FD0E942D0280916602833073
:100C900041F4109266020E94AE0481E392E00E9449
:100CA00049048091620282FD0E942D0280916102BE
:100CB00085FF09C08F7D809361020E94AE048DE3A1
:100CC00092E00E9449048091620282FD0E942D02FE
:100CD0008091630281FF0AC08D7F8B7F80936302C6
:100CE0000E94AE0483E492E00E9449048091620273
:100CF00082FD0E942D028091630282FF0AC08B7FD9
:100D00008D7F809363020E94AE048AE492E00E9489
:100D100049048091620282FD0E942D02809161024D
:100D200080FF0BC087FF09C08F77809361020E940C
:100D3000AE0481E592E00E944904209709F45FCF58
:100D40000E9400005CCFCF9310927802109277023D
:100D500088E092E0909376028093750287E2809318
:100D6000790284E180937E0284E080937F02109276
:100D7000800292E3909364021092650210926602E0
:100D800010926702109268021092690210926A0231
:100D900010926B0210926C0210926D0210926E0211
:100DA00010927202109273021092740292E0909369
:100DB0006F0293E0909370028093710280916202BF
:100DC0008061877F8093620282E00E94620180914D
:100DD00070020E9462018091620284FF04C08091CF
:100DE00071020E94620180916302816080936302BC
:100DF00080916F020E94A201C82F809170020E9410
:100E0000A201880F991F8C2B80936502CF910895C2
:100E1000EE0FFF1F881F8BBF0790F691E02D1994EE
:040E2000F894FFCF74
:100E24000000000100000000B90418044604450451
:100E34005459205049444F52005269676874004C19
:100E440065667400526967687420686F6C646564D1
:100E5400004C65667420686F6C64656400436C695B
:100E6400636B0053696E676C6500446F75626C65F3
:080E740000486F6C6465640026
:00000001FF
