:100000000C9442010C94D30C0C94A80C0C947D0C11
:100010000C94520C0C94270C0C94FC0B0C94D10BEC
:100020000C94A60B0C9473010C9473010C94730143
:100030000C9473010C9473010C9473010C94730170
:100040000C9473010C9473010C9473010C94730160
:100050000C9473010C9473010C9473010C945C0B5D
:100060000C9473010C94280D0C94FE0C0C947301E9
:100070000C9473010C9473010C9473010C94730130
:100080000C9473010C9473010C9473010C94730120
:100090000C9473010C9473010C9473010C94730110
:1000A0000C9473010C9473010C9473010C94730100
:1000B0000C9473010C9473010C9473010C947301F0
:1000C0000C9473010C9473010C9473010C947301E0
:1000D0000C9473010C9473010C9473010C947301D0
:1000E0000C9473010C945E0D0C94EA040C94E601DC
:1000F0000C94E2050C9401020C94D6010C94C101FD
:100100000C940C050C94F4010C9497040C94880442
:100110000C94C7010C94C4040C94FE040C94EE01DE
:100120000C94E3050C9491050C94CF010C943218B7
:100130000C94DC010C949F060C94FC010C94E001DF
:100140000C94D3010C9402020C94CB010C94EA01A0
:100150000C9406020C94DB040C9444050C94F801F6
:1001600000002100240027002A002D003000330069
:1001700001010000040107010A010000220025001E
:1001800028002B002E003100340002010000050180
:1001900008010B01000020002300260029002C008C
:1001A0002F003200000100000301060109010505CE
:1001B0000505070508080808020202020A0A0808DD
:1001C000040404040101010101010101030303030B
:1001D00003030303040707070C0C0C0C0C0C0C0C9A
:1001E0000202020206060606060606060B0B0B0BAB
:1001F0000B0B0B0B010210202008081020401020D0
:1002000040800201020108040201010204081020DA
:1002100040808040201008040201800402018040D8
:100220002010080402010804020101020408102041
:100230004080010204081020408000000A0B0209DF
:100240000C0D0E0807030401000000000000000070
:10025000000000000000000000000000000000009E
:10026000000000000000121110000000000000005B
:10027000000000000000000000000000000000007E
:100280005E0D321811241FBECFEFD1E2DEBFCDBF0D
:1002900000E00CBF26E0A2E6B4E001C01D92A1334D
:1002A000B207E1F714E0A0E0B2E0EAEEF5E300E027
:1002B0000BBF02C007900D92A236B107D9F711E02B
:1002C000C1E4D1E000E006C021970109802FFE01C2
:1002D0000E94C518C034D10780E00807A9F70E9422
:1002E000040F0C94E31A0C94000080917B00877F2C
:1002F00080937B0087E480937C0080917A00806407
:1003000080937A0080917A0086FDFCCF80917800FE
:100310009091790008958093BB0084E88093BC009D
:100320008091BC0087FFFCCF8091B900887F80322C
:1003300021F481E0809311020895803319F481E063
:100340008093120208958150823108F05AC0E82F3C
:10035000F0E08827E155FE4F8F4F0C94C518CF0170
:10036000D301C101C701CB010102D601DC01E001CB
:10037000E601EA01EE01F401F8010102FC010202CA
:100380000602809180008F7780938000089580918D
:1003900080008F7DF9CF80918000877FF5CF84B575
:1003A0008F7784BD089584B58F7DFBCF8091B00099
:1003B0008F778093B00008958091B0008F7DF9CF42
:1003C000809190008F7780939000089580919000A5
:1003D0008F7DF9CF80919000877FF5CF8091A0002D
:1003E0008F778093A00008958091A0008F7DF9CF32
:1003F0008091A000877FF5CF809120018F77809337
:1004000020010895809120018F7DF9CF80912001F6
:10041000877FF5CFCF93DF93282F30E0F901E65C9B
:10042000FD4F8491F901EC50FE4FD491F901E25552
:10043000FE4FC491CC23A1F081110E94A301EC2FA7
:10044000F0E0EE0FFF1FEC56FE4FA591B491EC913A
:10045000ED2381E090E009F480E0DF91CF910895F1
:1004600080E090E0FACF8F929F92AF92BF92CF92AE
:10047000DF92EF92FF920F931F93CF93DF938FB78B
:10048000F894C0909704D0909804E0909904F0906C
:100490009A048FBF80910E0684FF74C0809013066B
:1004A00090901406A0901506B090160690911F0625
:1004B0009111F6C080911D060E940A0220910F063C
:1004C000022F017010E021E00817190709F420E05D
:1004D00020932006B701A601481959096A097B092A
:1004E0002091200690910D0691FB882780F9222308
:1004F00009F419C181111AC0413551056105710511
:10050000A8F0C0921306D0921406E0921506F0925D
:100510001606997E9261906890930D0680910F0661
:10052000806280930F0640E050E0BA0180910F0690
:1005300090910D0684FF12C04D3231E053076105E2
:10054000710560F092FD05C083FDB4C082608093A8
:100550000F0680910F068F7E80930F0691FF12C0C9
:100560004D3B52406105710568F092FD0BC022239E
:1005700009F4A2C0916090930D0680910F068F7DC3
:1005800080930F0680911F06882309F4A2C09091E2
:100590000E0696FB332730F9C32F80E0D82FCC0FFF
:1005A000DD1F95FB882780F98C2B209111062817D9
:1005B00009F469C01092120690910F0696FFB0C020
:1005C000833009F097C09F7B90930F06213009F488
:1005D0008DC091E0223009F48AC090910E0693FDFF
:1005E00003C0833009F493C0909112069923E1F17E
:1005F00020910D06286020930D064091170650911A
:1006000018066091190670911A0697018601041B5D
:10061000150B260B370B4091100650E070E060E0A0
:10062000041715072607370760F420910E0622608D
:10063000913029F0923029F420910E062160209308
:100640000E06C0921706D0921806E0921906F09294
:100650001A0620910E0624FF07C0209120062223AF
:1006600019F09E5F909312068093110680910D06FB
:10067000846080930D06C0921306D0921406E09217
:100680001506F0921606DF91CF911F910F91FF9002
:10069000EF90DF90CF90BF90AF909F908F90089594
:1006A00087FB882780F98093200614CF80910F065E
:1006B000886037CF84604BCF9D7F9E7F90930D06DF
:1006C000C0921306D0921406E0921506F092160618
:1006D00059CF80911B060E940A02C82F80911C06E8
:1006E0000E940A02880F991F8C2B5FCF92E0909393
:1006F000120673CF30910E0633FD46C0811174CFC0
:100700009F7B90930F06213041F0223031F0909181
:100710000F06906490930F0667CF20931206F7CFD1
:100720008823A9F35ACF882309F400CF4135510516
:100730006105710508F4FACE92FD05C090FD03C075
:10074000906290930D064D3B52406105710528F073
:1007500080910D06806480930D0680910D06C092F5
:100760001306D0921406E0921506F09216068D7FBD
:100770008E7F80930D0680910F0685FF97CF84FDB5
:1007800095CF8061877FCDCE882309F26DCF1F93EF
:10079000CF93DF93282F30E0F901E65CFD4F849181
:1007A000F901EC50FE4FD491F901E255FE4FC4918E
:1007B000CC23A9F0162F81110E94A301EC2FF0E0A9
:1007C000EE0FFF1FE658FE4FA591B4918FB7F89436
:1007D000EC91111108C0D095DE23DC938FBFDF911F
:1007E000CF911F910895DE2BF8CFCF93DF9390E048
:1007F000FC01EC50FE4F249182559E4FFC018491E8
:100800008823C9F090E0880F991FFC01E05AFE4F41
:10081000A591B491FC01E658FE4FC591D4916111A8
:100820000DC09FB7F8948C91209582238C9388817A
:10083000282328839FBFDF91CF910895623051F420
:100840009FB7F8943C91822F809583238C93E88105
:100850002E2BEFCF8FB7F894EC912E2B2C938FBFCC
:10086000EACF3FB7F8948091930490919404A091BB
:100870009504B091960426B5A89B05C02F3F19F0AA
:100880000196A11DB11D3FBFBA2FA92F982F882710
:10089000BC01CD01620F711D811D911D42E0660FEB
:1008A000771F881F991F4A95D1F708958F929F92BD
:1008B000AF92BF92CF92DF92EF92FF924B015C0119
:1008C0000E9431046B017C010E9431046C197D0986
:1008D0008E099F09683E734081059105A8F321E0C8
:1008E000821A9108A108B10888EEC80E83E0D81ECC
:1008F000E11CF11C81149104A104B10429F7FF90BB
:10090000EF90DF90CF90BF90AF909F908F90089521
:100910000895DB0114964D915C9115976D917C9132
:10092000DC01ED91FC910280F381E02D1994AF92EE
:10093000BF92CF92DF92EF92FF920F931F93CF93CC
:10094000DF936C017B018B01040F151FEB015E012E
:10095000AE18BF08C017D10759F06991D601ED91C3
:10096000FC910190F081E02DC6011995892B79F752
:10097000C501DF91CF911F910F91FF90EF90DF9014
:10098000CF90BF90AF90089580918E0490918F0486
:10099000A0919004B09191048093640490936504B5
:1009A000A0936604B09367040E947501909363045A
:1009B000809362040895FC01538D448D252F30E00F
:1009C000842F90E0821B930B541710F0CF9608955C
:1009D00001970895FC01918D828D981761F0A28D89
:1009E000AE0FBF2FB11D5D968C91928D9F5F9F734F
:1009F000928F90E008958FEF9FEF0895FC01918D05
:100A0000828D981731F0828DE80FF11D858D90E071
:100A100008958FEF9FEF0895FC01918D228D892F0E
:100A200090E0805C9F4F821B91098F7399270895F6
:100A30008BE994E00E940C0521E0892B09F420E069
:100A4000822F0895FC01A48DA80FB92FB11DA35AC0
:100A5000BF4F2C91848D90E001968F739927848FDE
:100A6000A689B7892C93A089B1898C918370806401
:100A70008C93938D848D981306C00288F389E02DA2
:100A800080818F7D80830895EF92FF920F931F9353
:100A9000CF93DF93EC0181E0888F9B8D8C8D981331
:100AA0001AC0E889F989808185FF15C09FB7F8943D
:100AB000EE89FF896083E889F98980818370806489
:100AC00080839FBF81E090E0DF91CF911F910F91D4
:100AD000FF90EF900895F62E0B8D10E00F5F1F4FE3
:100AE0000F731127E02E8C8D8E110CC00FB607FCF2
:100AF000FACFE889F989808185FFF5CFCE010E9480
:100B00002205F1CFEB8DEC0FFD2FF11DE35AFF4FC6
:100B1000F0829FB7F8940B8FEA89FB89808180620D
:100B2000CFCFCF93DF93EC01888D8823B9F0AA89CA
:100B3000BB89E889F9898C9185FD03C0808186FD98
:100B40000DC00FB607FCF7CF8C9185FFF2CF8081E7
:100B500085FFEDCFCE010E942205E9CFDF91CF9135
:100B6000089580E090E0892B29F00E9418058111FA
:100B70000E94000080E090E0892B49F080E090E046
:100B8000892B29F00E94000081110E94000080E062
:100B900090E0892B49F080E090E0892B29F00E94B9
:100BA000000081110E94000080E090E0892B49F054
:100BB00080E090E0892B29F00E94000081110C94C4
:100BC00000000895089590E080E0089510927E045A
:100BD00010927F0410928004109281041092680495
:100BE0001092690410926A0410926B0410927A04B5
:100BF00010927B0410927C0410927D041092720477
:100C000010927304109274041092750410926E0482
:100C100010926F04109270041092710410926D047F
:100C200010926C041092820408951F93CF93DF9367
:100C3000EC01162F8C8194EA9093BC009091BC003B
:100C400097FFFCCF880F0E948B018B85812B0E9420
:100C50008B0184E98093BC0080911102882329F0E4
:100C6000109211021092120204C08091120281119E
:100C7000F9CFDF91CF911F9108950F931F93CF93D9
:100C80008C01C62F0E9415066C2F6460C8010E945B
:100C900015066C2F6B7FC8010E94150683EC90E04F
:100CA0000197F1F7CF911F910F9108950F931F9323
:100CB000CF93DF938C01D62FC42F607F642B0E94CB
:100CC0003D0680E1D89FB00111246C2BC801DF9153
:100CD000CF911F910F910C943D06CF93DF9300D0DD
:100CE00000D01F921F92CDB7DEB798E0EAE1F2E0A4
:100CF000DE01119601900D929A95E1F790912906E7
:100D0000961710F46FEF690F262F30E0220F331F74
:100D100041E050E04C0F5D1F240F351FF901608149
:100D2000680F606840E081E296E028960FB6F8947C
:100D3000DEBF0FBECDBFDF91CF910C94560641E0D0
:100D40000E94560681E090E00895CF93DF93EB0177
:100D50000E948D188883CE01DF91CF9108950F9363
:100D60001F93CF93DF938C01EB010E948D18888332
:100D7000C80101960E948D188983CE01DF91CF9121
:100D80001F910F910895CF93DF93CEE5D5E08A812F
:100D9000BE0190E00E94AF068C8190E00E948D1809
:100DA0008B838F8163E675E090E00E94AF068A85B1
:100DB00066E675E090E00E94AF068C8569E675E016
:100DC00090E00E94A5068E856BE675E090E0DF91CD
:100DD000CF910C94A506FB0101900020E9F7319713
:100DE000AF01461B570BDC01ED91FC910280F381B2
:100DF000E02D19946CE772E08BE994E00C94EB061B
:100E00008F929F92AF92BF92EF92FF920F931F9398
:100E1000CF93DF93CDB7DEB7A1970FB6F894DEBFBF
:100E20000FBECDBF7C01FA01CB0119A2223008F41C
:100E30002AE08E010F5D1F4F822E912CB12CA12C28
:100E4000BF01A50194010E94A318F901CA016A30EB
:100E50000CF5605DD8016E938D01232B242B252B7F
:100E600079F790E080E0109721F0BD01C7010E9462
:100E7000EB06A1960FB6F894DEBF0FBECDBFDF9193
:100E8000CF911F910F91FF90EF90BF90AF909F90E7
:100E90008F900895695CDECFCF92DF92EF92FF9240
:100EA0000F931F93CF93DF936B01770FEE08FF082B
:100EB000F7FE1FC0EC01E881F9810190F081E02D7F
:100EC0006DE219958C0144275527BA014C195D092B
:100ED0006E097F092AE0CE010E940007800F911F52
:100EE000DF91CF911F910F91FF90EF90DF90CF9006
:100EF00008952AE0B701A601DF91CF911F910F91CC
:100F0000FF90EF90DF90CF900C940007AB0170E062
:100F100060E02AE00C940007CF93DF93BC018BE9DB
:100F200094E00E948607EC010E94FA068C0F9D1F38
:100F3000DF91CF910895CF93DF93BC018BE994E0CB
:100F40000E94EB06EC010E94FA068C0F9D1FDF91B8
:100F5000CF9108956115710511F00C94EB0690E0A6
:100F600080E00895CF93DF938FE792E00E949B0784
:100F700068E872E08BE994E00E94AA07CEE5D5E02C
:100F8000888199810E948C0761E972E08BE994E085
:100F90000E94AA074B8150E070E060E02AE08BE9F4
:100FA00094E00E9400070E94FA0668E972E08BE96B
:100FB00094E00E94AA078D819E810E948C0761EABD
:100FC00072E08BE994E00E94AA07888599850E94C7
:100FD0008C0766EB72E08BE994E00E94AA076B85B0
:100FE00070E08BE994E00E944C070E94FA066DEBDA
:100FF00072E08BE994E00E94AA076D8570E08BE9AE
:1010000094E00E944C070E94FA06DF91CF910C9465
:10101000FA0661E080E00E946D0663ED72E081E215
:1010200096E00E94AA0762E080E00E946D0663EDF0
:1010300072E081E296E00E94AA0763E080E00E94ED
:101040006D0663ED72E081E296E00C94AA07CF93FF
:10105000DF93EC0160E080E00E946D066CEC72E0D2
:1010600081E296E00E94AA0760E080E00E946D069F
:10107000E88124E1E29FF0011124EE5DFD4F6081E3
:10108000718181E296E00E94AA078981882341F15B
:1010900068EE72E0813011F06BEE72E081E296E072
:1010A0000E94AA078881E9812AE0829FC001112459
:1010B000E80FF92FF11DEE0FFF1FEE5DFD4F608170
:1010C000718181E296E00E94AA078A81882341F01B
:1010D00062E773E081E296E0DF91CF910C94AA077A
:1010E000DF91CF9108950F931F93CF93DF93EC017E
:1010F00088819981009759F02A813B81261737070B
:1011000030F081E0DF91CF911F910F9108958B0115
:101110006F5F7F4F0E94F219009759F0998388837F
:101120001B830A832C813D81232B59F7FC011082FC
:10113000E8CF80E0E7CFEF92FF920F931F93CF931A
:10114000DF936115710541F480E0DF91CF911F912C
:101150000F91FF90EF90089541155105B1F07B017B
:10116000EC010C811D81040F151FB8010E9473084A
:10117000882351F3288139818C819D81B701820FA9
:10118000931F0E94DC1A1D830C8381E0DECFCF9376
:10119000DF93EC0188819981009711F00E94691911
:1011A000198218821D821C821B821A82DF91CF91C4
:1011B0000895CF93DF93EC01FB0101900020E9F744
:1011C0003197AF01461B570B0E949B08811103C04A
:1011D000CE010E94C708CE01DF91CF910895CF9331
:1011E000DF93EC01FB0144815581608171810E9494
:1011F0009B08811103C0CE010E94C708CE01DF9178
:10120000CF910895EF92FF920F931F93CF93DF93A7
:10121000EC017B018A01BA010E94730881110BC0A5
:10122000CE010E94C708CE01DF91CF911F910F918F
:10123000FF90EF9008951D830C83B70188819981F9
:101240000E94DC1AF0CFEF92FF920F931F93CF937F
:10125000DF93CDB7DEB761970FB6F894DEBF0FBE50
:10126000CDBF8C01CB01F801118210821382128252
:10127000158214824AE09E012F5F3F4F7901B90128
:101280000E946318F70101900020E9F73197AF0140
:101290004E195F09B701C8010E94020961960FB695
:1012A000F894DEBF0FBECDBFDF91CF911F910F919C
:1012B000FF90EF900895CF93DF93EC01FB01861729
:1012C000970749F0608171816115710541F0448192
:1012D00055810E940209CE01DF91CF9108950E94AD
:1012E000C708F9CFFC011182108213821282158285
:1012F00014820C945B09FB012081DC012C93418159
:1013000052816381748111964D935D936D937C93AB
:1013100014972581368116963C932E931597BF011D
:10132000695F7F4F07960C947209FC01118210824D
:101330001382128215821482FB0101900020E9F7CA
:101340003197AF01461B570B0C940209FC01108228
:1013500011821282138214821682158269E573E06B
:1013600007960C949509FC0180819181009711F0FA
:101370000C94691908953F924F925F926F927F92F9
:101380008F929F92AF92BF92CF92DF92EF92FF9295
:101390000F931F93CF93DF93CDB7DEB76C970FB644
:1013A000F894DEBF0FBECDBF4C012A013B01CB013B
:1013B000BA0128EE33E040E050E00E94A318298FE4
:1013C0003A8F4B8F5C8FC301B20120E63AEE40E0CA
:1013D00050E00E94A318690128EE33E0498D5A8D30
:1013E000249FC001259F900D349F900D1124520120
:1013F000A81AB90A3CE3332E3C9CC0013D9C900DD9
:1014000011248A01081B190BC301B20120E83EEE2A
:1014100046E350E00E94A318329EC001339E900D17
:101420001124C81AD90AB501CE0143960E94230996
:1014300054E6A516B10408F078C02EEEE22E22E0A4
:10144000F22E8AE0A816B10408F473C099E5A92E1B
:1014500093E0B92EB801CE010D960E9423090A30FF
:10146000110508F468C009E513E0B601CE0107963E
:101470000E94230969E573E04AE0C416D10410F420
:101480006EEE72E0CE0101960E949509BE01695F81
:101490007F4FCE0101960E94EF0862E773E00E9441
:1014A000D908B8010E94D908BE01635F7F4F0E942E
:1014B000EF086FE073E00E94D908B5010E94D908D7
:1014C000B7010E94D908BE016D5E7F4F0E94EF08F0
:1014D000BC01C4010E947209CE0101960E94B309A9
:1014E000CE0107960E94B309CE010D960E94B30962
:1014F000CE0143960E94B309C4016C960FB6F894CE
:10150000DEBF0FBECDBFDF91CF911F910F91FF9036
:10151000EF90DF90CF90BF90AF909F908F907F9093
:101520006F905F904F903F90089589E5E82E83E09B
:10153000F82E57018FCF0EEE12E097CFEF92FF9269
:101540000F931F93CF93DF93CDB7DEB72C970FB6D2
:10155000F894DEBF0FBECDBF7C01E0910A0686E0A5
:10156000E89FF0011124E85CFA4F848161E08E5F0E
:101570000E946D0669E573E0CE0107960E94950909
:1015800010E000E0BE01695F7F4FCE0101960E942E
:10159000720966EE72E0CE0101960E94D908BC0184
:1015A000CE0107960E945B09CE0101960E94B30905
:1015B0000F5F1F4F0E151F0529F7BE01695F7F4F93
:1015C00081E296E00E948904E0910A0686E0E89FA5
:1015D000F0011124E85CFA4F848161E08E5F0E9483
:1015E0006D06CE0107960E94B3092C960FB6F894AB
:1015F000DEBF0FBECDBFDF91CF911F910F91FF9046
:10160000EF900895FF920F931F93CF93DF93EC0118
:10161000F62E08811981C8010E948D18F81621F054
:101620006F2DC8010E949518CE01DF91CF911F91B7
:101630000F91FF9008950F931F93CF93DF931F9205
:101640001F92CDB7DEB78B019A838983FB0160813E
:10165000CE0101960E94020BC8010F900F90DF91FE
:10166000CF911F910F910895EF92FF920F931F93C7
:10167000CF93DF931F921F92CDB7DEB78C017B0112
:101680009A838983FB016081CE0101960E94020B3F
:101690000F5F1F4F1A830983F7016181CE01019605
:1016A0000E94020BC7010F900F90DF91CF911F9105
:1016B0000F91FF90EF9008951F920F920FB60F9227
:1016C00011242F933F938F939F93AF93BF93809158
:1016D000970490919804A0919904B0919A04309144
:1016E000920423E0230F2D3758F50196A11DB11D5B
:1016F000209392048093970490939804A093990464
:10170000B0939A048091930490919404A0919504CD
:10171000B09196040196A11DB11D809393049093FE
:101720009404A0939504B0939604BF91AF919F91B8
:101730008F913F912F910F900FBE0F901F90189592
:1017400026E8230F0296A11DB11DD2CF1F920F9242
:101750000FB60F9211240BB60F922F933F934F9316
:101760005F936F937F938F939F93AF93BF93EF9309
:10177000FF93E0910E02F0910F021995FF91EF9106
:10178000BF91AF919F918F917F916F915F914F9199
:101790003F912F910F900BBE0F900FBE0F901F9097
:1017A00018951F920F920FB60F9211240BB60F923D
:1017B0002F933F934F935F936F937F938F939F9359
:1017C000AF93BF93EF93FF93E0910C02F0910D0262
:1017D0001995FF91EF91BF91AF919F918F917F915B
:1017E0006F915F914F913F912F910F900BBE0F9092
:1017F0000FBE0F901F9018951F920F920FB60F9269
:1018000011240BB60F922F933F934F935F936F93D7
:101810007F938F939F93AF93BF93EF93FF93E09149
:101820000202F09103021995FF91EF91BF91AF91E0
:101830009F918F917F916F915F914F913F912F91E8
:101840000F900BBE0F900FBE0F901F9018951F9218
:101850000F920FB60F9211240BB60F922F933F9356
:101860004F935F936F937F938F939F93AF93BF93A8
:10187000EF93FF93E0910002F09101021995FF911F
:10188000EF91BF91AF919F918F917F916F915F91F8
:101890004F913F912F910F900BBE0F900FBE0F9065
:1018A0001F9018951F920F920FB60F9211240BB62E
:1018B0000F922F933F934F935F936F937F938F93E9
:1018C0009F93AF93BF93EF93FF93E0910A02F09140
:1018D0000B021995FF91EF91BF91AF919F918F915D
:1018E0007F916F915F914F913F912F910F900BBE20
:1018F0000F900FBE0F901F9018951F920F920FB66A
:101900000F9211240BB60F922F933F934F935F9337
:101910006F937F938F939F93AF93BF93EF93FF93B7
:10192000E0910802F09109021995FF91EF91BF91A2
:10193000AF919F918F917F916F915F914F913F9167
:101940002F910F900BBE0F900FBE0F901F90189508
:101950001F920F920FB60F9211240BB60F922F9376
:101960003F934F935F936F937F938F939F93AF9327
:10197000BF93EF93FF93E0910602F0910702199550
:10198000FF91EF91BF91AF919F918F917F916F9157
:101990005F914F913F912F910F900BBE0F900FBE13
:1019A0000F901F9018951F920F920FB60F9211244F
:1019B0000BB60F922F933F934F935F936F937F9349
:1019C0008F939F93AF93BF93EF93FF93E0910402A4
:1019D000F09105021995FF91EF91BF91AF919F9101
:1019E0008F917F916F915F914F913F912F910F90C8
:1019F0000BBE0F900FBE0F901F9018951F920F9265
:101A00000FB60F9211240BB60F922F933F934F9363
:101A10005F936F937F938F939F93AF93BF93EF9356
:101A2000FF938BE994E00E942205FF91EF91BF9113
:101A3000AF919F918F917F916F915F914F913F9166
:101A40002F910F900BBE0F900FBE0F901F90189507
:101A50001F920F920FB60F9211240BB60F922F9375
:101A60008F939F93EF93FF93E091AB04F091AC04BD
:101A70008081E091B104F091B20482FD1DC090819B
:101A80008091B4048F5F8F732091B504821741F069
:101A9000E091B404F0E0E556FB4F958F8093B404D9
:101AA000FF91EF919F918F912F910F900BBE0F900F
:101AB0000FBE0F901F9018958081F2CF1F93CF9388
:101AC000DF931F921F92CDB7DEB710929E04109243
:101AD0009D0488EE93E0A0E0B0E080939F04909393
:101AE000A004A093A104B093A20482E692E0909394
:101AF0009C0480939B0485EC90E09093A8048093D1
:101B0000A70484EC90E09093AA048093A90480EC4D
:101B100090E09093AC048093AB0481EC90E09093C0
:101B2000AE048093AD0482EC90E09093B004809377
:101B3000AF0486EC90E09093B2048093B1041092CD
:101B4000B4041092B5041092B6041092B704109227
:101B500024061092230684E792E090932206809355
:101B6000210687E28093250684E180932A0684E09B
:101B700080932B0610922C0692E3909310061092FD
:101B8000110610921206109213061092140610926B
:101B9000150610921606109217061092180610924B
:101BA000190610921A0610921E0610921F06109225
:101BB000200692E090931B0693E090931C0680937E
:101BC0001D0680910E068061877F80930E0662E07D
:101BD00082E00E94F50362E080911C060E94F503FA
:101BE00080910E0684FF05C062E080911D060E9470
:101BF000F50380910F06816080930F0680911B068C
:101C00000E940A02182F80911C060E940A02880F67
:101C1000991F812B8093110610920B0610920C06CF
:101C20001092090612E010930A068CEF95E00E94CC
:101C3000A6098FEE95E00E94A60982EE95E00E942B
:101C4000A60985ED95E00E94A60988EC95E00E9422
:101C5000A6098BEB95E00E94A6096CEF75E08DE676
:101C600095E00E947B096FEE75E08AE795E00E949F
:101C70007B0962EE75E087E895E00E947B0965EDDF
:101C800075E084E995E00E947B0968EC75E081EAE3
:101C900095E00E947B096BEB75E08EEA95E00E946F
:101CA0007B0910925F0510925E051092600581E03D
:101CB000809361051093620583E090E09093640542
:101CC0008093630523E020936505909367058093D7
:101CD000660585E0809368051092690587E080932A
:101CE0006A0510926B0588E080936C056EE575E0DF
:101CF00090E080E00E94AF0680915E0590915F05C4
:101D00008A33904309F44CC00E94FA0680EF92E0B7
:101D10000E949B078AE390E39A8389838091600500
:101D2000BE016F5F7F4F90E00E94340B809162058F
:101D300090E09A83898360916105CE0101960E94AB
:101D4000020B8091650563E675E090E00E94340B1C
:101D50008091680566E675E090E00E94340B809102
:101D60006A0569E675E090E00E941B0B80916C05A6
:101D70006BE675E090E00E941B0B86E690E09A838C
:101D80008983BE016F5F7F4F84E690E00E94340B31
:101D900081E193E00E949B070E94C3060E94B20764
:101DA00010925D0510925C056CE575E084E690E0AC
:101DB0000E94AF0669E573E088E395E00E9495090B
:101DC00066E173E08EE395E00E94950960E273E0BE
:101DD00084E495E00E9495096CE273E08AE495E062
:101DE0000E9495096CE373E080E595E00E949509F7
:101DF0006BE473E086E595E00E9495090F900F90E3
:101E0000DF91CF911F910895CF93DF93CDB7DEB7C8
:101E100060970FB6F894DEBF0FBECDBF789484B53F
:101E2000826084BD84B5816084BD85B5826085BDD6
:101E300085B5816085BD80916E00816080936E0064
:101E40001092810080918100826080938100809156
:101E50008100816080938100809180008160809307
:101E600080008091B10084608093B1008091B000C7
:101E700081608093B0008091910082608093910096
:101E800080919100816080939100809190008160A9
:101E9000809390008091A10082608093A100809146
:101EA000A10081608093A1008091A0008160809357
:101EB000A000809121018260809321018091210105
:101EC00081608093210180912001816080932001B5
:101ED00080917A00846080937A0080917A00826099
:101EE00080937A0080917A00816080937A0080915B
:101EF0007A00806880937A001092C100E091AB0470
:101F0000F091AC0482E08083E091A704F091A804F2
:101F10001082E091A904F091AA048FEC80831092C2
:101F2000B304E091AF04F091B00486E08083E091C7
:101F3000AD04F091AE04808180618083E091AD04B6
:101F4000F091AE04808188608083E091AD04F091CF
:101F5000AE04808180688083E091AD04F091AE048E
:101F600080818F7D808362E084E10E94F50362E0DE
:101F700085E10E94F50388E48093B8001092B900CF
:101F80001092260680912B06823018F098E09093EC
:101F900026068093290662E370E080E090E00E94CC
:101FA000560460912C0681E296E00E94150668EEC8
:101FB00073E080E090E00E94560460E381E296E0E6
:101FC0000E943D060BE416E4C8010197F1F760E3B7
:101FD00081E296E00E943D06C8010197F1F760E3B7
:101FE00081E296E00E943D0683E592E00197F1F7D9
:101FF00060E281E296E00E943D0660912606606202
:1020000040E081E296E00E94560684E08093270635
:1020100040E06CE081E296E00E94560640E061E01C
:1020200081E296E00E9456060BE31FE1C80101978A
:10203000F1F782E0F82EF092280640E066E081E2B7
:1020400096E00E94560640E062E081E296E00E943F
:102050005606C8010197F1F788E080932C0660E0EE
:1020600081E296E00E9415061B821C821982FA8288
:1020700080910E06877F80930E0661E087E00E94C4
:10208000F50361E086E00E94F50361E085E00E94CF
:10209000F50361E089E00E94F50361E088E00E94B9
:1020A000F50360E08DE30E94F50360E082E10E94A9
:1020B000F50361E087E00E94C70360E086E00E94CC
:1020C000C7036091850485E00E94C70360E089E052
:1020D0000E94C70361E088E00E94C70384EC94E09B
:1020E00090930B0280930A0280916900806C809328
:1020F0006900EB9ACE0101960E94270867E573E01C
:102100008BE994E00E94AA070E94C3060E94B207CE
:1021100011E02FB7F8948091970490919804A091C2
:102120009904B0919A042FBF80938E0490938F04EA
:10213000A0939004B09391048091640490916504FD
:10214000A0916604B0916704892B8A2B8B2B31F107
:1021500080916204909163044091640450916504FD
:10216000609166047091670440937B0550937C05F1
:1021700060937D0570937E059093800580937F0525
:1021800010937A051092640410926504109266040C
:1021900010926704109263041092620480910E06FC
:1021A00082FD0E94330280911206813081F41092E8
:1021B0001206109288051092890510928A051092D5
:1021C0008B0510928D0510928C0580938705809168
:1021D0000E0682FD0E94330280911206823081F445
:1021E000109212061092950510929605109297057E
:1021F0001092980510929A051092990510939405E3
:1022000080910E0682FD0E94330280910D0685FFAB
:1022100011C08F7D80930D061092A2051092A30528
:102220001092A4051092A5051092A7051092A6057C
:102230001093A10580910A06811139C0809187050C
:10224000882359F080910906882319F081508093E2
:10225000090689E096E00E9427088091940588236A
:1022600059F080910906823018F48F5F8093090637
:1022700089E096E00E9427088091A105882331F02B
:1022800010930A0689E096E00E94270810926D05D7
:1022900010927A0510928705109294051092A1056C
:1022A0001092AE050E9433020E94B10532CF909188
:1022B0000B06911134C090918705992339F0815014
:1022C00080930A0689E096E00E9427088091940591
:1022D0008823C9F080910906811105C080910A0602
:1022E000833038F00CC0813041F480910A0685308B
:1022F00030F48F5F80930A0602C0823079F389E060
:1023000096E00E9427088091A105882309F4BECF9A
:1023100010930B0610930C060E940908B3CF80910E
:10232000A105882381F010920B0610920C060E94E2
:10233000090889E096E00E9427081092850460E071
:1023400085E00E94C703809109068111F6C00091C3
:102350000A06013009F0F5C080910C06882309F4C3
:102360005CC00E94E6050093850461E085E00E9460
:10237000C70368E573E08BE994E00E94AA076AE569
:1023800073E08BE994E00E94AA0760916305709165
:1023900064058BE994E00E94860781E693E00E9441
:1023A0009B0761E080E00E946D0663ED72E081E2D0
:1023B00096E00E94AA0761E080E00E946D066DE64B
:1023C00073E081E296E00E94AA0760918304709115
:1023D000840481E296E00E94860761E086E00E9424
:1023E0006D0660E773E081E296E00E94AA0761E073
:1023F00089E00E946D06609163057091640581E239
:1024000096E00E94860761E08DE00E946D0664E719
:1024100073E081E296E00E94AA0780918204811114
:1024200018C480918705882309F1809183049091D5
:102430008404009729F00197909384048093830487
:1024400061E082E00E946D0662EE72E081E296E059
:102450000E94AA0761E082E00E946D0660918304F9
:102460007091840481E296E00E9486078091940531
:10247000882319F180918304909184048F3027E29E
:10248000920728F40196909384048093830461E07A
:1024900082E00E946D0662EE72E081E296E00E94A8
:1024A000AA0761E082E00E946D066091830470914A
:1024B000840481E296E00E94860780917A05882351
:1024C000E1F180917B0590917C05A0917D05B09113
:1024D0007E0580937E0490937F04A0938004B09344
:1024E000810480937A0490937B04A0937C04B0933E
:1024F0007D04109382048BE793E00E949B0761E0C8
:102500008DE00E946D066BE773E081E296E00E9429
:10251000AA0762E080E00E946D0663ED72E081E24E
:1025200096E00E94AA0763E080E00E946D0663E8DF
:1025300073E081E296E00E94AA078091090681116A
:1025400072C080910A06823009F06DC080910C063D
:10255000882309F468C0BE01635F7F4F84E690E082
:102560000E94AF06FC01808191819E878D87892B17
:1025700009F459C0F12CE12C8D859E8506978E15A6
:102580009F0508F450C06701F6E6CF0ED11CCE01BE
:1025900001965C0147019CE6890E911CC6010E94D0
:1025A0008D18F50181935F01FFEFCF1ADF0AC81480
:1025B000D904A1F786E0FE013196DE01179601905D
:1025C0000D928A95E1F789849A84AB84BC846F81EB
:1025D00078858BE994E00E94860766EE72E08BE9CD
:1025E00094E00E94AA07B501A401CE0101960E94C1
:1025F000BB09BE016F5F7F4F8BE994E00E948904A5
:10260000CE0101960E94B30968E573E08BE994E07E
:102610000E94AA0726E0E20EF11C8EE5E81682E091
:10262000F80609F0A9CF80910906811116C08091A2
:102630000A06833091F480910C06882371F085EEB0
:1026400093E00E949B0710925D0510925C056CE57B
:1026500075E084E690E00E94340B80910906813099
:1026600009F013C280910A06882309F4EFC2809111
:102670000C06882309F4B3C061E080E00E946D0677
:1026800063EE72E081E296E00E94AA0761E080E0DA
:102690000E946D0680910A068130F9F46EE375E0C0
:1026A000CE0101960E9472096EE973E0CE01019697
:1026B0000E94D908BC0181E296E00E948904CE0103
:1026C00001960E94B3094091610550E070E060E01E
:1026D0002AE081E296E00E94000780910A0682309B
:1026E000E9F464E475E0CE0101960E9472096EE996
:1026F00073E0CE0101960E94D908BC0181E296E008
:102700000E948904CE0101960E94B309609163057D
:102710007091640581E296E00E94860780910A0626
:102720008330E9F46AE475E0CE0101960E947209F3
:102730006EE973E0CE0101960E94D908BC0181E2E6
:1027400096E00E948904CE0101960E94B30960912F
:1027500066057091670581E296E00E948607809188
:102760000A068430E1F460E575E0CE0101960E942E
:1027700072096EE973E0CE0101960E94D908BC018E
:1027800081E296E00E948904CE0101960E94B3097D
:1027900060916B0570E081E296E00E944C078091A9
:1027A0000A068530E1F466E575E0CE0101960E94E7
:1027B00072096EE973E0CE0101960E94D908BC014E
:1027C00081E296E00E948904CE0101960E94B3093D
:1027D0006091690570E081E296E00E944C0780916B
:1027E0000A068130A1F5809187058823B1F0809198
:1027F0006105823008F449C181508093610585E00C
:1028000090E00E949E0A4091610550E070E060E017
:102810002AE081E296E00E940007809194058823D7
:10282000B1F080916105823008F02FC18F5F8093F5
:10283000610585E090E00E949E0A4091610550E0AC
:1028400070E060E02AE081E296E00E94000780915B
:102850000A068230D1F5809187058823C1F08091E6
:10286000630590916405009709F40FC10197909357
:1028700064058093630585E090E00E949E0A609164
:1028800063057091640581E296E00E94860780915D
:1028900094058823D1F08091630590916405883E6A
:1028A000E3E09E0708F0F1C00196909364058093E1
:1028B000630585E090E00E949E0A60916305709137
:1028C000640581E296E00E94860780910A068330C3
:1028D000D1F5809187058823C1F08091660590919C
:1028E0006705009709F4D1C001979093670580931D
:1028F000660586E090E00E949E0A609166057091F0
:10290000670581E296E00E948607809194058823FE
:10291000D1F080916605909167058D32F1E09F07B7
:1029200008F0B3C00196909367058093660586E032
:1029300090E00E949E0A609166057091670581E2B1
:1029400096E00E94860780910A06843059F58091AE
:102950008705882391F080916B05882309F495C041
:1029600010926B0583E090E00E949E0A60916B05D7
:1029700070E081E296E00E944C07809194058823E4
:1029800089F080916B05811180C010936B0583E005
:1029900090E00E949E0A60916B0570E081E296E0F3
:1029A0000E944C0780910A06853059F58091870571
:1029B000882391F080916905882309F466C01092FC
:1029C000690583E090E00E949E0A6091690570E0CD
:1029D00081E296E00E944C0780919405882389F05B
:1029E00080916905811151C01093690583E090E0E1
:1029F0000E949E0A6091690570E081E296E00E9463
:102A00004C078091A105882309F43FC080910A06F4
:102A1000813059F48091620590E09A8389836091B6
:102A20006105CE0101960E94020B80910A06823058
:102A300039F48091650563E675E090E00E94340BFF
:102A400080910A06833039F48091680566E675E066
:102A500090E00E94340B80910A06843039F4809112
:102A60006C056BE675E090E00E941B0B80910A06F6
:102A7000853039F480916A0569E675E090E00E943E
:102A80001B0B0E94C3060E94B20780910906823088
:102A900009F0DCC000910A06013009F0D7C080912E
:102AA0000C06882309F442C061E080E00E946D06B4
:102AB00063EE72E081E296E00E94AA0761E080E0A6
:102AC0000E946D0665EF73E081E296E00E94AA071E
:102AD00062E080E00E946D066EED72E081E296E0B9
:102AE0000E94AA0762E080E00E946D066FEE73E02C
:102AF00081E296E00E94AA0763E080E00E946D06F2
:102B000063EE72E081E296E00E94AA0763E080E053
:102B10000E946D0664EF73E081E296E00E94AA07CE
:102B20000093850461E085E00E94C70380918A04D8
:102B300090918B04A0918C04B0918D04845D9E4F84
:102B4000AF4FBF4F40918E0450918F04609190041D
:102B50007091910484179507A607B70728F561E0DF
:102B600083E00E946D0663EE72E081E296E00E94CF
:102B7000AA0761E083E00E946D060E947501BC0116
:102B800081E296E00E944C0780918E0490918F0420
:102B9000A0919004B091910480938A0490938B0447
:102BA000A0938C04B0938D0480917A05882309F456
:102BB0004DC062E084E00E946D066EED72E081E23D
:102BC00096E00E94AA0762E084E00E946D064091B0
:102BD0007B0550917C0560917D0570917E0580910B
:102BE000860490918704A0918804B0918904481BC1
:102BF000590B6A0B7B0B2AE081E296E00E940007EA
:102C000063E084E00E946D0663EE72E081E296E08C
:102C10000E94AA0763E084E00E946D0660917F0530
:102C20007091800581E296E00E94860780917B0585
:102C300090917C05A0917D05B0917E0580938604DE
:102C400090938704A0938804B093890410920C0693
:102C50001DCB813009F014C1C0908E04D0908F0438
:102C6000E0909004F0909104809176049091770424
:102C7000A0917804B091790488519C4FAF4FBF4F19
:102C80008C159D05AE05BF0588F563E087E00E94C1
:102C90006D0680917E0490917F04A0918004B09194
:102CA0008104B701A601481B590B6A0B7B0BCE01AF
:102CB00001960E94BB09BE016F5F7F4F81E296E0E3
:102CC0000E948904CE0101960E94B30980918E046E
:102CD00090918F04A0919004B09191048093760418
:102CE00090937704A0937804B093790480917A0547
:102CF000882309F422CC40917B0550917C0560919A
:102D00007D0570917E0580917A0490917B04A0915D
:102D10007C04B0917D046A017B01C81AD90AEA0AD1
:102D2000FB0AD701C6018093720490937304A093A9
:102D30007404B0937504C0906E04D0906F04E0905A
:102D40007004F0907104C114D104E104F10429F07D
:102D50008C159D05AE05BF0540F480936E049093DD
:102D60006F04A0937004B093710440937A0450935D
:102D70007B0460937C0470937D0480916C0490913B
:102D80006D04019690936D0480936C0468E973E080
:102D90008BE994E00E94AA0760916C0470916D0425
:102DA0008BE994E00E9486076DE973E08BE994E07B
:102DB0000E94AA0740917A0450917B0460917C04A0
:102DC00070917D042AE08BE994E00E94000768E599
:102DD00073E08BE994E00E94AA0762E080E00E9421
:102DE0006D0661EA73E081E296E00E94AA0762E064
:102DF00084E00E946D0660916C0470916D0481E224
:102E000096E00E9486076EE973E081E296E00E94F8
:102E1000AA074091720450917304609174047091F8
:102E20007504CE0101960E94BB09BE016F5F7F4F02
:102E300081E296E00E948904CE0101960E94B309C6
:102E4000209163053091640580916C0490916D042C
:102E50008217930708F471CB82E0809382048091FB
:102E60007B0590917C05A0917D05B0917E058093B6
:102E7000680490936904A0936A04B0936B045DCBDB
:102E8000823009F05ACB66EB73E08BE994E00E9444
:102E9000AA076DE973E08BE994E00E94AA074091CC
:102EA00068045091690460916A0470916B04809188
:102EB0007E0490917F04A0918004B0918104481B0E
:102EC000590B6A0B7B0B2AE08BE994E00E94000708
:102ED00068E573E08BE994E00E94AA0780916B0596
:102EE000882309F450C08091680490916904A091EE
:102EF0006A04B0916B0440917E0450917F0460910C
:102F0000800470918104841B950BA60BB70B209154
:102F10008304309184043A8329838B839C83AD831B
:102F2000BE83BE01615F7F4F84E690E00E94AF06E2
:102F3000CF84D888760126E6E20EF11CCE010196F8
:102F40005C019CE6C90ED11CFE86ED86F5016191FF
:102F50005F01CE010D960E94020BFFEFEF1AFF0AF0
:102F6000CE14DF0489F78F8598890696988B8F8712
:102F7000BE01615F7F4F84E690E00E94340B80ECDD
:102F800093E00E949B0761E08DE00E946D066DEC6E
:102F900073E081E296E00E94AA0762E080E00E946E
:102FA0006D0663ED72E081E296E00E94AA0762E09E
:102FB00080E00E946D0665ED73E081E296E00E947C
:102FC000AA0740916E0450916F0460917004709153
:102FD0007104CE0101960E94BB09BE016F5F7F4F55
:102FE00081E296E00E948904CE0101960E94B30915
:102FF00063E080E00E946D0663ED72E081E296E09E
:103000000E94AA0763E080E00E946D066DED73E008
:1030100081E296E00E94AA074091680450916904F9
:1030200060916A0470916B0480917E0490917F049A
:10303000A0918004B0918104481B590B6A0B7B0B53
:10304000CE0101960E94BB09BE016F5F7F4F81E2F6
:1030500096E00E948904CE0101960E94B3090E9465
:10306000E6056BCACF93DF93CCE5D5E02697CE017A
:103070000E94B30985E0C833D807C1F7CBEBD5E090
:103080002D97CE0107960E94B30985E0CD36D8076B
:10309000B9F782EC95E00E94B3098FEC95E00E94AD
:1030A000B3098CED95E00E94B30989EE95E00E948A
:1030B000B30986EF95E00E94B30983E096E0DF91C3
:1030C000CF910C94B309BB27FB015527AA27880F82
:1030D000991FAA1FA41710F0A41B83955051B9F78C
:1030E000A05DAA3308F0A95DA193009779F7B1110B
:1030F000B1931192CB010C947D18DC01FC01672F78
:1031000071917723E1F7329704C07C916D937083BE
:103110006291AE17BF07C8F30895F999FECF92BD2B
:1031200081BDF89A992780B50895262FF999FECF89
:103130001FBA92BD81BD20BD0FB6F894FA9AF99AD4
:103140000FBE01960895A1E21A2EAA1BBB1BFD011A
:103150000DC0AA1FBB1FEE1FFF1FA217B307E40776
:10316000F50720F0A21BB30BE40BF50B661F771FCE
:10317000881F991F1A9469F76095709580959095AE
:103180009B01AC01BD01CF010895EE0FFF1F881F09
:103190008BBF0790F691E02D19940F931F93CF9357
:1031A000DF938230910510F482E090E0E0912F06E9
:1031B000F091300630E020E0B0E0A0E0309799F4E4
:1031C0002115310509F44AC0281B390B243031057B
:1031D000D8F58A819B816115710589F1FB01938383
:1031E0008283FE0111C04081518102811381481701
:1031F0005907E0F04817590799F4109761F01296B3
:103200000C93129713961C933296CF01DF91CF91B6
:103210001F910F91089500932F0610933006F4CF5D
:103220002115310551F04217530738F0A901DB0190
:103230009A01BD01DF01F801C1CFEF01F9CF9093F1
:10324000300680932F06CDCFFE01E20FF31F81934E
:1032500091932250310939832883D7CF20912D06AD
:1032600030912E06232B41F4209116023091170243
:1032700030932E0620932D062091140230911502D2
:103280002115310541F42DB73EB7409118025091F8
:103290001902241B350BE0912D06F0912E06E21742
:1032A000F307A0F42E1B3F0B2817390778F0AC0169
:1032B0004E5F5F4F2417350748F04E0F5F1F509346
:1032C0002E0640932D06819391939FCFF0E0E0E08E
:1032D0009CCFCF93DF930097E9F0FC0132971382E4
:1032E0001282A0912F06B0913006ED0130E020E06F
:1032F0001097A1F420813181820F931F20912D0618
:1033000030912E062817390709F061C0F0932E0678
:10331000E0932D06DF91CF910895EA01CE17DF07E4
:10332000E8F54A815B819E0141155105B1F7E9013C
:10333000FB83EA8349915991C40FD51FEC17FD0710
:1033400061F4808191810296840F951FE901998330
:103350008883828193819B838A83F0E0E0E01296E8
:103360008D919C9113970097B9F52D913C911197F0
:10337000CD010296820F931F20912D0630912E06CB
:103380002817390739F6309751F510923006109208
:103390002F06B0932E06A0932D06BCCFD383C283F5
:1033A00040815181840F951FC817D90761F44E5F82
:1033B0005F4F88819981480F591F518340838A81CB
:1033C0009B81938382832115310509F0B0CFF0935F
:1033D0003006E0932F069ECFFD01DC01C0CF1382A3
:1033E0001282D7CF4F925F926F927F928F929F926D
:1033F000AF92BF92CF92DF92EF92FF920F931F9303
:10340000CF93DF938C01009799F4CB01DF91CF919B
:103410001F910F91FF90EF90DF90CF90BF90AF90F2
:103420009F908F907F906F905F904F900C94CD18ED
:10343000FC01E60FF71F9C0122503109E217F30748
:1034400008F4AEC0D901CD91DC911197C617D7070A
:1034500020F1C530D10578F0CE0104978617970783
:1034600050F0C61BD70B2297C193D1936D937C93D9
:10347000CF010E946919C801DF91CF911F910F916F
:10348000FF90EF90DF90CF90BF90AF909F908F9084
:103490007F906F905F904F9008955B01AC1ABD0ACA
:1034A0004C018C0E9D1EA0912F06B0913006512C20
:1034B000412CF12CE12C109731F580912D06909143
:1034C0002E068815990509F05CC04616570608F0C7
:1034D00058C08091140290911502009741F48DB765
:1034E0009EB74091180250911902841B950BE81762
:1034F000F90708F055C0F0932E06E0932D06F90168
:1035000071836083B8CF8D919C91119712966C90C6
:10351000129713967C901397A815B90559F56C016D
:1035200042E0C40ED11CCA14DB0420F1AC014A19DC
:103530005B09DA011296159780F0628273825183DB
:103540004083D9016D937C93E114F10471F0D701AC
:103550001396FC93EE9312978ECF22968C0F9D1F9D
:10356000F90191838083F301EFCFF0933006E0936C
:103570002F0681CF4816590608F42C017D01D3018E
:103580009ACFCB010E94CD187C01009749F0AE0183
:10359000B8010E94D31AC8010E94691987016BCF34
:1035A00010E000E068CFFB01DC0102C001900D9249
:1035B00041505040D8F70895FB01DC0101900D9275
:1035C0000020E1F7089511E0C1E4D1E000E006C079
:1035D000802FFE010E94C5182196011DC234D1071B
:0A35E00080E00807A9F7F894FFCF78
:1035EA008804880488048804880488048804880471
:1035FA0000000001000031068000000040001400B5
:10360A005400F903FE03080410040000000000003F
:10361A0000000000000016041A041F0426043204E5
:10362A003F04000000000000000046044B0456045A
:10363A005B04000000000000000000000000000021
:10364A00000044059704DB0491050C05EA04FE0416
:10365A00000000009F069704E305E2050D0A0043F7
:10366A006F6E6669673A200046535F4B45593A20A8
:10367A00004D4F44453A20004C4150535F4E3A208A
:10368A000053454E534F525F49474E4F52455F5480
:10369A00494D453A20004D5554453A20005341566C
:1036AA00455F524553554C54533A20002020202060
:1036BA002020202020202020202020202020202000
:1036CA0020202020202020003C2D002D3E0030000C
:1036DA0046697273742073746172742C20777269EC
:1036EA0074696E672064656661756C74732E2E2E1C
:1036FA0000446F6E650052414345204D4F444500DA
:10370A004C415053204E554D4245520053454E535D
:10371A002049474E4F524520544D54005341564577
:10372A0020544F20454550524F4D004D5554452089
:10373A00534F554E4453000A0A004C6170733A20A5
:10374A0000203A2052656164792E2E2E00523A00EA
:10375A00204C3A0020526561647900537461727496
:10376A0065640054696D65723A202020202020206B
:10377A0020202020202020004C61702000203A20A8
:10378A00004C617020202020202020202020202092
:10379A0020202020200046696E6973686564200035
:1037AA00526573756C742073617665640052656145
:1037BA006479202000426573743A202000416C6CC1
:1037CA003A20202000436C65617220616C6C0064B1
:1037DA00743A200069563A200052616365004765D1
:1037EA007420726561647900526573756C74730034
:1037FA00436C65617200536574004D6F6465004CDB
:10380A00617073204E0049676E6F72652074696D2E
:10381A0065005361766520726573756C7473005325
:10382A006F756E6473005465737400416C6C207616
:10383A00616C7565730054696D6500426C696E6BE5
:02384A0000007C
:00000001FF
