:100000000C9442010C9438090C940D090C94E208EC
:100010000C94B7080C948C080C9461080C94360866
:100020000C940B080C9473010C9473010C947301E1
:100030000C9473010C9473010C9473010C94730170
:100040000C9473010C9473010C9473010C94730160
:100050000C9473010C9473010C9473010C94C107FC
:100060000C9473010C948D090C9463090C94730126
:100070000C9473010C9473010C9473010C94730130
:100080000C9473010C9473010C9473010C94730120
:100090000C9473010C9473010C9473010C94730110
:1000A0000C9473010C9473010C9473010C94730100
:1000B0000C9473010C9473010C9473010C947301F0
:1000C0000C9473010C9473010C9473010C947301E0
:1000D0000C9473010C9473010C9473010C947301D0
:1000E0000C9473010C9401020C94DC040C94D40560
:1000F0000C94DC010C94E6010C9402020C94FC01BB
:100100000C9489040C94FE040C94D3010C94EA0121
:100110000C94EE010C94CB010C9483050C94E10D2E
:100120000C9488040C9436050C9406020C94C101BE
:100130000C94F4010C94CD040C94F0040C94CF01B5
:100140000C94D6010C94E0010C94D5050C94B604E3
:100150000C94F8010C94C7010C9460060C94C3092C
:1001600000002100240027002A002D003000330069
:1001700001010000040107010A010000220025001E
:1001800028002B002E003100340002010000050180
:1001900008010B01000020002300260029002C008C
:1001A0002F003200000100000301060109010505CE
:1001B0000505070508080808020202020A0A0808DD
:1001C000040404040101010101010101030303030B
:1001D00003030303040707070C0C0C0C0C0C0C0C9A
:1001E0000202020206060606060606060B0B0B0BAB
:1001F0000B0B0B0B010210202008081020401020D0
:1002000040800201020108040201010204081020DA
:1002100040808040201008040201800402018040D8
:100220002010080402010804020101020408102041
:100230004080010204081020408000000A0B0209DF
:100240000C0D0E0807030401000000000000000070
:10025000000000000000000000000000000000009E
:10026000000000000000121110000000000000005B
:10027000000000000000000000000000000000007E
:10028000C309E10D11241FBECFEFD1E2DEBFCDBF08
:1002900000E00CBF24E0AAEFB2E001C01D92A1383B
:1002A000B207E1F712E0A0E0B2E0E4ECF0E200E037
:1002B0000BBF02C007900D92AA3FB107D9F711E01A
:1002C000C1E4D1E000E006C021970109802FFE01C2
:1002D0000E94320EC034D10780E00807A9F70E94BF
:1002E000D70A0C9450100C94000080917B00877FFB
:1002F00080937B0087E480937C0080917A00806407
:1003000080937A0080917A0086FDFCCF80917800FE
:100310009091790008958093BB0084E88093BC009D
:100320008091BC0087FFFCCF8091B900887F80322C
:1003300021F481E0809311020895803319F481E063
:100340008093120208958150823108F05AC0E82F3C
:10035000F0E08827E155FE4F8F4F0C94320ECF010D
:10036000D301C101C701CB010102D601DC01E001CB
:10037000E601EA01EE01F401F8010102FC010202CA
:100380000602809180008F7780938000089580918D
:1003900080008F7DF9CF80918000877FF5CF84B575
:1003A0008F7784BD089584B58F7DFBCF8091B00099
:1003B0008F778093B00008958091B0008F7DF9CF42
:1003C000809190008F7780939000089580919000A5
:1003D0008F7DF9CF80919000877FF5CF8091A0002D
:1003E0008F778093A00008958091A0008F7DF9CF32
:1003F0008091A000877FF5CF809120018F77809337
:1004000020010895809120018F7DF9CF80912001F6
:10041000877FF5CFCF93DF93282F30E0F901E65C9B
:10042000FD4F8491F901EC50FE4FD491F901E25552
:10043000FE4FC491CC23A1F081110E94A301EC2FA7
:10044000F0E0EE0FFF1FEC56FE4FA591B491EC913A
:10045000ED2381E090E009F480E0DF91CF910895F1
:1004600080E090E0FACF8F929F92AF92BF92CF92AE
:10047000DF92EF92FF920F931F93CF93DF938FB78B
:10048000F894C0901103D0901203E0901303F09001
:1004900014038FBF80915E0484FF74C08090630456
:1004A00090906404A0906504B090660490916F04ED
:1004B0009111F6C080916D040E940A0220915F04A0
:1004C000022F017010E021E00817190709F420E05D
:1004D00020937004B701A601481959096A097B09DC
:1004E0002091700490915D0491FB882780F922236C
:1004F00009F419C181111AC0413551056105710511
:10050000A8F0C0926304D0926404E0926504F09273
:100510006604997E9261906890935D0480915F0477
:10052000806280935F0440E050E0BA0180915F04F4
:1005300090915D0484FF12C04D3231E05307610594
:10054000710560F092FD05C083FDB4C082608093A8
:100550005F0480915F048F7E80935F0491FF12C0DF
:100560004D3B52406105710568F092FD0BC022239E
:1005700009F4A2C0916090935D0480915F048F7D27
:1005800080935F0480916F04882309F4A2C0909146
:100590005E0496FB332730F9C32F80E0D82FCC0FB1
:1005A000DD1F95FB882780F98C2B2091610428178B
:1005B00009F469C01092620490915F0496FFB0C084
:1005C000833009F097C09F7B90935F04213009F43A
:1005D0008DC091E0223009F48AC090915E0493FDB1
:1005E00003C0833009F493C0909162049923E1F130
:1005F00020915D04286020935D0440916704509130
:1006000068046091690470916A0497018601041B73
:10061000150B260B370B4091600450E070E060E052
:10062000041715072607370760F420915E0422603F
:10063000913029F0923029F420915E0421602093BA
:100640005E04C0926704D0926804E0926904F0925C
:100650006A0420915E0424FF07C0209170042223C5
:1006600019F09E5F909362048093610480915D0411
:10067000846080935D04C0926304D0926404E0922D
:100680006504F0926604DF91CF911F910F91FF9066
:10069000EF90DF90CF90BF90AF909F908F90089594
:1006A00087FB882780F98093700414CF80915F04C2
:1006B000886037CF84604BCF9D7F9E7F90935D0491
:1006C000C0926304D0926404E0926504F0926604E0
:1006D00059CF80916B040E940A02C82F80916C044C
:1006E0000E940A02880F991F8C2B5FCF92E0909393
:1006F000620473CF30915E0433FD46C0811174CF24
:100700009F7B90935F04213041F0223031F0909133
:100710005F04906490935F0467CF20936204F7CFE7
:100720008823A9F35ACF882309F400CF4135510516
:100730006105710508F4FACE92FD05C090FD03C075
:10074000906290935D044D3B52406105710528F025
:1007500080915D04806480935D0480915D04C0920B
:100760006304D0926404E0926504F09266048D7F85
:100770008E7F80935D0480915F0485FF97CF84FD19
:1007800095CF8061877FCDCE882309F26DCF1F93EF
:10079000CF93DF93282F30E0F901E65CFD4F849181
:1007A000F901EC50FE4FD491F901E255FE4FC4918E
:1007B000CC23A9F0162F81110E94A301EC2FF0E0A9
:1007C000EE0FFF1FE658FE4FA591B4918FB7F89436
:1007D000EC91111108C0D095DE23DC938FBFDF911F
:1007E000CF911F910895DE2BF8CFCF93DF9390E048
:1007F000FC01EC50FE4F249182559E4FFC018491E8
:100800008823C9F090E0880F991FFC01E05AFE4F41
:10081000A591B491FC01E658FE4FC591D4916111A8
:100820000DC09FB7F8948C91209582238C9388817A
:10083000282328839FBFDF91CF910895623051F420
:100840009FB7F8943C91822F809583238C93E88105
:100850002E2BEFCF8FB7F894EC912E2B2C938FBFCC
:10086000EACF3FB7F89480910D0390910E03A091C9
:100870000F03B091100326B5A89B05C02F3F19F0B8
:100880000196A11DB11D3FBFBA2FA92F982F882710
:10089000BC01CD01620F711D811D911D42E0660FEB
:1008A000771F881F991F4A95D1F708958F929F92BD
:1008B000AF92BF92CF92DF92EF92FF924B015C0119
:1008C0000E9431046B017C010E9431046C197D0986
:1008D0008E099F09683E734081059105A8F321E0C8
:1008E000821A9108A108B10888EEC80E83E0D81ECC
:1008F000E11CF11C81149104A104B10429F7FF90BB
:10090000EF90DF90CF90BF90AF909F908F90089521
:100910000895AF92BF92CF92DF92EF92FF920F9322
:100920001F93CF93DF936C017B018B01040F151F85
:10093000EB015E01AE18BF08C017D10759F06991ED
:10094000D601ED91FC910190F081E02DC601199541
:10095000892B79F7C501DF91CF911F910F91FF90FE
:10096000EF90DF90CF90BF90AF90089580910803F3
:1009700090910903A0910A03B0910B038093FC02AC
:100980009093FD02A093FE02B093FF020E947501B6
:100990009093FB028093FA020895FC01538D448DDD
:1009A000252F30E0842F90E0821B930B541710F01A
:1009B000CF96089501970895FC01918D828D981727
:1009C00061F0A28DAE0FBF2FB11D5D968C91928DFF
:1009D0009F5F9F73928F90E008958FEF9FEF089530
:1009E000FC01918D828D981731F0828DE80FF11DF9
:1009F000858D90E008958FEF9FEF0895FC01918D14
:100A0000228D892F90E0805C9F4F821B91098F730C
:100A10009927089585E193E00E94FE0421E0892B47
:100A200009F420E0822F0895FC01A48DA80FB92FAE
:100A3000B11DA35ABF4F2C91848D90E001968F7306
:100A40009927848FA689B7892C93A089B1898C9125
:100A5000837080648C93938D848D981306C0028874
:100A6000F389E02D80818F7D80830895EF92FF923E
:100A70000F931F93CF93DF93EC0181E0888F9B8DC1
:100A80008C8D98131AC0E889F989808185FF15C07B
:100A90009FB7F894EE89FF896083E889F98980819E
:100AA0008370806480839FBF81E090E0DF91CF916D
:100AB0001F910F91FF90EF900895F62E0B8D10E08F
:100AC0000F5F1F4F0F731127E02E8C8D8E110CC0FE
:100AD0000FB607FCFACFE889F989808185FFF5CF49
:100AE000CE010E941405F1CFEB8DEC0FFD2FF11D0F
:100AF000E35AFF4FF0829FB7F8940B8FEA89FB8986
:100B000080818062CFCFCF93DF93EC01888D8823E3
:100B1000B9F0AA89BB89E889F9898C9185FD03C060
:100B2000808186FD0DC00FB607FCF7CF8C9185FF45
:100B3000F2CF808185FFEDCFCE010E941405E9CF71
:100B4000DF91CF91089580E090E0892B29F00E94F9
:100B50000A0581110E94000080E090E0892B49F095
:100B600080E090E0892B29F00E94000081110E9412
:100B7000000080E090E0892B49F080E090E0892B34
:100B800029F00E94000081110E94000080E090E0A6
:100B9000892B49F080E090E0892B29F00E94000029
:100BA00081110C9400000895089590E080E008956C
:100BB0001F93CF93DF93EC01162F8C8194EA9093CF
:100BC000BC009091BC0097FFFCCF880F0E948B0166
:100BD0008B85812B0E948B0184E98093BC008091DE
:100BE0001102882329F0109211021092120204C0FF
:100BF000809112028111F9CFDF91CF911F91089559
:100C00000F931F93CF938C01C62F0E94D8056C2F92
:100C10006460C8010E94D8056C2F6B7FC8010E94D8
:100C2000D80583EC90E00197F1F7CF911F910F91D8
:100C300008950F931F93CF93DF938C01D62FC42F6A
:100C4000607F642B0E94000680E1D89FB0011124D0
:100C50006C2BC801DF91CF911F910F910C9400066E
:100C6000CF93DF9300D000D01F921F92CDB7DEB795
:100C700098E0EAE1F2E0DE01119601900D929A957A
:100C8000E1F790917904981710F48FEF890F90E0B5
:100C9000880F991F21E030E02C0F3D1F820F931F1A
:100CA000FC016081606840E081E794E028960FB61F
:100CB000F894DEBF0FBECDBFDF91CF910C94190623
:100CC00041E00E94190681E090E008958F929F9282
:100CD000AF92BF920F931F93CF93DF93CDB7DEB741
:100CE000A1970FB6F894DEBF0FBECDBF19A2423058
:100CF00008F44AE08E010F5D1F4F842E912CB12C19
:100D0000A12CA50194010E94100EE62FB901CA0181
:100D1000EA3044F5E05DD801EE938D01232B242BBE
:100D2000252B79F790E080E0109769F0FD010190A4
:100D30000020E9F73197AF014A1B5B0BBD0181E74A
:100D400094E00E948904A1960FB6F894DEBF0FBE0E
:100D5000CDBFDF91CF911F910F91BF90AF909F902A
:100D60008F900895E95CD7CF009769F0FC0101905E
:100D70000020E9F73197AF01481B590BBC0181E70F
:100D800094E00C94890490E080E0089580E00E9453
:100D900030068CE792E00E94B40680E00E943006A4
:100DA000E0914E0424E1E29FF0011124EE5DFD4F3D
:100DB000808191810E94B40680914F04882321F1A3
:100DC0008130F9F488E992E00E94B40680914E04E3
:100DD000E0914F042AE0829FC0011124E80FF92F0F
:100DE000F11DEE0FFF1FEE5DFD4F808191810E948E
:100DF000B40680915004882339F08EE992E00C9477
:100E0000B4068BE992E0E0CF0895FC0180819181E6
:100E1000009711F00C94D60E08950F931F93CF9363
:100E2000DF93EC0188819981009759F02A813B81F9
:100E30002617370730F081E0DF91CF911F910F9196
:100E400008958B016F5F7F4F0E945F0F009759F0ED
:100E5000998388831B830A832C813D81232B59F737
:100E6000FC011082E8CF80E0E7CFEF92FF920F9372
:100E70001F93CF93DF93EC01DB018C918883119654
:100E80004D915D916D917C91149749835A836B8349
:100E90007C8315968D919C9116979E838D83CE01B0
:100EA000079618861F821A8619861C861B869D0146
:100EB000295F3F4F82179307E9F017960D911C9118
:100EC000189701151105B1F01B96ED90FC90B70134
:100ED0000E940D072F813885811113C0211531051E
:100EE00019F0C9010E94D60E18861F821C861B8627
:100EF0001A861986DF91CF911F910F91FF90EF9085
:100F00000895FC86EB86B801C901DF91CF911F914E
:100F10000F91FF90EF900C944910CF93DF93EC0169
:100F200070E060E00E940D072881398181110FC0B7
:100F30002115310519F0C9010E94D60E19821882B7
:100F40001D821C821B821A82DF91CF9108951D821F
:100F50001C8267E972E0C901DF91CF910C944910BE
:100F6000FC01108211821282138214821682158271
:100F700010861782128611861486138607960C94A3
:100F80008D071F920F920FB60F9211242F933F934C
:100F90008F939F93AF93BF9380911103909112030E
:100FA000A0911303B091140330910C0323E0230F9D
:100FB0002D3758F50196A11DB11D20930C03809388
:100FC000110390931203A0931303B0931403809121
:100FD0000D0390910E03A0910F03B09110030196A1
:100FE000A11DB11D80930D0390930E03A0930F03D9
:100FF000B0931003BF91AF919F918F913F912F912B
:101000000F900FBE0F901F90189526E8230F0296A1
:10101000A11DB11DD2CF1F920F920FB60F921124B6
:101020000BB60F922F933F934F935F936F937F93E2
:101030008F939F93AF93BF93EF93FF93E0910E0233
:10104000F0910F021995FF91EF91BF91AF919F9190
:101050008F917F916F915F914F913F912F910F9061
:101060000BBE0F900FBE0F901F9018951F920F92FE
:101070000FB60F9211240BB60F922F933F934F93FD
:101080005F936F937F938F939F93AF93BF93EF93F0
:10109000FF93E0910C02F0910D021995FF91EF91F1
:1010A000BF91AF919F918F917F916F915F914F9180
:1010B0003F912F910F900BBE0F900FBE0F901F907E
:1010C00018951F920F920FB60F9211240BB60F9224
:1010D0002F933F934F935F936F937F938F939F9340
:1010E000AF93BF93EF93FF93E0910202F09103025D
:1010F0001995FF91EF91BF91AF919F918F917F9142
:101100006F915F914F913F912F910F900BBE0F9078
:101110000FBE0F901F9018951F920F920FB60F924F
:1011200011240BB60F922F933F934F935F936F93BE
:101130007F938F939F93AF93BF93EF93FF93E09130
:101140000002F09101021995FF91EF91BF91AF91CB
:101150009F918F917F916F915F914F913F912F91CF
:101160000F900BBE0F900FBE0F901F9018951F92FF
:101170000F920FB60F9211240BB60F922F933F933D
:101180004F935F936F937F938F939F93AF93BF938F
:10119000EF93FF93E0910A02F0910B021995FF91F2
:1011A000EF91BF91AF919F918F917F916F915F91DF
:1011B0004F913F912F910F900BBE0F900FBE0F904C
:1011C0001F9018951F920F920FB60F9211240BB615
:1011D0000F922F933F934F935F936F937F938F93D0
:1011E0009F93AF93BF93EF93FF93E0910802F09129
:1011F00009021995FF91EF91BF91AF919F918F9146
:101200007F916F915F914F913F912F910F900BBE06
:101210000F900FBE0F901F9018951F920F920FB650
:101220000F9211240BB60F922F933F934F935F931E
:101230006F937F938F939F93AF93BF93EF93FF939E
:10124000E0910602F09107021995FF91EF91BF918D
:10125000AF919F918F917F916F915F914F913F914E
:101260002F910F900BBE0F900FBE0F901F901895EF
:101270001F920F920FB60F9211240BB60F922F935D
:101280003F934F935F936F937F938F939F93AF930E
:10129000BF93EF93FF93E0910402F091050219953B
:1012A000FF91EF91BF91AF919F918F917F916F913E
:1012B0005F914F913F912F910F900BBE0F900FBEFA
:1012C0000F901F9018951F920F920FB60F92112436
:1012D0000BB60F922F933F934F935F936F937F9330
:1012E0008F939F93AF93BF93EF93FF9385E193E029
:1012F0000E941405FF91EF91BF91AF919F918F9143
:101300007F916F915F914F913F912F910F900BBE05
:101310000F900FBE0F901F9018951F920F920FB64F
:101320000F9211240BB60F922F938F939F93EF93ED
:10133000FF93E0912503F09126038081E0912B0338
:10134000F0912C0382FD1DC0908180912E038F5F50
:101350008F7320912F03821741F0E0912E03F0E06C
:10136000EB5EFC4F958F80932E03FF91EF919F9141
:101370008F912F910F900BBE0F900FBE0F901F906B
:1013800018958081F2CFCF93109218031092170313
:1013900088EE93E0A0E0B0E08093190390931A03E5
:1013A000A0931B03B0931C0382E692E09093160374
:1013B0008093150385EC90E09093220380932103A2
:1013C00084EC90E0909324038093230380EC90E0DE
:1013D000909326038093250381EC90E0909328035B
:1013E0008093270382EC90E090932A038093290353
:1013F00086EC90E090932C0380932B0310922E03A5
:1014000010922F0310923003109231031092740443
:101410001092730484E792E09093720480937104B5
:1014200087E28093750484E180937A0484E080935A
:101430007B0410927C0492E3909360041092610408
:101440001092620410926304109264041092650476
:101450001092660410926704109268041092690456
:1014600010926A0410926E0410926F04109270042D
:1014700092E090936B0493E090936C0480936D04DE
:1014800080915E048061877F80935E0462E082E0E9
:101490000E94F50362E080916C040E94F503809144
:1014A0005E0484FF05C062E080916D040E94F50334
:1014B00080915F04816080935F0480916B040E943F
:1014C0000A02C82F80916C040E940A02880F991F9B
:1014D0008C2B80936104C1E0C0934E0483E0809321
:1014E0004F04109250041092520410925104109222
:1014F000540410925304109256041092550481E53E
:1015000094E00E948D071092580410925704109294
:101510005A041092590410925C0410925B0487E5FF
:1015200094E00E948D0782E080934E04C0934F04A4
:10153000C093500481E494E00E94B00784E394E0F7
:101540000E94B00787E294E00E94B0078AE194E02D
:101550000E94B0078DE094E00E94B00780E094E024
:101560000E94B00761E474E082EB93E00E943507CB
:1015700064E374E08FEB93E00E94350767E274E068
:101580008CEC93E00E9435076AE174E089ED93E00A
:101590000E9435076DE074E086EE93E00E94350707
:1015A00060E074E083EF93E0CF910C94350778947A
:1015B00084B5826084BD84B5816084BD85B5826058
:1015C00085BD85B5816085BD80916E008160809309
:1015D0006E00109281008091810082608093810072
:1015E0008091810081608093810080918000816082
:1015F000809380008091B10084608093B1008091DD
:10160000B00081608093B0008091910082608093EF
:101610009100809191008160809391008091900071
:101620008160809390008091A10082608093A100EE
:101630008091A10081608093A1008091A0008160D1
:101640008093A0008091210182608093210180918C
:10165000210181608093210180912001816080932C
:10166000200180917A00846080937A0080917A00D2
:10167000826080937A0080917A00816080937A0002
:1016800080917A00806880937A001092C100E09186
:101690002503F091260382E08083E0912103F091FD
:1016A00022031082E0912303F09124038FEC8083C6
:1016B00010922D03E0912903F0912A0386E08083A4
:1016C000E0912703F0912803808180618083E0917D
:1016D0002703F0912803808188608083E0912703AD
:1016E000F0912803808180688083E0912703F09146
:1016F000280380818F7D808362E084E10E94F5036E
:1017000062E085E10E94F50388E48093B8001092BE
:10171000B9001092760480917B04823018F098E032
:10172000909376048093790462E370E080E090E027
:101730000E94560460917C0481E794E00E94D805E1
:1017400068EE73E080E090E00E94560460E381E779
:1017500094E00E940006CBE4D6E4CE010197F1F7B5
:1017600060E381E794E00E9400062197F1F760E3CF
:1017700081E794E00E94000683E592E00197F1F78B
:1017800060E281E794E00E94000660917604606266
:1017900040E081E794E00E94190684E0809377049A
:1017A00040E06CE081E794E00E94190640E061E0CF
:1017B00081E794E00E941906CBE3DFE1CE010197B7
:1017C000F1F782E08093780440E066E081E794E0FE
:1017D0000E94190640E062E081E794E00E94190649
:1017E0002197F1F788E080937C0460E081E794E042
:1017F0000E94D80580915E04877F80935E0461E03B
:1018000087E00E94F50361E086E00E94F50361E055
:1018100085E00E94F50361E089E00E94F50361E044
:1018200088E00E94F50360E08DE30E94F50360E02C
:1018300082E10E94F50361E087E00E94C70360E057
:1018400086E00E94C70360E085E00E94C70361E074
:1018500085E00E94C70360E089E00E94C70361E061
:1018600088E00E94C70386EB94E090930B0280937C
:101870000A0280916900806C80936900EB9A0E9453
:10188000C606C1E02FB7F89480911103909112031E
:10189000A0911303B09114032FBF8093080390937A
:1018A0000903A0930A03B0930B038091FC0290916B
:1018B000FD02A091FE02B091FF02892B8A2B8B2B97
:1018C00031F18091FA029091FB024091FC0250911B
:1018D000FD026091FE027091FF024093C00350939D
:1018E000C1036093C2037093C3039093C5038093B5
:1018F000C403C093BF031092FC021092FD02109229
:10190000FE021092FF021092FB021092FA028091E6
:101910005E0482FD0E94330280916204813081F472
:10192000109262041092CD031092CE031092CF0356
:101930001092D0031092D2031092D1038093CC0363
:1019400080915E0482FD0E943302809162048230A5
:1019500081F4109262041092DA031092DB03109269
:10196000DC031092DD031092DF031092DE03C093BC
:10197000D90380915E0482FD0E94330280915D0450
:1019800085FF11C08F7D80935D041092E703109254
:10199000E8031092E9031092EA031092EC0310920C
:1019A000EB03C093E60380914F04811133C0809113
:1019B000CC03882349F080914E04882319F081508C
:1019C00080934E040E94C6068091D903882349F073
:1019D00080914E04823018F48F5F80934E040E94F1
:1019E000C6068091E603882321F0C0934F040E942D
:1019F000C6061092B2031092BF031092CC0310924D
:101A0000D9031092E6031092F3030E9433020E945E
:101A1000A30538CF9091500491111DC09091CC0333
:101A2000992329F0815080934F040E94C60680912B
:101A3000D903882349F080914F04833018F48F5FD5
:101A400080934F040E94C6068091E603882389F2A2
:101A5000C0935004CCCF8091E603882321F01092EC
:101A600050040E94C60680914E04823011F6809187
:101A70004F04813009F0BDCF8091BF03882309F462
:101A80004CC082E00E9430068EE892E00E94B406CC
:101A900082E00E94300680EA92E00E94B4066091E3
:101AA000C0037091C1038091C2039091C303C090A1
:101AB0000403D0900503E0900603F09007036C192F
:101AC0007D098E099F094AE00E94660683E00E9414
:101AD00030068EE892E00E94B40683E00E94300651
:101AE00085EA92E00E94B4066091C4037091C50338
:101AF00090E080E04AE00E9466068091C0039091E9
:101B0000C103A091C203B091C303809304039093D7
:101B10000503A0930603B0930703809100039091FF
:101B20000103A0910203B0910303845D9E4FAF4F68
:101B3000BF4F409108035091090360910A037091CF
:101B40000B0384179507A607B70708F052CF81E06B
:101B50000E9430068EE892E00E94B40681E00E9466
:101B6000300686EA92E00E94B4060E9475016C017C
:101B7000990FEE08FF084AE0C701B601F7FE0EC054
:101B800041E06DE281E794E00E941906662777271D
:101B9000CB016C197D098E099F094AE00E946606F7
:101BA0008091080390910903A0910A03B0910B035F
:101BB0008093000390930103A0930203B093030367
:101BC00018CFCF93DF93C0E0D4E02D97CE010796D6
:101BD0000E94050783E0C23BD807B9F787E094E08D
:101BE0000E94050784E194E00E94050781E294E0E9
:101BF0000E9405078EE294E00E9405078BE394E0C3
:101C00000E94050788E494E00E94050787E594E0B8
:101C10000E94050781E594E0DF91CF910C940507C0
:101C2000A1E21A2EAA1BBB1BFD010DC0AA1FBB1FE0
:101C3000EE1FFF1FA217B307E407F50720F0A21B52
:101C4000B30BE40BF50B661F771F881F991F1A94BF
:101C500069F760957095809590959B01AC01BD01E9
:101C6000CF010895EE0FFF1F881F8BBF0790F691DD
:101C7000E02D19940F931F93CF93DF93823091053A
:101C800010F482E090E0E0917F04F091800430E075
:101C900020E0B0E0A0E0309799F42115310509F477
:101CA0004AC0281B390B24303105D8F58A819B8125
:101CB0006115710589F1FB0193838283FE0111C0D7
:101CC000408151810281138148175907E0F048177C
:101CD000590799F4109761F012960C931297139686
:101CE0001C933296CF01DF91CF911F910F910895F0
:101CF00000937F0410938004F4CF2115310551F037
:101D00004217530738F0A901DB019A01BD01DF0139
:101D1000F801C1CFEF01F9CF9093800480937F0445
:101D2000CDCFFE01E20FF31F819391932250310931
:101D300039832883D7CF20917D0430917E04232BD3
:101D400041F4209116023091170230937E042093C3
:101D50007D0420911402309115022115310541F4C2
:101D60002DB73EB74091180250911902241B350B34
:101D7000E0917D04F0917E04E217F307A0F42E1B9E
:101D80003F0B2817390778F0AC014E5F5F4F2417DF
:101D9000350748F04E0F5F1F50937E0440937D043B
:101DA000819391939FCFF0E0E0E09CCFCF93DF93BE
:101DB0000097E9F0FC01329713821282A0917F0410
:101DC000B0918004ED0130E020E01097A1F4208173
:101DD0003181820F931F20917D0430917E0428175A
:101DE000390709F061C0F0937E04E0937D04DF9130
:101DF000CF910895EA01CE17DF07E8F54A815B81AC
:101E00009E0141155105B1F7E901FB83EA83499130
:101E10005991C40FD51FEC17FD0761F480819181A2
:101E20000296840F951FE9019983888382819381AB
:101E30009B838A83F0E0E0E012968D919C9113974A
:101E40000097B9F52D913C911197CD010296820F23
:101E5000931F20917D0430917E042817390739F6AD
:101E6000309751F51092800410927F04B0937E0455
:101E7000A0937D04BCCFD383C28340815181840F62
:101E8000951FC817D90761F44E5F5F4F888199810C
:101E9000480F591F518340838A819B81938382839A
:101EA0002115310509F0B0CFF0938004E0937F0451
:101EB0009ECFFD01DC01C0CF13821282D7CF4F929B
:101EC0005F926F927F928F929F92AF92BF92CF92CA
:101ED000DF92EF92FF920F931F93CF93DF938C01CA
:101EE000009799F4CB01DF91CF911F910F91FF9053
:101EF000EF90DF90CF90BF90AF909F908F907F90AA
:101F00006F905F904F900C943A0EFC01E60FF71F14
:101F10009C0122503109E217F30708F4AEC0D90141
:101F2000CD91DC911197C617D70720F1C530D105A7
:101F300078F0CE0104978617970750F0C61BD70B91
:101F40002297C193D1936D937C93CF010E94D60EBB
:101F5000C801DF91CF911F910F91FF90EF90DF901B
:101F6000CF90BF90AF909F908F907F906F905F9039
:101F70004F9008955B01AC1ABD0A4C018C0E9D1E5A
:101F8000A0917F04B0918004512C412CF12CE12CC4
:101F9000109731F580917D0490917E048815990504
:101FA00009F05CC04616570608F058C0809114022C
:101FB00090911502009741F48DB79EB74091180299
:101FC00050911902841B950BE817F90708F055C0CA
:101FD000F0937E04E0937D04F90171836083B8CFB0
:101FE0008D919C91119712966C90129713967C90FC
:101FF0001397A815B90559F56C0142E0C40ED11C20
:10200000CA14DB0420F1AC014A195B09DA0112960B
:10201000159780F06282738251834083D9016D935A
:102020007C93E114F10471F0D7011396FC93EE93C5
:1020300012978ECF22968C0F9D1FF901918380837A
:10204000F301EFCFF0938004E0937F0481CF481633
:10205000590608F42C017D01D3019ACFCB010E94CF
:102060003A0E7C01009749F0AE01B8010E94401081
:10207000C8010E94D60E87016BCF10E000E068CF48
:10208000FB01DC0102C001900D9241505040D8F795
:102090000895FB01DC0101900D920020E1F7089505
:1020A00011E0C1E4D1E000E006C0802FFE010E94F3
:1020B000320E2196011DC234D10780E00807A9F72E
:0420C000F894FFCFC2
:1020C40088048804880488048804880488048804AC
:1020D40000000001000081048000000040001400A2
:1020E4005400AA02AF02B902C002000000000000BE
:1020F400000000000000C602CA02D102D60200009D
:1021040000000000000000000000DF02E402EF0213
:10211400F4020000000000000000000000000000C5
:10212400000036058904CD048305FE04DC04F004B4
:102134000000000060068904D505D4052020202075
:10214400202020202020202020202020202020208B
:1021540020202020202020003C2D002D3E003A008D
:1021640064743A200069563A200052616365005352
:10217400656C2072616365720043616E63656C0017
:10218400526574727900536574004C617073206EEB
:10219400004D6F64650049676E6F7265207400546A
:1021A40065737400416C6C2076616C7565730054C2
:0A21B400696D6500426C696E6B00F6
:00000001FF
