:100000000C949B010C94A3100C9478100C944D103C
:100010000C9422100C94F70F0C94CC0F0C94A10F9D
:100020000C94760F0C94CD110C947B120C945312FB
:100030000C94CC010C94CE100C94CC010C94CC01FB
:100040000C94CC010C94CC010C94CC010C94CC01FC
:100050000C94CC010C94CC010C94CC010C942C0F7E
:100060000C94CC010C9497110C946D110C94CC0150
:100070000C94CC010C94CC010C94CC010C94CC01CC
:100080000C94CC010C94CC010C94CC010C94CC01BC
:100090000C94CC010C94CC010C94CC010C94CC01AC
:1000A0000C94CC010C94CC010C94CC010C94CC019C
:1000B0000C94CC010C94CC010C94CC010C94CC018C
:1000C0000C94CC010C94CC010C94CC010C94CC017C
:1000D0000C94CC010C94CC010C94CC010C94CC016C
:1000E0000C94CC010C9457050C94B0060C949D050F
:1000F0000C9410210C941D050C9434050C9465058A
:100100000C9428020C9484090C9447020C948806E1
:100110000C9420020C9439020C9443020C94CA12E1
:100120000C94E1040C9461060C942C020C942402AF
:100130000C943F020C9455020C94820A0C94F00427
:100140000C9447060C9443050C9470060C945102D1
:100150000C945A020C9435020C944D020C94B10686
:100160000C94EA050C941A020C942F020C945B0276
:100170000C945F0200C201000100110011000C008C
:1001800000E100000A002500250021000096000083
:100190001900390039003600127A00001F004600AD
:1001A000460044008070000022004D004D004A00CF
:1001B000004B0000360075007500720040380000EA
:1001C0004A009C009C009900802500007200EC0011
:1001D000EC00E900C0120000E900DA01DA01D70101
:1001E00060090000D701B603B603B303B0040000F2
:1001F000B3036E076E076B07580200006E07DC0E34
:10020000DC0ED80E2C010000DC0EC11DC11DBE1D70
:100210000200002100240027002A002D00300033B6
:100220000001010000040107010A0100000A0B029D
:10023000090C0D0E08070304010000000000000077
:1002400000000000000000000000000000000000AE
:10025000000000000000001211100000000000006B
:10026000000000000000000000000000000000008E
:1002700000000020002300260029002C002F00325F
:100280000000010000030106010901000022002511
:100290000028002B002E0031003400020100000570
:1002A0000108010B010505050507050808080802F6
:1002B0000202020A0A0808040404040101010101FF
:1002C0000101010303030303030303040707070CEE
:1002D0000C0C0C0C0C0C0C020202020606060606A4
:1002E0000606060B0B0B0B0B0B0B0B010210202051
:1002F000080810204010204080020102010804027A
:1003000001010204081020408080402010080402EF
:100310000180040201804020100804020108040248
:10032000010102040810204080010204081020404E
:100330008000CA12102111241FBECFEFD1E2DEBF10
:10034000CDBF00E00CBF27E0A6EBB4E001C01D92DA
:10035000AC30B207E1F714E0A0E0B2E0EAEEF8E476
:1003600000E00BBF02C007900D92A63BB107D9F782
:1003700011E0CAE9D1E000E006C021970109802F11
:10038000FE010E944522C939D10780E00807A9F77C
:100390000E94DD140C9463240C94000080917B0077
:1003A000877F80937B0087E480937C0080917A0034
:1003B000806480937A0080917A0086FDFCCF8091E2
:1003C00078009091790008958093BB0084E8809331
:1003D000BC008091BC0087FFFCCF8091B900887F72
:1003E000803221F481E0809312020895803319F461
:1003F00081E08093130208958150823108F05AC041
:10040000E82FF0E08827E85FFD4F8F4F0C944522DE
:1004100028022C021A02200224025A022F0235025C
:1004200039023F02430247024D0251025A0255026D
:100430005B025F02809180008F7780938000089537
:10044000809180008F7DF9CF80918000877FF5CFEC
:1004500084B58F7784BD089584B58F7DFBCF80915F
:10046000B0008F778093B00008958091B0008F7DA9
:10047000F9CF809190008F778093900008958091BC
:1004800090008F7DF9CF80919000877FF5CF80918C
:10049000A0008F778093A00008958091A0008F7DA9
:1004A000F9CF8091A000877FF5CF809120018F77D1
:1004B000809320010895809120018F7DF9CF809154
:1004C0002001877FF5CFCF93DF93282F30E0F9010C
:1004D000E55DFD4F8491F901E551FD4FD491F9019E
:1004E000EB55FD4FC491CC23A1F081110E94FC017A
:1004F000EC2FF0E0EE0FFF1FEF58FD4FA591B491E8
:10050000EC91ED2381E090E009F480E0DF91CF9160
:10051000089580E090E0FACF8F929F92AF92BF92C1
:10052000CF92DF92EF92FF920F931F93CF93DF93BF
:100530008FB7F894C0905505D0905605E0905705B8
:10054000F09058058FBF8091E90684FF74C08090B9
:10055000EE069090EF06A090F006B090F106909114
:10056000FA069111F6C08091F8060E94630220916C
:10057000EA06022F017010E021E00817190709F4BC
:1005800020E02093FB06B701A601481959096A0922
:100590007B092091FB069091E80691FB882780F962
:1005A000222309F419C181111AC041355105610591
:1005B0007105A8F0C092EE06D092EF06E092F00628
:1005C000F092F106997E926190689093E80680918E
:1005D000EA0680628093EA0640E050E0BA0180912A
:1005E000EA069091E80684FF12C04D3231E05307CD
:1005F0006105710560F092FD05C083FDB4C08260A5
:100600008093EA068091EA068F7E8093EA0691FF46
:1006100012C04D3B52406105710568F092FD0BC060
:10062000222309F4A2C091609093E8068091EA0623
:100630008F7D8093EA068091FA06882309F4A2C090
:100640009091E90696FB332730F9C32F80E0D82F2D
:10065000CC0FDD1F95FB882780F98C2B2091EC06B1
:10066000281709F469C01092ED069091EA0696FFEA
:10067000B0C0833009F097C09F7B9093EA06213089
:1006800009F48DC091E0223009F48AC09091E90606
:1006900093FD03C0833009F493C09091ED06992334
:1006A000E1F12091E80628602093E8064091F206E7
:1006B0005091F3066091F4067091F506970186015A
:1006C000041B150B260B370B4091EB0650E070E036
:1006D00060E0041715072607370760F42091E90644
:1006E0002260913029F0923029F42091E9062160AE
:1006F0002093E906C092F206D092F306E092F40647
:10070000F092F5062091E90624FF07C02091FB0630
:10071000222319F09E5F9093ED068093EC06809162
:10072000E80684608093E806C092EE06D092EF0659
:10073000E092F006F092F106DF91CF911F910F91B8
:10074000FF90EF90DF90CF90BF90AF909F908F90F1
:10075000089587FB882780F98093FB0614CF80914A
:10076000EA06886037CF84604BCF9D7F9E7F909351
:10077000E806C092EE06D092EF06E092F006F09204
:10078000F10659CF8091F6060E946302C82F80912E
:10079000F7060E946302880F991F8C2B5FCF92E0AF
:1007A0009093ED0673CF3091E90633FD46C0811179
:1007B00074CF9F7B9093EA06213041F0223031F0D4
:1007C0009091EA0690649093EA0667CF2093ED0635
:1007D000F7CF8823A9F35ACF882309F400CF4135F6
:1007E00051056105710508F4FACE92FD05C090FD32
:1007F00003C090629093E8064D3B5240610571053D
:1008000028F08091E80680648093E8068091E806ED
:10081000C092EE06D092EF06E092F006F092F1065A
:100820008D7F8E7F8093E8068091EA0685FF97CFC3
:1008300084FD95CF8061877FCDCE882309F26DCF6F
:100840001F93CF93DF93282F30E0F901E55DFD4F33
:100850008491F901E551FD4FD491F901EB55FD4F1C
:10086000C491CC23A9F0162F81110E94FC01EC2F1A
:10087000F0E0EE0FFF1FE557FD4FA591B4918FB744
:10088000F894EC91111108C0D095DE23DC938FBF52
:10089000DF91CF911F910895DE2BF8CFCF93DF9397
:1008A00090E0FC01E551FD4F24918B559D4FFC01DB
:1008B00084918823C9F090E0880F991FFC01EF5EB6
:1008C000FD4FA591B491FC01E557FD4FC591D49121
:1008D00061110DC09FB7F8948C91209582238C9361
:1008E0008881282328839FBFDF91CF9108956230AC
:1008F00051F49FB7F8943C91822F809583238C9379
:10090000E8812E2BEFCF8FB7F894EC912E2B2C9300
:100910008FBFEACF3FB7F89480915105909152056F
:10092000A0915305B091540526B5A89B05C02F3F53
:1009300019F00196A11DB11D3FBFBA2FA92F982F05
:100940008827BC01CD01620F711D811D911D42E000
:10095000660F771F881F991F4A95D1F708958F92C8
:100960009F92AF92BF92CF92DF92EF92FF924B0194
:100970005C010E948A046B017C010E948A046C194C
:100980007D098E099F09683E734081059105A8F392
:1009900021E0821A9108A108B10888EEC80E83E010
:1009A000D81EE11CF11C81149104A104B10429F7A3
:1009B000FF90EF90DF90CF90BF90AF909F908F907F
:1009C00008950895DB0114964D915C9115976D91F2
:1009D0007C91DC01ED91FC910280F381E02D199472
:1009E000AF92BF92CF92DF92EF92FF920F931F933D
:1009F000CF93DF936C017B018B01040F151FEB017B
:100A00005E01AE18BF08C017D10759F06991D60131
:100A1000ED91FC910190F081E02DC6011995892B93
:100A200079F7C501DF91CF911F910F91FF90EF9062
:100A3000DF90CF90BF90AF90089580914505909141
:100A40004605A0914705B091480580931505909300
:100A50001605A0931705B09318050E94CE01909338
:100A60001405809313050895FC01538D448D252FA3
:100A700030E0842F90E0821B930B541710F0CF9638
:100A8000089501970895FC01918D828D981761F06A
:100A9000A28DAE0FBF2FB11D5D968C91928D9F5F81
:100AA0009F73928F90E008958FEF9FEF0895FC0160
:100AB000918D828D981731F0828DE80FF11D858D13
:100AC00090E008958FEF9FEF0895FC01918D228DA6
:100AD000892F90E0805C9F4F821B91098F7399272B
:100AE000089589E595E00E94650521E0892B09F4C8
:100AF00020E0822F0895FC01A48DA80FB92FB11D0D
:100B0000A35ABF4F2C91848D90E001968F73992743
:100B1000848FA689B7892C93A089B1898C91837021
:100B200080648C93938D848D981306C00288F3891A
:100B3000E02D80818F7D80830895EF92FF920F9347
:100B40001F93CF93DF93EC0181E0888F9B8D8C8D79
:100B500098131AC0E889F989808185FF15C09FB76D
:100B6000F894EE89FF896083E889F9898081837030
:100B7000806480839FBF81E090E0DF91CF911F91DF
:100B80000F91FF90EF900895F62E0B8D10E00F5F00
:100B90001F4F0F731127E02E8C8D8E110CC00FB6D6
:100BA00007FCFACFE889F989808185FFF5CFCE016E
:100BB0000E947B05F1CFEB8DEC0FFD2FF11DE35A69
:100BC000FF4FF0829FB7F8940B8FEA89FB898081F1
:100BD0008062CFCFCF93DF93EC01888D8823B9F06B
:100BE000AA89BB89E889F9898C9185FD03C0808138
:100BF00086FD0DC00FB607FCF7CF8C9185FFF2CFB5
:100C0000808185FFEDCFCE010E947B05E9CFDF918A
:100C1000CF91089580E090E0892B29F00E94710522
:100C200081110E94000080E090E0892B49F080E073
:100C300090E0892B29F00E94000081110E940000A1
:100C400080E090E0892B49F080E090E0892B29F04A
:100C50000E94000081110E94000080E090E0892B3A
:100C600049F080E090E0892B29F00E94000081117A
:100C70000C9400000895DC015196ED91FC9152977F
:100C8000908150968C91809589238083089520913E
:100C90001105309112052817390781F490910F053D
:100CA00080911005981751F0E0910F05F0E0E153A5
:100CB000FB4F8081082E000C990B08958FEF9FEF5A
:100CC000089520911105309112052817390739F43C
:100CD0008FB7F8941092100510920F058FBF0895EA
:100CE00020911105309112052817390771F4809170
:100CF000100520910F0590E0805C9F4F821B9109A9
:100D000060E470E00E94F021089590E080E0089592
:100D1000209111053091120528173907B9F49091E7
:100D20000F0580911005981789F0E0910F05F0E00C
:100D3000E153FB4F808120910F0530E02F5F3F4F43
:100D40002F73332720930F0590E008958FEF9FEFC7
:100D5000089520E001972FEF8F3F9207D9F708956C
:100D6000089590E080E008952F923F924F925F9215
:100D70006F927F928F929F92AF92BF92CF92DF92AB
:100D8000EF92FF921F93CF93DF93209127062111BB
:100D900009C01B01EC01809100028131A9F08F3F55
:100DA00009F4AAC0DF91CF911F91FF90EF90DF90DF
:100DB000CF90BF90AF909F908F907F906F905F90FB
:100DC0004F903F902F900895E0E1F2E0149117FDCD
:100DD000E9CF61E081E10E944E044E01B12CA12CCB
:100DE0001123F9F0712C612C123009F059C1530113
:100DF0004E0160E970ED83E090E0A3019E010E9446
:100E0000262269017A0181E0C81AD108E108F108B7
:100E100083E09FEFC916D104E104F10409F00CF45A
:100E200064C060E072E18AE790E0A50194010E944D
:100E3000262229013A0168E478EE81E090E0A501DC
:100E400094010E94262269017A0181E0C81AD10822
:100E5000E108F108112309F4DBC1123009F0D6C111
:100E600084E09FEFC916D104E104F104F1F1ECF143
:100E700064E274EF80E090E0A50194010E942622D4
:100E800069017A0181E0C81AD108E108F10885E01A
:100E90009FEFC916D104E104F10439F130F162E1A8
:100EA0007AE780E090E0A50194010E942622690182
:100EB0007A0181E0C81AD108E108F10886E09FEFC5
:100EC000C916D104E104F10481F07CF073016201E0
:100ED0009AE0F594E794D794C7949A95D1F791E066
:100EE000C91AD108E108F10887E09091B100987F14
:100EF000892B8093B100B0C181E180930002E0E1D1
:100F0000F2E01491812F1F3F09F44CCF123009F405
:100F100068C060F4112379F1113009F444C087FDF1
:100F200041CF61E081E10E944E045CCF143009F4AE
:100F300099C008F478C0153091F7109220011092F2
:100F400021018091210188608093210180912101FC
:100F5000816080932101E6EBF2E0E491F0E0EE0F96
:100F6000FF1FE557FD4F85919491ECEFF2E0E4917E
:100F7000E093B6042ECF14BC15BC84B5826084BD4A
:100F800085B5816085BDE6EBF2E0E491F0E0EE0F1F
:100F9000FF1FE557FD4F85919491ECEFF2E0E4914E
:100FA000E093BA0416CF10928000109281008091D5
:100FB00081008860809381008091810081608093AE
:100FC0008100E6EBF2E0E491F0E0EE0FFF1FE55761
:100FD000FD4F85919491ECEFF2E0E491E093B90438
:100FE000F8CE1092B0001092B1008091B0008260F3
:100FF0008093B0008091B10081608093B100E6EBF6
:10100000F2E0E491F0E0EE0FFF1FE557FD4F859110
:10101000949190934A0580934905ECEFF2E0E491B6
:10102000E0934B05D6CE10929000109291008091E3
:1010300091008860809391008091910081608093FD
:101040009100E6EBF2E0E491F0E0EE0FFF1FE557D0
:10105000FD4F85919491ECEFF2E0E491E093B804B8
:1010600013E0B7CE1092A0001092A1008091A100D1
:1010700088608093A1008091A10081608093A1008D
:10108000E6EBF2E0E491F0E0EE0FFF1FE557FD4FD5
:1010900085919491ECEFF2E0E491E093B70499CE5E
:1010A00060E072E18AE790E0A3019E010E9426229F
:1010B00069017A0191E0C91AD108E108F10891E0CB
:1010C000C114D10481E0E806F10484F068E478EE0C
:1010D00081E090E0A3019E010E94262269017A012D
:1010E00091E0C91AD108E108F10893E0113039F410
:1010F00080918100887F892B80938100ADC013305F
:1011000039F480919100887F892B80939100A4C04D
:10111000143039F48091A100887F892B8093A1003D
:101120009BC0153009F098C080912101887F892BE0
:101130008093210191C0C7BC2093CB043093CC0491
:101140004093CD045093CE0480916E0082608093D2
:101150006E0028CEC092B30020934C0530934D050D
:1011600040934E0550934F058091700082608093AC
:10117000700018CED0929900C09298002093C304BA
:101180003093C4044093C5045093C6048091710009
:1011900082608093710006CED092A900C092A80010
:1011A0002093BF043093C0044093C1045093C20401
:1011B00080917200826080937200F4CD73016201AD
:1011C0002AE0F594E794D794C7942A95D1F781E063
:1011D000C81AD108E108F10895E03AC01430E1F2EC
:1011E0004CF2153009F0DECDD0922901C0922801D1
:1011F0002093BB043093BC044093BD045093BE04C1
:1012000080917300826080937300CCCD84E040CEE7
:1012100093E08FEFC816D104E104F104C9F0C4F0E3
:1012200062E17AE780E090E0A50194010E94262225
:1012300069017A0191E0C91AD108E108F1088FEF3C
:10124000C816D104E104F10411F00CF0B7CF94E01A
:1012500085B5887F892B85BD9E01220F331FD10163
:101260000E94CD2128EE33E040E050E00E940422AD
:10127000123009F46FCF0CF0B1CF112309F45BCF1A
:10128000113009F08FCDD0928900C0928800209350
:10129000C7043093C8044093C9045093CA04809192
:1012A0006F00826080936F007DCD109233051092A5
:1012B00034051092350510923605109219051092DA
:1012C0001A0510921B0510921C0510922F05109202
:1012D00030051092310510923205109223051092BC
:1012E0002405109225051092260510921F051092D4
:1012F0002005109221051092220510921E051092D1
:101300001D05109237050895DF92EF92FF920F931B
:101310001F93CF93DF93EC01898D9A8D892B71F404
:1013200081E090E09B838A8390E080E0DF91CF9121
:101330001F910F91FF90EF90DF900895162FDFB669
:10134000F8948B8D81FD29C0CE010E943B06898DCA
:101350009A8D05960E94A9068B8D98E0E92EF12CB6
:1013600001E081FF28C0812F8023F1F0CE010E948F
:101370003B06898D9A8D0E94A906000F81E0E81A2C
:10138000F10889F7CE010E943B06DFBE898D9A8D58
:101390000E94A90681E090E0C9CFE989FA8980819D
:1013A0009889892B8083D3CFE989FA8980819889AC
:1013B000892B8083DECF812F8023B1F0E989FA89E0
:1013C00080819889892B8083898D9A8D0E94A906B6
:1013D000000F81E0E81AF10871F7E989FA89808144
:1013E0009889892B8083D1CFCE010E943B06ECCF18
:1013F0001F93CF93DF93EC01162F8C8194EA909387
:10140000BC009091BC0097FFFCCF880F0E94E401C4
:101410008B85812B0E94E40184E98093BC0080913C
:101420001202882329F0109212021092130204C0B3
:10143000809113028111F9CFDF91CF911F9108950F
:101440000F931F93CF938C01C62F0E94F8096C2F26
:101450006460C8010E94F8096C2F6B7FC8010E946C
:10146000F80983EC90E00197F1F7CF911F910F916C
:1014700008950F931F93CF93DF938C01D62FC42F22
:10148000607F642B0E94200A80E1D89FB001112464
:101490006C2BC801DF91CF911F910F910C94200A02
:1014A000CF93DF9300D000D01F921F92CDB7DEB74D
:1014B00098E0EBE1F2E0DE01119601900D929A9531
:1014C000E1F790910407961710F46FEF690F262F3C
:1014D00030E0220F331F41E050E04C0F5D1F240F1E
:1014E000351FF9016081680F606840E08CEF96E07D
:1014F00028960FB6F894DEBF0FBECDBFDF91CF9117
:101500000C94390A41E00E94390A81E090E0089584
:10151000CF93DF93EB010E94B7218883CE01DF9147
:10152000CF9108950F931F93CF93DF938C01EB011D
:101530000E94B7218883C80101960E94B721898340
:10154000CE01DF91CF911F910F910895CF93DF933B
:10155000CCE1D6E08A81BE0190E00E94920A8C81A3
:1015600090E00E94B7218B838F8161E276E090E06A
:101570000E94920A8A8564E276E090E00E94920AD4
:101580008C8567E276E090E00E94880A8E8569E2A9
:1015900076E090E0DF91CF910C94880AFB010190F6
:1015A0000020E9F73197AF01461B570BDC01ED91A5
:1015B000FC910280F381E02D19948F929F92AF925B
:1015C000BF92EF92FF920F931F93CF93DF93CDB70C
:1015D000DEB7A1970FB6F894DEBF0FBECDBF7C017A
:1015E000FA01CB0119A2223008F42AE08E010F5D26
:1015F0001F4F822E912CB12CA12CBF01A50194016B
:101600000E940422F901CA016A300CF5605DD8011C
:101610006E938D01232B242B252B79F790E080E00E
:10162000109721F0BD01C7010E94CE0AA1960FB606
:10163000F894DEBF0FBECDBFDF91CF911F910F9108
:10164000FF90EF90BF90AF909F908F900895695C4E
:10165000DECFCF92DF92EF92FF920F931F93CF9343
:10166000DF936B01770FEE08FF08F7FE1FC0EC0158
:10167000E881F9810190F081E02D6DE219958C01EE
:1016800044275527BA014C195D096E097F092AE0E4
:10169000CE010E94DD0A800F911FDF91CF911F9133
:1016A0000F91FF90EF90DF90CF9008952AE0B7015F
:1016B000A601DF91CF911F910F91FF90EF90DF90E6
:1016C000CF900C94DD0AAB0170E060E02AE00C944E
:1016D000DD0A6FE872E00C94CE0ACF93DF93BC0171
:1016E00089E595E00E94CE0AEC0189E595E00E942B
:1016F000690B8C0F9D1FDF91CF9108950F931F935E
:10170000CF93DF93EC010E94290B8C01CE010E9444
:10171000690B800F911FDF91CF911F910F91089559
:10172000CF93DF93BC0189E595E00E94630BEC0148
:1017300089E595E00E94690B8C0F9D1FDF91CF9189
:1017400008956115710511F00C94CE0A90E080E0C7
:101750000895CF93DF9382E992E00E946D0B6BE9CD
:1017600072E089E595E00E94A10BCCE1D6E088818A
:1017700099810E94900B64EA72E089E595E00E94ED
:10178000A10B4B8150E070E060E02AE089E595E034
:101790000E94DD0A89E595E00E94690B6BEA72E020
:1017A00089E595E00E94A10B8D819E810E94900B9E
:1017B00064EB72E089E595E00E94A10B888599852C
:1017C0000E94900B69EC72E089E595E00E94A10B04
:1017D0006B8570E089E595E00E947E0B60ED72E01C
:1017E00089E595E00E94A10B6D8570E089E595E0A3
:1017F0000E947E0B89E595E0DF91CF910C94690BF7
:1018000061E080E00E94500A66EE72E08CEF96E0A4
:101810000E94A10B62E080E00E94500A66EE72E036
:101820008CEF96E00E94A10B63E080E00E94500ADA
:1018300066EE72E08CEF96E00C94A10BCF93DF93F1
:10184000EC0160E080E00E94500A6FED72E08CEFE6
:1018500096E00E94A10B60E080E00E94500AE881BF
:1018600024E1E29FF0011124ED5DFD4F6081718163
:101870008CEF96E00E94A10B8981882341F16BEFE8
:1018800072E0813011F06EEF72E08CEF96E00E9412
:10189000A10B8881E9812AE0829FC0011124E80F11
:1018A000F92FF11DEE0FFF1FED5DFD4F608171817E
:1018B0008CEF96E00E94A10B8A81882341F06CE8AE
:1018C00073E08CEF96E0DF91CF910C94A10BDF9148
:1018D000CF9108950F931F93CF93DF93EC018881ED
:1018E0009981009759F02A813B812617370730F0FC
:1018F00081E0DF91CF911F910F9108958B016F5F70
:101900007F4F0E947223009759F0998388831B832D
:101910000A832C813D81232B59F7FC011082E8CFEB
:1019200080E0E7CFEF92FF920F931F93CF93DF9367
:101930006115710541F480E0DF91CF911F910F9106
:10194000FF90EF90089541155105B1F07B01EC0136
:101950000C811D81040F151FB8010E946A0C882399
:1019600051F3288139818C819D81B701820F931FAA
:101970000E945C241D830C8381E0DECFCF93DF9334
:10198000EC0188819981009711F00E94E922198267
:1019900018821D821C821B821A82DF91CF910895CA
:1019A000CF93DF93EC01FB0101900020E9F7319721
:1019B000AF01461B570B0E94920C811103C0CE0150
:1019C0000E94BE0CCE01DF91CF910895CF93DF939B
:1019D000EC01FB0144815581608171810E94920C70
:1019E000811103C0CE010E94BE0CCE01DF91CF91C8
:1019F0000895EF92FF920F931F93CF93DF93EC0123
:101A00007B018A01BA010E946A0C81110BC0CE01D0
:101A10000E94BE0CCE01DF91CF911F910F91FF90DC
:101A2000EF9008951D830C83B701888199810E94EE
:101A30005C24F0CFEF92FF920F931F93CF93DF932D
:101A4000CDB7DEB761970FB6F894DEBF0FBECDBF3E
:101A50008C01CB01F801118210821382128215824F
:101A600014824AE09E012F5F3F4F7901B9010E9425
:101A70008D21F70101900020E9F73197AF014E1950
:101A80005F09B701C8010E94F90C61960FB6F8947E
:101A9000DEBF0FBECDBFDF91CF911F910F91FF90A1
:101AA000EF900895CF93DF93EC01FB018617970722
:101AB00049F0608171816115710541F04481558162
:101AC0000E94F90CCE01DF91CF9108950E94BE0CC7
:101AD000F9CFFC01118210821382128215821482C6
:101AE0000C94520DFC011182108213821282158215
:101AF0001482FB0101900020E9F73197AF01461BEA
:101B0000570B0C94F90CFC0180819181009711F026
:101B10000C94E92208953F924F925F926F927F92C8
:101B20008F929F92AF92BF92CF92DF92EF92FF92ED
:101B30000F931F93CF93DF93CDB7DEB76C970FB69C
:101B4000F894DEBF0FBECDBF4C012A013B01CB0193
:101B5000BA0128EE33E040E050E00E940422298FD1
:101B60003A8F4B8F5C8FC301B20120E63AEE40E022
:101B700050E00E940422690128EE33E0498D5A8D1D
:101B8000249FC001259F900D349F900D1124520178
:101B9000A81AB90A3CE3332E3C9CC0013D9C900D31
:101BA00011248A01081B190BC301B20120E83EEE83
:101BB00046E350E00E940422329EC001339E900D05
:101BC0001124C81AD90AB501CE0143960E941A0DF4
:101BD00054E6A516B10408F078C021E0E22E23E017
:101BE000F22E8AE0A816B10408F473C093E7A92E78
:101BF00093E0B92EB801CE010D960E941A0D0A305D
:101C0000110508F468C003E713E0B601CE0107969A
:101C10000E941A0D63E773E04AE0C416D10410F481
:101C200061E073E0CE0101960E94720DBE01695F12
:101C30007F4FCE0101960E94E60C6CE873E00E9493
:101C4000D00CB8010E94D00CBE01635F7F4F0E9490
:101C5000E60C62E273E00E94D00CB5010E94D00C49
:101C6000B7010E94D00CBE016D5E7F4F0E94E60C52
:101C7000BC01C4010E94690DCE0101960E94830D32
:101C8000CE0107960E94830DCE010D960E94830D12
:101C9000CE0143960E94830DC4016C960FB6F89452
:101CA000DEBF0FBECDBFDF91CF911F910F91FF908F
:101CB000EF90DF90CF90BF90AF909F908F907F90EC
:101CC0006F905F904F903F90089583E7E82E83E0F8
:101CD000F82E57018FCF01E013E097CFEF92FF92DC
:101CE0000F931F93CF93DF93CDB7DEB72C970FB62B
:101CF000F894DEBF0FBECDBF7C01E091C80686E040
:101D0000E89FF0011124EA50FA4F848161E08E5F70
:101D10000E94500A63E773E0CE0107960E94720D9D
:101D200010E000E0BE01695F7F4FCE0101960E9486
:101D3000690D69EF72E0CE0101960E94D00CBC01E2
:101D4000CE0107960E94520DCE0101960E94830D8E
:101D50000F5F1F4F0E151F0529F7BE01695F7F4FEB
:101D60008CEF96E00E94E204E091C80686E0E89FCE
:101D7000F0011124EA50FA4F848161E08E5F0E94E5
:101D8000500ACE0107960E94830D2C960FB6F89448
:101D9000DEBF0FBECDBFDF91CF911F910F91FF909E
:101DA000EF900895FF920F931F93CF93DF93EC0171
:101DB000F62E08811981C8010E94B721F81621F07A
:101DC0006F2DC8010E94BF21CE01DF91CF911F91DD
:101DD0000F91FF9008950F931F93CF93DF931F925E
:101DE0001F92CDB7DEB78B019A838983FB01608197
:101DF000CE0101960E94D20EC8010F900F90DF9184
:101E0000CF911F910F910895EF92FF920F931F931F
:101E1000CF93DF931F921F92CDB7DEB78C017B016A
:101E20009A838983FB016081CE0101960E94D20EC4
:101E30000F5F1F4F1A830983F7016181CE0101965D
:101E40000E94D20EC7010F900F90DF91CF911F918A
:101E50000F91FF90EF9008951F920F920FB60F927F
:101E600011242F933F938F939F93AF93BF938091B0
:101E7000550590915605A0915705B09158053091A0
:101E8000500523E0230F2D3758F50196A11DB11DF4
:101E9000209350058093550590935605A0935705C0
:101EA000B09358058091510590915205A09153052A
:101EB000B09154050196A11DB11D809351059093D9
:101EC0005205A0935305B0935405BF91AF919F91D4
:101ED0008F913F912F910F900FBE0F901F901895EB
:101EE00026E8230F0296A11DB11DD2CF1F920F929B
:101EF0000FB60F9211240BB60F922F933F934F936F
:101F00005F936F937F938F939F93AF93BF93EF9361
:101F1000FF93E0910F02F09110021995FF91EF915C
:101F2000BF91AF919F918F917F916F915F914F91F1
:101F30003F912F910F900BBE0F900FBE0F901F90EF
:101F400018951F920F920FB60F9211240BB60F9295
:101F50002F933F934F935F936F937F938F939F93B1
:101F6000AF93BF93EF93FF93E0910D02F0910E02B8
:101F70001995FF91EF91BF91AF919F918F917F91B3
:101F80006F915F914F913F912F910F900BBE0F90EA
:101F90000FBE0F901F9018951F920F920FB60F92C1
:101FA00011240BB60F922F933F934F935F936F9330
:101FB0007F938F939F93AF93BF93EF93FF93E091A2
:101FC0000302F09104021995FF91EF91BF91AF9137
:101FD0009F918F917F916F915F914F913F912F9141
:101FE0000F900BBE0F900FBE0F901F9018951F9271
:101FF0000F920FB60F9211240BB60F922F933F93AF
:102000004F935F936F937F938F939F93AF93BF9300
:10201000EF93FF93E0910102F09102021995FF9175
:10202000EF91BF91AF919F918F917F916F915F9150
:102030004F913F912F910F900BBE0F900FBE0F90BD
:102040001F9018951F920F920FB60F9211240BB686
:102050000F922F933F934F935F936F937F938F9341
:102060009F93AF93BF93EF93FF93E0910B02F09197
:102070000C021995FF91EF91BF91AF919F918F91B4
:102080007F916F915F914F913F912F910F900BBE78
:102090000F900FBE0F901F9018951F920F920FB6C2
:1020A0000F9211240BB60F922F933F934F935F9390
:1020B0006F937F938F939F93AF93BF93EF93FF9310
:1020C000E0910902F0910A021995FF91EF91BF91F9
:1020D000AF919F918F917F916F915F914F913F91C0
:1020E0002F910F900BBE0F900FBE0F901F90189561
:1020F0001F920F920FB60F9211240BB60F922F93CF
:102100003F934F935F936F937F938F939F93AF937F
:10211000BF93EF93FF93E0910702F09108021995A6
:10212000FF91EF91BF91AF919F918F917F916F91AF
:102130005F914F913F912F910F900BBE0F900FBE6B
:102140000F901F9018951F920F920FB60F921124A7
:102150000BB60F922F933F934F935F936F937F93A1
:102160008F939F93AF93BF93EF93FF93E0910502FB
:10217000F09106021995FF91EF91BF91AF919F9158
:102180008F917F916F915F914F913F912F910F9020
:102190000BBE0F900FBE0F901F9018951F920F92BD
:1021A0000FB60F9211240BB60F922F933F934F93BC
:1021B0005F936F937F938F939F93AF93BF93EF93AF
:1021C000FF9380914C0590914D05A0914E05B091E3
:1021D0004F05892B8A2B8B2BE1F190914B05E091D8
:1021E0004905F0914A0580818927808380914C05BB
:1021F00090914D05A0914E05B0914F051816190606
:102200001A061B069CF480914C0590914D05A091F7
:102210004E05B0914F050197A109B10980934C0576
:1022200090934D05A0934E05B0934F05FF91EF910C
:10223000BF91AF919F918F917F916F915F914F91DE
:102240003F912F910F900BBE0F900FBE0F901F90DC
:10225000189580910002E0E1F2E0E4919FEF909305
:102260000002E230E9F040F4EE2389F0E13091F031
:1022700060E00E942004DACFE43049F110F1E5304B
:10228000B9F7909173009D7F90937300F1CF1092F6
:102290006E00EECF90916F009D7F90936F00E8CF1E
:1022A000909170009D7F9093700091E09093B000AA
:1022B0009091B100987F94609093B1001092B30018
:1022C000D7CF909171009D7F90937100D1CF909165
:1022D00072009D7F90937200CBCF1F920F920FB62A
:1022E0000F9211240BB60F922F933F934F935F934E
:1022F0006F937F938F939F93AF93BF93EF93FF93CE
:1023000089E595E00E947B05FF91EF91BF91AF9128
:102310009F918F917F916F915F914F913F912F91FD
:102320000F900BBE0F900FBE0F901F9018951F922D
:102330000F920FB60F9211240BB60F922F938F931B
:102340009F93EF93FF93E0916905F0916A05808177
:10235000E0916F05F091700582FD1DC09081809124
:1023600072058F5F8F7320917305821741F0E091A2
:102370007205F0E0E75AFA4F958F80937205FF914E
:10238000EF919F918F912F910F900BBE0F900FBEE9
:102390000F901F9018958081F2CF1F920F920FB669
:1023A0000F9211240BB60F92EF92FF920F931F938F
:1023B0002F933F934F935F936F937F938F939F934D
:1023C000AF93BF93CF93DF93EF93FF93C09111052A
:1023D000D0911205209749F0EE85FF859D858B8D64
:1023E00081FF1CC080818923E1F4FF91EF91DF918F
:1023F000CF91BF91AF919F918F917F916F915F919D
:102400004F913F912F911F910F91FF90EF900F905F
:102410000BBE0F900FBE0F901F90189580818923DF
:1024200021F78B899C890E94A90688E0E82EF12C6F
:1024300010E001E08D899E890E94A906EE85FF8546
:1024400080819D85892339F1102B000F81E0E81AE6
:10245000F10881F78F89988D0E94A9068B8D81FDE7
:1024600010958091100520910F0590E001968F73D3
:1024700099272817190699F0E0911005F0E0E1532B
:10248000FB4F10838091100590E001968F73992780
:1024900080931005AACF802F80951823D6CF8B8DDF
:1024A00081608B8FA2CF1F920F920FB60F921124D3
:1024B0000BB60F922F933F934F935F936F937F933E
:1024C0008F939F93AF93BF93EF93FF930E94CD1190
:1024D000FF91EF91BF91AF919F918F917F916F91FC
:1024E0005F914F913F912F910F900BBE0F900FBEB8
:1024F0000F901F9018951F920F920FB60F921124F4
:102500000BB60F922F933F934F935F936F937F93ED
:102510008F939F93AF93BF93EF93FF930E94CD113F
:10252000FF91EF91BF91AF919F918F917F916F91AB
:102530005F914F913F912F910F900BBE0F900FBE67
:102540000F901F901895FB012081DC012C93418195
:1025500052816381748111964D935D936D937C9349
:1025600014972581368116963C932E931597BF01BB
:10257000695F7F4F07960C94690DFC0110821182F0
:102580001282138214821682158263E773E0079623
:102590000C94720D1F93CF93DF931F921F92CDB7B0
:1025A000DEB710925C0510925B0588EE93E0A0E028
:1025B000B0E080935D0590935E05A0935F05B093B6
:1025C000600583E692E090935A058093590585EC67
:1025D00090E0909366058093650584EC90E090937D
:1025E00068058093670580EC90E090936A0580937E
:1025F000690581EC90E090936C0580936B0582EC0B
:1026000090E090936E0580936D0586EC90E090933A
:10261000700580936F0510927205109273051092E9
:102620007405109275051092FF061092FE0687E859
:1026300092E09093FD068093FC0687E2809300076A
:1026400084E18093050784E08093060710920707D2
:1026500092E39093EB061092EC061092ED06109226
:10266000EE061092EF061092F0061092F10610920C
:10267000F2061092F3061092F4061092F5061092EC
:10268000F9061092FA061092FB0692E09093F60675
:1026900093E09093F7068093F8068091E9068061B5
:1026A000877F8093E90662E082E00E944E0462E048
:1026B0008091F7060E944E048091E90684FF05C0D0
:1026C00062E08091F8060E944E048091EA068160E3
:1026D0008093EA068091F6060E946302182F80918B
:1026E000F7060E946302880F991F812B8093EC06E6
:1026F0001092CF061092CE0688EE93E0A0E0B0E0F4
:102700008093D0069093D106A093D206B093D306BF
:1027100085E792E09093CD068093CC061092E00678
:102720001092DF061092E2061092E1061092E40683
:102730001092E3061092E6061092E5068091E706F5
:102740008E7F8D7F8093E70661E087E10E944E04D3
:1027500061E087E10E942004E2E0F3E0E491E0938D
:10276000DC06ECEBF2E0E491F0E0EE0FFF1FE55742
:10277000FD4F859194919093DE068093DD0660E095
:1027800086E10E944E048091E70681FD04C061E06D
:1027900086E10E94200486E18093D806E1E0F3E020
:1027A000E491E093D906EBEBF2E0E491F0E0EE0F78
:1027B000FF1FEF58FD4F859194919093DB06809316
:1027C000DA061092C9061092CA061092CB06109231
:1027D000C70612E01093C8068AEB96E00E94BD126D
:1027E0008DEA96E00E94BD1280EA96E00E94BD123A
:1027F00083E996E00E94BD1286E896E00E94BD1231
:1028000089E796E00E94BD126AEB76E08BE296E0E3
:102810000E94A3126DEA76E088E396E00E94A3127C
:1028200060EA76E085E496E00E94A31263E976E030
:1028300082E596E00E94A31266E876E08FE596E0D6
:102840000E94A31269E776E08CE696E00E94A3124C
:1028500010921D0610921C0610921E0681E08093B5
:102860001F061093200683E090E090932206809349
:10287000210623E0209323069093250680932406C7
:1028800085E0809326061092270687E0809328062D
:102890001092290688E080932A066CE176E090E0A9
:1028A00080E00E94920A80911C0690911D068A3356
:1028B000904309F44EC089E595E00E94690B83E0DE
:1028C00093E00E946D0B8AE390E39A838983809161
:1028D0001E06BE016F5F7F4F90E00E94040F809143
:1028E000200690E09A83898360911F06CE010196AD
:1028F0000E94D20E8091230661E276E090E00E9471
:10290000040F8091260664E276E090E00E94040FB6
:102910008091280667E276E090E00E94EB0E8091BD
:102920002A0669E276E090E00E94EB0E86E690E0EF
:102930009A838983BE016F5F7F4F84E690E00E9497
:10294000040F84E293E00E946D0B0E94A60A0E948D
:10295000A90B10921B0610921A066AE176E084E633
:1029600090E00E94920A63E773E086EF95E00E9490
:10297000720D69E273E08CEF95E00E94720D63E3E3
:1029800073E082E096E00E94720D6FE373E088E0EE
:1029900096E00E94720D6FE473E08EE096E00E9474
:1029A000720D6EE573E084E196E00E94720D0F9067
:1029B0000F90DF91CF911F910895CF93DF93CDB703
:1029C000DEB7A4970FB6F894DEBF0FBECDBF7894E4
:1029D00084B5826084BD84B5816084BD85B5826024
:1029E00085BD85B5816085BD80916E0081608093D5
:1029F0006E0010928100809181008260809381003E
:102A0000809181008160809381008091800081604D
:102A1000809380008091B10084608093B1008091A8
:102A2000B00081608093B0008091910082608093BB
:102A3000910080919100816080939100809190003D
:102A40008160809390008091A10082608093A100BA
:102A50008091A10081608093A1008091A00081609D
:102A60008093A00080912101826080932101809158
:102A700021018160809321018091200181608093F8
:102A8000200180917A00846080937A0080917A009E
:102A9000826080937A0080917A00816080937A00CE
:102AA00080917A00806880937A001092C100E09152
:102AB0006905F0916A0582E08083E0916505F091F7
:102AC00066051082E0916705F09168058FEC8083C0
:102AD00010927105E0916D05F0916E0586E080839E
:102AE000E0916B05F0916C05808180618083E091BD
:102AF0006B05F0916C05808188608083E0916B05A7
:102B0000F0916C05808180688083E0916B05F09185
:102B10006C0580818F7D80831092E6061092E50619
:102B20001092E4061092E3061092E2061092E1067B
:102B300090E080E0FC01EC58FE4F45915591659185
:102B40007491403855426105710509F065C0FC017A
:102B5000E858FE4F259134913093E0062093DF062C
:102B6000FC01E658FE4F259134913093E206209304
:102B7000E106FC01E458FE4F259134913093E406C0
:102B80002093E306FC01E258FE4F859194919093C7
:102B9000E6068093E5068091E3069091E406892B92
:102BA00009F481C08091D80626EF280F243048F020
:102BB0009EEC980F943028F092EC980F983008F023
:102BC0006CC090916800243020F032EC380F38301F
:102BD00068F131E0932B243048F02EEC280F24309C
:102BE00028F08E53F0E0E0E0883010F4E8E6F0E002
:102BF00090839091D80636EF390F3430C8F08EECC0
:102C0000890F8430A8F082EC890FEDE6F0E088307F
:102C100088F0F0E0E0E00EC00C968C39910509F0E8
:102C200089CF1092E0061092DF06B5CF34E0D2CF04
:102C3000EBE6F0E020813430C0F481E0692F66508B
:102C4000770BAB0101C0880F4A95EAF7822B34302D
:102C500008F12EEC290F2430E8F09E53EDE6F0E069
:102C60009830D0F0F0E0E0E017C088E0923371F3E4
:102C700084E0933359F382E0943341F382EC890F7B
:102C8000883030F481E0E92FEE53FF0BAF01DACF4B
:102C900081E0DCCFEBE6F0E080838091E506909167
:102CA000E6060E94A90680911105909112058C5CA0
:102CB000964091F08091E7068E7F8093E7068FB76C
:102CC000F8941092100510920F052CEC36E030931A
:102CD0001205209311058FBF8CEC96E00E947006C0
:102CE000892B31F065E67CE68CEC96E00E947E0B49
:102CF00062E084E10E944E0462E085E10E944E049D
:102D000088E48093B8001092B90010920107809176
:102D10000607823018F098E090930107809304072B
:102D200062E370E080E090E00E94AF0460910707EA
:102D30008CEF96E00E94F80968EE73E080E090E086
:102D40000E94AF0460E38CEF96E00E94200A0BE43F
:102D500016E4C8010197F1F760E38CEF96E00E945A
:102D6000200AC8010197F1F760E38CEF96E00E941A
:102D7000200A83E592E00197F1F760E28CEF96E09C
:102D80000E94200A60910107606240E08CEF96E0AB
:102D90000E94390A84E08093020740E06CE08CEFE7
:102DA00096E00E94390A40E061E08CEF96E00E94D4
:102DB000390A0BE31FE1C8010197F1F782E0F82E11
:102DC000F092030740E066E08CEF96E00E94390A3B
:102DD00040E062E08CEF96E00E94390AC80101975A
:102DE000F1F788E08093070760E08CEF96E00E949F
:102DF000F8091B821C821D821982FA828091E906E1
:102E0000877F8093E90661E087E00E944E0461E0DD
:102E100086E00E944E0461E085E00E944E0461E07D
:102E200089E00E944E0461E088E00E944E0460E068
:102E30008DE30E944E0460E082E10E944E0461E056
:102E400087E00E94200460E086E00E9420046091F8
:102E50003C0585E00E94200460E089E00E94200497
:102E600061E088E00E94200461E081E10E944E045C
:102E700061E080E10E944E0460E080E10E94200455
:102E800061E088E10E944E0461E089E10E944E0405
:102E900061E088E10E94200460E089E10E94200452
:102EA0008DE195E090930C0280930B028091690074
:102EB000806C80936900EB9ACE0101960E941E0CF3
:102EC00061E773E089E595E00E94A10B0E94A60AE4
:102ED0000E94A90B64E670E08CEA9DE00E94B406B3
:102EE00066E970E080E090E00E94AF0464E670E084
:102EF00088EB9BE00E94B40666E970E080E090E019
:102F00000E94AF0464E670E084EC99E00E94B4068D
:102F100066E970E080E090E00E94AF0411E098EE76
:102F2000492E93E0592E612C712C28EE222E23E09D
:102F3000322E2FB7F8948091550590915605A091A7
:102F40005705B09158052FBF8093450590934605CE
:102F5000A0934705B09348058091150590911605FB
:102F6000A0911705B0911805892B8A2B8B2B31F175
:102F70008091130590911405409115055091160507
:102F800060911705709118054093390650933A06E1
:102F900060933B0670933C0690933E0680933D06FB
:102FA0001093380610921505109216051092170509
:102FB0001092180510921405109213058091E906DD
:102FC00082FD0E948C028091ED06813081F4109286
:102FD000ED0610924606109247061092480610928F
:102FE000490610924B0610924A068093450680913E
:102FF000E90682FD0E948C028091ED06823081F408
:103000001092ED0610925306109254061092550637
:1030100010925606109258061092570610935206B8
:103020008091E90682FD0E948C028091E80685FF6E
:1030300011C08F7D8093E8061092600610926106A1
:103040001092620610926306109265061092640652
:1030500010935F068091C806811139C080914506A2
:10306000882359F08091C706882319F081508093F6
:10307000C70687EC96E00E941E0C809152068823BA
:1030800059F08091C706823018F48F5F8093C7068D
:1030900087EC96E00E941E0C80915F06882331F039
:1030A0001093C80687EC96E00E941E0C10922B0627
:1030B00010923806109245061092520610925F0642
:1030C00010926C060E948C020E940A0632CF9091E8
:1030D000C906911134C090914506992339F0815069
:1030E0008093C80687EC96E00E941E0C80915206E1
:1030F0008823C9F08091C706811105C08091C80658
:10310000833038F00CC0813041F48091C80685309E
:1031100030F48F5F8093C80602C0823079F387EC69
:1031200096E00E941E0C80915F06882309F4BECFB2
:103130001093C9061093CA060E94000CB3CF809169
:103140005F068823A1F08091CB06811110C01092F8
:10315000C9061092CA060E94000C87EC96E00E94F5
:103160001E0C10923C0560E085E00E9420048091D6
:10317000C7068111AAC10091C806013009F012C129
:103180008091CA06882309F472C00E9455090093F1
:103190003C0561E085E00E94200462E773E089E578
:1031A00095E00E94A10B64E773E089E595E00E9439
:1031B000A10B609121067091220689E595E00E949D
:1031C000630B8BE793E00E946D0B61E080E00E944F
:1031D000500A66EE72E08CEF96E00E94A10B61E06F
:1031E00080E00E94500A67E873E08CEF96E00E944E
:1031F000A10B60913805709139058CEF96E00E9423
:10320000630B61E086E00E94500A6AE873E08CEF8D
:1032100096E00E94A10B61E089E00E94500A609153
:103220002106709122068CEF96E00E94630B61E00C
:103230008DE00E94500A6EE873E08CEF96E00E94E9
:10324000A10B62E080E00E94500A65E973E08CEF18
:1032500096E00E94A10B809129066AE673E0811135
:1032600002C06EE673E08CEF96E00E94A10B8091A5
:103270003705811126C480914506882309F1809184
:10328000380590913905009729F0019790933905F9
:103290008093380561E082E00E94500A65EF72E099
:1032A0008CEF96E00E94A10B61E082E00E94500A40
:1032B00060913805709139058CEF96E00E94630BA0
:1032C00080915206882319F1809138059091390533
:1032D0008F3027E2920728F4019690933905809366
:1032E000380561E082E00E94500A65EF72E08CEFE1
:1032F00096E00E94A10B61E082E00E94500A60917A
:103300003805709139058CEF96E00E94630B80912F
:103310003806882309F442C08091390690913A0614
:10332000A0913B06B0913C06809333059093340501
:10333000A0933505B093360580932F059093300503
:10334000A0933105B09332051093370568EC70E017
:1033500080E293E00E94B40686EA93E00E946D0B3F
:1033600061E08DE00E94500A66EA73E08CEF96E01F
:103370000E94A10B62E080E00E94500A66EE72E0BB
:103380008CEF96E00E94A10B63E080E00E94500A5F
:103390006EEA73E08CEF96E00E94A10B8091C70665
:1033A000811193C08091C806823009F0A6C2809135
:1033B000CA06882351F110923B0510923A0561E04C
:1033C00080E00E94500A6CE074E08CEF96E00E946E
:1033D000A10B62E174E08CEF96E00E94A10B62E029
:1033E00080E00E94500A65E174E08CEF96E00E9454
:1033F000A10B63E080E00E94500A6BE174E08CEF67
:1034000096E00E94A10B1093CB068091450688237D
:1034100001F160913B05662309F42DC610923A052F
:103420006F5F86E00E94500A60EF72E08CEF96E0DA
:103430000E94A10B60913B058FEF860F80933B05A7
:1034400086E00E94500A63E174E08CEF96E00E94EF
:10345000A10B80915206882301F160913B056230F7
:10346000E0F410923A056F5F86E00E94500A60EF28
:1034700072E08CEF96E00E94A10B60913B0581E029
:10348000860F80933B056E5F86E00E94500A63E1E1
:1034900074E08CEF96E00E94A10B80915F06882378
:1034A000A1F080913B058111F3C561E086E00E94A7
:1034B000500A6FEF72E08CEF96E00E94A10B61E280
:1034C00074E08CEF96E00E94A10B8091C7068130DA
:1034D00009F013C28091C806882309F4EFC28091D5
:1034E000CA06882309F4B3C061E080E00E94500A54
:1034F00066EF72E08CEF96E00E94A10B61E080E045
:103500000E94500A8091C8068130F9F46CEF75E092
:10351000CE0101960E94690D6AE274E0CE01019627
:103520000E94D00CBC018CEF96E00E94E204CE0118
:1035300001960E94830D40911F0650E070E060E00C
:103540002AE08CEF96E00E94DD0A8091C806823066
:10355000E9F462E076E0CE0101960E94690D6AE22C
:1035600074E0CE0101960E94D00CBC018CEF96E075
:103570000E94E204CE0101960E94830D6091210613
:10358000709122068CEF96E00E94630B8091C80632
:103590008330E9F468E076E0CE0101960E94690D7F
:1035A0006AE274E0CE0101960E94D00CBC018CEF5F
:1035B00096E00E94E204CE0101960E94830D609184
:1035C0002406709125068CEF96E00E94630B809193
:1035D000C8068430E1F46EE076E0CE0101960E94E8
:1035E000690D6AE274E0CE0101960E94D00CBC0124
:1035F0008CEF96E00E94E204CE0101960E94830DBA
:103600006091290670E08CEF96E00E94290B809172
:10361000C8068530E1F464E176E0CE0101960E94AF
:10362000690D6AE274E0CE0101960E94D00CBC01E3
:103630008CEF96E00E94E204CE0101960E94830D79
:103640006091270670E08CEF96E00E94290B809134
:10365000C8068130A1F5809145068823B1F080919C
:103660001F06823008F449C1815080931F0685E00F
:1036700090E00E946E0E40911F0650E070E060E006
:103680002AE08CEF96E00E94DD0A809152068823A2
:10369000B1F080911F06823008F02FC18F5F8093B8
:1036A0001F0685E090E00E946E0E40911F0650E0DC
:1036B00070E060E02AE08CEF96E00E94DD0A8091E5
:1036C000C8068230D1F5809145068823C1F08091EB
:1036D000210690912206009709F40FC1019790935B
:1036E00022068093210685E090E00E946E0E609194
:1036F0002106709122068CEF96E00E94630B809168
:1037000052068823D1F08091210690912206883EAE
:1037100073E0970708F0F1C001969093220680931A
:10372000210685E090E00E946E0E60912106709166
:1037300022068CEF96E00E94630B8091C8068330CE
:10374000D1F5809145068823C1F08091240690919F
:103750002506009709F4D1C0019790932506809320
:10376000240686E090E00E946E0E6091240670911F
:1037700025068CEF96E00E94630B80915206882309
:10378000D1F080912406909125068D32E1E09E07CC
:1037900008F0B3C00196909325068093240686E036
:1037A00090E00E946E0E60912406709125068CEFC9
:1037B00096E00E94630B8091C806843059F5809191
:1037C0004506882391F080912906882309F495C045
:1037D0001092290683E090E00E946E0E6091290607
:1037E00070E08CEF96E00E94290B809152068823AE
:1037F00089F080912906811180C01093290683E009
:1038000090E00E946E0E6091290670E08CEF96E0C9
:103810000E94290B8091C806853059F58091450694
:10382000882391F080912706882309F466C01092BE
:10383000270683E090E00E946E0E6091270670E0FC
:103840008CEF96E00E94290B80915206882389F024
:1038500080912706811151C01093270683E090E0E4
:103860000E946E0E6091270670E08CEF96E00E9439
:10387000290B80915F06882309F43FC08091C80618
:10388000813059F48091200690E09A838983609179
:103890001F06CE0101960E94D20E8091C80682308A
:1038A00039F48091230661E276E090E00E94040FF3
:1038B0008091C806833039F48091260664E276E070
:1038C00090E00E94040F8091C806843039F4809102
:1038D0002A0669E276E090E00E94EB0E8091C8062D
:1038E000853039F48091280667E276E090E00E9406
:1038F000EB0E0E94A60A0E94A90B8091C706823097
:1039000009F0DCC00091C806013009F0D7C08091F1
:10391000CA06882309F442C061E080E00E94500A90
:1039200066EF72E08CEF96E00E94A10B61E080E010
:103930000E94500A6FE474E08CEF96E00E94A10BA5
:1039400062E080E00E94500A61EF72E08CEF96E046
:103950000E94A10B62E080E00E94500A69E474E0DA
:103960008CEF96E00E94A10B63E080E00E94500A79
:1039700066EF72E08CEF96E00E94A10B63E080E0BE
:103980000E94500A6EE474E08CEF96E00E94A10B56
:1039900000933C0561E085E00E9420048091410590
:1039A00090914205A0914305B0914405845D9E4FDE
:1039B000AF4FBF4F40914505509146056091470577
:1039C0007091480584179507A607B70728F561E0A9
:1039D00083E00E94500A66EF72E08CEF96E00E944E
:1039E000A10B61E083E00E94500A0E94CE01BC015D
:1039F0008CEF96E00E94290B809145059091460539
:103A0000A0914705B09148058093410590934205E8
:103A1000A0934305B093440580913806882309F4A8
:103A20004DC062E084E00E94500A61EF72E08CEFCA
:103A300096E00E94A10B62E084E00E94500A40914F
:103A4000390650913A0660913B0670913C06809190
:103A50003D0590913E05A0913F05B0914005481B62
:103A6000590B6A0B7B0B2AE08CEF96E00E94DD0A73
:103A700063E084E00E94500A66EF72E08CEF96E00B
:103A80000E94A10B63E084E00E94500A60913D0611
:103A900070913E068CEF96E00E94630B8091390690
:103AA00090913A06A0913B06B0913C0680933D056B
:103AB00090933E05A0933F05B09340051092CA062F
:103AC000F5CA813009F0DEC1C0904505D0904605A9
:103AD000E0904705F090480580912B0590912C05CA
:103AE000A0912D05B0912E0588519C4FAF4FBF4F2F
:103AF0008C159D05AE05BF0588F563E087E00E9443
:103B0000500A8091330590913405A0913505B0910C
:103B10003605B701A601481B590B6A0B7B0BCE017A
:103B200001960E948B0DBE016F5F7F4F8CEF96E078
:103B30000E94E204CE0101960E94830D809145050A
:103B400090914605A0914705B091480580932B05BB
:103B500090932C05A0932D05B0932E05C09045059C
:103B6000D0904605E0904705F090480580912705E4
:103B700090912805A0912905B0912A0588539F4F5F
:103B8000AF4FBF4F8C159D05AE05BF0508F07DC03A
:103B900063E08DE00E94500A8091330590913405D6
:103BA000A0913505B0913605C81AD90AEA0AFB0A70
:103BB000C701B601A30192010E940422229DC00107
:103BC000239D900D329D900D1124C81AD90AB6017B
:103BD000CE0101960E941A0D64E6C616D10408F0C3
:103BE0004BC161E073E0CE010D960E94720D7AE048
:103BF000C716D10408F043C161E073E0CE014996D5
:103C00000E94720DBE01675E7F4FCE0143960E94F7
:103C1000690DBE01635F7F4FCE0143960E94E60CA3
:103C2000BE016F5F7F4F0E94E60CBC01CE014F9634
:103C30000E94690DCE0143960E94830DCE014996E4
:103C40000E94830DCE010D960E94830DCE01019638
:103C50000E94830DBE01615E7F4F8CEF96E00E9453
:103C6000E204CE014F960E94830D8091450590910C
:103C70004605A0914705B09148058093270590938C
:103C80002805A0932905B0932A058091380688233A
:103C900009F484CB4091390650913A0660913B0675
:103CA00070913C0680912F0590913005A0913105CF
:103CB000B09132056A017B01C81AD90AEA0AFB0AE7
:103CC000D701C6018093230590932405A093250571
:103CD000B0932605C0901F05D0902005E0902105E7
:103CE000F0902205C114D104E104F10429F08C15EF
:103CF0009D05AE05BF0540F480931F0590932005F8
:103D0000A0932105B093220540932F0550933005D1
:103D1000609331057093320580911D0590911E05C9
:103D2000019690931E0580931D0562E370E088E57F
:103D300092E00E94B40663EC73E089E595E00E948E
:103D4000A10B60911D0570911E0589E595E00E940B
:103D5000630B69E274E089E595E00E94A10B409154
:103D60002F055091300560913105709132052AE0A0
:103D700089E595E00E94DD0A62E773E089E595E058
:103D80000E94A10B63EC73E08CEC96E00E94A10B07
:103D900060911D0570911E058CEC96E00E94630BEE
:103DA00069E274E08CEC96E00E94A10B40912F0533
:103DB0005091300560913105709132052AE08CEC0C
:103DC00096E00E94DD0A62E773E08CEC96E00E94C8
:103DD000A10B62E080E00E94500A68EC73E08CEF77
:103DE00096E00E94A10B62E084E00E94500A60917C
:103DF0001D0570911E058CEF96E00E94630B6AE230
:103E000074E08CEF96E00E94A10B40912305509145
:103E100024056091250570912605CE0101960E942A
:103E20008B0DBE016F5F7F4F8CEF96E00E94E20426
:103E3000CE0101960E94830D209121063091220629
:103E400080911D0590911E058217930708F4A6CA5C
:103E500082E0809337058091390690913A06A091CF
:103E60003B06B0913C068093190590931A05A093E8
:103E70001B05B0931C0592CA63E773E0B4CE63E7F9
:103E800073E0BCCE823009F089CA68EC70E084E649
:103E900090E00E94B4066DED73E089E595E00E9424
:103EA000A10B69E274E089E595E00E94A10B4091C5
:103EB000190550911A0560911B0570911C058091A0
:103EC000330590913405A0913505B0913605481B16
:103ED000590B6A0B7B0B2AE089E595E00E94DD0A0D
:103EE00062E773E089E595E00E94A10B80912906C5
:103EF000882309F451C08091190590911A05A09169
:103F00001B05B0911C05409133055091340560911B
:103F1000350570913605841B950BA60BB70B2091C8
:103F20003805309139053A8329838B839C83AD838F
:103F3000BE83BE016D5E7F4F84E690E00E94920AD0
:103F4000EB88FC88670126E6C20ED11CBE016F5FBC
:103F50007F4F5B017CE6E70EF11CDE86CD86F50126
:103F600061915F01CE010D960E94D20EFFEFCF1A34
:103F7000DF0ACE14DF0489F78B899C8906969C8B17
:103F80008B8BBE016D5E7F4F84E690E00E94040F34
:103F900087EE93E00E946D0B61E08DE00E94500A75
:103FA00064EF73E08CEF96E00E94A10B62E080E08A
:103FB0000E94500A66EE72E08CEF96E00E94A10B20
:103FC00062E080E00E94500A6CEF73E08CEF96E0B4
:103FD0000E94A10B40911F05509120056091210581
:103FE00070912205CE0101960E948B0DBE016F5F7C
:103FF0007F4F8CEF96E00E94E204CE0101960E9472
:10400000830D63E080E00E94500A66EE72E08CEF60
:1040100096E00E94A10B63E080E00E94500A64E0F9
:1040200074E08CEF96E00E94A10B4091190550912D
:104030001A0560911B0570911C05809133059091C4
:104040003405A0913505B0913605481B590B6A0B14
:104050007B0BCE0101960E948B0DBE016F5F7F4FDF
:104060008CEF96E00E94E204CE0101960E94830D3F
:104070000E94550993C91092CB061092C90610925E
:10408000CA060E94000C87EC96E00E941E0CE1C953
:10409000813009F088C0BE01635F7F4F84E690E005
:1040A0000E94920AFC01808191819E878D87892BD5
:1040B00009F45AC0F12CE12C8D859E8506978E154A
:1040C0009F0508F451C06701F6E6CF0ED11CBE0172
:1040D0006F5F7F4F5B0147017CE6870E911CC60135
:1040E0000E94B721F50181935F01FFEFCF1ADF0A2C
:1040F0008C149D04A1F786E0FE013196DE0117962F
:1041000001900D928A95E1F789849A84AB84BC84EE
:104110006F81788589E595E00E94630B69EF72E015
:1041200089E595E00E94A10BB501A401CE0101969D
:104130000E948B0DBE016F5F7F4F89E595E00E9465
:10414000E204CE0101960E94830D62E773E089E5E7
:1041500095E00E94A10B26E0E20EF11C6EE5E6164A
:1041600062E0F60609F0A8CF60913B056F5F86E03C
:104170000E94500A6FEF72E08CEF96E00E94A10B54
:1041800066E274E08CEF96E00E94A10B80911A0623
:1041900090911B0666E070E00E94DC218CEF96E0B7
:1041A0000E94630B92C9823009F08FC963E086E0F8
:1041B0000E94500A6FEF72E08CEF96E00E94A10B14
:1041C00080913A0581110FC060913B056F5F88E0D7
:1041D0000E94500A6DE274E08CEF96E00E94A10B01
:1041E00010933A0572C986E394E00E946D0B109219
:1041F0001B0610921A066AE176E084E690E00E94BF
:10420000040F60913B056F5F88E00E94500A60E4F4
:1042100074E08CEF96E00E94A10B10923A0555C90C
:10422000CF93DF93CAE1D6E02697CE010E94830D9B
:1042300085E0C63FD807C1F7C9E7D6E02D97CE0184
:1042400007960E94830D96E0CB32D907B9F780E834
:1042500096E00E94830D8DE896E00E94830D8AE926
:1042600096E00E94830D87EA96E00E94830D84EB1E
:1042700096E00E94830D81EC96E00E94830D85E715
:1042800092E09093CD068093CC062091D80646EF1D
:10429000420F443068F08EEC820F843048F082EC9C
:1042A000820FEDE6F0E0883028F0DF91CF9108959D
:1042B000EBE6F0E03081822F8650990B443080F09D
:1042C00087EF2233A9F08BEF233391F08DEF243366
:1042D00079F082EC820F8830D0F4822F8E53990BC4
:1042E000BC0181E090E001C0880F6A95EAF78095F3
:1042F0008323443070F09EEC920F943050F02E5394
:10430000F0E0E0E0283038F4EDE6F0E004C08EEFB5
:10431000EFCFEBE6F0E08083C8CFBB27FB0155274A
:10432000AA27880F991FAA1FA41710F0A41B839512
:104330005051B9F7A05DAA3308F0A95DA193009789
:1043400079F7B111B1931192CB010C94A721DC0143
:10435000FC01672F71917723E1F7329704C07C91BC
:104360006D9370836291AE17BF07C8F30895F999F2
:10437000FECF92BD81BDF89A992780B50895262F6A
:10438000F999FECF1FBA92BD81BD20BD0FB6F8943A
:10439000FA9AF99A0FBE01960895A29FB001B39FB1
:1043A000C001A39F700D811D1124911DB29F700D3E
:1043B000811D1124911D0895AA1BBB1B51E107C04B
:1043C000AA1FBB1FA617B70710F0A61BB70B881FA5
:1043D000991F5A95A9F780959095BC01CD01089534
:1043E00097FB072E16F4009407D077FD09D00E94A2
:1043F000DC2107FC05D03EF4909581959F4F0895F0
:10440000709561957F4F0895A1E21A2EAA1BBB1BE0
:10441000FD010DC0AA1FBB1FEE1FFF1FA217B30790
:10442000E407F50720F0A21BB30BE40BF50B661FA6
:10443000771F881F991F1A9469F76095709580956A
:1044400090959B01AC01BD01CF010895052E97FB0E
:104450001EF400940E943D2257FD07D00E940422C2
:1044600007FC03D04EF40C943D22509540953095B6
:1044700021953F4F4F4F5F4F0895909580957095D0
:1044800061957F4F8F4F9F4F0895EE0FFF1F881F3D
:104490008BBF0790F691E02D19940F931F93CF9344
:1044A000DF938230910510F482E090E0E0910A07FA
:1044B000F0910B0730E020E0B0E0A0E0309799F4F5
:1044C0002115310509F44AC0281B390B2430310568
:1044D000D8F58A819B816115710589F1FB01938370
:1044E0008283FE0111C040815181028113814817EE
:1044F0005907E0F04817590799F4109761F01296A0
:104500000C93129713961C933296CF01DF91CF91A3
:104510001F910F91089500930A0710930B07F4CF92
:104520002115310551F04217530738F0A901DB017D
:104530009A01BD01DF01F801C1CFEF01F9CF9093DE
:104540000B0780930A07CDCFFE01E20FF31F819383
:1045500091932250310939832883D7CF20910807BE
:1045600030910907232B41F4209117023091180252
:104570003093090720930807209115023091160205
:104580002115310541F42DB73EB7409119025091E4
:104590001A02241B350BE0910807F0910907E21776
:1045A000F307A0F42E1B3F0B2817390778F0AC0156
:1045B0004E5F5F4F2417350748F04E0F5F1F509333
:1045C000090740930807819391939FCFF0E0E0E0C3
:1045D0009CCFCF93DF930097E9F0FC0132971382D1
:1045E0001282A0910A07B0910B07ED0130E020E0A4
:1045F0001097A1F420813181820F931F2091080729
:10460000309109072817390709F061C0F0930907AD
:10461000E0930807DF91CF910895EA01CE17DF07F5
:10462000E8F54A815B819E0141155105B1F7E90129
:10463000FB83EA8349915991C40FD51FEC17FD07FD
:1046400061F4808191810296840F951FE90199831D
:104650008883828193819B838A83F0E0E0E01296D5
:104660008D919C9113970097B9F52D913C911197DD
:10467000CD010296820F931F209108073091090700
:104680002817390739F6309751F510920B07109219
:104690000A07B0930907A0930807BCCFD383C2834E
:1046A00040815181840F951FC817D90761F44E5F6F
:1046B0005F4F88819981480F591F518340838A81B8
:1046C0009B81938382832115310509F0B0CFF0934C
:1046D0000B07E0930A079ECFFD01DC01C0CF1382D8
:1046E0001282D7CF4F925F926F927F928F929F925A
:1046F000AF92BF92CF92DF92EF92FF920F931F93F0
:10470000CF93DF938C01009799F4CB01DF91CF9188
:104710001F910F91FF90EF90DF90CF90BF90AF90DF
:104720009F908F907F906F905F904F900C944D2250
:10473000FC01E60FF71F9C0122503109E217F30735
:1047400008F4AEC0D901CD91DC911197C617D707F7
:1047500020F1C530D10578F0CE0104978617970770
:1047600050F0C61BD70B2297C193D1936D937C93C6
:10477000CF010E94E922C801DF91CF911F910F91D3
:10478000FF90EF90DF90CF90BF90AF909F908F9071
:104790007F906F905F904F9008955B01AC1ABD0AB7
:1047A0004C018C0E9D1EA0910A07B0910B07512C55
:1047B000412CF12CE12C109731F580910807909154
:1047C00009078815990509F05CC04616570608F0D8
:1047D00058C08091150290911602009741F48DB750
:1047E0009EB74091190250911A02841B950BE8174D
:1047F000F90708F055C0F0930907E0930807F9019D
:1048000071836083B8CF8D919C91119712966C90B3
:10481000129713967C901397A815B90559F56C015A
:1048200042E0C40ED11CCA14DB0420F1AC014A19C9
:104830005B09DA011296159780F0628273825183C8
:104840004083D9016D937C93E114F10471F0D70199
:104850001396FC93EE9312978ECF22968C0F9D1F8A
:10486000F90191838083F301EFCFF0930B07E0937D
:104870000A0781CF4816590608F42C017D01D3019F
:104880009ACFCB010E944D227C01009749F0AE01E6
:10489000B8010E945324C8010E94E92287016BCF0E
:1048A00010E000E068CFFB01DC0102C001900D9236
:1048B00041505040D8F70895FB01DC0101900D9262
:1048C0000020E1F7089511E0CAE9D1E000E006C058
:1048D000802FFE010E9445222196011DCB39D10770
:0A48E00080E00807A9F7F894FFCF65
:1048EA00FFE104E104E104E104E104E104E104E19B
:1048FA00040000000100000C0780000000400014C2
:10490A000054005304580462041B04000000000011
:10491A00000000000000006A046E0473047A048632
:10492A0004930400000000000000009A049F04AAF7
:10493A0004AF0400000000000000000000000000B6
:10494A000000009D05F0043405EA05650543055796
:10495A0005000000008409F004B1066106700688AB
:10496A0006470600000000820AF004B106B0060DF0
:10497A000A00436F6E6669673A200046535F4B45EB
:10498A00593A20004D4F44453A20004C4150535F5C
:10499A004E3A200053454E534F525F49474E4F52AD
:1049AA00455F54494D453A20004D5554453A20003B
:1049BA00534156455F524553554C54533A200020B3
:1049CA0020202020202020202020202020202020DD
:1049DA0020202020202020202020003C2D002D3EB9
:1049EA0000300046697273742073746172742C20EB
:1049FA0077726974696E672064656661756C747331
:104A0A002E2E2E00446F6E650052414345204D4FB5
:104A1A004445004C415053204E554D424552005397
:104A2A00454E532049474E4F524520544D5400534A
:104A3A0041564520544F20454550524F4D004D5543
:104A4A00544520534F554E445300594553004E4F39
:104A5A00000A0A004C6170733A2000203A2052651D
:104A6A006164792E2E2E00523A00204C3A002052D0
:104A7A0065616479005341564520544F204545509D
:104A8A00524F4D3A20005374617274656400546940
:104A9A006D65723A2020202020202020202020200E
:104AAA002020004C617020004C61702020202020C2
:104ABA002020202020202020202020200046696E4F
:104ACA0069736865642000526573756C742073613C
:104ADA0076656400526561647920200042657374CA
:104AEA003A202000416C6C3A2020200053686F77EE
:104AFA002000203C005072696E7400436C6561723C
:104B0A0000204F4B2000204F4B203A2000205375A5
:104B1A0072653F202000436C65617220616C6C00F5
:104B2A0020436C65617265640064743A20006956BA
:104B3A003A200052616365004765742072656164BA
:104B4A007900526573756C747300536574004D6F08
:104B5A006465004C617073204E0049676E6F726520
:104B6A002074696D65005361766520726573756C92
:104B7A00747300536F756E647300546573740041E7
:104B8A006C6C2076616C7565730054696D650042C2
:064B9A006C696E6B000067
:00000001FF
